:100000000C944D0B0C94EF860C9420870C94518724
:100010000C9482870C94B3870C94E4870C94158815
:100020000C9446880C947A0B0C947A0B0C947A0BF3
:100030000C947A0B0C94D9910C947A0B0C947A0B47
:100040000C947A0B0C9492640C947A0B0C947A0BAB
:100050000C947A0B0C947A0B0C947A0B0C94778892
:100060000C947A0B0C94D18A0C94F98B0C947A0B27
:100070000C947A0B0C947A0B0C947A0B0C947A0BEC
:100080000C9465640C947A0B0C947A0B0C947A0B98
:100090000C940A8B0C94388C0C947A0B0C94E065BD
:1000A0000C947A0B0C947A0B0C9438640C947A0BA5
:1000B0000C947A0B0C947A0B0C947A0B0C940B64C2
:1000C0000C947A0B0C947A0B0C947A0B0C94438B53
:1000D0000C94778C0C947A0B0C947C8B0C94B68CCF
:1000E0000C947A0B084AD73B3BCE016E84BCBFFD13
:1000F000C12F3D6C74319ABD56833DDA3D00C77FF8
:1001000011BED9E4BB4C3E916BAAAABE0000008090
:100110003F05A84CCDB2D44EB93836A9020C50B91F
:10012000918688083CA6AAAA2ABE000000803F0744
:10013000634236B79BD8A71A39685618AEBAAB5582
:100140008C1D3CB7CC5763BD6DEDFD753EF6177247
:1001500031BF000000803F08000000BE9224491219
:100160003EABAAAA2ABECDCCCC4C3E00000080BE3D
:10017000ABAAAAAA3E00000000BF000000803F001A
:1001800000000000084178D3BB4387D1133D190E0E
:100190003CC3BD4282AD2B3E68EC8276BED98FE176
:1001A000A93E4C80EFFFBE01C4FF7F3F000000006E
:1001B000005452494D5F4155544F004152535044F1
:1001C0005F524154494F005343414C494E475F539E
:1001D00050454544004C4F475F4249544D41534BB5
:1001E00000B101BB01C701D501524C4C32535256EC
:1001F0005F5000524C4C325352565F4900524C4CA7
:10020000325352565F4400524C4C325352565F495F
:100210004D415800524C4C325352565F524D41584A
:1002200000524C4C325352565F54434F4E5354007D
:1002300050544348325352565F5000505443483252
:100240005352565F490050544348325352565F440C
:100250000050544348325352565F494D4158005064
:10026000544348325352565F524D41585F555000E7
:1002700050544348325352565F524D41585F444E9A
:100280000050544348325352565F54434F4E5354D8
:100290000050544348325352565F524C4C0059411F
:1002A00057325352565F534C4950005941573253BD
:1002B00052565F44414D5000594157325352565F98
:1002C000524C4C00594157325352565F494E5400DC
:1002D000E901F301FD0107021402210230023B0291
:1002E000460251025F027002810291029E02AB023D
:1002F000B802C4024E41564C315F504552494F44FA
:10030000004E41564C315F44414D50494E470057D5
:10031000505F524144495553004C494D5F524F4C38
:100320004C5F434400F40201030F0319034152538D
:1003300050445F4642575F4D494E0041525350442E
:100340005F4642575F4D4158005448525F4D494EF9
:10035000005452494D5F5448524F54544C45005438
:1003600048525F4D4158004C494D5F5049544348F5
:100370005F4D494E004C494D5F50495443485F4DD5
:10038000415800544543535F53494E4B5F4D494ECE
:1003900000544543535F53494E4B5F4D4158005401
:1003A0004543535F434C4D425F4D415800544543D4
:1003B000535F54494D455F434F4E5354005445439A
:1003C000535F505443485F44414D50002D033B035D
:1003D000490351035F0367037503830391039F037D
:1003E000AD03BD035448525F4D494E004352554939
:1003F00053455F5448524F54544C45005448525F43
:100400004D4158005448525F534C45575241544552
:10041000005354454552325352565F500053544591
:100420004552325352565F49005354454552325358
:1004300052565F44005354454552325352565F4919
:100440004D4158005354454552325352565F544320
:100450004F4E5354005455524E5F4D41585F470024
:100460004E41564C315F504552494F440053504520
:1004700045445F5455524E5F4741494E00535045E5
:1004800045445F5455524E5F4449535400534B49C1
:10049000445F53544545525F4F555400534B4944B4
:1004A0005F53544545525F494E0046535F414354A4
:1004B000494F4E0046535F54494D454F55540046F1
:1004C000535F5448525F454E41424C450046535F8E
:1004D0005448525F56414C554500E403EC03FC037D
:1004E000040411041D042904350444045504600463
:1004F0006D047D048D049C04AA04B404BF04CD04DF
:100500005448525F4D494400534F4E41525F454E4F
:1005100041424C4500534F4E41525F5459504500A3
:10052000534F4E41525F4741494E00424154545F40
:1005300043415041434954590046535F424154544A
:100540005F454E41424C450046535F4750535F451F
:100550004E41424C450046535F4743535F454E4131
:10056000424C45004D41475F454E41424C45004C91
:10057000414E445F5350454544005448525F4D49F5
:100580004E005448525F4D415800000508051505BE
:1005900020052B0539054805560564056F057A05C4
:1005A0008205524154455F524C4C5F5000524154B9
:1005B000455F524C4C5F4900524154455F524C4C90
:1005C0005F4400524154455F524C4C5F494D415885
:1005D00000524154455F5049545F500052415445C8
:1005E0005F5049545F4900524154455F5049545F40
:1005F0004400524154455F5049545F494D415800B1
:10060000524154455F5941575F5000524154455F34
:100610005941575F4900524154455F5941575F4422
:1006200000524154455F5941575F494D415800546C
:1006300048525F524154455F50005448525F524106
:1006400054455F49005448525F524154455F44004D
:100650005448525F524154455F494D415800A205EC
:10066000AD05B805C305D105DC05E705F2050006B3
:100670000B06160621062F063A064506500624509C
:100680005542582C34312C312C303030332C303012
:1006900030312C33383430302C302A32360AB562BF
:1006A00006010300010601124F000341000004008F
:1006B00001010100010505000000050720600000A0
:1006C00000000000005F00000007000700147F1416
:1006D0007F14242A7F2A1223130864623649552284
:1006E000500005030000001C2241000041221C00B4
:1006F000082A1C2A0808083E080800503000000894
:1007000008080808006060000020100804023E513C
:1007100049453E00427F40004261514946214145E2
:100720004B311814127F1027454545393C4A494939
:100730003001710905033649494936064949291EE0
:10074000003636000000563600000008142241141E
:1007500014141414412214080002015109063249EC
:1007600079413E7E1111117E7F494949363E414112
:1007700041227F4141221C7F494949417F090901AA
:10078000013E414151327F0808087F00417F41000E
:100790002040413F017F081422417F404040407F7C
:1007A0000204027F7F0408107F3E4141413E7F09E1
:1007B0000909063E4151215E7F09192946464949EA
:1007C000493101017F01013F4040403F1F2040204F
:1007D0001F7F2018207F6314081463030478040328
:1007E000615149454300007F414102040810204106
:1007F000417F0000040201020440404040400001EB
:1008000002040020545454787F4844443838444407
:100810004420384444487F3854545418087E090111
:1008200002081454543C7F0804047800447D4000BE
:100830002040443D00007F10284400417F40007C60
:10084000041804787C0804047838444444387C1440
:10085000141408081414187C7C0804040848545420
:100860005420043F4440203C4040207C1C20402039
:100870001C3C4030403C44281028440C5050503C14
:100880004464544C44000836410000007F000000DE
:100890004136080008082A1C08081C2A08081414F5
:1008A000000000000040800000008030070C300095
:1008B000000000000080E0F8FFF8F9FCF8E0FFFE1F
:1008C000FEFEFEFFF8E000000C0F0F0F0F0F0F0FE2
:1008D0000F0F0F0F0F0F0F0F0F0F0F08101000004B
:1008E0000080EC0C1064C4C2E2F27E1E0000000026
:1008F0000087C4C6C6DFFFFF7301000000000808C0
:1009000000007E0A1B127E00080804150E2470A841
:100910002000101000101010101010547C3810001F
:1009200000000000000000000808080808082A3E2F
:100930001C080000546869732077696C6C20617032
:10094000706C79207468650A6368616E67657320EE
:100950006D61646520746F207468650A2073657426
:1009600074696E67732C2070726573730A20204F50
:100970004B20746F2055706C6F6164005468726F07
:1009800074746C65206D696E0A43727569736520B5
:1009900054687220200A5468726F74746C65206DFC
:1009A00061780A54687220536C6577726174650AC5
:1009B0005374656572696E67205020200A53746510
:1009C0006572696E67204920200A537465657269F3
:1009D0006E67204420200A5374656572696E67490A
:1009E0006D61780A5374656572696E6754636F6EE2
:1009F0000A5475726E204D6178204720200A4E619E
:100A000076204C31506572696F640A5370642054CB
:100A100075726E4761696E0A537064205475726E08
:100A2000446973740A536B69642073747220696E2D
:100A3000200A536B696420737472206F75740A46C0
:100A40005320416374696F6E2020200A465320545E
:100A5000696D656F757420200A46532054687220B2
:100A6000656E2020200A4653205468722076616CFF
:100A700075650A004169727370656564204D696E21
:100A80000A4169727370656564204D61780A546823
:100A9000726F74746C65204D696E0A546872746C60
:100AA000204372756973650A5468726F74746C655B
:100AB000204D61780A5069746368204D696E20206A
:100AC000200A5069746368204D61782020200A5400
:100AD0004543532053696E6B4D696E0A5445435329
:100AE0002053696E6B4D61780A5445435320436C23
:100AF0006D624D61780A54454353205420436F6E14
:100B000073740A546563732050636844616D700A9E
:100B1000004C3120506572696F642020200A4C31EE
:100B20002044616D70696E6720200A575020526121
:100B3000646975732020200A4C696D20526F6C6CBB
:100B4000204344200A00526F6C6C2050202020204B
:100B500020200A526F6C6C20492020202020200A7F
:100B6000526F6C6C20442020202020200A526F6C91
:100B70006C20496D61782020200A526F6C6C2052E5
:100B80006D61782020200A526F6C6C205420436FD6
:100B90006E73740A506974636820502020202020EE
:100BA0000A5069746368204920202020200A506977
:100BB000746368204420202020200A5069746368F0
:100BC00020496D617820200A506974636820526D55
:100BD000617855700A506974636820526D61784479
:100BE0006E0A50697463682054436F6E73740A50C0
:100BF00069746368203220526F6C6C0A59617720E7
:100C0000536C6970202020200A5961772044616D5F
:100C100070202020200A59617720526F6C6C2020B0
:100C200020200A59617720496E7420202020200A54
:100C300000496E466C696768745472696D0A41694F
:100C400072736420526174696F200A5363616C6926
:100C50006E6753706565640A4C6F67204269746DF6
:100C600061736B200A005468726F74746C6520485D
:100C70006F760A536F6E617220456E61626C650A11
:100C8000536F6E6172205479706520200A536F6E25
:100C90006172204761696E20200A42617474657236
:100CA0007920436170200A465320426174742045C4
:100CB0006E2E200A46532047505320456E2E20208A
:100CC0000A46532047435320456E2E20200A4D618B
:100CD0006720456E61626C6520200A4C616E64205D
:100CE000537065656420200A5468726F74746C6573
:100CF000204D696E0A5468726F74746C65204D6182
:100D0000780A0022080A0E20600402050607080976
:100D10000203030508020402040704070707070784
:100D20000707070202070707080E09080808070750
:100D30000908020708070B08090709090708080935
:100D40000D0708080404040608030707060707053B
:100D50000707020306020A07070707050605070734
:100D60000B0607050501050708000000000000004C
:100D700000FEFE18181E1E001E1E0000000000903F
:100D8000F89E90F89E1C00001C0000183C26FF6690
:100D9000CC88040C183C180C041C221CC0308E405B
:100DA0008000001804000C100C80CC7E72F2DE0C67
:100DB00080000C1C1010101C0C1C101E1E0000F0DB
:100DC000FC061C7CC006FCF0C07C1C14140E141421
:100DD0000000000000606060FCFC606060000000DB
:100DE0000C0C00000000005838C0C0C0C00000005B
:100DF000000000181800C0380618040000F8FC0EA7
:100E0000060EFCF8040C1C181C0C04180CFEFE004A
:100E1000001C1C181C86C6663E1C181C1C181818C2
:100E200018888C062626FEDC040C1C18180C04C03E
:100E3000E0B88CFEFE80040404041C1C04707E3E9A
:100E40003636F6C60C1C1818180C04F8FC6E6666CC
:100E5000EECC040C1818181C0C060606E6761E06C6
:100E600000001C1C0000009CFE666666FE9C0C1CBC
:100E70001818181C0C3C7E666666FCF80C1C1818CA
:100E80001C0C0418181818181858386060F0F098DE
:100E9000980C0000000004040CD8D8D8D8D8D8D8B2
:100EA000000000000000000C9898F0F060600C0456
:100EB0000400000000080C06C6E6763C180000009E
:100EC0001818000000E03008C4F63A1A1AF2FA7E48
:100ED0000408F00C30604C9C98988C9C9C90484C7A
:100EE0002000C0F8BE86BEF8C000181C040404042C
:100EF000041C18FEFE66666666FEDC1C1C181818CC
:100F0000181C0CF8FC0E06060E9C08040C1C181885
:100F10001C0C04FEFE0606060EFCF81C1C18181815
:100F20001C0C04FEFE66666666661C1C1818181803
:100F300018FEFE66666666061C1C0000000000F8CF
:100F4000FC0E0606C6CEDCC8040C1C181818180CBB
:100F500004FEFE60606060FEFE1C1C000000001CC1
:100F60001CFEFE1C1C8080000000FEFE0C1C1818DD
:100F7000181C0CFEFE603078EC86021C1C00000081
:100F8000041C18FEFE00000000001C1C1818181895
:100F900018FEFE0E7CE000E07C0EFEFE1C1C000035
:100FA0000C1C0C00001C1CFEFE1C78E080FEFE1CCD
:100FB0001C0000040C1C1CF8FC0E0606060EFCF8B7
:100FC000040C1C1818181C0C04FEFE6666667E3C99
:100FD0001C1C0000000000F8FC0E0686060EFCF843
:100FE000040C1C18181C0C1C24FEFE6666E6E6BEEB
:100FF0001C001C1C0000000C1C18103C7E66666661
:10100000EECC0C1C1818181C0C060606FEFE060674
:10101000060000001C1C000000FEFE00000000FE98
:10102000FE040C1C18181C0C04021EFCE000E0FC62
:101030001E020000001C1C1C00000006FEF800F050
:10104000FE0EFEF000F8FE0600001C1C1C00000056
:101050001C1C1C0000060EF8F0F80E06181C0400FC
:10106000041C18060E38F0F0380E060000001C1C98
:10107000000000060686E6761E0E06181C1C1818D0
:10108000181818FEFE0606FCFCC0C00638C000009A
:101090000004180606FEFEC0C0FCFC20380E0E3808
:1010A00020000000000000000000000000000080A0
:1010B000808080808080800206040000001098D824
:1010C00058F8F0000C1C18180C1C10FEFE301838D4
:1010D000F0E01C1C0C181C0C04E0F018183830044C
:1010E0000C18181C0CE0F0381830FEFE040C1C180C
:1010F0000C1C1CE0F0D8D8D8F0E0040C1818181814
:101100000818FCFE1A1A001C1C0000E0F038183009
:10111000F8F864ECDCD8CCFC7CFEFE301818F8F053
:101120001C1C0000001C1CFAFA1C1C00FAFAC0FC73
:101130007CFEFEE0F098081C1C00041C18FEFE1C3F
:101140001CF8F81018F8F01818F8F01C1C00001C17
:101150001C00001C1CF8F8301818F8F01C1C0000CB
:10116000001C1CE0F0381838F0E0040C1C181C0CB3
:1011700004F8F8301838F0E0FCFC0C181C0C04E003
:10118000F0381830F8F8040C1C180CFCFCF8F83097
:1011900018181C1C00000070F8D8D8D8900818182F
:1011A000181C0C18FCFE1818000C1C1818F8F80075
:1011B0000000F8F80C1C18180C1C1C38F8C000C0F3
:1011C000F83800001C1C1C000018F8E000F038F093
:1011D00000E0F81800001C1C0C000C1C1C0000187F
:1011E00038E0E03818181C04041C1818F8E000E077
:1011F000F8180084FCF83C04001898D878381C1CB7
:1012000018181880FC7E0606007CFCC0C0FEFC0698
:10121000067EFC80C0C0FC7C0060303070606030B6
:1012200000000000000000FE020202020202FE1C9A
:101230001010101010101C53657269616C205370EF
:101240006565640A4C6F7720566F6C746167652022
:101250000A55736520436F6D70617373200A537470
:101260007265616D2052617465200A4D7574652048
:10127000427574746F6E730A416C61726D20536FA6
:10128000756E64730A4D4156204E756D626572200D
:10129000200A4750532054797065202020200A539B
:1012A00044204C6F6767696E6720200A54582048B5
:1012B00065617274626561740A526570656174205B
:1012C00052617465200A5265706561742044656CD2
:1012D00061790A4B657920526F746174696F6E0A87
:1012E00000202020526F6C6C2050697463682020AD
:1012F000596177002020546869732077696C6C20ED
:1013000072657365740A20202020746865206D69F9
:101310007373696F6E0A20202020507265737320EA
:101320004F4B20746F0A202020202020436F6E66D0
:1013300069726D0020546869732077696C6C207243
:101340006571756573740A20207468652070617218
:10135000616D65746572730A202020507265737325
:10136000204F4B20746F0A2020202020436F6E6690
:1013700069726D00202020546869732077696C6C55
:101380002073746F700A2020207468652064617473
:10139000612073747265616D0A202020205072658F
:1013A0007373204F4B20746F0A202020202020438D
:1013B0006F6E6669726D0020546869732077696C7E
:1013C0006C20726573746172740A202074686520E1
:1013D000646174612073747265616D0A202020500D
:1013E00072657373204F4B20746F0A2020202020D9
:1013F000436F6E6669726D00546869732077696C1B
:101400006C20696E697469616C6973650A20207467
:10141000686520474353277320486F6D650A706FD6
:10142000736974696F6E2E20456E737572652074D2
:1014300068650A554156206973206E65787420747A
:101440006F2047435300546869732077696C6C20A0
:10145000696E697469616C6973650A7468652041B5
:1014600069726372616674277320486F6D650A70D4
:101470006F736974696F6E2E20456E737572652087
:1014800069740A6973202A2A6F6E20746865204780
:10149000524F554E442A2A0052657374617274206B
:1014A0004D697373696F6E0A526571756573742047
:1014B000506172616D65746572730A53746F702048
:1014C000446174612053747265616D0A52652D72B6
:1014D0006571756573742053747265616D0A536527
:1014E000742047435320486F6D650A5265736574D5
:1014F0002055415620486F6D65004552524F52208D
:1015000000555020202020004C4546542020004407
:101510004F574E2020005249474854200045525210
:101520004F5220004F4E20202020004F46462020C2
:1015300020004552524F52200031313532303000B8
:1015400035373630302000333834303020003139F0
:101550003230302000393630302020007C3C3E5E76
:101560002B3D3F2F5B5D3B2C2A225C0000002100BD
:10157000240027002A002D00300033000101000064
:10158000040107010A0100002200250028002B00A9
:101590002E003100340002010000050108010B019A
:1015A000000020002300260029002C002F0032001C
:1015B00000010000030106010901050505050705F5
:1015C00008080808020202020A0A080804040404BF
:1015D00001010101010101010303030303030303EB
:1015E000040707070C0C0C0C0C0C0C0C020202027A
:1015F00006060606060606060B0B0B0B0B0B0B0B63
:101600000102102020080810204010204080020114
:1016100002010804020101020408102040808040F9
:1016200020100804020180040201804020100804F8
:101630000201080402010102040810204080010296
:101640000408102040800000090A02080B0C0D0756
:10165000060304010000000000000000000000007C
:10166000000000000000000000000000000000007A
:10167000000011100F00000000000000000000003A
:101680000000000000000000000000000200AE5555
:10169000EF64C068B17D208EA95511241FBECFEF25
:1016A000D1E2DEBFCDBF00E00CBF18E0A0E0B2E0A9
:1016B000E6E4F6E301E00BBF02C007900D92A03F05
:1016C000B107D9F71BBE1AE1A0EFB8E001C01D9227
:1016D000AD34B107E1F716E1C8E9D6E104C02297BD
:1016E000FE010E94DC9ACE38D107C9F70E943E8FD6
:1016F0000C94179B0C940000CF93DF93BC018230B5
:10170000910510F462E070E0A0914B1AB0914C1A70
:10171000ED01E0E0F0E040E050E021C088819981F7
:101720008617970769F48A819B81309719F0938314
:10173000828304C090934C1A80934B1AFE0134C0EC
:101740006817790738F44115510519F08417950782
:1017500008F4AC01FE018A819B819C01E90120977C
:10176000E9F641155105A9F1CA01861B970B0497AB
:1017700008F4BA01E0E0F0E02AC08D919C91119745
:1017800084179507F9F46417750781F412968D9103
:101790009C911397309719F09383828304C09093A0
:1017A0004C1A80934B1AFD0132964CC0CA01861B1D
:1017B000970BFD01E80FF91F6193719302978D93C9
:1017C0009C9340C0FD01828193819C01D9011097B7
:1017D000A1F68091491A90914A1A892B41F480917F
:1017E000390590913A0590934A1A8093491A40918D
:1017F0003B0550913C054115510541F44DB75EB78D
:101800008091370590913805481B590B2091491A52
:1018100030914A1ACA01821B930B8617970780F0F2
:10182000AB014E5F5F4F8417950750F0420F531F77
:1018300050934A1A4093491AF9016193719302C077
:10184000E0E0F0E0CF01DF91CF910895CF93DF93F7
:10185000009709F450C0EC0122971B821A82A091D4
:101860004B1AB0914C1A109709F140E050E0AC17B8
:10187000BD0708F1BB83AA83FE0121913191E20FDC
:10188000F31FAE17BF0779F48D919C911197280F24
:10189000391F2E5F3F4F3983288312968D919C917B
:1018A00013979B838A834115510571F4D0934C1A89
:1018B000C0934B1A20C012968D919C911397AD0145
:1018C000009711F0DC01D3CFFA01D383C2832191B9
:1018D0003191E20FF31FCE17DF0769F488819981F8
:1018E000280F391F2E5F3F4FFA01318320838A81F1
:1018F0009B8193838283DF91CF910895FB01DC016B
:1019000002C005900D9241505040D8F70895FB0158
:10191000DC0105900D920020E1F70895FB01DC0148
:1019200004C08D910190801921F441505040C8F7B6
:10193000881B990B0895FB01DC0102C001900D92F8
:1019400041505040D8F70895DC0101C06D934150DB
:101950005040E0F70895FC018191861721F088231B
:10196000D9F7992708953197CF010895FB01DC013C
:101970004150504030F08D910190801919F40020B1
:10198000B9F7881B990B0895FB01DC0141505040C9
:1019900048F001900D920020C9F701C01D924150FE
:1019A0005040E0F70895AEE0B0E0E9EDFCE00C94C3
:1019B000EE9A0E891F8986E08C831A8309838FEF44
:1019C0009FE79E838D839E01265E3F4FCE01019649
:1019D000688D798DA9010AD02F813885020F131FD8
:1019E000F80110822E96E4E00C940A9BABE0B0E084
:1019F000ECEFFCE00C94E09A3C012B015A01FC0155
:101A000017821682838181FD03C06FEF7FEFB9C11A
:101A10009AE0892E1E010894211C311CF3012381B8
:101A2000F20123FD859123FF81912F01882309F481
:101A3000A5C1853239F423FD859123FF81912F01C2
:101A4000853221F490E0B301B7D1E8CF982FFF247D
:101A5000EE249924FFE1FF15D0F09B3269F09C320F
:101A600028F4903259F0933291F40EC09D3249F02F
:101A7000903369F441E024C052E0F52A84E0F82A6A
:101A800028C098E0F92A25C0E0E1FE2A22C0F7FC30
:101A900029C0892F80538A3070F4F6FE05C0989CC7
:101AA000902C1124980E15C0E89CE02C1124E80E0F
:101AB000F0E2FF2A0EC09E3229F4F6FC5FC140E43A
:101AC000F42A07C09C3619F450E8F52A02C098366B
:101AD00049F4F20123FD959123FF91912F01992360
:101AE00009F0B8CF892F8554833018F080528330A5
:101AF00038F444E050E0A40EB51E5FE359830FC0F4
:101B0000933631F0933779F0933509F052C01FC006
:101B1000F5018081898342E050E0A40EB51E610189
:101B200001E010E011C0F501C080D180F6FC03C0D7
:101B30006FEF7FEF02C0692D70E042E050E0A40E2D
:101B4000B51EC6012ED18C015FE7F52213C0F50149
:101B5000C080D180F6FC03C06FEF7FEF02C0692D1B
:101B600070E042E050E0A40EB51EC6010FD18C011A
:101B700050E8F52AF3FE06C018C080E290E0B301F9
:101B80001BD1EA948E2D90E008171907B0F30DC011
:101B9000F601F7FC8591F7FE81916F0190E0B301AA
:101BA0000BD1E110EA94015010400115110581F7A5
:101BB000E2C0943611F0993661F5F7FE08C0F501E0
:101BC000208131814281538184E090E00AC0F50197
:101BD000808191819C01442737FD4095542F82E0FC
:101BE00090E0A80EB91E9FE6F92257FF09C0509554
:101BF0004095309521953F4F4F4F5F4FE0E8FE2ACB
:101C0000CA01B901A1012AE030E002D1D82ED218D0
:101C10003FC0953729F41F2D1F7E2AE030E01DC0FC
:101C20001F2D197F9F3661F0903720F4983509F009
:101C3000A5C00FC0903739F0983709F09FC004C095
:101C400028E030E00AC0106114FD146020E130E0AB
:101C500004C014FD166020E132E017FF08C0F50152
:101C6000608171818281938144E050E008C0F50178
:101C700080819181BC0180E090E042E050E0A40EC0
:101C8000B51EA101C5D0D82ED2188FE7F82EF122AB
:101C9000F6FE0BC05EEFF522D91438F4F4FE07C04F
:101CA000F2FC05C08FEEF82202C01D2D01C0192DD7
:101CB000F4FE0DC0FE01ED0DF11D8081803319F49D
:101CC00099EEF92208C01F5FF2FE05C003C08F2DF8
:101CD000867809F01F5F0F2DF3FC13C0F0FE0EC0D5
:101CE0001E1510F09D2C0AC09D2C9E0C911A1E2DC5
:101CF00005C080E290E0B3015FD01F5F1E15C8F3FE
:101D000004C01E1510F4E11A01C0EE2404FF0EC039
:101D100080E390E0B30150D002FF1BC001FD03C07F
:101D200088E790E00EC088E590E00BC0802F8678B1
:101D300081F001FF02C08BE201C080E2F7FC8DE27E
:101D400090E0B30139D005C080E390E0B30134D016
:101D50009A94D914C8F3DA94F101ED0DF11D808144
:101D600090E0B30129D0DD20B1F705C080E290E01A
:101D7000B30122D0EA94EE20C9F750CEF301668178
:101D80007781CB012B96E2E10C94FC9AFC01059043
:101D9000615070400110D8F7809590958E0F9F1F6D
:101DA0000895FC016150704001900110D8F78095B2
:101DB00090958E0F9F1F08950F931F93CF93DF93DE
:101DC0008C01EB018B8181FF1BC082FF0DC02E8136
:101DD0003F818C819D812817390764F4E881F9815E
:101DE0000193F983E88306C0E885F985802F19956A
:101DF000892B31F48E819F8101969F838E8302C04F
:101E00000FEF1FEFC801DF91CF911F910F91089540
:101E1000FA01AA27283051F1203181F1E8946F931B
:101E20006E7F6E5F7F4F8F4F9F4FAF4FB1E03ED0C1
:101E3000B4E03CD0670F781F891F9A1FA11D680F5F
:101E4000791F8A1F911DA11D6A0F711D811D911D92
:101E5000A11D20D009F468943F912AE0269F112407
:101E60003019305D3193DEF6CF010895462F47706B
:101E7000405D4193B3E00FD0C9F7F6CF462F4F70C6
:101E8000405D4A3318F0495D31FD4052419302D024
:101E9000A9F7EACFB4E0A6959795879577956795CA
:101EA000BA95C9F700976105710508959B01AC01CA
:101EB0000A2E06945795479537952795BA95C9F7F1
:101EC000620F731F841F951FA01D0895FF920F932B
:101ED0001F93CF93DF93EC01F02E8EEF8A832B8339
:101EE0006D834E8380912A0F8C838F5F80932A0F9E
:101EF000022F10E0F8013596DE0113966FEF7FEFA9
:101F00002D912627822F8295807F822790E0382F7F
:101F10002227AC01440F551F440F551F440F551F76
:101F200024273527672F77276227732724E0959585
:101F300087952A95E1F768277927319709F72F2D9B
:101F40002627822F8295807F822790E0382F2227B4
:101F5000AC01E3E0440F551FEA95E1F7242735274C
:101F6000472F55272427352744E0959587954A958F
:101F7000E1F728273927DE0118968B81FD01E80F4C
:101F8000F11D20838B81A80FB11D11963C93980100
:101F9000285F3F4FC901DF91CF911F910F91FF90B3
:101FA000089560E070E080E09FE308956091F60B93
:101FB0007091F70B882777FD8095982F0E94D79610
:101FC00020E030E040EF51E40E943C9620E030E019
:101FD00040EA5BE30E944E982DEC3CEC4CEC5DE358
:101FE0000C946F95089508950F931F938C01DC0155
:101FF000ED91FC910680F781E02D1995D801ED91C6
:10200000FC910084F185E02DC80119951F910F9175
:1020100008950895089508950895089508950895D8
:10202000089508950895089508950895CF92DF9230
:10203000EF92FF920F931F93DF93CF93CDB7DEB74D
:1020400028970FB6F894DEBF0FBECDBF7C01122FCC
:10205000D32E19821A8285EB8B8382E68C836D8363
:102060004E83C02E0F831886FE01359620E090E047
:10207000AE01475F5F4F03C08191980F290FE417AE
:10208000F507D1F72A839983812F9D2D9C01F901B2
:1020900008C081919981890F89839A81980F9A83C9
:1020A00001500023B1F7D701D196ED91FC91D29761
:1020B000A081B18112962D913C911397CF01BE0161
:1020C0006D5F7F4F46E050E0F9011995D701D19639
:1020D000ED91FC91D297A081B18112962D913C9106
:1020E0001397CF01612F7D2D4C2D50E0F9011995EB
:1020F000D701D196ED91FC91D297A081B181129632
:102100002D913C911397CF01BE016F5F7F4F41E04E
:1021100050E0F9011995D701D196ED91FC91D29734
:10212000A081B18112962D913C911397CF01BE01F0
:102130006E5F7F4F41E050E0F901199528960FB688
:10214000F894DEBF0FBECDBFCF91DF911F910F91ED
:10215000FF90EF90DF90CF9008950F93DF93CF9390
:1021600000D0CDB7DEB769834A832B8366E041E0B8
:102170009E012F5F3F4F03E059DF0F900F900F90AC
:10218000CF91DF910F9108950F93CF93DF93EC01DF
:10219000CD59DF4F0881C356D040053009F457C1EF
:1021A000063009F5C35ADF4F8881CD55D0408432BF
:1021B000E1F42DA93EA98FEF2F3F380709F447C15D
:1021C000FE01E759FF4F808190E08217930709F4E1
:1021D0003EC12083CE0166E044E2C959DF4F9E0133
:1021E00004E224DF34C1013091F0FE01EA59FF4FCF
:1021F00080818F5F8083882309F029C1FE01E35A23
:10220000FF4FCE01CD59DF4F68814081FEC0C35AD8
:10221000DF4F8881CD55D040833009F44FC08430E2
:1022200020F4823009F0E4C007C0863009F462C0AF
:10223000823109F0DDC087C0C959DF4F888199819B
:10224000AA81BB81C756D0408A839B83AC83BD8360
:10225000C559DF4F88819981AA81BB81CB56D04077
:102260008E879F87A88BB98BC159DF4F8881998151
:10227000AA81BB81CF56D0408A879B87AC87BD8718
:10228000C958DF4F688179818A819B81C757D040C7
:102290002AE030E040E050E00E94AB9A2A8B3B8B72
:1022A0004C8B5D8BC556DF4F8881CB59D0408EA3B8
:1022B000CC59DF4F0883C456D040AAC0C459DF4F61
:1022C0008881CC56D04080FD02C090E009C090E0EB
:1022D000C559DF4F8881CB56D040833009F491E057
:1022E000C556DF4F9883CB59D040992309F090C051
:1022F0001EA28EC0CE58DF4F8881C257D04080FDCD
:1023000002C090E009C090E0CF58DF4F8881C157EC
:10231000D040833009F491E0C556DF4F9883CB5904
:10232000D040992309F41EA2CA56DF4F8881C659AE
:10233000D0408CA3CD56DF4F88819981C359D040BE
:102340009BA38AA365C0C958DF4F88819981AA8160
:10235000BB81C757D0408E8F9F8FA8A3B9A3C55804
:10236000DF4F88819981AA81BB81CB57D0408E8B6A
:102370009F8BA88FB98FC158DF4F688179818A817F
:102380009B81CF57D04028EE33E040E050E00E94E0
:10239000AB9A2A8F3B8F4C8F5D8FCD5BDF4F0883CD
:1023A000A89688819981AA81BB81CB56D0408FABFA
:1023B00098AFA9AFBAAFC159DF4F88819981AA817F
:1023C000BB81CF56D0408BAF9CAFADAFBEAFFE014F
:1023D000FF96CD58DF4F88819981AA81BB81808388
:1023E0009183A283B3832E970883C556D04010C033
:1023F000FE01EA59FF4F80818F5F8083882339F582
:10240000CE0161E0C35ADF4F488120E0A6DE1FC045
:10241000DE01AC59BF4F8C918823C9F0FE01EB5906
:10242000FF4F8081882399F01C921082FE01EE59A3
:10243000FF4F80818F5F8083843639F4CE0166E060
:1024400044E220E030E000E0F1DD81E001C080E026
:10245000DF91CF910F9108952F923F924F925F920B
:102460006F927F928F929F92AF92BF92CF92DF92A4
:10247000EF92FF920F931F93DF93CF93CDB7DEB709
:1024800027970FB6F894DEBF0FBECDBF8C01DC01DD
:10249000D196ED91FC91D297A081B18114962D91A6
:1024A0003C911597CF01F90119959B838A83198275
:1024B00044245524F801E45AFF4FFF83EE837BE563
:1024C000C72ED12CC00ED11E6AE5E62EF12CE00EEF
:1024D000F11E5EE5A52EB12CA00EB11E40E6642EC5
:1024E000712C600E711EC8018D599F4F9D838C8386
:1024F0003DE5232E312C200E311ECBC0D801D196C4
:10250000ED91FC91D297A081B18116962D913C91CD
:102510001797CF01F9011995282FEE81FF8180814E
:10252000843009F441C0853050F48130A9F0813005
:10253000E8F08230F9F0833009F0A8C026C0863078
:1025400009F466C0863008F440C0873009F485C0BD
:10255000883009F09BC08DC0223629F4E2E0AE81BC
:10256000BF81EC9393C0AE81BF811C92253B09F0E3
:102570008DC06DC0E3E0AE81BF81EC93AC81BD81C5
:102580002C93F7012083D6010DC084E0EE81FF81FA
:102590008083D6019C91F7018081820F8083890F0F
:1025A0008C93D1012C9372C085E0EE81FF818083F2
:1025B000D6019C91F7018081820F8083890F8C93D3
:1025C000D5012C9311961C9261C086E0EE81FF81AB
:1025D0008083D6019C91F7018081820F8083890FCF
:1025E0008C93922E8824D5018D919C911197880D02
:1025F000991D8D939C938150924030F0F50111828A
:102600001082AE81BF811C92F301118210823EC004
:10261000D6019C91F7018081820F8083890F8C9372
:10262000D301ED91FC91E433F10528F4E00FF11FA3
:10263000E959FF4F2083F3018081918101969183B5
:102640008083D5012D913C9182179307F9F4EE8197
:10265000FF8180818F5F808319C0E8E0AE81BF81F8
:10266000EC93D7018C91821789F0EE81FF81108263
:102670000DC0AE81BF811C92F6018081821731F4BA
:10268000C80182DD882311F0F1E0F9830894411C30
:10269000511C8A819B81481659060CF42FCF8981E1
:1026A00027960FB6F894DEBF0FBECDBFCF91DF9156
:1026B0001F910F91FF90EF90DF90CF90BF90AF9060
:1026C0009F908F907F906F905F904F903F902F9052
:1026D0000895EF92FF920F93DF93CF9300D000D035
:1026E000CDB7DEB77C0188EC90E09A83898381E0E6
:1026F00090E09C838B831E821D82C70166E048E0C8
:102700009E012F5F3F4F06E091DCC70161E042E090
:1027100021E023DDC70161E043E021E01EDDC701C8
:1027200061E046E021E019DDC70161E042E121E01E
:1027300014DDC70166E044E220E030E000E076DC32
:1027400026960FB6F894DEBF0FBECDBFCF91DF91B6
:102750000F91FF90EF900895EF92FF920F931F93C8
:102760008C017B01FC01A1A9B2A9ED91FC9111970B
:102770000284F385E02DCD01199581E090E0F80108
:1027800094AB83AB80EB94E0A0E0B0E081A792A78C
:10279000A3A7B4A7C8019DDFF801F6AAE5AA1F9177
:1027A0000F91FF90EF900895DF93CF93CDB7DEB7F1
:1027B000CF91DF910895CF93DF93EC01FB01DA0114
:1027C000E081E63079F1E73070F4E23019F1E3307E
:1027D00028F4EE23C1F0E130B1F517C0E430F1F098
:1027E000E530F0F419C0E93019F1EA3028F4E730A7
:1027F000D9F0E83041F51AC0EB30F1F0EB30D0F011
:10280000EC3009F51BC088811AC089819A818D93AB
:102810009C931BC08B8113C08C8111C08D810FC014
:102820008E810DC08F810BC0888509C0898507C046
:102830008A8505C08B8503C08C8501C08D858C93EE
:1028400011961C9202C01D921C92DF91CF910895A7
:102850000F931F93DF93CF930F920F92CDB7DEB7F5
:102860008A01AE014F5F5F4FA6DF69817A8180E008
:1028700090E00E94D596F8016083718382839383F0
:102880000F900F90CF91DF911F910F9108950895B0
:102890000895FC0110920B0F32E030930C0F4AE0C8
:1028A00040930D0F8BE080930E0F8DE080930F0F00
:1028B00025E020931F0F87EC96E091838083158A93
:1028C00084E0868B88E0878B91E0908F218F89E070
:1028D000828F338F86E0848F458F9187928793878D
:1028E00081EE92E1928B818B12820895089580E0AF
:1028F000089580E00895089580E0089580E00895A7
:10290000E82FF0E0E55FF04FE081E73009F441C0E7
:10291000E83070F4E33041F1E43028F4E130C1F004
:10292000E230C8F440C0E53071F1E63078F528C0F7
:10293000EB30B9F0EC3028F4E93089F1EA3070F48A
:102940002BC0ED30B9F0ED3090F0EE3059F515C0F8
:1029500024EA3DE02AC025EB3DE027C02BEC3DE01A
:1029600024C02DEC3DE021C023E03FE01EC02FEC51
:102970003DE01BC025ED3DE018C027ED3DE015C052
:1029800025EF3DE012C023E13EE00FC02DE43EE024
:102990000CC02BE63EE009C029E93EE006C025ED6B
:1029A0003EE003C0089524E83DE0C90108951F9367
:1029B00090918009913019F510920B0F90930C0FA4
:1029C00083E080930D0F84E080930E0F85E0809369
:1029D0000F0F86E08093100F87E08093110F8AE03D
:1029E0008093120F8BE08093130F9CE09093140F51
:1029F0008DE08093150F82E08093160F24C09430F1
:102A000041F09F3031F0923021F09D3011F09E3036
:102A1000E9F410920B0F81E080930C0F83E0809318
:102A20000D0F8EE080930E0F99E090930F0F8AE0C8
:102A30008093100F8BE08093110F8CE08093120F26
:102A40008DE08093130F90931F0F2AC09A3071F47A
:102A500010920B0F81E080930C0F83E080930D0F99
:102A600088E080930E0F90930F0F0BC010920B0F06
:102A700081E080930D0F83E080930E0F8AE08093B6
:102A80000F0F8BE08093100F8CE08093110F8DE07F
:102A90008093120F82E08093130F89E080931F0FC1
:102AA00010920A0F10E00CC0812F2ADFFC01A081D8
:102AB000B18114962D913C911597F90119951F5FDD
:102AC00080911F0F181780F380E01F9108951F93C6
:102AD000182F80910A0F14DFDC01ED91FC91028028
:102AE000F381E02D612F19951F9108951F93182FE1
:102AF00080910A0F05DFDC01ED91FC910284F385E2
:102B0000E02D612F19951F91089580910A0FF8DE2D
:102B1000FC01A081B18116962D913C911797F90186
:102B2000199580E0089580910A0FEADEFC01A081EA
:102B3000B18118962D913C911997F901199580E072
:102B40000895CF92DF92EF92FF920F931F93CF934E
:102B5000DF936C018B017A01609111097091120968
:102B600080911309909114092BEE39EC48E151E45E
:102B70000E944E980E94A996DC01CB01482F6FE07D
:102B80000E946A9A813051F0813028F08230A1F0A1
:102B9000833049F415C0A1E0B0E01DC0842F90E05F
:102BA0004F9734F04E51A1E0B0E0C1E0D0E015C045
:102BB0008EE1841B482FF7CF4E51AFEFBFEFF5CF1B
:102BC000842F90E0CD9714F04C5303C08CE3841B0A
:102BD000482FAFEFBFEFCFEFDFEFF6018281F801B3
:102BE0008083F6018381F701808350E0FA01E35C82
:102BF000FA4F80816AE0869FC0011124892F990FC6
:102C0000990B8A9F90018B9F300D9A9F300D112454
:102C1000F8018081820F8083ECE4F5E0E41BF50B82
:102C20008081869FC0011124892F990F990B8C9F59
:102C300090018D9F300D9C9F300D1124F7018081F4
:102C4000820F8083DF91CF911F910F91FF90EF90C2
:102C5000DF90CF90089580E0089580E00895089572
:102C600008950895CF92DF92EF92FF920F931F93F2
:102C7000CF93DF936C018B017A01609164097091AD
:102C8000650980916609909167092BEE39EC48E15E
:102C900051E40E944E9820E030E040EF51E40E9461
:102CA0006F950E94A996DC01CB01482F6FE00E942E
:102CB0006A9A813051F0813028F08230A1F083305F
:102CC00049F415C0A1E0B0E01DC0842F90E04F97FB
:102CD00034F04E51A1E0B0E0C1E0D0E015C08EE18B
:102CE000841B482FF7CF4E51AFEFBFEFF5CF842FA6
:102CF00090E0CD9714F04C5303C08CE3841B482F15
:102D0000AFEFBFEFCFEFDFEFF6018281F8018083F5
:102D1000F6018381F701808350E0FA01E35CFA4F0A
:102D200080816CE1869FC0011124892F990F990B36
:102D30008A9F90018B9F300D9A9F300D1124F801CE
:102D40008081820F8083ECE4F5E0E41BF50B808149
:102D5000869FC0011124892F990F990B8C9F900198
:102D60008D9F300D9C9F300D1124F7018081820FC3
:102D70008083DF91CF911F910F91FF90EF90DF90B3
:102D8000CF9008950895DC0110920B0F82E080939C
:102D90000C0F8AE080930D0F8BE080930E0F8DE077
:102DA00080930F0F85E080931F0F87E496E01196C4
:102DB0009C938E9386E69CE05C969C938E935B97A7
:102DC00081E697E09A969C938E9399978DE697E08B
:102DD0009C969C938E939B978CE09D968C939D974D
:102DE00090E005C0FD01E90FF11D958F9F5F9D9655
:102DF0008C919D979817B0F390E021E005C0FD01FC
:102E0000E90FF11D21879F5F9D968C919D979817E3
:102E1000B0F312961C92129755961C92089508953D
:102E200080E0089580E00895DC0110920B0F82E0AD
:102E300080930C0F8AE080930D0F8BE080930E0F30
:102E40008DE080930F0F85E080931F0F87E396E05E
:102E500011969C938E9389E597E05A969C938E9356
:102E600059978DE597E05C969C938E935B9784E0F1
:102E70005D968C935D9790E005C0FD01E90FF11D13
:102E8000958B9F5F5D968C915D979817B0F390E05E
:102E900021E005C0FD01E90FF11D21879F5F5D96CF
:102EA0008C915D979817B0F312961C9212971D960D
:102EB0001C920895089580E0089580E00895DC0153
:102EC00010920B0F82E080930C0F8AE080930D0F1D
:102ED0008BE080930E0F8DE080930F0F85E0809341
:102EE0001F0F87E296E011969C938E9386E49BE0F9
:102EF00092969C938E93919785E397E0D6969C93B8
:102F00008E93D59787E497E0D8969C938E93D79726
:102F100082E1D9968C93D99790E005C0FD01E90F25
:102F2000F11D93A39F5FD9968C91D9979817B0F311
:102F300090E021E005C0FD01E90FF11D21879F5FB1
:102F4000D9968C91D9979817B0F312961C92129734
:102F50005B961C920895089580E0089580E008959E
:102F6000DC0110920B0F82E080930C0F8AE08093BB
:102F70000D0F8BE080930E0F8DE080930F0F85E097
:102F800080931F0F87E196E011969C938E9381E1C9
:102F90009BE054969C938E9353978DE297E05A96BC
:102FA0009C938E93599781E397E05C969C938E93C4
:102FB0005B9784E05D968C935D9790E005C0FD0182
:102FC000E90FF11D958B9F5F5D968C915D9798172A
:102FD000B0F390E021E005C0FD01E90FF11D21876C
:102FE0009F5F5D968C915D979817B0F312961C9237
:102FF00012971D961C920895089580E0089580E030
:103000000895DC0110920B0F82E080930C0F8AE090
:1030100080930D0F8BE080930E0F8DE080930F0F48
:1030200085E080931F0F87E096E011969C938E9326
:1030300084E79AE05C969C938E935B9785E197E09A
:103040009A969C938E93999781E297E09C969C9395
:103050008E939B978CE09D968C939D9790E005C0F6
:10306000FD01E90FF11D958F9F5F9D968C919D97B6
:103070009817B0F390E021E005C0FD01E90FF11DC4
:1030800021879F5F9D968C919D979817B0F312961C
:103090001C92129755961C920895089580E0089509
:1030A00080E00895DC0110920B0F82E080930C0FFA
:1030B0008AE080930D0F8BE080930E0F8DE080935C
:1030C0000F0F85E080931F0F87EF95E011969C937B
:1030D0008E938FEE96E0D8969C938E93D79782E04E
:1030E00097E0DA969C938E93D99783E1DB968C9345
:1030F000DB9790E005C0FD01E90FF11D94A39F5FF0
:10310000DB968C91DB979817B0F390E021E005C037
:10311000FD01E90FF11D21879F5FDB968C91DB9705
:103120009817B0F312961C9212975C961C92089511
:10313000089580E0089580E008950F931F938C0117
:1031400080EF98E00E94008186E497E160E00E94B1
:10315000D07BD801ED91FC910190F081E02DC80168
:1031600019951F910F91089580EF98E00E940081BA
:1031700086E497E160E00E94D07B80910A0FC0DB7B
:10318000DC01ED91FC910190F081E02D1995809189
:103190000A0FB6DBDC01ED91FC910084F185E02D96
:1031A000199580910A0FACDBDC01ED91FC91068052
:1031B000F781E02D199580E00895982F882319F460
:1031C00010920A0F0BC0181624F080910A0F882362
:1031D000B1F180910A0F890F80930A0F90910A0F25
:1031E00080911F0F981720F0915090930A0F27C0DD
:1031F00080EF98E00E94008186E497E160E00E9401
:10320000D07B80910A0F7CDBDC01ED91FC91019079
:10321000F081E02D199580910A0F72DBDC01ED91B0
:10322000FC910084F185E02D199580910A0F68DBEF
:10323000DC01ED91FC910680F781E02D199580E08D
:103240000895643029F0663039F0633039F402C0F3
:1032500081E001C08FEFB1CF80E0AFCF089564303F
:1032600029F0663039F0633039F402C081E001C0E2
:103270008FEFA3CF80E0A1CF0895643029F06630AE
:1032800039F0633039F402C081E001C08FEF95CF8F
:1032900080E093CF0895643029F0663039F06330D0
:1032A00039F402C081E003C08FEF01C080E085DF08
:1032B00080E00895643099F0653018F46330A9F423
:1032C00010C0653019F0663081F40DC090E0809137
:1032D000700D882309F491E09093700D089581E0BA
:1032E00001C08FEF6ACF80E068CF08952F923F92A0
:1032F0004F925F926F927F928F929F92AF92BF9206
:10330000CF92DF92EF92FF920F931F93DF93CF93B1
:1033100000D00F92CDB7DEB71C012A013B01C901D5
:10332000B801A30192010E946E9523E333E34AE8BA
:1033300052E40E944E9869837A838B839C83C301F5
:10334000B20123E333E345E652E40E943C960E9437
:1033500039962B013C01C501B401A70196010E94D9
:103360006E9523E333E34AE852E40E944E98A301AA
:1033700092010E944E987B018C0129813A814B81F8
:103380005C810E94E29520E030E044E353E40E9437
:103390004E982BED3FE049E450E40E943C96F10149
:1033A000648775878687978769817A818B819C81FD
:1033B0009B01AC010E944E985B016C01C801B701F2
:1033C000A80197010E944E989B01AC01C601B5016E
:1033D0000E946F950E94079922E03BE249EC54E479
:1033E0000E944E98F10160877187828793870F90C2
:1033F0000F900F900F90CF91DF911F910F91FF9041
:10340000EF90DF90CF90BF90AF909F908F907F9084
:103410006F905F904F903F902F9008950F931F9360
:103420008C0180E090E0A4EBB2E4F801808391830A
:10343000A283B38384839583A683B78380E090E0DF
:10344000A0E0B0E0848B958BA68BB78B8FEF98E0D4
:103450006AE570E00E94326282E099E06AE570E01D
:103460000E9432620E94BF88F801608F718F828F44
:10347000938F1F910F9108958F929F92AF92BF9259
:10348000CF92DF92EF92FF920F931F93CF93DF9330
:10349000EC014091E80B5091E90B6091EA0B7091BF
:1034A000EB0B0091840910918509209186093091D8
:1034B0008709C090EC0BD090ED0BE090EE0BF090F4
:1034C000EF0B8090880990908909A0908A09B090AC
:1034D0008B090CDFCC84DD84EE84FF840AC0C70135
:1034E000B60120E030E044EB53E40E946F956B019D
:1034F0007C01C701B60120E030E040E050E00E94CE
:103500003596181664F7C701B60120E030E040E0B8
:1035100050E00E94359688235CF40F2EF0E0CF2E09
:10352000F0E0DF2EF0E0EF2EF0E0FF2EF02D14C0E3
:10353000C701B60120E030E044EB53E40E94439819
:10354000181654F40F2EF0E0CF2EF0E0DF2EF4EB3F
:10355000EF2EF3E4FF2EF02DC882D982EA82FB829F
:1035600000D00F920DB71EB70F5F1F4FC701B601F6
:103570000E94A49624EB30E040E050E0F801208364
:1035800031834283538320E030E040E050E0E8E6BE
:10359000EE2EE1E0FE2E012D112DAA24BB246501A3
:1035A0000E9427950E94D796688379838A839B839C
:1035B0000F900F900F900F900E94A4969B01AC016A
:1035C0008FEF98E0B9010E94326260918C0970918E
:1035D0008D0980918E0990918F092091F00B309187
:1035E000F10B4091F20B5091F30B0E946E952885E0
:1035F00039854A855B850E943C960E940D9620E0A5
:1036000030E044E353E40E944E982BED3FE049E460
:1036100050E40E943C96688B798B8A8B9B8BEC8064
:10362000FD800E811F81C801B70120E030E040E03D
:1036300050E00E94359688235CF40F2EF0E0EF2EC8
:10364000F0E0FF2EF0E00F2FF0E01F2FF02D14C060
:10365000C801B70120E030E044EB52E40E944398F7
:10366000181654F40F2EF0E0EF2EF0E0FF2EF4EBDE
:103670000F2FF2E41F2FF02D60E070E084EB92E456
:10368000A80197010E946E9520E030E048E452E4E2
:103690000E946F957B018C0120E030E040E752E40E
:1036A0000E94359688235CF40F2EF0E0EF2EF0E0B8
:1036B000FF2EF0E70F2FF2E41F2FF02D14C0C801EA
:1036C000B70120E030E04CE053E40E944398181624
:1036D00054F40F2EF0E0EF2EF0E0FF2EFCE00F2F61
:1036E000F3E41F2FF02DEC82FD820E831F83C801AF
:1036F000B7010E94A4969B01AC0182E099E0B90158
:103700000E943262DF91CF911F910F91FF90EF9055
:10371000DF90CF90BF90AF909F908F900895EF92E1
:10372000FF920F931F93CF93DF93EC01CB01BA016C
:103730002B813C814D815E810E946F957B018C01C4
:1037400020E030E040E050E00E94359688234CF4C1
:1037500080E090E0A0E0B0E08B839C83AD83BE83EB
:1037600004C0EB82FC820D831E838A81282F30E007
:1037700025563040EFA9F8ADE20FF31F60816336A4
:1037800061F4E9ADFAADE20FF31F8081833629F4CD
:103790006B817C818D819E811EC070E0E9ADFAADA8
:1037A000E20FF31F2081621B7109882777FD809546
:1037B000982F0E94D7969B01AC0160E070E080E2F8
:1037C00091E40E94B1989B01AC016B817C818D8159
:1037D0009E810E943C960E94A49678876F8381E028
:1037E0008D8FDF91CF911F910F91FF90EF900895F2
:1037F000EF92FF920F931F93CF93DF93EC01CB01D6
:10380000BA012B813C814D815E810E946F957B01C5
:103810008C0120E030E040E050E00E9435968823A3
:103820004CF480E090E0A0E0B0E08B839C83AD831B
:10383000BE8304C0EB82FC820D831E838A81282F05
:1038400030E025563040E9A5FAA5E20FF31F60816C
:10385000633661F4EBA5FCA5E20FF31F808183368C
:1038600029F46B817C818D819E811EC070E0EBA567
:10387000FCA5E20FF31F2081621B7109882777FDE9
:103880008095982F0E94D7969B01AC0160E070E074
:1038900080E291E40E94B1989B01AC016B817C8134
:1038A0008D819E810E943C960E94A49678876F83AA
:1038B00081E08E8BDF91CF911F910F91FF90EF9060
:1038C0000895EF92FF920F931F93CF93DF93EC0134
:1038D000CB01BA012B813C814D815E810E946F95A5
:1038E0007B018C0120E030E040E050E00E94359602
:1038F00088234CF480E090E0A0E0B0E08B839C83D0
:10390000AD83BE8304C0EB82FC820D831E838A815B
:10391000282F30E025563040E98DFA8DE20FF31F55
:103920006081633661F4EB8DFC8DE20FF31F8081C3
:10393000833629F46B817C818D819E811EC070E06D
:10394000EB8DFC8DE20FF31F2081621B710988272C
:1039500077FD8095982F0E94D7969B01AC0160E07F
:1039600070E080E291E40E94B1989B01AC016B8110
:103970007C818D819E810E943C960E94A4967887CE
:103980006F8381E08E87DF91CF911F910F91FF9020
:10399000EF900895EF92FF920F931F93CF93DF93D1
:1039A000EC01CB01BA012B813C814D815E810E94EB
:1039B0006F957B018C0120E030E040E050E00E94F8
:1039C000359688234CF480E090E0A0E0B0E08B8353
:1039D0009C83AD83BE8304C0EB82FC820D831E8377
:1039E0008A81282F30E025563040EDA9FEA9E20F4C
:1039F000F31F6081633661F4EFA9F8ADE20FF31FA6
:103A00008081833629F46B817C818D819E811EC0EB
:103A100070E0EFA9F8ADE20FF31F2081621B71097E
:103A2000882777FD8095982F0E94D7969B01AC013F
:103A300060E070E080E291E40E94B1989B01AC01EB
:103A40006B817C818D819E810E943C960E94A49610
:103A500078876F8381E08C8FDF91CF911F910F91D9
:103A6000FF90EF900895EF92FF920F931F93CF93E3
:103A7000DF93EC01CB01BA012B813C814D815E814A
:103A80000E946F957B018C0120E030E040E050E027
:103A90000E94359688234CF480E090E0A0E0B0E0EE
:103AA0008B839C83AD83BE8304C0EB82FC820D8339
:103AB0001E838A81282F30E025563040E98DFA8D0B
:103AC000E20FF31F6081633661F4EB8DFC8DE20F32
:103AD000F31F8081833629F46B817C818D819E81E7
:103AE0001EC070E0EB8DFC8DE20FF31F2081621B86
:103AF0007109882777FD8095982F0E94D7969B01A2
:103B0000AC0160E070E080E291E40E94B1989B011A
:103B1000AC016B817C818D819E810E943C960E94CC
:103B2000A49678876F8381E08E87DF91CF911F9174
:103B30000F91FF90EF900895EF92FF920F931F93D4
:103B4000CF93DF93EC01CB01BA012B813C814D81F6
:103B50005E810E946F957B018C0120E030E040E0A7
:103B600050E00E94359688234CF480E090E0A0E07D
:103B7000B0E08B839C83AD83BE8304C0EB82FC8268
:103B80000D831E838A81282F30E025563040E9A519
:103B9000FAA5E20FF31F6081633661F4EBA5FCA583
:103BA000E20FF31F8081833629F46B817C818D8144
:103BB0009E811EC070E0EBA5FCA5E20FF31F2081E3
:103BC000621B7109882777FD8095982F0E94D796F0
:103BD0009B01AC0160E070E080E291E40E94B1984A
:103BE0009B01AC016B817C818D819E810E943C9602
:103BF0000E94A49678876F8381E08E8BDF91CF91AE
:103C00001F910F91FF90EF900895EF92FF920F9305
:103C10001F93CF93DF93EC01CB01BA012B813C8141
:103C20004D815E810E946F957B018C0120E030E028
:103C300040E050E00E94359688234CF480E090E00C
:103C4000A0E0B0E08B839C83AD83BE8304C0EB8295
:103C5000FC820D831E838A81282F30E02556304058
:103C6000E989FA89E20FF31F6081633661F4EB8919
:103C7000FC89E20FF31F8081833629F46B817C81FC
:103C80008D819E811EC070E0EB89FC89E20FF31FDD
:103C90002081621B7109882777FD8095982F0E94EB
:103CA000D7969B01AC0160E070E080E291E40E9455
:103CB000B1989B01AC016B817C818D819E810E94BA
:103CC0003C960E94A49678876F8381E08A87DF9173
:103CD000CF911F910F91FF90EF9008951F93CF9375
:103CE000DF9380EF98E00E94008110E0C4E3D9E008
:103CF000FE0121966491662379F06A3041F41F5FDA
:103D000080EF98E060E0412F0E948D80F1CF80EF3E
:103D100098E00E940886ECCFDF91CF911F91089523
:103D2000FC014281242F2150273CA8F4848D453684
:103D300030F04556481B80EF98E06CE005C0281B2A
:103D400080EF98E06CE0422F0E948D8080EF98E039
:103D500060E20C9408860895FC018281482F41504E
:103D6000433660F4848D481B80EF98E06CE00E943D
:103D70008D8080EF98E06EE30C940886482F4556BE
:103D8000433660F4848D481B80EF98E06CE00E941D
:103D90008D8080EF98E063E20C94088608951F936D
:103DA000CF93DF9380EF98E00E94008110E0C4E39E
:103DB000D9E0FE0121966491662379F06A3041F4DE
:103DC0001F5F80EF98E060E0412F0E948D80F1CF6F
:103DD00080EF98E00E940886ECCFDF91CF911F9191
:103DE0000895FC014281242F2150273CA8F48589A5
:103DF000453630F04556481B80EF98E06CE005C032
:103E0000281B80EF98E06CE0422F0E948D8080EFAD
:103E100098E060E20C9408860895FC018281482FA6
:103E20004150433660F48589481B80EF98E06CE090
:103E30000E948D8080EF98E06EE30C940886482FF6
:103E40004556433660F48589481B80EF98E06CE066
:103E50000E948D8080EF98E063E20C9408860895BC
:103E60001F93CF93DF9380EF98E00E94008110E0D2
:103E7000C4E3D9E0FE0121966491662379F06A30AB
:103E800041F41F5F80EF98E060E0412F0E948D8039
:103E9000F1CF80EF98E00E940886ECCFDF91CF91C0
:103EA0001F910895FC014281242F2150273CA8F442
:103EB0008585453630F04556481B80EF98E06CE02C
:103EC00005C0281B80EF98E06CE0422F0E948D8097
:103ED00080EF98E060E20C9408860895FC018281EE
:103EE000482F4150433660F48585481B80EF98E0A9
:103EF0006CE00E948D8080EF98E06EE30C94088661
:103F0000482F4556433660F48585481B80EF98E07E
:103F10006CE00E948D8080EF98E063E20C9408864C
:103F200008951F93CF93DF9380EF98E00E94008164
:103F300010E0C4E3D9E0FE0121966491662379F094
:103F40006A3041F41F5F80EF98E060E0412F0E94EB
:103F50008D80F1CF80EF98E00E940886ECCFDF9152
:103F6000CF911F910895FC014281242F2150273CBD
:103F7000A8F4838D453630F04556481B80EF98E015
:103F80006CE005C0281B80EF98E06CE0422F0E9497
:103F90008D8080EF98E060E20C9408860895FC0123
:103FA0008281482F4150433660F4838D481B80EF57
:103FB00098E06CE00E948D8080EF98E06EE30C94B6
:103FC0000886482F4556433660F4838D481B80EFA2
:103FD00098E06CE00E948D8080EF98E063E20C94A2
:103FE000088608951F93CF93DF9380EF98E00E9497
:103FF000008110E0C4E3D9E0FE01219664916623BC
:1040000079F06A3041F41F5F80EF98E060E0412F63
:104010000E948D80F1CF80EF98E00E940886ECCF5F
:10402000DF91CF911F910895FC014281242F2150EF
:10403000273CA8F48585453630F04556481B80EF6F
:1040400098E06CE005C0281B80EF98E06CE0422F00
:104050000E948D8080EF98E060E20C9408860895BD
:10406000FC018281482F4150433660F48585481B0E
:1040700080EF98E06CE00E948D8080EF98E06EE326
:104080000C940886482F4556433660F48585481BB6
:1040900080EF98E06CE00E948D8080EF98E063E212
:1040A0000C94088608951F93CF93DF9380EF98E0D8
:1040B0000E94008110E0C4E3D9E0FE0121966491E2
:1040C000662379F06A3041F41F5F80EF98E060E08A
:1040D000412F0E948D80F1CF80EF98E00E940886EA
:1040E000ECCFDF91CF911F910895FC014281242FE5
:1040F0002150273CA8F48589453630F04556481BA9
:1041000080EF98E06CE005C0281B80EF98E06CE041
:10411000422F0E948D8080EF98E060E20C94088628
:104120000895FC018281482F4150433660F485890F
:10413000481B80EF98E06CE00E948D8080EF98E053
:104140006EE30C940886482F4556433660F4858903
:10415000481B80EF98E06CE00E948D8080EF98E033
:1041600063E20C9408860895FC014281242F2150BB
:10417000273CA8F48185453630F04556481B80EF32
:1041800098E06CE005C0281B80EF98E06CE0422FBF
:104190000E948D8080EF98E060E20C94088608957C
:1041A000FC018281482F4150433660F48185481BD1
:1041B00080EF98E06CE00E948D8080EF98E06EE3E5
:1041C0000C940886482F4556433660F48185481B79
:1041D00080EF98E06CE00E948D8080EF98E063E2D1
:1041E0000C94088608951F93CF93DF9380EF98E097
:1041F0000E94008110E0C4E3D9E0FE0121966491A1
:10420000662379F06A3041F41F5F80EF98E060E048
:10421000412F0E948D80F1CF80EF98E00E940886A8
:10422000ECCFDF91CF911F910895FC019281892FEE
:104230008150873C38F5E92FF0E0953618F0E556C7
:10424000F04001C03197CF0163E070E00E94769AA0
:1042500001969C01220F331F280F391F220F331F95
:104260002450CF0163E070E00E94769A462F4F5FA2
:1042700080EF98E0622F0E948D8080EF98E060E2EE
:104280000C9408860895DC011296EC918E2F8150D3
:10429000833608F5F0E03197CF0163E070E00E94CB
:1042A000769A01969C01220F331F280F391F220F87
:1042B000331F2450CF0163E070E00E94769A462FAE
:1042C0004F5F80EF98E0622F0E948D8080EF98E032
:1042D0006EE30C9408868E2F8556833610F5F0E039
:1042E000E556F040CF0163E070E00E94769A0196B7
:1042F0009C01220F331F280F391F220F331F245018
:10430000CF0163E070E00E94769A462F4F5F80EF06
:1043100098E0622F0E948D8080EF98E063E20C9419
:10432000088608951F93CF93DF93EB0180EF98E009
:104330000E94008110E0FE0121966491662379F0CD
:104340006A3041F41F5F80EF98E060E0412F0E94E7
:104350008D80F1CF80EF98E00E940886ECCFDF914E
:10436000CF911F910895FC01848190E0895C904079
:1043700082309105C9F0833091052CF4009761F0EB
:10438000019711F50DC084309105B1F0843091058D
:104390007CF00597C9F414C0CF0164EF72E10FC03F
:1043A000CF0164E373E10BC0CF0164E773E107C0A1
:1043B000CF0167EB73E103C0CF0168EF73E1B2CFC8
:1043C000CF0166E474E1AECF0895FC014481415011
:1043D000473C60F48581481B80EF98E060E00E94D4
:1043E0008D8080EF98E060E20C9408860895FC01CF
:1043F00044814150433660F48581481B80EF98E04A
:1044000060E00E948D8080EF98E06EE30C94088657
:104410000895FF920F931F93CF93DF93EC0180EFEA
:1044200098E00E940081FF2410E026C0141740F09D
:10443000812F841B482F80EF98E061E00E948D80DF
:1044400090E001C0902FEA81FB81EF0DF11DF39404
:104450006491662381F06A3071F08D811817E8F05D
:104460001630D8F4092F0F5F923160F780EF98E093
:104470000E940886E7CF1F5F4D81842F90E007964A
:10448000212F30E0821793078CF6CE01B0DFDF9149
:10449000CF911F910F91FF900895092FD3CFB9CFDE
:1044A0000895CF92DF92EF92FF921F93CF93DF9305
:1044B000EC018A81182F1150173C08F05EC0853638
:1044C00028F0CB80DC80ED80FE8014568C8D412F4F
:1044D000481B86E497E16EE00E948D80412F50E0FA
:1044E000E9ADFAADE40FF51F10811336D9F4EFA949
:1044F000F8ADE40FF51F80818336A1F4C701B60142
:1045000020E030E040E050E00E94439818162CF480
:1045100086E497E16BE572E02EC086E497E16FE5F3
:1045200072E029C0EFA9F8ADE40FF51F608170E0DB
:10453000709561957F4F882777FD8095982F0E9411
:10454000D7969B01AC0160E070E080E291E40E94AC
:10455000B1989B01AC01C701B6010E944E98AB0116
:10456000BC0186E497E1212F30E00E946D9186E442
:1045700097E163E672E00E94DD90DF91CF911F9199
:10458000FF90EF90DF90CF9008950F931F938C01D1
:10459000FC01828164E60E946A9AE90FF11DE3A1A1
:1045A000F0E0EE0FFF1FEE0FFF1FE85CF44F80817D
:1045B0009181A281B381F80183839483A583B6831B
:1045C000C8016FDFF801128281E0858F1F910F9182
:1045D0000895CF92DF92EF92FF921F93CF93DF93D4
:1045E000EC018A81182F1150173C08F05EC0853607
:1045F00028F0CB80DC80ED80FE8014568D89412F21
:10460000481B86E497E16EE00E948D80412F50E0C8
:10461000EBA5FCA5E40FF51F10811336D9F4E9A52D
:10462000FAA5E40FF51F80818336A1F4C701B60116
:1046300020E030E040E050E00E94439818162CF44F
:1046400086E497E16BE572E02EC086E497E16FE5C2
:1046500072E029C0E9A5FAA5E40FF51F608170E0BA
:10466000709561957F4F882777FD8095982F0E94E0
:10467000D7969B01AC0160E070E080E291E40E947B
:10468000B1989B01AC01C701B6010E944E98AB01E5
:10469000BC0186E497E1212F30E00E946D9186E411
:1046A00097E163E672E00E94DD90DF91CF911F9168
:1046B000FF90EF90DF90CF9008950F931F938C01A0
:1046C000FC01828164E60E946A9AE90FF11DE48D83
:1046D000F0E0EE0FFF1FEE0FFF1FEE5FF54F808142
:1046E0009181A281B381F80183839483A583B683EA
:1046F000C8016FDFF801128281E0868B1F910F9154
:104700000895CF92DF92EF92FF921F93CF93DF93A2
:10471000EC018A81182F1150173C08F05EC08536D5
:1047200028F0CB80DC80ED80FE8014568D85412FF3
:10473000481B86E497E16EE00E948D80412F50E097
:10474000EB8DFC8DE40FF51F10811336D9F4E98D44
:10475000FA8DE40FF51F80818336A1F4C701B601FD
:1047600020E030E040E050E00E94439818162CF41E
:1047700086E497E16BE572E02EC086E497E16FE591
:1047800072E029C0E98DFA8DE40FF51F608170E0B9
:10479000709561957F4F882777FD8095982F0E94AF
:1047A000D7969B01AC0160E070E080E291E40E944A
:1047B000B1989B01AC01C701B6010E944E98AB01B4
:1047C000BC0186E497E1212F30E00E946D9186E4E0
:1047D00097E163E672E00E94DD90DF91CF911F9137
:1047E000FF90EF90DF90CF9008950F931F938C016F
:1047F000FC01828164E60E946A9AE90FF11DE48956
:10480000F0E0EE0FFF1FEE0FFF1FEE50F64F80811E
:104810009181A281B381F80183839483A583B683B8
:10482000C8016FDFF801128281E086871F910F9126
:104830000895CF92DF92EF92FF921F93CF93DF9371
:10484000EC018A81182F1150173C08F05EC08536A4
:1048500028F0CB80DC80ED80FE8014568B8D412FBC
:10486000481B86E497E16EE00E948D80412F50E066
:10487000EFA9F8ADE40FF51F10811336D9F4EDA9B7
:10488000FEA9E40FF51F80818336A1F4C701B601AC
:1048900020E030E040E050E00E94439818162CF4ED
:1048A00086E497E16BE572E02EC086E497E16FE560
:1048B00072E029C0EDA9FEA9E40FF51F608170E048
:1048C000709561957F4F882777FD8095982F0E947E
:1048D000D7969B01AC0160E070E080E291E40E9419
:1048E000B1989B01AC01C701B6010E944E98AB0183
:1048F000BC0186E497E1212F30E00E946D9186E4AF
:1049000097E163E672E00E94DD90DF91CF911F9105
:10491000FF90EF90DF90CF9008950F931F938C013D
:10492000FC01828164E60E946A9AE90FF11DE2A10E
:10493000F0E0EE0FFF1FEE0FFF1FE655F64F8081F0
:104940009181A281B381F80183839483A583B68387
:10495000C8016FDFF801128281E0848F1F910F91EF
:104960000895CF92DF92EF92FF921F93CF93DF9340
:10497000EC018A81182F1150173C08F05EC0853673
:1049800028F0CB80DC80ED80FE8014568D85412F91
:10499000481B86E497E16EE00E948D80412F50E035
:1049A000EB8DFC8DE40FF51F10811336D9F4E98DE2
:1049B000FA8DE40FF51F80818336A1F4C701B6019B
:1049C00020E030E040E050E00E94439818162CF4BC
:1049D00086E497E16BE572E02EC086E497E16FE52F
:1049E00072E029C0E98DFA8DE40FF51F608170E057
:1049F000709561957F4F882777FD8095982F0E944D
:104A0000D7969B01AC0160E070E080E291E40E94E7
:104A1000B1989B01AC01C701B6010E944E98AB0151
:104A2000BC0186E497E1212F30E00E946D9186E47D
:104A300097E163E672E00E94DD90DF91CF911F91D4
:104A4000FF90EF90DF90CF9008950F931F938C010C
:104A5000FC01828164E60E946A9AE90FF11DE489F3
:104A6000F0E0EE0FFF1FEE0FFF1FEC59F64F86A987
:104A700097A9A0ADB1ADF80183839483A583B683D4
:104A8000C8016FDFF801128281E086871F910F91C4
:104A90000895CF92DF92EF92FF921F93CF93DF930F
:104AA000EC018A81182F1150173C08F05EC0853642
:104AB00028F0CB80DC80ED80FE8014568D89412F5C
:104AC000481B86E497E16EE00E948D80412F50E004
:104AD000EBA5FCA5E40FF51F10811336D9F4E9A569
:104AE000FAA5E40FF51F80818336A1F4C701B60152
:104AF00020E030E040E050E00E94439818162CF48B
:104B000086E497E16BE572E02EC086E497E16FE5FD
:104B100072E029C0E9A5FAA5E40FF51F608170E0F5
:104B2000709561957F4F882777FD8095982F0E941B
:104B3000D7969B01AC0160E070E080E291E40E94B6
:104B4000B1989B01AC01C701B6010E944E98AB0120
:104B5000BC0186E497E1212F30E00E946D9186E44C
:104B600097E163E672E00E94DD90DF91CF911F91A3
:104B7000FF90EF90DF90CF9008950F931F938C01DB
:104B8000FC01828164E60E946A9AE90FF11DE48DBE
:104B9000F0E0EE0FFF1FEE0FFF1FE85AF54F808188
:104BA0009181A281B381F80183839483A583B68325
:104BB000C8016FDFF801128281E0868B1F910F918F
:104BC00008952F923F924F925F926F927F928F92B1
:104BD0009F92AF92BF92CF92DF92EF92FF920F938C
:104BE0001F93DF93CF93CDB7DEB728970FB6F89416
:104BF000DEBF0FBECDBF7C0180EF98E00E94008138
:104C0000DD2400E03EC0D701DB968C91081708F048
:104C100044C0041740F0B02FB41B4B2F80EF98E036
:104C200060E00E948D80D39490E002C0D394912FD5
:104C3000ED2DE15080918009813029F4F0E0E458B5
:104C4000F64F64910AC0F0E08A3021F4E458F64F40
:104C5000649103C0E458F64F6491662389F06A308A
:104C600079F0F701848D081708F401C1192F1F5F2F
:104C70009C3008F0FBC080EF98E00E940886D6CFF9
:104C80000F5FD7015C964C91842F90E00796202F00
:104C900030E0821793070CF0B6CFCC24EDE27E2EE5
:104CA0002E010894411C511C76E4372E6FE4662EC9
:104CB0005EE4252E80EF98E06EE04C2D0E948D8002
:104CC000F701D48CDC0C83ADD81608F0D2C00D2DC2
:104CD00010E0F801EE0FFF1FEE0FFF1FEC57F44F2F
:104CE000608171818281938120E030E040E85FE360
:104CF0000E943596882309F099C0D70112968C91AD
:104D0000129790E0855690400817190739F41396CA
:104D10006D917D918D919C9116971AC00E0D1F1D5E
:104D2000D8019496EC91F0E0EE0FFF1FEE0FFF1FFD
:104D3000E85CF44F80809180A280B380C501B4010B
:104D400020E030E040E05FE30E946F950E94129700
:104D50000E94A9969B01AC010D2D10E0D701D996B8
:104D6000ED91FC91DA97E00FF11F8081833611F508
:104D7000D796ED91FC91D897E00FF11F8081833693
:104D8000C9F4211531054105510521F029826A82B6
:104D900012E004C039823A826B8213E01150F201B2
:104DA000E10FF11D80EF98E060810E9408861123D9
:104DB000A9F751C086E497E16EE04C2D0E948D80EA
:104DC000D701D796ED91FC91D897E00FF11F608144
:104DD00070E0709561957F4F882777FD8095982FBB
:104DE0000E94D7969B01AC0160E070E080E291E404
:104DF0000E94B1989B01AC01C501B4010E944E987C
:104E0000AB01BC01D701D996ED91FC91DA97E00F87
:104E1000F11F208186E497E130E00E946D9186E4E5
:104E200097E163E672E00E94DD901AC079827A828F
:104E30007B827C8280EF98E060E20E94088614E02A
:104E40001150F201E10FF11D80EF98E060810E94A6
:104E500008861123A9F780EF98E060E20E94088697
:104E6000C394B8E0CB1609F025CF03C0912F192FBA
:104E7000DDCE28960FB6F894DEBF0FBECDBFCF9122
:104E8000DF911F910F91FF90EF90DF90CF90BF9037
:104E9000AF909F908F907F906F905F904F903F90DA
:104EA0002F900895FC01662311F412828ADE80E0BF
:104EB000089587CE08953F924F925F926F927F92AE
:104EC0008F929F92AF92BF92CF92DF92EF92FF921A
:104ED0000F931F93DF93CF93CDB7DEB728970FB60D
:104EE000F894DEBF0FBECDBF7C0180EF98E00E943A
:104EF0000081DD2400E02FC0D7019D968C9108171A
:104F0000A0F5041740F0B02FB41B4B2F80EF98E0B2
:104F100060E00E948D8090E001C0912FD7015B96E8
:104F2000ED91FC915C97ED0DF11DD3946491662396
:104F300089F06A3079F055968C91081708F4F0C022
:104F4000192F1F5F9C3008F0EAC080EF98E00E94A4
:104F50000886E3CF0F5FF7014589842F90E007961D
:104F6000202F30E0821793073CF6DD248DE2C82E17
:104F70003E010894611C711C06E4402E1FE4512E72
:104F8000BEE43B2E80EF98E06EE04D2D0E948D80B8
:104F9000D70155961C9155971D0D9D968C9118170C
:104FA00008F0C0C0A12FB0E0FD01E45BF54F8081A7
:104FB000882309F494C0F701828190E085569040DF
:104FC000A817B90729F4638174818581968119C076
:104FD000AE0DBF1D5D96EC91F0E0EE0FFF1FEE0FE2
:104FE000FF1FEE5FF54F80809180A280B380C501E6
:104FF000B40120E030E040E05FE30E946F950E9442
:1050000012970E94A9969B01AC01012F10E0D701D5
:105010009B96ED91FC919C97E00FF11F8081833668
:1050200011F59996ED91FC919A97E00FF11F80810F
:105030008336C9F4211531054105510521F0398226
:105040005A8212E004C049824A825B8213E0115006
:10505000F301E10FF11D80EF98E060810E94088666
:105060001123A9F751C086E497E16EE04D2D0E940F
:105070008D80D7019996ED91FC919A97E00FF11FE1
:10508000608170E0709561957F4F882777FD8095EE
:10509000982F0E94D7969B01AC0160E070E080E2FF
:1050A00091E40E94B1989B01AC01C501B4010E943A
:1050B0004E98AB01BC01D7019B96ED91FC919C975A
:1050C000E00FF11F208186E497E130E00E946D91AE
:1050D00086E497E163E672E00E94DD901AC0C9821F
:1050E000CA82CB82CC8280EF98E060E20E94088680
:1050F00014E01150F301E10FF11D80EF98E06081A1
:105100000E9408861123A9F780EF98E060E20E94D0
:105110000886D394B8E0DB1609F034CF03C0912F92
:10512000192FFBCE28960FB6F894DEBF0FBECDBF69
:10513000CF91DF911F910F91FF90EF90DF90CF9073
:10514000BF90AF909F908F907F906F905F904F90A7
:105150003F900895FC01662311F41282ACDE80E0DA
:105160000895A9CE08953F924F925F926F927F92D9
:105170008F929F92AF92BF92CF92DF92EF92FF9267
:105180000F931F93DF93CF93CDB7DEB728970FB65A
:10519000F894DEBF0FBECDBF7C0180EF98E00E9487
:1051A0000081DD2400E02FC0D7015D968C910817A7
:1051B000A0F5041740F0B02FB41B4B2F80EF98E000
:1051C00060E00E948D8090E001C0912FD70153963E
:1051D000ED91FC915497ED0DF11DD39464916623EC
:1051E00089F06A3079F01D968C91081708F4F0C0A8
:1051F000192F1F5F9C3008F0EAC080EF98E00E94F2
:105200000886E3CF0F5FF7014585842F90E007966E
:10521000202F30E0821793073CF6DD245DE2C52E97
:105220003E010894611C711C46E4442E3FE4532E59
:105230002EE4322E80EF98E06EE04D2D0E948D809E
:10524000D7011D961C911D971D0D5D968C91181709
:1052500008F0C0C0A12FB0E0FD01E85BF54F8081F0
:10526000882309F494C0F701828190E0855690402C
:10527000A817B90729F4638174818581968119C0C3
:10528000AE0DBF1D5596EC91F0E0EE0FFF1FEE0F37
:10529000FF1FEE50F64F80809180A280B380C50141
:1052A000B40120E030E040E05FE30E946F950E948F
:1052B00012970E94A9969B01AC01012F10E0D70123
:1052C0005B96ED91FC915C97E00FF11F8081833636
:1052D00011F55996ED91FC915A97E00FF11F8081DD
:1052E0008336C9F4211531054105510521F0398274
:1052F0005A8212E004C049824A825B8213E0115054
:10530000F301E10FF11D80EF98E060810E940886B3
:105310001123A9F751C086E497E16EE04D2D0E945C
:105320008D80D7015996ED91FC915A97E00FF11FAE
:10533000608170E0709561957F4F882777FD80953B
:10534000982F0E94D7969B01AC0160E070E080E24C
:1053500091E40E94B1989B01AC01C501B4010E9487
:105360004E98AB01BC01D7015B96ED91FC915C9727
:10537000E00FF11F208186E497E130E00E946D91FB
:1053800086E497E163E672E00E94DD901AC0C9826C
:10539000CA82CB82CC8280EF98E060E20E940886CD
:1053A00014E01150F301E10FF11D80EF98E06081EE
:1053B0000E9408861123A9F780EF98E060E20E941E
:1053C0000886D394B8E0DB1609F034CF03C0912FE0
:1053D000192FFBCE28960FB6F894DEBF0FBECDBFB7
:1053E000CF91DF911F910F91FF90EF90DF90CF90C1
:1053F000BF90AF909F908F907F906F905F904F90F5
:105400003F900895FC01662311F41282ACDE80E027
:105410000895A9CE08953F924F925F926F927F9226
:105420008F929F92AF92BF92CF92DF92EF92FF92B4
:105430000F931F93DF93CF93CDB7DEB728970FB6A7
:10544000F894DEBF0FBECDBF7C0180EF98E00E94D4
:105450000081DD2400E02FC0D701D9968C91081778
:10546000A0F5041740F0B02FB41B4B2F80EF98E04D
:1054700060E00E948D8090E001C0912FD70191964D
:10548000ED91FC919297ED0DF11DD39464916623FB
:1054900089F06A3079F05B968C91081708F4F0C0B7
:1054A000192F1F5F9C3008F0EAC080EF98E00E943F
:1054B0000886E3CF0F5FF701438D842F90E00796B6
:1054C000202F30E0821793073CF6DD24ADE2CA2E90
:1054D0003E010894611C711CF6E44F2EEFE45E2E31
:1054E0007EE4372E80EF98E06EE04D2D0E948D8097
:1054F000D7015B961C915B971D0DD9968C9118175F
:1055000008F0C0C0A12FB0E0FD01EA5CF54F80813A
:10551000882309F494C0F701828190E08556904079
:10552000A817B90729F4638174818581968119C010
:10553000AE0DBF1D9396EC91F0E0EE0FFF1FEE0F46
:10554000FF1FE655F64F80809180A280B380C50191
:10555000B40120E030E040E05FE30E946F950E94DC
:1055600012970E94A9969B01AC01012F10E0D70170
:10557000D796ED91FC91D897E00FF11F808183368B
:1055800011F5D596ED91FC91D697E00FF11F808132
:105590008336C9F4211531054105510521F03982C1
:1055A0005A8212E004C049824A825B8213E01150A1
:1055B000F301E10FF11D80EF98E060810E94088601
:1055C0001123A9F751C086E497E16EE04D2D0E94AA
:1055D0008D80D701D596ED91FC91D697E00FF11F04
:1055E000608170E0709561957F4F882777FD809589
:1055F000982F0E94D7969B01AC0160E070E080E29A
:1056000091E40E94B1989B01AC01C501B4010E94D4
:105610004E98AB01BC01D701D796ED91FC91D8977C
:10562000E00FF11F208186E497E130E00E946D9148
:1056300086E497E163E672E00E94DD901AC0C982B9
:10564000CA82CB82CC8280EF98E060E20E9408861A
:1056500014E01150F301E10FF11D80EF98E060813B
:105660000E9408861123A9F780EF98E060E20E946B
:105670000886D394B8E0DB1609F034CF03C0912F2D
:10568000192FFBCE28960FB6F894DEBF0FBECDBF04
:10569000CF91DF911F910F91FF90EF90DF90CF900E
:1056A000BF90AF909F908F907F906F905F904F9042
:1056B0003F900895FC01662311F41282ACDE80E075
:1056C0000895A9CE08953F924F925F926F927F9274
:1056D0008F929F92AF92BF92CF92DF92EF92FF9202
:1056E0000F931F93DF93CF93CDB7DEB728970FB6F5
:1056F000F894DEBF0FBECDBF7C0180EF98E00E9422
:105700000081DD2400E03EC0D7015D968C91081732
:1057100008F044C0041740F0B02FB41B4B2F80EFAB
:1057200098E060E00E948D80D39490E002C0D39412
:10573000912FED2DE15080918009813029F4F0E026
:10574000EF5CF34F64910AC0F0E08A3021F4E45832
:10575000F64F649103C0EF5CF34F6491662389F0C8
:105760006A3079F0F7018585081708F4EFC0192F22
:105770001F5F9C3008F0E9C080EF98E00E94088627
:10578000D6CF0F5FD7011D964C91842F90E00796DE
:10579000202F30E0821793070CF0B6CFDD249DE276
:1057A000C92E3E010894611C711C86E4482E0FE44A
:1057B000502E1EE4312E80EF98E06EE04D2D0E94B9
:1057C0008D80F70115851D0D858D181708F0C0C057
:1057D000A12FB0E0FD01EE5CF54F8081882309F434
:1057E00094C0F701828190E085569040A817B907D0
:1057F00029F4638174818581968119C0AE0DBF1D26
:105800005596EC91F0E0EE0FFF1FEE0FFF1FEC59E5
:10581000F64F86A897A8A0ACB1ACC501B40120E0B2
:1058200030E040E05FE30E946F950E9412970E9473
:10583000A9969B01AC01012F10E0D7015B96ED9179
:10584000FC915C97E00FF11F8081833611F559962A
:10585000ED91FC915A97E00FF11F80818336C9F4D6
:10586000211531054105510521F039825A8212E096
:1058700004C049824A825B8213E01150F301E10FB8
:10588000F11D80EF98E060810E9408861123A9F73E
:1058900051C086E497E16EE04D2D0E948D80D701C6
:1058A0005996ED91FC915A97E00FF11F608170E0DD
:1058B000709561957F4F882777FD8095982F0E947E
:1058C000D7969B01AC0160E070E080E291E40E9419
:1058D000B1989B01AC01C501B4010E944E98AB0187
:1058E000BC01D7015B96ED91FC915C97E00FF11F35
:1058F000208186E497E130E00E946D9186E497E193
:1059000063E672E00E94DD901AC0C982CA82CB822F
:10591000CC8280EF98E060E20E94088614E011508B
:10592000F301E10FF11D80EF98E060810E9408868D
:105930001123A9F780EF98E060E20E940886D394D3
:10594000B8E0DB1609F037CF03C0912F192FEFCE47
:1059500028960FB6F894DEBF0FBECDBFCF91DF9172
:105960001F910F91FF90EF90DF90CF90BF90AF907D
:105970009F908F907F906F905F904F903F90089591
:10598000FC01662311F412829EDE80E008959BCE16
:1059900008952F923F924F925F926F927F928F92D3
:1059A0009F92AF92BF92CF92DF92EF92FF920F93AE
:1059B0001F93DF93CF93CDB7DEB728970FB6F89438
:1059C000DEBF0FBECDBF7C0180EF98E00E9400815A
:1059D000DD2400E02FC0D7019D968C910817A0F51B
:1059E000041740F0B02FB41B4B2F80EF98E060E01D
:1059F0000E948D8090E001C0912FD7015B96ED91C0
:105A0000FC915C97ED0DF11DD3946491662389F0B0
:105A10006A3079F055968C91081708F4FEC0192F5A
:105A20001F5F9C3008F0F8C080EF98E00E94088665
:105A3000E3CF0F5FF7014589842F90E00796202F71
:105A400030E0821793073CF6CC247DE2772E2E01BE
:105A50000894411C511C66E4362E5FE4652E4EE42A
:105A6000242E80EF98E06EE04C2D0E948D80D701AF
:105A70005596DC905597DC0C9D968C91D81608F0C5
:105A8000CEC00D2D10E0F801EE0FFF1FEE0FFF1F2F
:105A9000E857F54F608171818281938120E030E089
:105AA00040E85FE30E943596882309F095C0F7012E
:105AB000828190E0855690400817190729F4638188
:105AC0007481858196811AC00E0D1F1DD8015D96C7
:105AD000EC91F0E0EE0FFF1FEE0FFF1FE85AF54FBD
