:100000000C944D0B0C94918E0C94C28E0C94F38E28
:100010000C94248F0C94558F0C94868F0C94B78F6E
:100020000C94E88F0C947A0B0C947A0B0C947A0B4A
:100030000C947A0B0C947B990C947A0B0C947A0B9D
:100040000C947A0B0C94346C0C947A0B0C947A0B01
:100050000C947A0B0C947A0B0C947A0B0C941990E8
:100060000C947A0B0C9473920C949B930C947A0BD3
:100070000C947A0B0C947A0B0C947A0B0C947A0BEC
:100080000C94076C0C947A0B0C947A0B0C947A0BEE
:100090000C94AC920C94DA930C947A0B0C94826DC1
:1000A0000C947A0B0C947A0B0C94DA6B0C947A0BFC
:1000B0000C947A0B0C947A0B0C947A0B0C94AD6B19
:1000C0000C947A0B0C947A0B0C947A0B0C94E592AA
:1000D0000C9419940C947A0B0C941E930C945894D1
:1000E0000C947A0B084AD73B3BCE016E84BCBFFD13
:1000F000C12F3D6C74319ABD56833DDA3D00C77FF8
:1001000011BED9E4BB4C3E916BAAAABE0000008090
:100110003F05A84CCDB2D44EB93836A9020C50B91F
:10012000918688083CA6AAAA2ABE000000803F0744
:10013000634236B79BD8A71A39685618AEBAAB5582
:100140008C1D3CB7CC5763BD6DEDFD753EF6177247
:1001500031BF000000803F08000000BE9224491219
:100160003EABAAAA2ABECDCCCC4C3E00000080BE3D
:10017000ABAAAAAA3E00000000BF000000803F001A
:1001800000000000084178D3BB4387D1133D190E0E
:100190003CC3BD4282AD2B3E68EC8276BED98FE176
:1001A000A93E4C80EFFFBE01C4FF7F3F000000006E
:1001B000005452494D5F4155544F004152535044F1
:1001C0005F524154494F005343414C494E475F539E
:1001D00050454544004C4F475F4249544D41534BB5
:1001E00000B101BB01C701D501524C4C32535256EC
:1001F0005F5000524C4C325352565F4900524C4CA7
:10020000325352565F4400524C4C325352565F495F
:100210004D415800524C4C325352565F524D41584A
:1002200000524C4C325352565F54434F4E5354007D
:1002300050544348325352565F5000505443483252
:100240005352565F490050544348325352565F440C
:100250000050544348325352565F494D4158005064
:10026000544348325352565F524D41585F555000E7
:1002700050544348325352565F524D41585F444E9A
:100280000050544348325352565F54434F4E5354D8
:100290000050544348325352565F524C4C0059411F
:1002A00057325352565F534C4950005941573253BD
:1002B00052565F44414D5000594157325352565F98
:1002C000524C4C00594157325352565F494E5400DC
:1002D000E901F301FD0107021402210230023B0291
:1002E000460251025F027002810291029E02AB023D
:1002F000B802C4024E41564C315F504552494F44FA
:10030000004E41564C315F44414D50494E470057D5
:10031000505F524144495553004C494D5F524F4C38
:100320004C5F434400F40201030F0319034152538D
:1003300050445F4642575F4D494E0041525350442E
:100340005F4642575F4D4158005448525F4D494EF9
:10035000005452494D5F5448524F54544C45005438
:1003600048525F4D4158004C494D5F5049544348F5
:100370005F4D494E004C494D5F50495443485F4DD5
:10038000415800544543535F53494E4B5F4D494ECE
:1003900000544543535F53494E4B5F4D4158005401
:1003A0004543535F434C4D425F4D415800544543D4
:1003B000535F54494D455F434F4E5354005445439A
:1003C000535F505443485F44414D50002D033B035D
:1003D000490351035F0367037503830391039F037D
:1003E000AD03BD035448525F4D494E004352554939
:1003F00053455F5448524F54544C45005448525F43
:100400004D4158005448525F534C45575241544552
:10041000005354454552325352565F500053544591
:100420004552325352565F49005354454552325358
:1004300052565F44005354454552325352565F4919
:100440004D4158005354454552325352565F544320
:100450004F4E5354005455524E5F4D41585F470024
:100460004E41564C315F504552494F440053504520
:1004700045445F5455524E5F4741494E00535045E5
:1004800045445F5455524E5F4449535400534B49C1
:10049000445F53544545525F4F555400534B4944B4
:1004A0005F53544545525F494E0046535F414354A4
:1004B000494F4E0046535F54494D454F55540046F1
:1004C000535F5448525F454E41424C450046535F8E
:1004D0005448525F56414C554500E403EC03FC037D
:1004E000040411041D042904350444045504600463
:1004F0006D047D048D049C04AA04B404BF04CD04DF
:100500005448525F4D494400534F4E41525F454E4F
:1005100041424C4500534F4E41525F5459504500A3
:10052000534F4E41525F4741494E00424154545F40
:1005300043415041434954590046535F424154544A
:100540005F454E41424C450046535F4750535F451F
:100550004E41424C450046535F4743535F454E4131
:10056000424C45004D41475F454E41424C45004C91
:10057000414E445F5350454544005448525F4D49F5
:100580004E005448525F4D415800000508051505BE
:1005900020052B0539054805560564056F057A05C4
:1005A0008205524154455F524C4C5F5000524154B9
:1005B000455F524C4C5F4900524154455F524C4C90
:1005C0005F4400524154455F524C4C5F494D415885
:1005D00000524154455F5049545F500052415445C8
:1005E0005F5049545F4900524154455F5049545F40
:1005F0004400524154455F5049545F494D415800B1
:10060000524154455F5941575F5000524154455F34
:100610005941575F4900524154455F5941575F4422
:1006200000524154455F5941575F494D415800546C
:1006300048525F524154455F50005448525F524106
:1006400054455F49005448525F524154455F44004D
:100650005448525F524154455F494D415800A205EC
:10066000AD05B805C305D105DC05E705F2050006B3
:100670000B06160621062F063A064506500624509C
:100680005542582C34312C312C303030332C303012
:1006900030312C33383430302C302A32360AB562BF
:1006A00006010300010601124F000341000004008F
:1006B000010101000196F40100000005072060001F
:1006C0000000000000005F00000007000700147F2A
:1006D000147F14242A7F2A12231308646236495592
:1006E00022500005030000001C2241000041221C92
:1006F00000082A1C2A0808083E080800503000009C
:100700000808080808006060000020100804023E85
:100710005149453E00427F400042615149462141D6
:10072000454B311814127F1027454545393C4A493D
:1007300049300171090503364949493606494929B5
:100740001E00363600000056360000000814224114
:100750001414141414412214080002015109063221
:100760004979413E7E1111117E7F494949363E410A
:100770004141227F4141221C7F494949417F09096A
:1007800001013E414151327F0808087F00417F410D
:10079000002040413F017F081422417F40404040FB
:1007A0007F0204027F7F0408107F3E4141413E7F6B
:1007B000090909063E4151215E7F0919294646492A
:1007C00049493101017F01013F4040403F1F204026
:1007D000201F7F2018207F6314081463030478040B
:1007E00003615149454300007F4141020408102044
:1007F00041417F00000402010204404040404000AB
:100800000102040020545454787F4844443838444A
:10081000444420384444487F3854545418087E09CE
:100820000102081454543C7F0804047800447D40BD
:10083000002040443D00007F10284400417F4000DC
:100840007C041804787C0804047838444444387CD8
:1008500014141408081414187C7C08040408485460
:10086000545420043F4440203C4040207C1C204005
:10087000201C3C4030403C44281028440C50505030
:100880003C4464544C44000836410000007F0000A2
:10089000004136080008082A1C08081C2A08081409
:1008A00014000000000040800000008030070C3081
:1008B00000000000000080E0F8FFF8F9FCF8E0FF1D
:1008C000FEFEFEFEFFF8E000000C0F0F0F0F0F0FF3
:1008D0000F0F0F0F0F0F0F0F0F0F0F0F081010003C
:1008E000000080EC0C1064C4C2E2F27E1E00000026
:1008F000000087C4C6C6DFFFFF73010000000008C8
:100900000800007E0A1B127E00080804150E2470E1
:10091000A82000101000101010101010547C381077
:100920000000000000000000000808080808082A6D
:100930003E1C080000546869732077696C6C206164
:1009400070706C79207468650A6368616E6765739E
:10095000206D61646520746F207468650A2073657A
:100960007474696E67732C2070726573730A20202B
:100970004F4B20746F2055706C6F61640054687227
:100980006F74746C65206D696E0A43727569736566
:100990002054687220200A5468726F74746C652049
:1009A0006D61780A54687220536C65777261746562
:1009B0000A5374656572696E67205020200A53746B
:1009C000656572696E67204920200A5374656572F7
:1009D000696E67204420200A5374656572696E67EA
:1009E000496D61780A5374656572696E6754636F07
:1009F0006E0A5475726E204D6178204720200A4E91
:100A00006176204C31506572696F640A53706420BE
:100A10005475726E4761696E0A5370642054757222
:100A20006E446973740A536B69642073747220692D
:100A30006E200A536B696420737472206F75740A98
:100A4000465320416374696F6E2020200A4653206C
:100A500054696D656F757420200A4653205468727E
:100A600020656E2020200A4653205468722076614B
:100A70006C75650A004169727370656564204D6923
:100A80006E0A4169727370656564204D61780A541D
:100A900068726F74746C65204D696E0A5468727464
:100AA0006C204372756973650A5468726F74746C54
:100AB00065204D61780A5069746368204D696E2025
:100AC00020200A5069746368204D61782020200A34
:100AD000544543532053696E6B4D696E0A54454328
:100AE000532053696E6B4D61780A5445435320433C
:100AF0006C6D624D61780A54454353205420436F16
:100B00006E73740A546563732050636844616D703A
:100B10000A004C3120506572696F642020200A4C15
:100B2000312044616D70696E6720200A5750205251
:100B300061646975732020200A4C696D20526F6CC6
:100B40006C204344200A00526F6C6C2050202020FF
:100B50002020200A526F6C6C204920202020202069
:100B60000A526F6C6C20442020202020200A526FF3
:100B70006C6C20496D61782020200A526F6C6C20CB
:100B8000526D61782020200A526F6C6C20542043F3
:100B90006F6E73740A50697463682050202020209F
:100BA000200A5069746368204920202020200A50C0
:100BB00069746368204420202020200A50697463EF
:100BC0006820496D617820200A506974636820525A
:100BD0006D617855700A506974636820526D617850
:100BE000446E0A50697463682054436F6E73740ACC
:100BF0005069746368203220526F6C6C0A596177B7
:100C000020536C6970202020200A596177204461AC
:100C10006D70202020200A59617720526F6C6C2063
:100C20002020200A59617720496E7420202020203E
:100C30000A00496E466C696768745472696D0A41AE
:100C40006972736420526174696F200A5363616C26
:100C5000696E6753706565640A4C6F6720426974FA
:100C60006D61736B200A005468726F74746C652038
:100C7000486F760A536F6E617220456E61626C65D3
:100C80000A536F6E6172205479706520200A536F89
:100C90006E6172204761696E20200A42617474653A
:100CA000727920436170200A465320426174742097
:100CB000456E2E200A46532047505320456E2E2065
:100CC000200A46532047435320456E2E20200A4DCC
:100CD000616720456E61626C6520200A4C616E641C
:100CE00020537065656420200A5468726F74746CB8
:100CF00065204D696E0A5468726F74746C65204D7E
:100D000061780A0022080A0E20600402050607081E
:100D10000902030305080204020407040707070782
:100D2000070707070202070707080E090808080750
:100D3000070908020708070B080907090907080837
:100D4000090D070808040404060803070706070737
:100D5000050707020306020A070707070506050736
:100D6000070B060705050105070800000000000045
:100D70000000FEFE18181E1E001E1E0000000000CF
:100D800090F89E90F89E1C00001C0000183C26FF66
:100D900066CC88040C183C180C041C221CC0308E35
:100DA000408000001804000C100C80CC7E72F2DE33
:100DB0000C80000C1C1010101C0C1C101E1E0000BF
:100DC000F0FC061C7CC006FCF0C07C1C14140E1445
:100DD000140000000000606060FCFC6060600000C7
:100DE000000C0C00000000005838C0C0C0C000005B
:100DF00000000000181800C0380618040000F8FCB5
:100E00000E060EFCF8040C1C181C0C04180CFEFE3C
:100E100000001C1C181C86C6663E1C181C1C1818DA
:100E20001818888C062626FEDC040C1C18180C04E6
:100E3000C0E0B88CFEFE80040404041C1C04707E18
:100E40003E3636F6C60C1C1818180C04F8FC6E66F4
:100E500066EECC040C1818181C0C060606E6761E66
:100E60000600001C1C0000009CFE666666FE9C0CD2
:100E70001C1818181C0C3C7E666666FCF80C1C18C6
:100E8000181C0C0418181818181858386060F0F05E
:100E900098980C0000000004040CD8D8D8D8D8D8F2
:100EA000D8000000000000000C9898F0F060600C82
:100EB000040400000000080C06C6E6763C1800009A
:100EC000001818000000E03008C4F63A1A1AF2FAC6
:100ED0007E0408F00C30604C9C98988C9C9C904848
:100EE0004C2000C0F8BE86BEF8C000181C040404E4
:100EF00004041C18FEFE66666666FEDC1C1C1818E0
:100F000018181C0CF8FC0E06060E9C08040C1C1885
:100F1000181C0C04FEFE0606060EFCF81C1C181815
:100F2000181C0C04FEFE66666666661C1C18181803
:100F30001818FEFE66666666061C1C0000000000AF
:100F4000F8FC0E0606C6CEDCC8040C1C18181818CF
:100F50000C04FEFE60606060FEFE1C1C00000000D1
:100F60001C1CFEFE1C1C8080000000FEFE0C1C18D9
:100F700018181C0CFEFE603078EC86021C1C000069
:100F800000041C18FEFE00000000001C1C181818AD
:100F90001818FEFE0E7CE000E07C0EFEFE1C1C001D
:100FA000000C1C0C00001C1CFEFE1C78E080FEFEE9
:100FB0001C1C0000040C1C1CF8FC0E0606060EFC93
:100FC000F8040C1C1818181C0C04FEFE6666667EDD
:100FD0003C1C1C0000000000F8FC0E0686060EFCFF
:100FE000F8040C1C18181C0C1C24FEFE6666E6E6B1
:100FF000BE1C001C1C0000000C1C18103C7E666609
:1010000066EECC0C1C1818181C0C060606FEFE0614
:1010100006060000001C1C000000FEFE0000000090
:10102000FEFE040C1C18181C0C04021EFCE000E060
:10103000FC1E020000001C1C1C00000006FEF80044
:10104000F0FE0EFEF000F8FE0600001C1C1C000066
:10105000001C1C1C0000060EF8F0F80E06181C04FC
:1010600000041C18060E38F0F0380E060000001CB4
:101070001C000000060686E6761E0E06181C1C18CC
:1010800018181818FEFE0606FCFCC0C00638C00082
:10109000000004180606FEFEC0C0FCFC20380E0E40
:1010A00038200000000000000000000000000000E8
:1010B000808080808080808002060400000010987C
:1010C000D858F8F0000C1C18180C1C10FEFE301834
:1010D00038F0E01C1C0C181C0C04E0F01818383018
:1010E000040C18181C0CE0F0381830FEFE040C1C20
:1010F000180C1C1CE0F0D8D8D8F0E0040C18181814
:10110000180818FCFE1A1A001C1C0000E0F0381821
:1011100030F8F864ECDCD8CCFC7CFEFE301818F813
:10112000F01C1C0000001C1CFAFA1C1C00FAFAC07F
:10113000FC7CFEFEE0F098081C1C00041C18FEFE5F
:101140001C1CF8F81018F8F01818F8F01C1C000017
:101150001C1C00001C1CF8F8301818F8F01C1C00AF
:1011600000001C1CE0F0381838F0E0040C1C181CBF
:101170000C04F8F8301838F0E0FCFC0C181C0C04D7
:10118000E0F0381830F8F8040C1C180CFCFCF8F8E7
:101190003018181C1C00000070F8D8D8D890081817
:1011A00018181C0C18FCFE1818000C1C1818F8F85D
:1011B000000000F8F80C1C18180C1C1C38F8C000B3
:1011C000C0F83800001C1C1C000018F8E000F038C3
:1011D000F000E0F81800001C1C0C000C1C1C0000A7
:1011E0001838E0E03818181C04041C1818F8E0003F
:1011F000E0F8180084FCF83C04001898D878381CF3
:101200001C18181880FC7E0606007CFCC0C0FEFC82
:1012100006067EFC80C0C0FC7C00603030706060E0
:101220003000000000000000FE020202020202FE86
:101230001C1010101010101C53657269616C205343
:10124000706565640A4C6F7720566F6C74616765D2
:10125000200A55736520436F6D70617373200A53C4
:10126000747265616D2052617465200A4D757465F4
:1012700020427574746F6E730A416C61726D2053F5
:101280006F756E64730A4D4156204E756D626572BE
:1012900020200A4750532054696D657A6F6E650AA5
:1012A0005344204C6F6767696E6720200A545820AA
:1012B0004865617274626561740A52657065617433
:1012C0002044656C61790A486F6C642044656C61E8
:1012D0007920200A4B657920526F746174696F6EB2
:1012E0000A00202020526F6C6C20506974636820C3
:1012F00020596177002020546869732077696C6CED
:101300002072657365740A20202020746865206D42
:10131000697373696F6E0A202020205072657373A1
:10132000204F4B20746F0A202020202020436F6E16
:101330006669726D0020546869732077696C6C204F
:10134000726571756573740A202074686520706118
:1013500072616D65746572730A2020205072657326
:1013600073204F4B20746F0A2020202020436F6E83
:101370006669726D00202020546869732077696C5B
:101380006C2073746F700A2020207468652064617B
:1013900074612073747265616D0A20202020507280
:1013A000657373204F4B20746F0A2020202020206B
:1013B000436F6E6669726D002054686973207769A7
:1013C0006C6C20726573746172740A202074686595
:1013D00020646174612073747265616D0A2020203D
:1013E0005072657373204F4B20746F0A20202020A9
:1013F00020436F6E6669726D005468697320776967
:101400006C6C20696E697469616C6973650A20206F
:1014100074686520474353277320486F6D650A70D1
:101420006F736974696F6E2E20456E7375726520D7
:101430007468650A554156206973206E657874207A
:10144000746F2047435300546869732077696C6C4C
:1014500020696E697469616C6973650A74686520D6
:101460004169726372616674277320486F6D650A03
:10147000706F736974696F6E2E20456E7375726537
:101480002069740A6973202A2A6F6E2074686520A7
:1014900047524F554E442A2A005265737461727444
:1014A000204D697373696F6E0A5265717565737447
:1014B00020506172616D65746572730A53746F7048
:1014C00020446174612053747265616D0A52652D08
:1014D000726571756573742053747265616D0A531A
:1014E00065742047435320486F6D650A52657365E4
:1014F000742055415620486F6D65004552524F5239
:101500002000555020202020004C4546542020002B
:10151000444F574E2020005249474854200045521E
:10152000524F5220004F4E20202020004F46462090
:101530002020004552524F52200031313532303098
:101540000035373630302000333834303020003129
:10155000393230302000393630302020007C3C3E9B
:101560005E2B3D3F2F5B5D3B2C2A225C000000215F
:1015700000240027002A002D003000330001010064
:1015800000040107010A0100002200250028002BA9
:10159000002E003100340002010000050108010B9B
:1015A00001000020002300260029002C002F00321B
:1015B00000000100000301060109010505050507FA
:1015C0000508080808020202020A0A0808040404BE
:1015D00004010101010101010103030303030303EA
:1015E00003040707070C0C0C0C0C0C0C0C02020279
:1015F0000206060606060606060B0B0B0B0B0B0B6C
:101600000B0102102020080810204010204080020A
:101610000102010804020101020408102040808038
:1016200040201008040201800402018040201008BC
:101630000402010804020101020408102040800194
:10164000020408102040800000090A02080B0C0D5B
:101650000706030401000000000000000000000075
:10166000000000000000000000000000000000007A
:1016700000000011100F000000000000000000003A
:101680000000000000000000000000000002E3591C
:10169000916C62705385C295DE5911241FBECFEF45
:1016A000D1E2DEBFCDBF00E00CBF1AE0A0E0B2E0A7
:1016B000EAE8F5E401E00BBF02C007900D92A63501
:1016C000B107D9F71BBE1BE1A6E5BAE001C01D9228
:1016D000AD3CB107E1F716E1C8E9D6E104C02297B5
:1016E000FE010E947EA2CE38D107C9F70E94E09683
:1016F0000C94B9A20C940000CF93DF93BC0182300C
:10170000910510F462E070E0A091CB1BB091CC1B6E
:10171000ED01E0E0F0E040E050E021C088819981F7
:101720008617970769F48A819B81309719F0938314
:10173000828304C09093CC1B8093CB1BFE0134C0EA
:101740006817790738F44115510519F08417950782
:1017500008F4AC01FE018A819B819C01E90120977C
:10176000E9F641155105A9F1CA01861B970B0497AB
:1017700008F4BA01E0E0F0E02AC08D919C91119745
:1017800084179507F9F46417750781F412968D9103
:101790009C911397309719F09383828304C09093A0
:1017A000CC1B8093CB1BFD0132964CC0CA01861B1B
:1017B000970BFD01E80FF91F6193719302978D93C9
:1017C0009C9340C0FD01828193819C01D9011097B7
:1017D000A1F68091C91B9091CA1B892B41F480917D
:1017E0009306909194069093CA1B8093C91B4091D5
:1017F0009506509196064115510541F44DB75EB7D7
:101800008091910690919206481B590B2091C91B1B
:101810003091CA1BCA01821B930B8617970780F071
:10182000AB014E5F5F4F8417950750F0420F531F77
:101830005093CA1B4093C91BF9016193719302C075
:10184000E0E0F0E0CF01DF91CF910895CF93DF93F7
:10185000009709F450C0EC0122971B821A82A091D4
:10186000CB1BB091CC1B109709F140E050E0AC17B6
:10187000BD0708F1BB83AA83FE0121913191E20FDC
:10188000F31FAE17BF0779F48D919C911197280F24
:10189000391F2E5F3F4F3983288312968D919C917B
:1018A00013979B838A834115510571F4D093CC1B08
:1018B000C093CB1B20C012968D919C911397AD01C4
:1018C000009711F0DC01D3CFFA01D383C2832191B9
:1018D0003191E20FF31FCE17DF0769F488819981F8
:1018E000280F391F2E5F3F4FFA01318320838A81F1
:1018F0009B8193838283DF91CF910895FB01DC016B
:1019000002C005900D9241505040D8F70895FB0158
:10191000DC0105900D920020E1F70895FB01DC0148
:1019200004C08D910190801921F441505040C8F7B6
:10193000881B990B0895FB01DC0102C001900D92F8
:1019400041505040D8F70895DC0101C06D934150DB
:101950005040E0F70895FC018191861721F088231B
:10196000D9F7992708953197CF010895FB01DC013C
:101970004150504030F08D910190801919F40020B1
:10198000B9F7881B990B0895FB01DC0141505040C9
:1019900048F001900D920020C9F701C01D924150FE
:1019A0005040E0F70895AEE0B0E0E9EDFCE00C94C3
:1019B00090A20E891F8986E08C831A8309838FEF9A
:1019C0009FE79E838D839E01265E3F4FCE01019649
:1019D000688D798DA9010AD02F813885020F131FD8
:1019E000F80110822E96E4E00C94ACA2ABE0B0E0DB
:1019F000ECEFFCE00C9482A23C012B015A01FC01AB
:101A000017821682838181FD03C06FEF7FEFB9C11A
:101A10009AE0892E1E010894211C311CF3012381B8
:101A2000F20123FD859123FF81912F01882309F481
:101A3000A5C1853239F423FD859123FF81912F01C2
:101A4000853221F490E0B301B7D1E8CF982FFF247D
:101A5000EE249924FFE1FF15D0F09B3269F09C320F
:101A600028F4903259F0933291F40EC09D3249F02F
:101A7000903369F441E024C052E0F52A84E0F82A6A
:101A800028C098E0F92A25C0E0E1FE2A22C0F7FC30
:101A900029C0892F80538A3070F4F6FE05C0989CC7
:101AA000902C1124980E15C0E89CE02C1124E80E0F
:101AB000F0E2FF2A0EC09E3229F4F6FC5FC140E43A
:101AC000F42A07C09C3619F450E8F52A02C098366B
:101AD00049F4F20123FD959123FF91912F01992360
:101AE00009F0B8CF892F8554833018F080528330A5
:101AF00038F444E050E0A40EB51E5FE359830FC0F4
:101B0000933631F0933779F0933509F052C01FC006
:101B1000F5018081898342E050E0A40EB51E610189
:101B200001E010E011C0F501C080D180F6FC03C0D7
:101B30006FEF7FEF02C0692D70E042E050E0A40E2D
:101B4000B51EC6012ED18C015FE7F52213C0F50149
:101B5000C080D180F6FC03C06FEF7FEF02C0692D1B
:101B600070E042E050E0A40EB51EC6010FD18C011A
:101B700050E8F52AF3FE06C018C080E290E0B301F9
:101B80001BD1EA948E2D90E008171907B0F30DC011
:101B9000F601F7FC8591F7FE81916F0190E0B301AA
:101BA0000BD1E110EA94015010400115110581F7A5
:101BB000E2C0943611F0993661F5F7FE08C0F501E0
:101BC000208131814281538184E090E00AC0F50197
:101BD000808191819C01442737FD4095542F82E0FC
:101BE00090E0A80EB91E9FE6F92257FF09C0509554
:101BF0004095309521953F4F4F4F5F4FE0E8FE2ACB
:101C0000CA01B901A1012AE030E002D1D82ED218D0
:101C10003FC0953729F41F2D1F7E2AE030E01DC0FC
:101C20001F2D197F9F3661F0903720F4983509F009
:101C3000A5C00FC0903739F0983709F09FC004C095
:101C400028E030E00AC0106114FD146020E130E0AB
:101C500004C014FD166020E132E017FF08C0F50152
:101C6000608171818281938144E050E008C0F50178
:101C700080819181BC0180E090E042E050E0A40EC0
:101C8000B51EA101C5D0D82ED2188FE7F82EF122AB
:101C9000F6FE0BC05EEFF522D91438F4F4FE07C04F
:101CA000F2FC05C08FEEF82202C01D2D01C0192DD7
:101CB000F4FE0DC0FE01ED0DF11D8081803319F49D
:101CC00099EEF92208C01F5FF2FE05C003C08F2DF8
:101CD000867809F01F5F0F2DF3FC13C0F0FE0EC0D5
:101CE0001E1510F09D2C0AC09D2C9E0C911A1E2DC5
:101CF00005C080E290E0B3015FD01F5F1E15C8F3FE
:101D000004C01E1510F4E11A01C0EE2404FF0EC039
:101D100080E390E0B30150D002FF1BC001FD03C07F
:101D200088E790E00EC088E590E00BC0802F8678B1
:101D300081F001FF02C08BE201C080E2F7FC8DE27E
:101D400090E0B30139D005C080E390E0B30134D016
:101D50009A94D914C8F3DA94F101ED0DF11D808144
:101D600090E0B30129D0DD20B1F705C080E290E01A
:101D7000B30122D0EA94EE20C9F750CEF301668178
:101D80007781CB012B96E2E10C949EA2FC01059099
:101D9000615070400110D8F7809590958E0F9F1F6D
:101DA0000895FC016150704001900110D8F78095B2
:101DB00090958E0F9F1F08950F931F93CF93DF93DE
:101DC0008C01EB018B8181FF1BC082FF0DC02E8136
:101DD0003F818C819D812817390764F4E881F9815E
:101DE0000193F983E88306C0E885F985802F19956A
:101DF000892B31F48E819F8101969F838E8302C04F
:101E00000FEF1FEFC801DF91CF911F910F91089540
:101E1000FA01AA27283051F1203181F1E8946F931B
:101E20006E7F6E5F7F4F8F4F9F4FAF4FB1E03ED0C1
:101E3000B4E03CD0670F781F891F9A1FA11D680F5F
:101E4000791F8A1F911DA11D6A0F711D811D911D92
:101E5000A11D20D009F468943F912AE0269F112407
:101E60003019305D3193DEF6CF010895462F47706B
:101E7000405D4193B3E00FD0C9F7F6CF462F4F70C6
:101E8000405D4A3318F0495D31FD4052419302D024
:101E9000A9F7EACFB4E0A6959795879577956795CA
:101EA000BA95C9F700976105710508959B01AC01CA
:101EB0000A2E06945795479537952795BA95C9F7F1
:101EC000620F731F841F951FA01D089560E070E0CE
:101ED00080E89FE30895FF920F931F93CF93DF93C2
:101EE000EC01F02E8EEF8A832B836D834E838091DD
:101EF000A8108C838F5F8093A810022F10E0F80148
:101F00003596DE0113966FEF7FEF2D912627822FF6
:101F10008295807F822790E0382F2227AC01440FE2
:101F2000551F440F551F440F551F24273527672F72
:101F300077276227732724E0959587952A95E1F7FF
:101F400068277927319709F72F2D2627822F829529
:101F5000807F822790E0382F2227AC01E3E0440FF6
:101F6000551FEA95E1F724273527472F55272427C2
:101F7000352744E0959587954A95E1F72827392735
:101F8000DE0118968B81FD01E80FF11D20838B8106
:101F9000A80FB11D11963C939801285F3F4FC901CE
:101FA000DF91CF911F910F91FF90089508950895AB
:101FB00008950F931F938C01DC01ED91FC91068035
:101FC000F781E02D1995D801ED91FC910084F18500
:101FD000E02DC80119951F910F9108950895089556
:101FE0000895089508950895089508950895089509
:101FF0000895089508952F923F924F925F926F92A5
:102000007F928F929F92AF92BF92CF92DF92EF9288
:10201000FF920F931F93DF93CF93CDB7DEB7A697B1
:102020000FB6F894DEBF0FBECDBF9EA38DA3DC011B
:10203000D196ED91FC91D297A081B18114962D910A
:102040003C911597CF01F90119959C838B8310E082
:102050001A821982EDA1FEA1E45AFF4FFE83ED839F
:102060002DA13EA1265A3F4F38872F838DA19EA1D7
:10207000855A9F4F9A878987ADA1BEA1A35ABF4FAA
:10208000BC87AB87EDA1FEA1E658FF4FFE87ED8729
:102090002DA13EA12B593F4F388B2F878DA19EA19B
:1020A00087599F4F9A8B898BADA1BEA1A15ABF4F73
:1020B000BC8BAB8BEDA1FEA1E359FF4FFE8BED8BEB
:1020C0002DA13EA12F583F4F388F2F8B8DA19EA160
:1020D0008B589F4F9A8F898FADA1BEA1A758BF4F34
:1020E000BC8FAB8FEDA1FEA1ED57FF4FFE8FED8FA3
:1020F0002DA13EA125583F4F38A32F8F8DA19EA122
:1021000081589F4F9AA389A3ADA1BEA1A25ABF4FE8
:10211000BCA3ABA380C1ADA1BEA1D196ED91FC91B2
:10212000D297A081B18116962D913C911797CF013E
:10213000F9011995482FED81FE8130813230E1F1AE
:10214000333030F4332371F0313009F05EC11AC0FE
:10215000343009F465C0343008F442C0353009F039
:1021600054C16CC0803D11F4E0E104C0813D09F030
:102170004CC1E3E1ABA1BCA1EC93E1E0AD81BE8138
:10218000EC9343C1ABA1BCA18C91803111F08331A0
:1021900051F44D3D41F422E0ED81FE812083AB8975
:1021A000BC898C9332C1EBA1FCA11082AB89BC89A4
:1021B0001C92ED81FE811082403271F4AD81BE81AE
:1021C0008C918F5F8C93EF81F8854083A985BA85C8
:1021D0004C93EB85FC8530C0AD81BE811C9215C14E
:1021E000EB85FC859081EDA1FEA1E90FF11DEB5976
:1021F000FF4F40839F5FAB85BC859C93E985FA8543
:102200002081AF81B8858C91840F8C93820F80835D
:10221000903209F0FAC03F5FED81FE813083F5C056
:10222000E5E0AD81BE81EC93AF81B8858C918417D8
:1022300009F4EBC0ED81FE811082E7C0AD81BE8163
:102240001C92E985FA858081841709F0DEC0AD858E
:10225000BE859C91933019F080E0973009F481E0BD
:10226000EDA1FEA186A3AF85B8892D913D914D9139
:102270005C912287338744875587A989BA896D90F5
:102280007D908D909C9066867786808A918AAB89B6
:10229000BC898C918031D1F4CA01B9012AE030E0C7
:1022A00040E050E00E94EDA1EDA1FEA1628773879E
:1022B00084879587C401B3010E94EDA1ADA1BEA1A1
:1022C0001E966D937D938D939C935197ED89FE8916
:1022D00080819181A281B381EDA1FEA1828B938B3C
:1022E000A48BB58BEF89F88D80819181A281B38118
:1022F000EDA1FEA1868B978BA08FB18FE98DFA8D12
:1023000080819181A281B381EDA1FEA1828F938F03
:10231000A48FB58FAB8DBC8D8C9184A3ED8DFE8D7C
:1023200080819181ADA1BEA193969C938E9392974B
:10233000EF8DF8A180819181A281B381EDA1FEA1F1
:1023400086839783A087B187A9A1BAA1ED90FD905C
:102350000D911C91C801B70120E836E948E950E029
:102360000E944DA2522E432E342E252E622F732F03
:10237000842F952F20E839E647E65FEF0E94EDA114
:102380005B016C01AE0CBF1CC01ED11EC601B501A5
:1023900020EA36E841E050E00E944DA2922E832EC2
:1023A000742E652E622F732F842F952F20E639E728
:1023B0004EEF5FEF0E94EDA17B018C01692D782D1E
:1023C000872D962D20E63AEE40E050E00E94EDA1E8
:1023D000E60EF71E081F191FEA0CFB1C0C1D1D1D25
:1023E000652D742D832D922D20E83EEE46E350E0BE
:1023F0000E94EDA1E60EF71E081F191FEDA1FEA118
:10240000E282F3820483158311E029813A812F5FF0
:102410003F4F3A83298389819A81AB81BC818A1796
:102420009B070CF478CE812FA6960FB6F894DEBFEA
:102430000FBECDBFCF91DF911F910F91FF90EF9015
:10244000DF90CF90BF90AF909F908F907F906F90D4
:102450005F904F903F902F900895DF93CF93CDB72B
:10246000DEB7CF91DF910895CF93DF93FB01EA01AF
:10247000D90119821882E081E73069F1E83058F417
:10248000E23031F1E33018F4EE2371F02BC0E45068
:10249000E23040F51DC0EA3069F0EA30C8F0EB30B8
:1024A00081F0EC30F9F403C084E090E01DC083E0DB
:1024B00090E01AC082E390E09983888388EE93E0ED
:1024C00013C082E390E09983888388EB9BE00CC083
:1024D00081E090E009C082EF9FEF998388838EE0CE
:1024E00090E002C08EEF90E08D939C93DF91CF91AE
:1024F0000895CF93DF93EC01FB01DA01E081E63030
:1025000081F1E73070F4E23009F1E33028F4EE2392
:10251000C1F0E130D1F517C0E430F9F0E530F8F45E
:102520001AC0E93039F1EA3028F4E730E1F0E83058
:1025300061F51EC0EB3011F1EB30F0F0EC3029F515
:1025400022C0888104C089819A811AC08B818C93B2
:1025500011961C921CC08C81FACF8D81F8CF8E8190
:10256000F6CF8F81F4CF8885992787FD909508C095
:102570008985EDCF8A85EBCF8B85E9CF8C859D85CD
:102580008D939C9304C08E85E2CF1D921C92DF91A7
:10259000CF9108950F931F93DF93CF930F920F92D4
:1025A000CDB7DEB78A01AE014F5F5F4FA2DF698111
:1025B0007A81882777FD8095982F0E94799EF8016F
:1025C00060837183828393830F900F90CF91DF910B
:1025D0001F910F91089508950895FC0110928B109A
:1025E00032E030938C104AE040938D108BE0809362
:1025F0008E108CE080938F108EE08093901026E0F8
:1026000020939F1081E398E091838083158A84E072
:10261000868B88E0878B91E0908F85E0818F89E0C1
:10262000828F338F248F458F91879287938782EE95
:1026300092E1928B818B12820895089580E0089533
:10264000FC0110928B1082E080938C108AE08093C2
:102650008D108BE080938E108CE080938F108EE035
:102660008093901086E080939F1081E298E09183A0
:10267000808383EE98E0928B818B80EF98E0948B3F
:10268000838B8DE0858B12821186089580E00895FA
:10269000089580E0089580E00895E82FF0E0E55780
:1026A000FF4EE081E73009F446C0E83070F4E330D3
:1026B00069F1E43028F4E130D1F0E230D8F445C0DB
:1026C000E53099F1E630A0F52DC0EB30C9F0EC30E3
:1026D00028F4E930B1F1EA3080F430C0ED30C9F0CF
:1026E000ED3088F0EE30C1F0EF3071F518C02FE119
:1026F0003FE02DC020E33FE02AC026E43FE027C0B2
:102700002BE43FE024C02DE43FE021C023E830E18A
:102710001EC02FE43FE01BC025E53FE018C027E5C1
:102720003FE015C025E73FE012C023E93FE00FC0BE
:102730002DEC3FE00CC02BEE3FE009C029E130E179
:1027400006C025E530E103C008952FEF3EE0C90142
:1027500008951F939091F00A913031F510928B10EB
:1027600090938C1083E080938D1084E080938E1082
:1027700085E080938F1086E08093901087E08093AF
:1027800091108AE0809392108BE0809393108CE0FC
:10279000809394109DE0909395108EE08093961016
:1027A00082E0809397102AC0943041F09F3031F03E
:1027B000923021F09D3011F09E3019F510928B105F
:1027C00081E080938C1083E080938D108FE0809364
:1027D0008E1089E080938F108AE0809390109BE0A8
:1027E000909391108CE0809392108DE080939310E1
:1027F0008EE08093941082E08093951090939F10C8
:1028000039C09A30E9F410928B1081E080938C10DB
:1028100083E080938D1088E080938E1090938F10CA
:102820008BE0809390108CE0809391108DE08093EA
:1028300092108EE08093931082E080939410DECF0C
:1028400010928B1081E080938D1083E080938E1026
:102850008BE080938F108CE0809390108DE08093BC
:1028600091108EE08093921082E08093931089E023
:1028700080939F1010928A1010E00CC0812F0DDF02
:10288000FC01A081B18114962D913C911597F9011D
:1028900019951F5F80919F10181780F380E01F919A
:1028A00008951F93182F80918A10F7DEDC01ED91B7
:1028B000FC910280F381E02D612F19951F910895FD
:1028C0001F93182F80918A10E8DEDC01ED91FC91B6
:1028D0000284F385E02D612F19951F910895809151
:1028E0008A10DBDEFC01A081B18116962D913C910E
:1028F0001797F901199580E0089580918A10CDDE2F
:10290000FC01A081B18118962D913C911997F90194
:10291000199580E00895CF92DF92EF92FF920F9386
:102920001F93CF93DF936C018B017A016091770A3B
:102930007091780A8091790A90917A0A2BEE39EC9D
:1029400048E151E40E94F09F0E944B9EDC01CB01C4
:10295000482F6FE00E940CA2813051F0813028F0A6
:102960008230A1F0833049F415C0A1E0B0E01DC071
:10297000842F90E04F9734F04E51A1E0B0E0C1E0D9
:10298000D0E015C08EE1841B482FF7CF4E51AFEF3A
:10299000BFEFF5CF842F90E0CD9714F04C5303C0D8
:1029A0008CE3841B482FAFEFBFEFCFEFDFEFF601D3
:1029B0008281F8018083F6018381F701808350E0F2
:1029C000FA01E956F94F80816AE0869FC00111241F
:1029D000892F990F990B8A9F90018B9F300D9A9F99
:1029E000300D1124F8018081820F8083E6EAF6E041
:1029F000E41BF50B8081869FC0011124892F990F5C
:102A0000990B8C9F90018D9F300D9C9F300D112450
:102A1000F7018081820F8083DF91CF911F910F9109
:102A2000FF90EF90DF90CF90089580E0089580E0D0
:102A3000089580E0089580E0089508950895089528
:102A4000CF92DF92EF92FF920F931F93CF93DF937A
:102A50006C018B017A016091D40A7091D50A809142
:102A6000D60A9091D70A2BEE39EC48E151E40E9446
:102A7000F09F20E030E040EF51E40E94119D0E9461
:102A80004B9EDC01CB01482F6FE00E940CA28130ED
:102A900051F0813028F08230A1F0833049F415C024
:102AA000A1E0B0E01DC0842F90E04F9734F04E516C
:102AB000A1E0B0E0C1E0D0E015C08EE1841B482F5A
:102AC000F7CF4E51AFEFBFEFF5CF842F90E0CD970A
:102AD00014F04C5303C08CE3841B482FAFEFBFEFBF
:102AE000CFEFDFEFF6018281F8018083F601838169
:102AF000F701808350E0FA01E956F94F80816CE1DB
:102B0000869FC0011124892F990F990B8A9F9001EC
:102B10008B9F300D9A9F300D1124F8018081820F18
:102B20008083E6EAF6E0E41BF50B8081869FC00116
:102B30001124892F990F990B8C9F90018D9F300D37
:102B40009C9F300D1124F7018081820F8083DF91DB
:102B5000CF911F910F91FF90EF90DF90CF9008954C
:102B60000895DC0110928B1082E080938C108AE033
:102B700080938D108BE080938E102CE020938F102B
:102B80008EE08093901086E080939F1081EA97E01A
:102B900011969C938E9387E69CE05C969C938E9313
:102BA0005B978BEC98E09A969C938E93999787ED20
:102BB00098E09C969C938E939B979D962C939D97C3
:102BC00090E005C0FD01E90FF11D958F9F5F9D9677
:102BD0008C919D979817B0F390E021E005C0FD011E
:102BE000E90FF11D21879F5F9D968C919D97981706
:102BF000B0F312961C92129755961C920895089560
:102C000080E0089580E00895DC0110928B1082E04E
:102C100080938C108AE080938D108BE080938E10CF
:102C20008CE080938F108EE08093901086E08093EC
:102C30009F1081E997E011969C938E9383EC98E026
:102C40005A969C938E93599787EC98E05C969C9348
:102C50008E935B9784E05D968C935D9790E005C0C2
:102C6000FD01E90FF11D958B9F5F5D968C915D973E
:102C70009817B0F390E021E005C0FD01E90FF11DC8
:102C800021879F5F5D968C915D979817B0F31296A0
:102C90001C9212971D961C920895089580E0089545
:102CA00080E00895DC0110928B1082E080938C10FC
:102CB0008AE080938D108BE080938E108CE080935F
:102CC0008F108EE08093901086E080939F1081E8B3
:102CD00097E011969C938E9387E49BE092969C9349
:102CE0008E9391978FE998E0D6969C938E93D59783
:102CF00081EB98E0D8969C938E93D79782E1D996F2
:102D00008C93D99790E005C0FD01E90FF11D93A3C5
:102D10009F5FD9968C91D9979817B0F390E021E0F6
:102D200005C0FD01E90FF11D21879F5FD9968C91A8
:102D3000D9979817B0F312961C9212975B961C9233
:102D40000895089580E0089580E00895DC011092D0
:102D50008B1082E080938C108AE080938D108BE042
:102D600080938E108CE080938F108EE08093901073
:102D700086E080939F1081E797E011969C938E9355
:102D800082E19BE054969C938E93539787E998E059
:102D90005A969C938E9359978BE998E05C969C93F6
:102DA0008E935B9784E05D968C935D9790E005C071
:102DB000FD01E90FF11D958B9F5F5D968C915D97ED
:102DC0009817B0F390E021E005C0FD01E90FF11D77
:102DD00021879F5F5D968C915D979817B0F312964F
:102DE0001C9212971D961C920895089580E00895F4
:102DF00080E00895DC0110928B1082E080938C10AB
:102E00008AE080938D108BE080938E102CE02093CD
:102E10008F108EE08093901086E080939F1081E663
:102E200097E011969C938E9385E79AE05C969C932D
:102E30008E935B978FE798E09A969C938E939997E1
:102E40008BE898E09C969C938E939B979D962C93F1
:102E50009D9790E005C0FD01E90FF11D958F9F5FE3
:102E60009D968C919D979817B0F390E021E005C056
:102E7000FD01E90FF11D21879F5F9D968C919D9724
:102E80009817B0F312961C92129755961C920895BB
:102E9000089580E0089580E00895DC0110928B1081
:102EA00082E080938C108AE080938D108BE0809379
:102EB0008E108CE080938F108EE08093901086E0CF
:102EC00080939F1081E597E011969C938E9389E5FE
:102ED00098E0D8969C938E93D7978CE698E0DA96F4
:102EE0009C938E93D99783E1DB968C93DB9790E04C
:102EF00005C0FD01E90FF11D94A39F5FDB968C9146
:102F0000DB979817B0F390E021E005C0FD01E90FD1
:102F1000F11D21879F5FDB968C91DB979817B0F3AB
:102F200012961C9212975C961C920895089580E068
:102F3000089580E008950F931F938C0186E59AE031
:102F40000E94A28886EC98E160E00E947283D8011A
:102F5000ED91FC910190F081E02DC80119951F9130
:102F60000F91089586E59AE00E94A28886EC98E188
:102F700060E00E94728380918A108FDBDC01ED910A
:102F8000FC910190F081E02D199580918A1085DBEC
:102F9000DC01ED91FC910084F185E02D1995809183
:102FA0008A107BDBDC01ED91FC910680F781E02D3E
:102FB000199580E00895982F882319F410928A10AB
:102FC0000BC0181624F080918A108823B1F18091EB
:102FD0008A10890F80938A1090918A1080919F1097
:102FE000981720F0915090938A1027C086E59AE0B8
:102FF0000E94A28886EC98E160E00E947283809132
:103000008A104BDBDC01ED91FC910190F081E02D09
:10301000199580918A1041DBDC01ED91FC910084CF
:10302000F185E02D199580918A1037DBDC01ED9157
:10303000FC910680F781E02D199580E008956430B9
:1030400029F0663039F0633039F402C081E001C004
:103050008FEFB1CF80E0AFCF0895643029F06630B4
:1030600039F0633039F402C081E001C08FEFA3CFA3
:1030700080E0A1CF0895643039F0663019F06330F4
:1030800039F404C080E001C081E095CF8FEF93CF89
:103090000895643029F0663039F0633039F402C0A5
:1030A00081E001C08FEF87CF80E085CF0895FC01DC
:1030B000633009F451C0643030F4613069F062303B
:1030C00009F04EC015C0663009F448C06730D9F029
:1030D000643009F045C03EC02281822F90E0009705
:1030E00011F480E00EC0049744F4822F815009C08F
:1030F0002281822F90E0029714F082E002C0822F9A
:103100008F5F82832DC08281813089F463817481D5
:10311000882777FD8095982F0E94799E60937F0A7B
:103120007093800A8093810A9093820A19C082303A
:10313000B9F463817481882777FD8095982F0E9468
:10314000799E6093830A7093840A8093850A909392
:10315000860A06C081E003C08FEF01C080E02BDF4C
:1031600080E00895643029F0663039F0633039F436
:1031700002C081E003C08FEF01C080E01CDF80E06F
:103180000895643029F0663039F0633039F402C0B4
:1031900081E001C08FEF0FCF80E00DCF08952F9217
:1031A0003F924F925F926F927F928F929F92AF92D7
:1031B000BF92CF92DF92EF92FF920F931F93DF9314
:1031C000CF9300D00F92CDB7DEB71C012A013B018F
:1031D000C901B801A30192010E94109D23E333E3CA
:1031E0004AE852E40E94F09F69837A838B839C8330
:1031F000C301B20123E333E345E652E40E94DE9DBE
:103200000E94DB9D2B013C01C501B401A701960181
:103210000E94109D23E333E34AE852E40E94F09FAA
:10322000A30192010E94F09F5B016C01F101E4880F
:10323000F58806891789C801B70120E030E040E829
:103240005FEB0E94D79D8823D1F4C601B501298187
:103250003A814B815C810E94849D20E030E044E310
:1032600053E40E94F09F2BED3FE049E450E40E94BC
:10327000DE9DF101648775878687978705C0F10118
:10328000E486F5860687178769817A818B819C8120
:103290009B01AC010E94F09F7B018C01C601B5012E
:1032A000A60195010E94F09F9B01AC01C801B701E6
:1032B0000E94119D0E94A9A022E03BE249EC54E447
:1032C0000E94F09FF10160877187828793870F903A
:1032D0000F900F900F90CF91DF911F910F91FF9062
:1032E000EF90DF90CF90BF90AF909F908F907F90A6
:1032F0006F905F904F903F902F9008950F931F9382
:103300008C0180E090E0A4EBB2E4F801808391832B
:10331000A283B38384839583A683B78380E090E000
:10332000A0E0B0E0848F958FA68FB78F85E69AE0F6
:103330006AE570E00E94D46988E69AE06AE570E088
:103340000E94D4690E946190F80160A371A382A3D6
:1033500093A31F910F9108958F929F92AF92BF9266
:10336000CF92DF92EF92FF920F931F93CF93DF9351
:10337000EC014091680D5091690D60916A0D70915A
:103380006B0D0091F40A1091F50A2091F60A309124
:10339000F70AC0906C0DD0906D0DE0906E0DF0901E
:1033A0006F0D8090F80A9090F90AA090FA0AB090F8
:1033B000FB0AF5DECC84DD84EE84FF840AC0C701FD
:1033C000B60120E030E044EB53E40E94119D6B0114
:1033D0007C01C701B60120E030E040E050E00E94EF
:1033E000D79D181664F7C701B60120E030E040E031
:1033F00050E00E94D79D88235CF40F2EF0E0CF2E82
:10340000F0E0DF2EF0E0EF2EF0E0FF2EF02D14C004
:10341000C701B60120E030E044EB53E40E94E59F91
:10342000181654F40F2EF0E0CF2EF0E0DF2EF4EB60
:10343000EF2EF3E4FF2EF02DC882D982EA82FB82C0
:1034400000D00F920DB71EB70F5F1F4FC701B60117
:103450000E94469E24EB30E040E050E0F8012083DB
:1034600031834283538320E030E040E050E0F8E6CF
:10347000EF2EF1E0FF2E012D112DAA24BB246501B2
:103480000E94C99C0E94799E688379838A839B836A
:103490000F900F900F900F900E94469E9B01AC01E1
:1034A00085E69AE0B9010E94D469E88CF98C0A8D0E
:1034B0001B8DC801B70120E030E040E85FEB0E94BF
:1034C000D79D882309F040C0E884F9840A851B85CC
:1034D000C801B70120E030E040E050E00E94D79DF5
:1034E000882349F480E090E0A0E0B0E0888B998BDD
:1034F000AA8BBB8B2DC06091FC0A7091FD0A809154
:10350000FE0A9091FF0A2091700D3091710D40914B
:10351000720D5091730D0E94109DA80197010E9499
:10352000DE9D0E94AF9D20E030E044E353E40E9422
:10353000F09F2BED3FE049E450E40E94DE9D688B54
:10354000798B8A8B9B8B04C0E88AF98A0A8B1B8B48
:10355000C888D988EA88FB88C701B60120E030E036
:1035600040E050E00E94D79D88235CF40F2EF0E0ED
:10357000CF2EF0E0DF2EF0E0EF2EF0E0FF2EF02D6A
:1035800014C0C701B60120E030E044EB52E40E94D1
:10359000E59F181654F40F2EF0E0CF2EF0E0DF2E4A
:1035A000F4EBEF2EF2E4FF2EF02DCC82DD82EE82E2
:1035B000FF8200D00F920DB71EB70F5F1F4FC701DC
:1035C000B6010E94469E24EB30E040E050E0F80156
:1035D000208331834283538320E030E040E050E099
:1035E000EAE5EE2EF12C012D112DAA24BB24650154
:1035F0000E94C99C0E94799E6C837D838E839F83E9
:103600000F900F900F900F900E94469E9B01AC016F
:1036100088E69AE0B9010E94D469DF91CF911F91A9
:103620000F91FF90EF90DF90CF90BF90AF909F9061
:103630008F900895EF92FF920F931F93CF93DF9394
:10364000EC01CB01BA012B813C814D815E810E944E
:10365000119D7B018C0120E030E040E050E00E94B1
:10366000D79D88234CF480E090E0A0E0B0E08B830D
:103670009C83AD83BE8304C0EB82FC820D831E83DA
:103680008A81282F30E025563040EFA9F8ADE20FAF
:10369000F31F6081633661F4E9ADFAADE20FF31F09
:1036A0008081833629F46B817C818D819E811EC04F
:1036B00070E0E9ADFAADE20FF31F2081621B7109E2
:1036C000882777FD8095982F0E94799E9B01AC01F9
:1036D00060E070E080E291E40E9453A09B01AC01A5
:1036E0006B817C818D819E810E94DE9D0E94469E21
:1036F00078876F8381E08D8FDF91CF911F910F913C
:10370000FF90EF900895EF92FF920F931F93CF9346
:10371000DF93EC01CB01BA012B813C814D815E81AD
:103720000E94119D7B018C0120E030E040E050E0E0
:103730000E94D79D882364F48A818A3649F080E00C
:1037400090E0A0E0B0E08B839C83AD83BE8304C097
:10375000EB82FC820D831E838A81282F30E0255660
:103760003040E9A5FAA5E20FF31F6081633661F4EA
:10377000EBA5FCA5E20FF31F8081833629F46B8152
:103780007C818D819E811EC070E0EBA5FCA5E20FBF
:10379000F31F2081621B7109882777FD8095982F80
:1037A0000E94799E9B01AC0160E070E080E291E4B0
:1037B0000E9453A09B01AC016B817C818D819E8115
:1037C0000E94DE9D0E94469E78876F8381E08E8BEB
:1037D000DF91CF911F910F91FF90EF900895EF929D
:1037E000FF920F931F93CF93DF93EC01CB01BA01AC
:1037F0002B813C814D815E810E94119D7B018C015A
:1038000020E030E040E050E00E94D79D88234CF457
:1038100080E090E0A0E0B0E08B839C83AD83BE832A
:1038200004C0EB82FC820D831E838A81282F30E046
:1038300025563040E98DFA8DE20FF31F6081633623
:1038400061F4EB8DFC8DE20FF31F8081833629F448
:103850006B817C818D819E811EC070E0EB8DFC8D23
:10386000E20FF31F2081621B7109882777FD809585
:10387000982F0E94799E9B01AC0160E070E080E28D
:1038800091E40E9453A09B01AC016B817C818D81EE
:103890009E810E94DE9D0E94469E78876F8381E014
:1038A0008E87DF91CF911F910F91FF90EF90089538
:1038B000EF92FF920F931F93CF93DF93EC01CB0115
:1038C000BA012B813C814D815E810E94119D7B015B
:1038D0008C0120E030E040E050E00E94D79D88233A
:1038E0004CF480E090E0A0E0B0E08B839C83AD835B
:1038F000BE8304C0EB82FC820D831E838A81282F45
:1039000030E025563040EDA9FEA9E20FF31F60819B
:10391000633661F4EFA9F8ADE20FF31F80818336BF
:1039200029F46B817C818D819E811EC070E0EFA99E
:10393000F8ADE20FF31F2081621B7109882777FD24
:103940008095982F0E94799E9B01AC0160E070E009
:1039500080E291E40E9453A09B01AC016B817C81C9
:103960008D819E810E94DE9D0E94469E78876F8396
:1039700081E08C8FDF91CF911F910F91FF90EF909D
:103980000895EF92FF920F931F93CF93DF93EC0173
:10399000CB01BA012B813C814D815E810E94119D3A
:1039A0007B018C0120E030E040E050E00E94D79D98
:1039B00088234CF480E090E0A0E0B0E08B839C830F
:1039C000AD83BE8304C0EB82FC820D831E838A819B
:1039D000282F30E025563040E98DFA8DE20FF31F95
:1039E0006081633661F4EB8DFC8DE20FF31F808103
:1039F000833629F46B817C818D819E811EC070E0AD
:103A0000EB8DFC8DE20FF31F2081621B710988276B
:103A100077FD8095982F0E94799E9B01AC0160E014
:103A200070E080E291E40E9453A09B01AC016B81A5
:103A30007C818D819E810E94DE9D0E94469E7887BA
:103A40006F8381E08E87DF91CF911F910F91FF905F
:103A5000EF900895EF92FF920F931F93CF93DF9310
:103A6000EC01CB01BA012B813C814D815E810E942A
:103A7000119D7B018C0120E030E040E050E00E948D
:103A8000D79D88234CF480E090E0A0E0B0E08B83E9
:103A90009C83AD83BE8304C0EB82FC820D831E83B6
:103AA0008A81282F30E025563040E9A5FAA5E20F9B
:103AB000F31F6081633661F4EBA5FCA5E20FF31FF1
:103AC0008081833629F46B817C818D819E811EC02B
:103AD00070E0EBA5FCA5E20FF31F2081621B7109CA
:103AE000882777FD8095982F0E94799E9B01AC01D5
:103AF00060E070E080E291E40E9453A09B01AC0181
:103B00006B817C818D819E810E94DE9D0E94469EFC
:103B100078876F8381E08E8BDF91CF911F910F911A
:103B2000FF90EF9008958F929F92AF92BF92CF92A5
:103B3000DF92EF92FF920F931F93DF93CF9300D00A
:103B40000F920F92CDB7DEB74C017A018B01DC01E9
:103B500012968C91855689838AE89EE0BE016F5F3C
:103B60007F4FAE014E5F5F4F9E012C5F3F4F0E9423
:103B70003412C801B701F401238134814581568193
:103B80000E94119D5B016C016A817B81882777FD12
:103B90008095982F0E94799E7B018C01C601B5010A
:103BA000A80197010E94D79D87FD14C06C817D817B
:103BB000882777FD8095982F0E94799E7B018C0144
:103BC000C601B501A80197010E94E59F181614F0DF
:103BD00086017501D4011396ED92FD920D931C930D
:103BE000169712968C911297282F30E02556304068
:103BF0005196ED91FC915297E20FF31F608163366D
:103C000061F45396ED91FC915497E20FF31F80817C
:103C1000833619F4C801B7011FC070E0D401539670
:103C2000ED91FC915497E20FF31F2081621B710903
:103C3000882777FD8095982F0E94799E9B01AC0183
:103C400060E070E080E291E40E9453A09B01AC012F
:103C5000C801B7010E94DE9D0E94469EF401708754
:103C6000678381E0D4011A968C930F900F900F9088
:103C70000F900F90CF91DF911F910F91FF90EF90D8
:103C8000DF90CF90BF90AF909F908F9008951F933B
:103C9000CF93DF9386E59AE00E94A28810E0C5E307
:103CA000D9E0FE0121966491662379F06A3041F4EF
:103CB0001F5F86E59AE060E0412F0E942F88F1CFD8
:103CC00086E59AE00E94AA8DECCFDF91CF911F91FB
:103CD0000895FC014281242F2150273CA8F4848DB3
:103CE000453630F04556481B86E59AE06CE005C045
:103CF000281B86E59AE06CE0422F0E942F8886E51B
:103D00009AE060E20C94AA8D0895FC018281482F0C
:103D10004150433660F4848D481B86E59AE06CE0A0
:103D20000E942F8886E59AE06EE30C94AA8D482FB6
:103D30004556433660F4848D481B86E59AE06CE076
:103D40000E942F8886E59AE063E20C94AA8D08957C
:103D50001F93CF93DF9386E59AE00E94A28810E03C
:103D6000C5E3D9E0FE0121966491662379F06A30BB
:103D700041F41F5F86E59AE060E0412F0E942F88A2
:103D8000F1CF86E59AE00E94AA8DECCFDF91CF912A
:103D90001F910895FC014281242F2150273CA8F453
:103DA0008589453630F04556481B86E59AE06CE03B
:103DB00005C0281B86E59AE06CE0422F0E942F8800
:103DC00086E59AE060E20C94AA8D0895FC01828158
:103DD000482F4150433660F48589481B86E59AE0B8
:103DE0006CE00E942F8886E59AE06EE30C94AA8D21
:103DF000482F4556433660F48589481B86E59AE08E
:103E00006CE00E942F8886E59AE063E20C94AA8D0C
:103E100008951F93CF93DF9386E59AE00E94A288CE
:103E200010E0C5E3D9E0FE0121966491662379F0A4
:103E30006A3041F41F5F86E59AE060E0412F0E94FE
:103E40002F88F1CF86E59AE00E94AA8DECCFDF9112
:103E5000CF911F910895FC014281242F2150273CCE
:103E6000A8F48585453630F04556481B86E59AE02E
:103E70006CE005C0281B86E59AE06CE0422F0E94AA
:103E80002F8886E59AE060E20C94AA8D0895FC01E3
:103E90008281482F4150433660F48585481B86E572
:103EA0009AE06CE00E942F8886E59AE06EE30C941D
:103EB000AA8D482F4556433660F48585481B86E514
:103EC0009AE06CE00E942F8886E59AE063E20C9409
:103ED000AA8D08951F93CF93DF9386E59AE00E9401
:103EE000A28810E0C5E3D9E0FE0121966491662323
:103EF00079F06A3041F41F5F86E59AE060E0412F77
:103F00000E942F88F1CF86E59AE00E94AA8DECCF1F
:103F1000DF91CF911F910895FC014281242F215000
:103F2000273CA8F4838D453630F04556481B86E57E
:103F30009AE06CE005C0281B86E59AE06CE0422F11
:103F40000E942F8886E59AE060E20C94AA8D08957D
:103F5000FC018281482F4150433660F4838D481B19
:103F600086E59AE06CE00E942F8886E59AE06EE391
:103F70000C94AA8D482F4556433660F4838D481B18
:103F800086E59AE06CE00E942F8886E59AE063E27D
:103F90000C94AA8D08951F93CF93DF9386E59AE042
:103FA0000E94A28810E0C5E3D9E0FE012196649149
:103FB000662379F06A3041F41F5F86E59AE060E09D
:103FC000412F0E942F88F1CF86E59AE00E94AA8DAA
:103FD000ECCFDF91CF911F910895FC014281242FF6
:103FE0002150273CA8F48585453630F04556481BBE
:103FF00086E59AE06CE005C0281B86E59AE06CE057
:10400000422F0E942F8886E59AE060E20C94AA8DE8
:104010000895FC018281482F4150433660F4858524
:10402000481B86E59AE06CE00E942F8886E59AE0BE
:104030006EE30C94AA8D482F4556433660F485856F
:10404000481B86E59AE06CE00E942F8886E59AE09E
:1040500063E20C94AA8D08951F93CF93DF9386E5B6
:104060009AE00E94A28810E0C5E3D9E0FE01219603
:104070006491662379F06A3041F41F5F86E59AE027
:1040800060E0412F0E942F88F1CF86E59AE00E94E0
:10409000AA8DECCFDF91CF911F910895FC01428151
:1040A000242F2150273CA8F48589453630F0455609
:1040B000481B86E59AE06CE005C0281B86E59AE07F
:1040C0006CE0422F0E942F8886E59AE060E20C9413
:1040D000AA8D0895FC018281482F4150433660F437
:1040E0008589481B86E59AE06CE00E942F8886E56A
:1040F0009AE06EE30C94AA8D482F4556433660F43F
:104100008589481B86E59AE06CE00E942F8886E549
:104110009AE063E20C94AA8D0895FC014281242F59
:104120002150273CA8F48185453630F04556481B80
:1041300086E59AE06CE005C0281B86E59AE06CE015
:10414000422F0E942F8886E59AE060E20C94AA8DA7
:104150000895FC018281482F4150433660F48185E7
:10416000481B86E59AE06CE00E942F8886E59AE07D
:104170006EE30C94AA8D482F4556433660F4818532
:10418000481B86E59AE06CE00E942F8886E59AE05D
:1041900063E20C94AA8D08951F93CF93DF9386E575
:1041A0009AE00E94A28810E0C5E3D9E0FE012196C2
:1041B0006491662379F06A3041F41F5F86E59AE0E6
:1041C00060E0412F0E942F88F1CF86E59AE00E949F
:1041D000AA8DECCFDF91CF911F910895FC019281C0
:1041E000892F8150873C38F5E92FF0E0953618F09B
:1041F000E556F04001C03197CF0163E070E00E94C6
:1042000018A201969C01220F331F280F391F220F7D
:10421000331F2450CF0163E070E00E9418A2462FA4
:104220004F5F86E59AE0622F0E942F8886E59AE02C
:1042300060E20C94AA8D0895DC011296EC918E2F09
:104240008150833608F5F0E03197CF0163E070E0EC
:104250000E9418A201969C01220F331F280F391FBC
:10426000220F331F2450CF0163E070E00E9418A298
:10427000462F4F5F86E59AE0622F0E942F8886E5E1
:104280009AE06EE30C94AA8D8E2F8556833610F536
:10429000F0E0E556F040CF0163E070E00E9418A224
:1042A00001969C01220F331F280F391F220F331F45
:1042B0002450CF0163E070E00E9418A2462F4F5FA8
:1042C00086E59AE0622F0E942F8886E59AE063E2F5
:1042D0000C94AA8D08951F93CF93DF93EB0186E58D
:1042E0009AE00E94A28810E0FE0121966491662364
:1042F00079F06A3041F41F5F86E59AE060E0412F73
:104300000E942F88F1CF86E59AE00E94AA8DECCF1B
:10431000DF91CF911F910895FC01848190E0895C29
:10432000904082309105C9F0833091052CF40097BC
:1043300061F0019711F50DC084309105B1F0843022
:1043400091057CF00597C9F414C0CF0165EF72E1C7
:104350000FC0CF0165E373E10BC0CF0165E773E1E7
:1043600007C0CF0168EB73E103C0CF0169EF73E1D0
:10437000B2CFCF0167E474E1AECF0895FC01448170
:104380004150473C60F48581481B86E59AE060E037
:104390000E942F8886E59AE060E20C94AA8D089529
:1043A000FC0144814150433660F48581481B86E519
:1043B0009AE060E00E942F8886E59AE06EE30C9414
:1043C000AA8D0895FF920F931F93CF93DF93EC0173
:1043D00086E59AE00E94A288FF2410E026C0141708
:1043E00040F0812F841B482F86E59AE061E00E940F
:1043F0002F8890E001C0902FEA81FB81EF0DF11D25
:10440000F3946491662381F06A3071F08D811817FE
:10441000E8F01630D8F4092F0F5F923160F786E587
:104420009AE00E94AA8DE7CF1F5F4D81842F90E014
:104430000796212F30E0821793078CF6CE01B0DF6C
:10444000DF91CF911F910F91FF900895092FD3CF46
:10445000B9CF08950F931F938C01FC01A1A9B2A9B4
:10446000ED91FC9111970284F385E02DCD01199512
:10447000F80181A992A960E072E00E947F98F8019A
:1044800081A992A969E172E00E947F98F80181A94F
:1044900092A96BE272E00E947F98F80181A992A92B
:1044A0006BE372E00E947F98F80181A992A96BE406
:1044B00072E00E947F98F80114AA13AA005A1F4FB5
:1044C000F80111921192119211928F0110820456EB
:1044D000104080EB94E0A0E0B0E0F80181A792A743
:1044E000A3A7B4A71F910F910895CF92DF92EF92E7
:1044F000FF921F93CF93DF93EC018A81182F115005
:10450000173C08F05EC0853628F0CB80DC80ED805B
:10451000FE8014568C8D412F481B86EC98E16EE08E
:104520000E942F88412F50E0E9ADFAADE40FF51F4E
:1045300010811336D9F4EFA9F8ADE40FF51F80818F
:104540008336A1F4C701B60120E030E040E050E03E
:104550000E94E59F18162CF486EC98E16BE572E05A
:104560002EC086EC98E16FE572E029C0EFA9F8ADA6
:10457000E40FF51F608170E0709561957F4F88278B
:1045800077FD8095982F0E94799E9B01AC0160E099
:1045900070E080E291E40E9453A09B01AC01C7014E
:1045A000B6010E94F09FAB01BC0186EC98E1212F7F
:1045B00030E00E940F9986EC98E163E672E00E9479
:1045C0007F98DF91CF911F91FF90EF90DF90CF9078
:1045D00008950F931F938C01FC01828164E60E9471
:1045E0000CA2E90FF11DE3A1F0E0EE0FFF1FEE0FAB
:1045F000FF1FE854F34F80819181A281B381F801BC
:1046000083839483A583B683C8016FDFF801128288
:1046100081E0858F1F910F910895CF92DF92EF92E5
:10462000FF921F93CF93DF93EC018A81182F1150D3
:10463000173C08F05EC0853628F0CB80DC80ED802A
:10464000FE8014568D89412F481B86EC98E16EE060
:104650000E942F88412F50E0EBA5FCA5E40FF51F29
:1046600010811336D9F4E9A5FAA5E40FF51F80816E
:104670008336A1F4C701B60120E030E040E050E00D
:104680000E94E59F18162CF486EC98E16BE572E029
:104690002EC086EC98E16FE572E029C0E9A5FAA585
:1046A000E40FF51F608170E0709561957F4F88275A
:1046B00077FD8095982F0E94799E9B01AC0160E068
:1046C00070E080E291E40E9453A09B01AC01C7011D
:1046D000B6010E94F09FAB01BC0186EC98E1212F4E
:1046E00030E00E940F9986EC98E163E672E00E9448
:1046F0007F98DF91CF911F91FF90EF90DF90CF9047
:1047000008950F931F938C01FC01828164E60E943F
:104710000CA2E90FF11DE48DF0E0EE0FFF1FEE0F8C
:10472000FF1FEE57F44F80819181A281B381F80180
:1047300083839483A583B683C8016FDFF801128257
:1047400081E0868B1F910F910895CF92DF92EF92B7
:10475000FF921F93CF93DF93EC018A81182F1150A2
:10476000173C08F05EC0853628F0CB80DC80ED80F9
:10477000FE8014568D85412F481B86EC98E16EE033
:104780000E942F88412F50E0EB8DFC8DE40FF51F28
:1047900010811336D9F4E98DFA8DE40FF51F80816D
:1047A0008336A1F4C701B60120E030E040E050E0DC
:1047B0000E94E59F18162CF486EC98E16BE572E0F8
:1047C0002EC086EC98E16FE572E029C0E98DFA8D84
:1047D000E40FF51F608170E0709561957F4F882729
:1047E00077FD8095982F0E94799E9B01AC0160E037
:1047F00070E080E291E40E9453A09B01AC01C701EC
:10480000B6010E94F09FAB01BC0186EC98E1212F1C
:1048100030E00E940F9986EC98E163E672E00E9416
:104820007F98DF91CF911F91FF90EF90DF90CF9015
:1048300008950F931F938C01FC01828164E60E940E
:104840000CA2E90FF11DE489F0E0EE0FFF1FEE0F5F
:10485000FF1FEE58F44F80819181A281B381F8014E
:1048600083839483A583B683C8016FDFF801128226
:1048700081E086871F910F910895CF92DF92EF928A
:10488000FF921F93CF93DF93EC018A81182F115071
:10489000173C08F05EC0853628F0CB80DC80ED80C8
:1048A000FE8014568B8D412F481B86EC98E16EE0FC
:1048B0000E942F88412F50E0EFA9F8ADE40FF51FBB
:1048C00010811336D9F4EDA9FEA9E40FF51F8081FC
:1048D0008336A1F4C701B60120E030E040E050E0AB
:1048E0000E94E59F18162CF486EC98E16BE572E0C7
:1048F0002EC086EC98E16FE572E029C0EDA9FEA913
:10490000E40FF51F608170E0709561957F4F8827F7
:1049100077FD8095982F0E94799E9B01AC0160E005
:1049200070E080E291E40E9453A09B01AC01C701BA
:10493000B6010E94F09FAB01BC0186EC98E1212FEB
:1049400030E00E940F9986EC98E163E672E00E94E5
:104950007F98DF91CF911F91FF90EF90DF90CF90E4
:1049600008950F931F938C01FC01828164E60E94DD
:104970000CA2E90FF11DE2A1F0E0EE0FFF1FEE0F18
:10498000FF1FE65DF44F80819181A281B381F80120
:1049900083839483A583B683C8016FDFF8011282F5
:1049A00081E0848F1F910F910895CF92DF92EF9253
:1049B000FF921F93CF93DF93EC018A81182F115040
:1049C000173C08F05EC0853628F0CB80DC80ED8097
:1049D000FE8014568D85412F481B86EC98E16EE0D1
:1049E0000E942F88412F50E0EB8DFC8DE40FF51FC6
:1049F00010811336D9F4E98DFA8DE40FF51F80810B
:104A00008336A1F4C701B60120E030E040E050E079
:104A10000E94E59F18162CF486EC98E16BE572E095
:104A20002EC086EC98E16FE572E029C0E98DFA8D21
:104A3000E40FF51F608170E0709561957F4F8827C6
:104A400077FD8095982F0E94799E9B01AC0160E0D4
:104A500070E080E291E40E9453A09B01AC01C70189
:104A6000B6010E94F09FAB01BC0186EC98E1212FBA
:104A700030E00E940F9986EC98E163E672E00E94B4
:104A80007F98DF91CF911F91FF90EF90DF90CF90B3
:104A900008950F931F938C01FC01828164E60E94AC
:104AA0000CA2E90FF11DE489F0E0EE0FFF1FEE0FFD
:104AB000FF1FE65EF44F80819181A281B381F801EE
:104AC00083839483A583B683C8016FDFF8011282C4
:104AD00081E086871F910F910895CF92DF92EF9228
:104AE000FF921F93CF93DF93EC018A81182F11500F
:104AF000173C08F05EC0853628F0CB80DC80ED8066
:104B0000FE8014568D89412F481B86EC98E16EE09B
:104B10000E942F88412F50E0EBA5FCA5E40FF51F64
:104B200010811336D9F4E9A5FAA5E40FF51F8081A9
:104B30008336A1F4C701B60120E030E040E050E048
:104B40000E94E59F18162CF486EC98E16BE572E064
:104B50002EC086EC98E16FE572E029C0E9A5FAA5C0
:104B6000E40FF51F608170E0709561957F4F882795
:104B700077FD8095982F0E94799E9B01AC0160E0A3
:104B800070E080E291E40E9453A09B01AC01C70158
:104B9000B6010E94F09FAB01BC0186EC98E1212F89
:104BA00030E00E940F9986EC98E163E672E00E9483
:104BB0007F98DF91CF911F91FF90EF90DF90CF9082
:104BC00008950F931F938C01FC01828164E60E947B
:104BD0000CA2E90FF11DE48DF0E0EE0FFF1FEE0FC8
:104BE000FF1FE852F44F80819181A281B381F801C7
:104BF00083839483A583B683C8016FDFF801128293
:104C000081E0868B1F910F9108952F923F924F92D2
:104C10005F926F927F928F929F92AF92BF92CF924C
:104C2000DF92EF92FF920F931F93DF93CF93CDB755
:104C3000DEB728970FB6F894DEBF0FBECDBF7C015C
:104C400086E59AE00E94A288DD2400E03EC0D701FC
:104C5000DB968C91081708F044C0041740F0B02F81
:104C6000B41B4B2F86E59AE060E00E942F88D39416
:104C700090E002C0D394912FED2DE1508091F00A85
:104C8000813029F4F0E0E358F64F64910AC0F0E077
:104C90008A3021F4E358F64F649103C0E358F64F8D
:104CA0006491662389F06A3079F0F701848D0817E2
:104CB00008F401C1192F1F5F9C3008F0FBC086E586
:104CC0009AE00E94AA8DD6CF0F5FD7015C964C91D7
:104CD000842F90E00796202F30E0821793070CF086
:104CE000B6CFCC24EDE27E2E2E010894411C511C3F
:104CF00076E4372E6FE4662E5EE4252E86E59AE094
:104D00006EE04C2D0E942F88F701D48CDC0C83AD13
:104D1000D81608F0D2C00D2D10E0F801EE0FFF1FDD
:104D2000EE0FFF1FEC5FF24F6081718182819381F2
:104D300020E030E040E85FE30E94D79D882309F03F
:104D400099C0D70112968C91129790E085569040A9
:104D50000817190739F413966D917D918D919C91E7
:104D600016971AC00E0D1F1DD8019496EC91F0E015
:104D7000EE0FFF1FEE0FFF1FE854F34F808091806E
:104D8000A280B380C501B40120E030E040E05FE3E1
:104D90000E94119D0E94B49E0E944B9E9B01AC01FB
:104DA0000D2D10E0D701D996ED91FC91DA97E00F27
:104DB000F11F8081833611F5D796ED91FC91D8973C
:104DC000E00FF11F80818336C9F4211531054105BB
:104DD000510521F029826A8212E004C039823A82A8
:104DE0006B8213E01150F201E10FF11D86E59AE0AC
:104DF00060810E94AA8D1123A9F751C086EC98E129
:104E00006EE04C2D0E942F88D701D796ED91FC9132
:104E1000D897E00FF11F608170E0709561957F4F2A
:104E2000882777FD8095982F0E94799E9B01AC0181
:104E300060E070E080E291E40E9453A09B01AC012D
:104E4000C501B4010E94F09FAB01BC01D701D99606
:104E5000ED91FC91DA97E00FF11F208186EC98E14B
:104E600030E00E940F9986EC98E163E672E00E94C0
:104E70007F981AC079827A827B827C8286E59AE06A
:104E800060E20E94AA8D14E01150F201E10FF11DC1
:104E900086E59AE060810E94AA8D1123A9F786E534
:104EA0009AE060E20E94AA8DC394B8E0CB1609F0A4
:104EB00025CF03C0912F192FDDCE28960FB6F89479
:104EC000DEBF0FBECDBFCF91DF911F910F91FF903D
:104ED000EF90DF90CF90BF90AF909F908F907F909A
:104EE0006F905F904F903F902F900895FC01662344
:104EF00011F412828ADE80E0089587CE08953F92F1
:104F00004F925F926F927F928F929F92AF92BF92D9
:104F1000CF92DF92EF92FF920F931F93DF93CF9385
:104F2000CDB7DEB728970FB6F894DEBF0FBECDBF62
:104F30007C0186E59AE00E94A288DD2400E02FC073
:104F4000D7019D968C910817A0F5041740F0B02F5B
:104F5000B41B4B2F86E59AE060E00E942F8890E01A
:104F600001C0912FD7015B96ED91FC915C97ED0DFF
:104F7000F11DD3946491662389F06A3079F05596D7
:104F80008C91081708F4F0C0192F1F5F9C3008F0AF
:104F9000EAC086E59AE00E94AA8DE3CF0F5FF70191
:104FA0004589842F90E00796202F30E082179307E1
:104FB0003CF6DD248DE2C82E3E010894611C711C74
:104FC00006E4402E1FE4512EBEE43B2E86E59AE017
:104FD0006EE04D2D0E942F88D70155961C91559754
:104FE0001D0D9D968C91181708F0C0C0A12FB0E040
:104FF000FD01E453F44F8081882309F494C0F70144
:10500000828190E085569040A817B90729F4638102
:1050100074818581968119C0AE0DBF1D5D96EC919E
:10502000F0E0EE0FFF1FEE0FFF1FEE57F44F8080F2
:105030009180A280B380C501B40120E030E040E05F
:105040005FE30E94119D0E94B49E0E944B9E9B01B3
:10505000AC01012F10E0D7019B96ED91FC919C973C
:10506000E00FF11F8081833611F59996ED91FC9147
:105070009A97E00FF11F80818336C9F4211531051D
:105080004105510521F039825A8212E004C049825B
:105090004A825B8213E01150F301E10FF11D86E5B6
:1050A0009AE060810E94AA8D1123A9F751C086EC75
:1050B00098E16EE04D2D0E942F88D7019996ED91D1
:1050C000FC919A97E00FF11F608170E070956195F7
:1050D0007F4F882777FD8095982F0E94799E9B01AE
:1050E000AC0160E070E080E291E40E9453A09B017B
:1050F000AC01C501B4010E94F09FAB01BC01D70116
:105100009B96ED91FC919C97E00FF11F208186EC1E
:1051100098E130E00E940F9986EC98E163E672E036
:105120000E947F981AC0C982CA82CB82CC8286E54F
:105130009AE060E20E94AA8D14E01150F301E10FA1
:10514000F11D86E59AE060810E94AA8D1123A9F7DE
:1051500086E59AE060E20E94AA8DD394B8E0DB165F
:1051600009F034CF03C0912F192FFBCE28960FB62C
:10517000F894DEBF0FBECDBFCF91DF911F910F918D
:10518000FF90EF90DF90CF90BF90AF909F908F9067
:105190007F906F905F904F903F900895FC01662341
:1051A00011F41282ACDE80E00895A9CE08953F92FA
:1051B0004F925F926F927F928F929F92AF92BF9227
:1051C000CF92DF92EF92FF920F931F93DF93CF93D3
:1051D000CDB7DEB728970FB6F894DEBF0FBECDBFB0
:1051E0007C0186E59AE00E94A288DD2400E02FC0C1
:1051F000D7015D968C910817A0F5041740F0B02FE9
:10520000B41B4B2F86E59AE060E00E942F8890E067
:1052100001C0912FD7015396ED91FC915497ED0D5C
:10522000F11DD3946491662389F06A3079F01D965C
:105230008C91081708F4F0C0192F1F5F9C3008F0FC
:10524000EAC086E59AE00E94AA8DE3CF0F5FF701DE
:105250004585842F90E00796202F30E08217930732
:105260003CF6DD245DE2C52E3E010894611C711CF4
:1052700046E4442E3FE4532E2EE4322E86E59AE097
:105280006EE04D2D0E942F88D7011D961C911D9711
:105290001D0D5D968C91181708F0C0C0A12FB0E0CD
:1052A000FD01E853F44F8081882309F494C0F7018D
:1052B000828190E085569040A817B90729F4638150
:1052C00074818581968119C0AE0DBF1D5596EC91F4
:1052D000F0E0EE0FFF1FEE0FFF1FEE58F44F80803F
:1052E0009180A280B380C501B40120E030E040E0AD
:1052F0005FE30E94119D0E94B49E0E944B9E9B0101
:10530000AC01012F10E0D7015B96ED91FC915C9709
:10531000E00FF11F8081833611F55996ED91FC91D4
:105320005A97E00FF11F80818336C9F421153105AA
:105330004105510521F039825A8212E004C04982A8
:105340004A825B8213E01150F301E10FF11D86E503
:105350009AE060810E94AA8D1123A9F751C086ECC2
:1053600098E16EE04D2D0E942F88D7015996ED915E
:10537000FC915A97E00FF11F608170E07095619584
:105380007F4F882777FD8095982F0E94799E9B01FB
:10539000AC0160E070E080E291E40E9453A09B01C8
:1053A000AC01C501B4010E94F09FAB01BC01D70163
:1053B0005B96ED91FC915C97E00FF11F208186ECEC
:1053C00098E130E00E940F9986EC98E163E672E084
:1053D0000E947F981AC0C982CA82CB82CC8286E59D
:1053E0009AE060E20E94AA8D14E01150F301E10FEF
:1053F000F11D86E59AE060810E94AA8D1123A9F72C
:1054000086E59AE060E20E94AA8DD394B8E0DB16AC
:1054100009F034CF03C0912F192FFBCE28960FB679
:10542000F894DEBF0FBECDBFCF91DF911F910F91DA
:10543000FF90EF90DF90CF90BF90AF909F908F90B4
:105440007F906F905F904F903F900895FC0166238E
:1054500011F41282ACDE80E00895A9CE08953F9247
:105460004F925F926F927F928F929F92AF92BF9274
:10547000CF92DF92EF92FF920F931F93DF93CF9320
:10548000CDB7DEB728970FB6F894DEBF0FBECDBFFD
:105490007C0186E59AE00E94A288DD2400E02FC00E
:1054A000D701D9968C910817A0F5041740F0B02FBA
:1054B000B41B4B2F86E59AE060E00E942F8890E0B5
:1054C00001C0912FD7019196ED91FC919297ED0D2E
:1054D000F11DD3946491662389F06A3079F05B966C
:1054E0008C91081708F4F0C0192F1F5F9C3008F04A
:1054F000EAC086E59AE00E94AA8DE3CF0F5FF7012C
:10550000438D842F90E00796202F30E08217930779
:105510003CF6DD24ADE2CA2E3E010894611C711CEC
:10552000F6E44F2EEFE45E2E7EE4372E86E59AE019
:105530006EE04D2D0E942F88D7015B961C915B97E2
:105540001D0DD9968C91181708F0C0C0A12FB0E09E
:10555000FD01EA54F44F8081882309F494C0F701D7
:10556000828190E085569040A817B90729F463819D
:1055700074818581968119C0AE0DBF1D9396EC9103
:10558000F0E0EE0FFF1FEE0FFF1FE65DF44F80808F
:105590009180A280B380C501B40120E030E040E0FA
:1055A0005FE30E94119D0E94B49E0E944B9E9B014E
:1055B000AC01012F10E0D701D796ED91FC91D8975F
:1055C000E00FF11F8081833611F5D596ED91FC91A6
:1055D000D697E00FF11F80818336C9F4211531057C
:1055E0004105510521F039825A8212E004C04982F6
:1055F0004A825B8213E01150F301E10FF11D86E551
:105600009AE060810E94AA8D1123A9F751C086EC0F
:1056100098E16EE04D2D0E942F88D701D596ED912F
:10562000FC91D697E00FF11F608170E07095619555
:105630007F4F882777FD8095982F0E94799E9B0148
:10564000AC0160E070E080E291E40E9453A09B0115
:10565000AC01C501B4010E94F09FAB01BC01D701B0
:10566000D796ED91FC91D897E00FF11F208186EC41
:1056700098E130E00E940F9986EC98E163E672E0D1
:105680000E947F981AC0C982CA82CB82CC8286E5EA
:105690009AE060E20E94AA8D14E01150F301E10F3C
:1056A000F11D86E59AE060810E94AA8D1123A9F779
:1056B00086E59AE060E20E94AA8DD394B8E0DB16FA
:1056C00009F034CF03C0912F192FFBCE28960FB6C7
:1056D000F894DEBF0FBECDBFCF91DF911F910F9128
:1056E000FF90EF90DF90CF90BF90AF909F908F9002
:1056F0007F906F905F904F903F900895FC016623DC
:1057000011F41282ACDE80E00895A9CE08953F9294
:105710004F925F926F927F928F929F92AF92BF92C1
:10572000CF92DF92EF92FF920F931F93DF93CF936D
:10573000CDB7DEB728970FB6F894DEBF0FBECDBF4A
:105740007C0186E59AE00E94A288DD2400E03EC04C
:10575000D7015D968C91081708F044C0041740F0FB
:10576000B02FB41B4B2F86E59AE060E00E942F8893
:10577000D39490E002C0D394912FED2DE15080910D
:10578000F00A813029F4F0E0EE5CF34F64910AC036
:10579000F0E08A3021F4E358F64F649103C0EE5CE8
:1057A000F34F6491662389F06A3079F0F7018585BB
:1057B000081708F4EFC0192F1F5F9C3008F0E9C0EC
:1057C00086E59AE00E94AA8DD6CF0F5FD7011D967D
:1057D0004C91842F90E00796202F30E0821793079A
:1057E0000CF0B6CFDD249DE2C92E3E010894611C69
:1057F000711C86E4482E0FE4502E1EE4312E86E5FF
:105800009AE06EE04D2D0E942F88F70115851D0D41
:10581000858D181708F0C0C0A12FB0E0FD01EE542F
:10582000F44F8081882309F494C0F701828190E0CD
:1058300085569040A817B90729F463817481858142
:10584000968119C0AE0DBF1D5596EC91F0E0EE0F9C
:10585000FF1FEE0FFF1FE65EF44F80809180A28055
:10586000B380C501B40120E030E040E05FE30E9476
:10587000119D0E94B49E0E944B9E9B01AC01012F82
:1058800010E0D7015B96ED91FC915C97E00FF11F62
:105890008081833611F55996ED91FC915A97E00F6E
:1058A000F11F80818336C9F4211531054105510569
:1058B00021F039825A8212E004C049824A825B8216
:1058C00013E01150F301E10FF11D86E59AE06081CC
:1058D0000E94AA8D1123A9F751C086EC98E16EE0D1
:1058E0004D2D0E942F88D7015996ED91FC915A9722
:1058F000E00FF11F608170E0709561957F4F882700
:1059000077FD8095982F0E94799E9B01AC0160E005
:1059100070E080E291E40E9453A09B01AC01C501BC
:10592000B4010E94F09FAB01BC01D7015B96ED91E1
:10593000FC915C97E00FF11F208186EC98E130E04C
:105940000E940F9986EC98E163E672E00E947F98CE
:105950001AC0C982CA82CB82CC8286E59AE060E214
:105960000E94AA8D14E01150F301E10FF11D86E5AC
:105970009AE060810E94AA8D1123A9F786E59AE03A
:1059800060E20E94AA8DD394B8E0DB1609F037CF0D
:1059900003C0912F192FEFCE28960FB6F894DEBFD3
:1059A0000FBECDBFCF91DF911F910F91FF90EF9070
:1059B000DF90CF90BF90AF909F908F907F906F902F
:1059C0005F904F903F900895FC01662311F412827E
:1059D0009EDE80E008959BCE08952F923F924F92D5
:1059E0005F926F927F928F929F92AF92BF92CF926F
:1059F000DF92EF92FF920F931F93DF93CF93CDB778
:105A0000DEB728970FB6F894DEBF0FBECDBF7C017E
:105A100086E59AE00E94A288DD2400E02FC0D7012D
:105A20009D968C910817A0F5041740F0B02FB41B79
:105A30004B2F86E59AE060E00E942F8890E001C03D
:105A4000912FD7015B96ED91FC915C97ED0DF11DC7
:105A5000D3946491662389F06A3079F055968C91DD
:105A6000081708F4FEC0192F1F5F9C3008F0F8C01B
:105A700086E59AE00E94AA8DE3CF0F5FF701458982
:105A8000842F90E00796202F30E0821793073CF692
:105A9000CC247DE2772E2E010894411C511C66E433
:105AA000362E5FE4652E4EE4242E86E59AE06EE005
:105AB0004C2D0E942F88D7015596DC905597DC0C11
:105AC0009D968C91D81608F0CEC00D2D10E0F801EF
:105AD000EE0FFF1FEE0FFF1FE85FF34F6081718134
