:10000000C2C600000C946F540C94A0540C94D154AC
:100010000C9402550C9433550C9464550C949555DE
:100020000C94C655DDC60000DBC60000D9C6000032
:10003000D7C600000C94495FD3C60000D1C60000AB
:10004000CFC600000C942532CBC60000C9C6000004
:10005000C7C60000C5C60000C3C600000C94F75513
:10006000BFC600000C9451580C947959B9C60000D1
:10007000B7C60000B5C60000B3C60000B1C6000098
:100080000C94F831ADC60000ABC60000A9C6000054
:100090000C948A580C94B859A3C600000C9473337E
:1000A0009FC600009DC600000C94CB3199C600008D
:1000B00097C6000095C6000093C600000C949E31C0
:1000C0008FC600008DC600008BC600000C94C3587C
:1000D0000C94F75985C600000C94FC580C94365AC1
:1000E0007FC60000084AD73B3BCE016E84BCBFFDF3
:1000F000C12F3D6C74319ABD56833DDA3D00C77FF8
:1001000011BED9E4BB4C3E916BAAAABE0000008090
:100110003F05A84CCDB2D44EB93836A9020C50B91F
:10012000918688083CA6AAAA2ABE000000803F52F9
:100130004154455F524C4C5F5000524154455F5210
:100140004C4C5F4900524154455F524C4C5F440057
:10015000524154455F524C4C5F494D415800524109
:1001600054455F5049545F5000524154455F5049D7
:10017000545F4900524154455F5049545F44005216
:100180004154455F5049545F494D415800524154D4
:10019000455F5941575F5000524154455F5941579F
:1001A0005F4900524154455F5941575F44005241F5
:1001B00054455F5941575F494D4158005448525F7B
:1001C000524154455F50005448525F524154455F7C
:1001D00049005448525F524154455F4400544852CC
:1001E0005F524154455F494D4158002F013A014546
:1001F0000150015E01690174017F018D019801A325
:1002000001AE01BC01C701D201DD012450554258A5
:100210002C34312C312C303030332C303030312CE8
:1002200033383430302C302A32360AB562060103B6
:1002300000010601124F00000005072060000000C9
:10024000000000005F00000007000700147F147F1B
:1002500014242A7F2A122313086462364955225037
:100260000005030000001C2241000041221C000880
:100270002A1C2A0808083E08080050300000080818
:10028000080808006060000020100804023E514980
:10029000453E00427F400042615149462141454B65
:1002A000311814127F1027454545393C4A494930D9
:1002B00001710905033649494936064949291E0095
:1002C000363600000056360000000814224114148F
:1002D000141414412214080002015109063249790C
:1002E000413E7E1111117E7F494949363E414141CF
:1002F000227F4141221C7F494949417F090901016F
:100300003E414151327F0808087F00417F41002073
:1003100040413F017F081422417F404040407F021E
:1003200004027F7F0408107F3E4141413E7F09095E
:1003300009063E4151215E7F09192946464949492E
:100340003101017F01013F4040403F1F2040201FFD
:100350007F2018207F63140814630304780403616A
:100360005149454300007F414102040810204141AA
:100370007F000004020102044040404040000102AE
:10038000040020545454787F48444438384444444A
:1003900020384444487F3854545418087E090102D8
:1003A000081454543C7F0804047800447D40002025
:1003B00040443D00007F10284400417F40007C0401
:1003C0001804787C0804047838444444387C1414B5
:1003D0001408081414187C7C080404084854545465
:1003E00020043F4440203C4040207C1C2040201CF6
:1003F0003C4030403C44281028440C5050503C4471
:1004000064544C44000836410000007F0000004165
:1004100036080008082A1C08081C2A0808141400BA
:100420000000000040800000008030070C30000019
:100430000000000080E0F8FFF8F9FCF8E0FFFEFEA5
:10044000FEFEFFF8E000000C0F0F0F0F0F0F0F0F55
:100450000F0F0F0F0F0F0F0F0F0F081010000000DE
:1004600080EC0C1064C4C2E2F27E1E0000000000AA
:1004700087C4C6C6DFFFFF73010000000008080044
:10048000007E0A1B127E00080804150E2470A820A6
:1004900000101000101010101010547C38100000C4
:1004A000000000000000000808080808082A3E1C98
:1004B00008000022080A0E20600402050607080949
:1004C00002030305080204020407040707070707DD
:1004D0000707070202070707080E090808080707A9
:1004E0000908020708070B0809070909070808098E
:1004F0000D07080804040406080307070607070594
:100500000707020306020A0707070705060507078C
:100510000B060705050105070800000000000000A4
:1005200000FEFE18181E1E001E1E00000000009097
:10053000F89E90F89E1C00001C0000183C26FF66E8
:10054000CC88040C183C180C041C221CC0308E40B3
:100550008000001804000C100C80CC7E72F2DE0CBF
:1005600080000C1C1010101C0C1C101E1E0000F033
:10057000FC061C7CC006FCF0C07C1C14140E141479
:100580000000000000606060FCFC60606000000033
:100590000C0C00000000005838C0C0C0C0000000B3
:1005A000000000181800C0380618040000F8FC0EFF
:1005B000060EFCF8040C1C181C0C04180CFEFE00A3
:1005C000001C1C181C86C6663E1C181C1C1818181B
:1005D00018888C062626FEDC040C1C18180C04C097
:1005E000E0B88CFEFE80040404041C1C04707E3EF3
:1005F0003636F6C60C1C1818180C04F8FC6E666625
:10060000EECC040C1818181C0C060606E6761E061E
:1006100000001C1C0000009CFE666666FE9C0C1C14
:100620001818181C0C3C7E666666FCF80C1C181822
:100630001C0C0418181818181858386060F0F09836
:10064000980C0000000004040CD8D8D8D8D8D8D80A
:10065000000000000000000C9898F0F060600C04AE
:100660000400000000080C06C6E6763C18000000F6
:100670001818000000E03008C4F63A1A1AF2FA7EA0
:100680000408F00C30604C9C98988C9C9C90484CD2
:100690002000C0F8BE86BEF8C000181C0404040484
:1006A000041C18FEFE66666666FEDC1C1C18181824
:1006B000181C0CF8FC0E06060E9C08040C1C1818DE
:1006C0001C0C04FEFE0606060EFCF81C1C1818186E
:1006D0001C0C04FEFE66666666661C1C181818185C
:1006E00018FEFE66666666061C1C0000000000F828
:1006F000FC0E0606C6CEDCC8040C1C181818180C14
:1007000004FEFE60606060FEFE1C1C000000001C19
:100710001CFEFE1C1C8080000000FEFE0C1C181835
:10072000181C0CFEFE603078EC86021C1C000000D9
:10073000041C18FEFE00000000001C1C18181818ED
:1007400018FEFE0E7CE000E07C0EFEFE1C1C00008D
:100750000C1C0C00001C1CFEFE1C78E080FEFE1C25
:100760001C0000040C1C1CF8FC0E0606060EFCF80F
:10077000040C1C1818181C0C04FEFE6666667E3CF1
:100780001C1C0000000000F8FC0E0686060EFCF89B
:10079000040C1C18181C0C1C24FEFE6666E6E6BE43
:1007A0001C001C1C0000000C1C18103C7E666666B9
:1007B000EECC0C1C1818181C0C060606FEFE0606CD
:1007C000060000001C1C000000FEFE00000000FEF1
:1007D000FE040C1C18181C0C04021EFCE000E0FCBB
:1007E0001E020000001C1C1C00000006FEF800F0A9
:1007F000FE0EFEF000F8FE0600001C1C1C000000AF
:100800001C1C1C0000060EF8F0F80E06181C040054
:10081000041C18060E38F0F0380E060000001C1CF0
:10082000000000060686E6761E0E06181C1C181828
:10083000181818FEFE0606FCFCC0C00638C00000F2
:100840000004180606FEFEC0C0FCFC20380E0E3860
:1008500020000000000000000000000000000080F8
:10086000808080808080800206040000001098D87C
:1008700058F8F0000C1C18180C1C10FEFE3018382C
:10088000F0E01C1C0C181C0C04E0F01818383004A4
:100890000C18181C0CE0F0381830FEFE040C1C1864
:1008A0000C1C1CE0F0D8D8D8F0E0040C181818186C
:1008B0000818FCFE1A1A001C1C0000E0F038183062
:1008C000F8F864ECDCD8CCFC7CFEFE301818F8F0AC
:1008D0001C1C0000001C1CFAFA1C1C00FAFAC0FCCC
:1008E0007CFEFEE0F098081C1C00041C18FEFE1C98
:1008F0001CF8F81018F8F01818F8F01C1C00001C70
:100900001C00001C1CF8F8301818F8F01C1C000023
:10091000001C1CE0F0381838F0E0040C1C181C0C0B
:1009200004F8F8301838F0E0FCFC0C181C0C04E05B
:10093000F0381830F8F8040C1C180CFCFCF8F830EF
:1009400018181C1C00000070F8D8D8D89008181887
:10095000181C0C18FCFE1818000C1C1818F8F800CD
:100960000000F8F80C1C18180C1C1C38F8C000C04B
:10097000F83800001C1C1C000018F8E000F038F0EB
:1009800000E0F81800001C1C0C000C1C1C000018D7
:1009900038E0E03818181C04041C1818F8E000E0CF
:1009A000F8180084FCF83C04001898D878381C1C0F
:1009B00018181880FC7E0606007CFCC0C0FEFC06F1
:1009C000067EFC80C0C0FC7C00603030706060300F
:1009D00000000000000000FE020202020202FE1CF3
:1009E0001010101010101C546869732077696C6C1B
:1009F000206170706C79207468650A6368616E6745
:100A00006573206D61646520746F207468650A20C9
:100A100073657474696E67732C2070726573730AE2
:100A200020204F4B20746F2055706C6F6164002044
:100A30002020526F6C6C20506974636820205961CB
:100A400077002020546869732077696C6C20726588
:100A50007365740A20202020746865206D697373A3
:100A6000696F6E0A202020205072657373204F4BEF
:100A700020746F0A202020202020436F6E66697248
:100A80006D0020546869732077696C6C2072657101
:100A9000756573740A202074686520706172616DD9
:100AA00065746572730A2020205072657373204F3D
:100AB0004B20746F0A2020202020436F6E666972DD
:100AC0006D00202020546869732077696C6C207356
:100AD000746F700A2020207468652064617461203E
:100AE00073747265616D0A202020205072657373E3
:100AF000204F4B20746F0A202020202020436F6E4F
:100B00006669726D0020546869732077696C6C2087
:100B1000726573746172740A202074686520646160
:100B200074612073747265616D0A202020507265B3
:100B30007373204F4B20746F0A2020202020436FB6
:100B40006E6669726D00546869732077696C6C20F9
:100B5000696E697469616C6973650A2020746865DF
:100B600020474353277320486F6D650A706F736980
:100B700074696F6E2E20456E73757265207468659A
:100B80000A554156206973206E65787420746F2071
:100B900047435300546869732077696C6C20696E11
:100BA000697469616C6973650A746865204169726A
:100BB0006372616674277320486F6D650A706F7386
:100BC0006974696F6E2E20456E7375726520697445
:100BD0000A6973202A2A6F6E207468652047524F75
:100BE000554E442A2A0052657374617274204D690F
:100BF0007373696F6E0A5265717565737420506105
:100C000072616D65746572730A53746F702044610C
:100C100074612053747265616D0A52652D7265713D
:100C2000756573742053747265616D0A5365742021
:100C300047435320486F6D650A52657365742055AC
:100C4000415620486F6D65007C3C3E5E2B3D3F2F3A
:100C50005B5D3B2C2A225C00000021002400270061
:100C60002A002D00300033000101000004010701BB
:100C70000A0100002200250028002B002E00310070
:100C8000340002010000050108010B0100002000F2
:100C90002300260029002C002F0032000001000054
:100CA00003010601090105050505070508080808EF
:100CB000020202020A0A08080404040401010101F4
:100CC00001010101030303030303030304070707EF
:100CD0000C0C0C0C0C0C0C0C020202020606060694
:100CE000060606060B0B0B0B0B0B0B0B0102102061
:100CF0002008081020401020408002010201080452
:100D000002010102040810204080804020100804E5
:100D1000020180040201804020100804020108043E
:100D20000201010204081020408001020408102082
:100D300040800000090A02080B0C0D07060304019D
:100D400000000000000000000000000000000000A3
:100D50000000000000000000000000000000111072
:100D60000F00000000000000000000000000000074
:100D7000000000000000000002000525823253360A
:100D8000314BA05B002511241FBECFEFD1E2DEBFA7
:100D9000CDBF00E00CBF16E0A0E0B2E0E0EDFEEC5D
:100DA00000E00BBF02C007900D92A83AB107D9F737
:100DB0001BBE14E1A8EAB6E001C01D92A239B1073A
:100DC000E1F71DE0C4E8DDE004C02297FE010E94C7
:100DD0002167CA37D107C9F70E94BE5C0C945C67D3
:100DE0000FC9CF93DF93BC018230910510F462E00C
:100DF00070E0A0918A14B0918B14ED01E0E0F0E076
:100E000040E050E021C0888199818617970769F4F6
:100E10008A819B81309719F09383828304C09093D9
:100E20008B1480938A14FE0134C06817790738F454
:100E30004115510519F08417950708F4AC01FE011E
:100E40008A819B819C01E9012097E9F641155105B2
:100E5000A9F1CA01861B970B049708F4BA01E0E0D8
:100E6000F0E02AC08D919C91119784179507F9F4B1
:100E70006417750781F412968D919C9113973097A2
:100E800019F09383828304C090938B1480938A1407
:100E9000FD0132964CC0CA01861B970BFD01E80F7D
:100EA000F91F6193719302978D939C9340C0FD014C
:100EB000828193819C01D9011097A1F680918814B9
:100EC00090918914892B41F48091230490912404FA
:100ED000909389148093881440912504509126049E
:100EE0004115510541F44DB75EB7809121049091B1
:100EF0002204481B590B2091881430918914CA018F
:100F0000821B930B8617970780F0AB014E5F5F4FF4
:100F10008417950750F0420F531F50938914409344
:100F20008814F9016193719302C0E0E0F0E0CF0111
:100F3000DF91CF910895CF93DF93009709F450C0CC
:100F4000EC0122971B821A82A0918A14B0918B1413
:100F5000109709F140E050E0AC17BD0708F1BB83E2
:100F6000AA83FE0121913191E20FF31FAE17BF0753
:100F700079F48D919C911197280F391F2E5F3F4F67
:100F80003983288312968D919C9113979B838A8332
:100F90004115510571F4D0938B14C0938A1420C06D
:100FA00012968D919C911397AD01009711F0DC0181
:100FB000D3CFFA01D383C28321913191E20FF31F82
:100FC000CE17DF0769F488819981280F391F2E5FBA
:100FD0003F4FFA01318320838A819B8193838283EF
:100FE000DF91CF910895FB01DC0105900D92002067
:100FF000E1F70895FB01DC0104C08D910190801997
:1010000021F441505040C8F7881B990B0895FB010B
:10101000DC0102C001900D9241505040D8F7089574
:10102000FC018191861721F08823D9F7992708952B
:101030003197CF010895FB01DC018D91019080195A
:101040000110D9F3990B0895FB01DC014150504088
:1010500048F001900D920020C9F701C01D92415047
:101060005040E0F70895ABE0B0E0E9E3F8E00C941D
:1010700025673C012B015A01FC01178216828381EE
:1010800081FD03C06FEF7FEFB9C19AE0892E1E0189
:101090000894211C311CF3012381F20123FD859169
:1010A00023FF81912F01882309F4A5C1853239F4EA
:1010B00023FD859123FF81912F01853221F490E05A
:1010C000B301B7D1E8CF982FFF24EE249924FFE194
:1010D000FF15D0F09B3269F09C3228F4903259F021
:1010E000933291F40EC09D3249F0903369F441E09F
:1010F00024C052E0F52A84E0F82A28C098E0F92AB2
:1011000025C0E0E1FE2A22C0F7FC29C0892F8053C8
:101110008A3070F4F6FE05C0989C902C1124980E2D
:1011200015C0E89CE02C1124E80EF0E2FF2A0EC066
:101130009E3229F4F6FC5FC140E4F42A07C09C36D5
:1011400019F450E8F52A02C0983649F4F20123FD5B
:10115000959123FF91912F01992309F0B8CF892F01
:101160008554833018F08052833038F444E050E0E6
:10117000A40EB51E5FE359830FC0933631F0933749
:1011800079F0933509F052C01FC0F5018081898341
:1011900042E050E0A40EB51E610101E010E011C074
:1011A000F501C080D180F6FC03C06FEF7FEF02C075
:1011B000692D70E042E050E0A40EB51EC6012ED1AC
:1011C0008C015FE7F52213C0F501C080D180F6FCE9
:1011D00003C06FEF7FEF02C0692D70E042E050E086
:1011E000A40EB51EC6010FD18C0150E8F52AF3FEFE
:1011F00006C018C080E290E0B3011BD1EA948E2DA6
:1012000090E008171907B0F30DC0F601F7FC8591BF
:10121000F7FE81916F0190E0B3010BD1E110EA94E8
:10122000015010400115110581F7E2C0943611F00C
:10123000993661F5F7FE08C0F501208131814281C0
:10124000538184E090E00AC0F501808191819C0186
:10125000442737FD4095542F82E090E0A80EB91E38
:101260009FE6F92257FF09C050954095309521958A
:101270003F4F4F4F5F4FE0E8FE2ACA01B901A1017D
:101280002AE030E002D1D82ED2183FC0953729F499
:101290001F2D1F7E2AE030E01DC01F2D197F9F36B5
:1012A00061F0903720F4983509F0A5C00FC0903751
:1012B00039F0983709F09FC004C028E030E00AC038
:1012C000106114FD146020E130E004C014FD1660CC
:1012D00020E132E017FF08C0F50160817181828151
:1012E000938144E050E008C0F50180819181BC0108
:1012F00080E090E042E050E0A40EB51EA101C5D010
:10130000D82ED2188FE7F82EF122F6FE0BC05EEF32
:10131000F522D91438F4F4FE07C0F2FC05C08FEEB4
:10132000F82202C01D2D01C0192DF4FE0DC0FE01D2
:10133000ED0DF11D8081803319F499EEF92208C07A
:101340001F5FF2FE05C003C08F2D867809F01F5F76
:101350000F2DF3FC13C0F0FE0EC01E1510F09D2CD7
:101360000AC09D2C9E0C911A1E2D05C080E290E0B3
:10137000B3015FD01F5F1E15C8F304C01E1510F423
:10138000E11A01C0EE2404FF0EC080E390E0B30137
:1013900050D002FF1BC001FD03C088E790E00EC0E3
:1013A00088E590E00BC0802F867881F001FF02C0B5
:1013B0008BE201C080E2F7FC8DE290E0B30139D00E
:1013C00005C080E390E0B30134D09A94D914C8F3F7
:1013D000DA94F101ED0DF11D808190E0B30129D087
:1013E000DD20B1F705C080E290E0B30122D0EA949D
:1013F000EE20C9F750CEF30166817781CB012B96A1
:10140000E2E10C944167FC010590615070400110CD
:10141000D8F7809590958E0F9F1F0895FC0161501D
:10142000704001900110D8F7809590958E0F9F1F06
:1014300008950F931F93CF93DF938C01EB018B8162
:1014400081FF1BC082FF0DC02E813F818C819D8159
:101450002817390764F4E881F9810193F983E88357
:1014600006C0E885F985802F1995892B31F48E8186
:101470009F8101969F838E8302C00FEF1FEFC801EB
:10148000DF91CF911F910F910895FA01AA2728307B
:1014900051F1203181F1E8946F936E7F6E5F7F4F41
:1014A0008F4F9F4FAF4FB1E03ED0B4E03CD0670FBD
:1014B000781F891F9A1FA11D680F791F8A1F911D10
:1014C000A11D6A0F711D811D911DA11D20D009F460
:1014D00068943F912AE0269F11243019305D3193A2
:1014E000DEF6CF010895462F4770405D4193B3E08B
:1014F0000FD0C9F7F6CF462F4F70405D4A3318F032
:10150000495D31FD4052419302D0A9F7EACFB4E0E2
:10151000A6959795879577956795BA95C9F700979A
:101520006105710508959B01AC010A2E069457953B
:10153000479537952795BA95C9F7620F731F841F92
:10154000951FA01D0895FF920F931F93CF93DF93D4
:10155000EC01F02E8EEF8A832B836D834E83809176
:101560006A098C838F5F80936A09022F10E0F8016B
:101570003596DE0113966FEF7FEF2D912627822F90
:101580008295807F822790E0382F2227AC01440F7C
:10159000551F440F551F440F551F24273527672F0C
:1015A00077276227732724E0959587952A95E1F799
:1015B00068277927319709F72F2D2627822F8295C3
:1015C000807F822790E0382F2227AC01E3E0440F90
:1015D000551FEA95E1F724273527472F552724275C
:1015E000352744E0959587954A95E1F728273927CF
:1015F000DE0118968B81FD01E80FF11D20838B81A0
:10160000A80FB11D11963C939801285F3F4FC90167
:10161000DF91CF911F910F91FF90089560E070E0EE
:1016200080E09FE3089560919C0770919D07882753
:1016300077FD8095982F0E94476420E030E040EFCE
:1016400051E40E94AC6320E030E040EA5BE30E949A
:10165000BE652DEC3CEC4CEC5DE30C94DF620F932B
:101660001F938C01DC01ED91FC910480F581E02D4C
:101670001995D801ED91FC910680F781E02DC80104
:1016800019951F910F91089508950895089508954B
:10169000089508950895CF92DF92EF92FF920F93ED
:1016A0001F93DF93CF93CDB7DEB728970FB6F8948B
:1016B000DEBF0FBECDBF7C01122FD32E19821A823E
:1016C00085EB8B8382E68C836D834E83C02E0F83E4
:1016D0001886FE01359620E090E0AE01475F5F4F2F
:1016E00003C08191980F290FE417F507D1F72A83DA
:1016F0009983812F9D2D9C01F90108C081919981C9
:10170000890F89839A81980F9A8301500023B1F73A
:10171000D701D196ED91FC91D297A081B18112961B
:101720002D913C911397CF01BE016D5F7F4F46E035
:1017300050E0F9011995D701D196ED91FC91D2971E
:10174000A081B18112962D913C911397CF01612F09
:101750007D2D4C2D50E0F9011995D701D196ED91D1
:10176000FC91D297A081B18112962D913C91139753
:10177000CF01BE016F5F7F4F41E050E0F901199545
:10178000D701D196ED91FC91D297A081B1811296AB
:101790002D913C911397CF01BE016E5F7F4F41E0C9
:1017A00050E0F901199528960FB6F894DEBF0FBEE8
:1017B000CDBFCF91DF911F910F91FF90EF90DF9000
:1017C000CF9008950F93DF93CF9300D0CDB7DEB7BE
:1017D00069834A832B8366E041E09E012F5F3F4F80
:1017E00003E059DF0F900F900F90CF91DF910F9191
:1017F00008950F93CF93DF93EC01CD59DF4F08810C
:10180000C356D040053009F457C1063009F5C35A14
:10181000DF4F8881CD55D0408432E1F42DA93EA917
:101820008FEF2F3F380709F447C1FE01E759FF4FFB
:10183000808190E08217930709F43EC12083CE0196
:1018400066E044E2C959DF4F9E0104E224DF34C15F
:10185000013091F0FE01EA59FF4F80818F5F808354
:10186000882309F029C1FE01E35AFF4FCE01CD596B
:10187000DF4F68814081FEC0C35ADF4F8881CD555C
:10188000D040833009F44FC0843020F4823009F016
:10189000E4C007C0863009F462C0823109F0DDC0BF
:1018A00087C0C959DF4F88819981AA81BB81C756FA
:1018B000D0408A839B83AC83BD83C559DF4F888129
:1018C0009981AA81BB81CB56D0408E879F87A88BF8
:1018D000B98BC159DF4F88819981AA81BB81CF56CD
:1018E000D0408A879B87AC87BD87C958DF4F688106
:1018F00079818A819B81C757D0402AE030E040E05F
:1019000050E00E94F0662A8B3B8B4C8B5D8BC5565A
:10191000DF4F8881CB59D0408EA3CC59DF4F08834D
:10192000C456D040AAC0C459DF4F8881CC56D0409D
:1019300080FD02C090E009C090E0C559DF4F88816A
:10194000CB56D040833009F491E0C556DF4F9883E1
:10195000CB59D040992309F090C01EA28EC0CE581A
:10196000DF4F8881C257D04080FD02C090E009C09F
:1019700090E0CF58DF4F8881C157D040833009F4C1
:1019800091E0C556DF4F9883CB59D040992309F495
:101990001EA2CA56DF4F8881C659D0408CA3CD56AF
:1019A000DF4F88819981C359D0409BA38AA365C02A
:1019B000C958DF4F88819981AA81BB81C757D04020
:1019C0008E8F9F8FA8A3B9A3C558DF4F88819981B7
:1019D000AA81BB81CB57D0408E8B9F8BA88FB98FAC
:1019E000C158DF4F688179818A819B81CF57D04070
:1019F00028EE33E040E050E00E94F0662A8F3B8FF3
:101A00004C8F5D8FCD5BDF4F0883A89688819981CD
:101A1000AA81BB81CB56D0408FAB98AFA9AFBAAFEC
:101A2000C159DF4F88819981AA81BB81CF56D040AF
:101A30008BAF9CAFADAFBEAFFE01FF96CD58DF4F71
:101A400088819981AA81BB8180839183A283B3839A
:101A50002E970883C556D04010C0FE01EA59FF4FAB
:101A600080818F5F8083882339F5CE0161E0C35A7E
:101A7000DF4F488120E0A6DE1FC0DE01AC59BF4F1A
:101A80008C918823C9F0FE01EB59FF4F8081882398
:101A900099F01C921082FE01EE59FF4F80818F5FFA
:101AA0008083843639F4CE0166E044E220E030E001
:101AB00000E0F1DD81E001C080E0DF91CF910F9186
:101AC00008952F923F924F925F926F927F928F92E2
:101AD0009F92AF92BF92CF92DF92EF92FF920F93BD
:101AE0001F93DF93CF93CDB7DEB727970FB6F89448
:101AF000DEBF0FBECDBF8C01DC01D196ED91FC9114
:101B0000D297A081B18114962D913C911597CF0168
:101B1000F90119959B838A83198244245524F8017D
:101B2000E45AFF4FFF83EE837BE5C72ED12CC00E16
:101B3000D11E6AE5E62EF12CE00EF11E5EE5A52E23
:101B4000B12CA00EB11E40E6642E712C600E711EE9
:101B5000C8018D599F4F9D838C833DE5232E312CE9
:101B6000200E311ECBC0D801D196ED91FC91D297B9
:101B7000A081B18116962D913C911797CF01F90163
:101B80001995282FEE81FF818081843009F441C0AE
:101B9000853050F48130A9F08130E8F08230F9F0DE
:101BA000833009F0A8C026C0863009F466C08630AC
:101BB00008F440C0873009F485C0883009F09BC024
:101BC0008DC0223629F4E2E0AE81BF81EC9393C050
:101BD000AE81BF811C92253B09F08DC06DC0E3E052
:101BE000AE81BF81EC93AC81BD812C93F701208342
:101BF000D6010DC084E0EE81FF818083D6019C91E7
:101C0000F7018081820F8083890F8C93D1012C93FF
:101C100072C085E0EE81FF818083D6019C91F7013F
:101C20008081820F8083890F8C93D5012C9311962C
:101C30001C9261C086E0EE81FF818083D6019C9179
:101C4000F7018081820F8083890F8C93922E8824E4
:101C5000D5018D919C911197880D991D8D939C9321
:101C60008150924030F0F50111821082AE81BF8127
:101C70001C92F301118210823EC0D6019C91F701A3
:101C80008081820F8083890F8C93D301ED91FC9129
:101C9000E433F10528F4E00FF11FE959FF4F2083E9
:101CA000F30180819181019691838083D5012D91EB
:101CB0003C9182179307F9F4EE81FF8180818F5F59
:101CC000808319C0E8E0AE81BF81EC93D7018C918D
:101CD000821789F0EE81FF8110820DC0AE81BF8135
:101CE0001C92F6018081821731F4C80182DD8823BD
:101CF00011F0F1E0F9830894411C511C8A819B8109
:101D0000481659060CF42FCF898127960FB6F89400
:101D1000DEBF0FBECDBFCF91DF911F910F91FF901E
:101D2000EF90DF90CF90BF90AF909F908F907F907B
:101D30006F905F904F903F902F900895EF92FF9299
:101D40000F93DF93CF9300D000D0CDB7DEB77C01E7
:101D500088EC90E09A83898381E090E09C838B8378
:101D60001E821D82C70166E048E09E012F5F3F4F43
:101D700006E091DCC70161E042E021E023DDC7011C
:101D800061E043E021E01EDDC70161E046E021E0C3
:101D900019DDC70161E042E121E014DDC70166E021
:101DA00044E220E030E000E076DC26960FB6F894BE
:101DB000DEBF0FBECDBFCF91DF910F91FF90EF90AF
:101DC0000895EF92FF920F931F938C017B01FC010A
:101DD000A1A9B2A9ED91FC9111970284F385E02DA0
:101DE000CD01199581E090E0F80194AB83AB80EBD5
:101DF00094E0A0E0B0E081A792A7A3A7B4A7C80190
:101E00009DDFF801F6AAE5AA1F910F91FF90EF90D0
:101E10000895DF93CF93CDB7DEB7CF91DF910895CB
:101E200008950895FC0187E295E091838083158AE7
:101E300084E0868B88E0878B91E0908F85E0818FAE
:101E400089E0828F82E0838F86E0848F8AE0858FAD
:101E50009187928793878FE29AE0928B818B12828F
:101E60000895089580E008958330A1F0843028F427
:101E7000813051F0823058F41AC0853089F08530B5
:101E800060F0863099F40FC020E339E012C022E3FD
:101E900039E00FC02AE539E00CC024E339E009C07D
:101EA0002AE339E006C02CE339E003C0089524E1B9
:101EB00039E0C90108951F93182F80916109D4DF7B
:101EC000DC01ED91FC910280F381E02D612F1995E9
:101ED0001F9108951F93182F80916109C5DFDC01C0
:101EE000ED91FC910084F185E02D612F19951F91F2
:101EF000089580916109B8DFFC01A081B181149639
:101F00002D913C911597F901199580E008958091E4
:101F10006109AADFFC01A081B18116962D913C9147
:101F20001797F901199580E0089508950895089587
:101F3000CF92DF92EF92FF920F931F93CF93DF9395
:101F40006C018B017A0160911807709119078091DB
:101F50001A0790911B072BEE39EC48E151E40E94DF
:101F6000BE6520E030E040EF51E40E94DF620E9455
:101F70001964DC01CB01482F6FE00E94AF6681300D
:101F800051F0813028F08230A1F0833049F415C03F
:101F9000A1E0B0E01DC0842F90E04F9734F04E5187
:101FA000A1E0B0E0C1E0D0E015C08EE1841B482F75
:101FB000F7CF4E51AFEFBFEFF5CF842F90E0CD9725
:101FC00014F04C5303C08CE3841B482FAFEFBFEFDA
:101FD000CFEFDFEFF6018281F8018083F601838184
:101FE000F701808350E0FA01E95DFB4F80816CE1ED
:101FF000869FC0011124892F990F990B8A9F900108
:102000008B9F300D9A9F300D1124F8018081820F33
:102010008083E6E3F4E0E41BF50B8081869FC0013A
:102020001124892F990F990B8C9F90018D9F300D52
:102030009C9F300D1124F7018081820F8083DF91F6
:10204000CF911F910F91FF90EF90DF90CF90089567
:1020500008950F931F938C0188EA96E00E94804EAA
:1020600085E891E160E00E945049D801ED91FC9132
:102070000190F081E02DC80119951F910F910895ED
:1020800088EA96E00E94804E85E891E160E00E9437
:10209000504980916109E8DEDC01ED91FC910190ED
:1020A000F081E02D199580916109DEDEDC01ED9172
:1020B000FC910680F781E02D199580916109D4DEAD
:1020C000DC01ED91FC910480F581E02D199580E013
:1020D0000895982F882319F4109261090BC01816DF
:1020E00024F0809161098823A1F180916109890F11
:1020F0008093610980916109873020F0815080933D
:10210000610927C088EA96E00E94804E85E891E147
:1021100060E00E94504980916109A6DEDC01ED91EA
:10212000FC910190F081E02D1995809161099CDE70
:10213000DC01ED91FC910680F781E02D19958091ED
:10214000610992DEDC01ED91FC910480F581E02DC6
:10215000199580E00895633021F0643021F481E026
:10216000B8CF8FEFB6CF0895633021F0643021F4FB
:1021700081E0AFCF8FEFADCF0895633021F06430B1
:1021800021F481E0A6CF8FEFA4CF0895633021F032
:10219000643021F481E09DCF8FEF9BCF08954F9263
:1021A0005F926F927F928F929F92AF92BF92CF92E7
:1021B000DF92EF92FF920F931F93DF93CF9300D0A4
:1021C0000F92CDB7DEB72A013B01C901B801A301C7
:1021D00092010E94DE6223E333E34AE852E40E9464
:1021E000BE6569837A838B839C83C301B20123E339
:1021F00033E345E652E40E94AC630E94A9632B01DD
:102200003C01C501B401A70196010E94DE6223E3EF
:1022100033E34AE852E40E94BE65A30192010E94A2
:10222000BE657B018C0169817A818B819C819B01D8
:10223000AC010E94BE655B016C01C801B701A80139
:1022400097010E94BE659B01AC01C601B5010E94C9
:10225000DF620E942B6622E03BE249EC54E40E94DC
:10226000BE650F900F900F900F90CF91DF911F914F
:102270000F91FF90EF90DF90CF90BF90AF909F9025
:102280008F907F906F905F904F9008954F925F92E4
:102290006F927F928F929F92AF92BF92CF92DF9276
:1022A000EF92FF920F931F93DF93CF93CDB7DEB7DB
:1022B00028970FB6F894DEBF0FBECDBF49835A836F
:1022C0006B837C830D831E832F833887CB01BA01F8
:1022D00023E333E345E652E40E94AC630E94A96322
:1022E0002B013C01C501B401A70196010E94DE62E9
:1022F00023E333E34AE852E40E94BE65A30192015E
:102300000E94BE657B018C016D817E818F819885E5
:1023100029813A814B815C810E94DE6223E333E3B1
:102320004AE852E40E94BE659B01AC01C801B701B6
:102330000E94526320E030E044E353E40E94BE6513
:102340002BED3FE049E450E40E94AC637B018C013B
:1023500020E030E040E050E00E94A563181654F001
:10236000C801B70120E030E044EB53E40E94DF6293
:102370007B018C01B701C80128960FB6F894DEBF27
:102380000FBECDBFCF91DF911F910F91FF90EF90C6
:10239000DF90CF90BF90AF909F908F907F906F9085
:1023A0005F904F9008950F931F938C018AE590E002
:1023B000F801918380839383828380E090E0A0E0A2
:1023C000B0E0808B918BA28BB38B87EB96E06AE5B4
:1023D00070E00E94C52F8AEB96E06AE570E00E94EB
:1023E000C52F0E943F56F801648B758B868B978BA7
:1023F0001F910F9108958F929F92AF92BF92CF92AB
:10240000DF92EF92FF920F931F93CF93DF93EC0134
:10241000409138075091390760913A0770913B0716
:1024200000913C0710913D0720913E0730913F07F6
:10243000C0908E07D0908F07E0909007F0909107A2
:102440008090920790909307A0909407B090950782
:10245000A6DE6C837D838E839F83409138075091E5
:10246000390760913A0770913B0700913C07109142
:102470003D0720913E0730913F07C0908E07D090D6
:102480008F07E0909007F0909107809092079090CE
:102490009307A0909407B0909507CE01F7DE688768
:1024A00079878A879B8720E030E040E05FEB0E94DD
:1024B000BE6520E030E044E353E40E94DF622889F7
:1024C00039894A895B890E94DF627B018C016887B8
:1024D00079878A879B8720E030E044E353E40E94B9
:1024E000B36518164CF4C801B70120E030E044E3AE
:1024F00053E40E94DE6212C0C801B70120E030E060
:1025000040E050E00E94A563882364F4C801B7014D
:1025100020E030E044E353E40E94DF62688779877B
:102520008A879B87E884F9840A851B85C801B701DF
:1025300020E030E040E050E00E94A56388235CF496
:102540000F2EF0E0EF2EF0E0FF2EF0E00F2FF0E086
:102550001F2FF02D14C0C801B70120E030E044E384
:1025600053E40E94B365181654F40F2EF0E0EF2EDA
:10257000F0E0FF2EF4E30F2FF3E41F2FF02DE88699
:10258000F9860A871B87C801B7010E9414649B0162
:10259000AC0187EB96E0B9010E94C52F609140071E
:1025A00070914107809142079091430720919607CF
:1025B0003091970740919807509199070E94DE62E9
:1025C0002C813D814E815F810E94AC630E947D63BE
:1025D00020E030E044E353E40E94BE652BED3FE091
:1025E00049E450E40E94AC637B018C0120E030E0C0
:1025F00040E050E00E94A56388235CF40F2EF0E0D9
:10260000EF2EF0E0FF2EF0E00F2FF0E01F2FF02D67
:1026100014C0C801B70120E030E044EB52E40E944E
:10262000B365181654F40F2EF0E0EF2EF0E0FF2EF5
:10263000F4EB0F2FF2E41F2FF02D60E070E084EB3D
:1026400092E4A80197010E94DE626C877D878E87E5
:102650009F87609118077091190780911A079091D0
:102660001B0720ED3FE049E450E40E94DF6220E0D8
:1026700030E044EB52E40E94BE6520ED3FE049E4C7
:1026800050E40E94AC630E9414649B01AC018AEB8D
:1026900096E0B9010E94C52FDF91CF911F910F9154
:1026A000FF90EF90DF90CF90BF90AF909F908F9072
:1026B0000895AF92BF92CF92DF92EF920F936C0189
:1026C00080E4F601828380E28383A5E8AA2EA1E15B
:1026D000BA2EC50160E440E224810581EE240E9407
:1026E000AD4AB6016C5F7F4FA6014B5F5F4FC601DD
:1026F0001FDCC501F6016281438124810581EE243E
:10270000EA940E94AD4A0F91EF90DF90CF90BF9076
:10271000AF9008952F923F924F925F926F927F9267
:102720008F929F92AF92BF92CF92DF92EF92FF92E1
:102730000F931F93DF93CF930F920F92CDB7DEB716
:102740004C01DC01ED91FC910680F781E02D19959B
:10275000182F0E943F566B017C011123C9F504E438
:10276000A02EB12CA80CB91CF50180819181A28109
:10277000B381A7019601281B390B4A0B5B0BF401AF
:1027800081A592A5A3A5B4A582179307A407B507B1
:1027900008F015C128E430E0820E931ED4011D928A
:1027A0001C92E8EBFFEF8E0E9F1ED401ED91FC9181
:1027B0001197D5966D917C91D6970190F081E02D7F
:1027C000C4011995F501C082D182E282F382F7C07B
:1027D000D40196968C91882319F421E030E002C050
:1027E00022E030E0E8E4F0E08E0E9F1ED4012D934D
:1027F0003C93E8EBFFEF8E0E9F1E81E0D40197968D
:102800008C93979795968C93E4E4F0E08E0E9F1E40
:10281000D401CD92DD92ED92FC921397ECEBFFEF99
:102820008E0E9F1E2230310509F0C9C0D4019D963D
:10283000CD92DD92ED92FC92D0975696AD90BD90E0
:10284000CD90DC905997EAE4F0E08E0E9F1ED40103
:10285000AD92BD92CD92DC921397E9EFFFEF8E0E11
:102860009F1ED4018C91EDEBFFEF8E0E9F1E1EE498
:10287000412E512C480C591CB2E52B2E312C280C22
:10288000391C94012A5A3F4F3A832983882309F43B
:1028900040C0D401D7966D917D918D919C91DA972E
:1028A0000E9447642AE037ED43E25CE30E94BE6584
:1028B000F2016083718382839383D401DB966D91EF
:1028C0007D918D919C91DE970E9447642AE037EDBF
:1028D00043E25CE30E94BE65F10160837183828301
:1028E00093832FE330E0820E931ED4016D917D918E
:1028F0008D919C910E9447642AE037ED43E25CE3AE
:102900000E94BE65E981FA8160837183828393832B
:1029100056C0D4015A966D917D918D919C915D9791
:102920000E9447642AE037ED43E25CE30E94BE6503
:1029300020ED3FE049E450E40E94BE6520E030E035
:1029400044E353E40E94AC637B018C01C601B501F2
:102950000E9445642AE037ED43E25CE30E94BE65D5
:102960003B014C01B701C8010E94A9635B016C01E6
:10297000B701C8010E9421667B018C01C401B3012B
:10298000A60195010E94BE65F20160837183828376
:102990009383C401B301A80197010E94BE65D101D0
:1029A0006D937D938D939C93139780E090E0A0E0CE
:1029B000B0E0E981FA8180839183A283B3830F9091
:1029C0000F90CF91DF911F910F91FF90EF90DF90CB
:1029D000CF90BF90AF909F908F907F906F905F90BF
:1029E0004F903F902F9008952F923F924F925F9279
:1029F0006F927F928F929F92AF92BF92CF92DF920F
:102A0000EF92FF920F931F93DF93CF93CDB7DEB773
:102A100064970FB6F894DEBF0FBECDBF6091240857
:102A20007091250880912608909127080E9447649C
:102A300020E836E948E15BE40E94AC6320ED3FE02A
:102A400049E450E40E94BE6520E030E044E353E4F2
:102A50000E94AC636D877E878F87988B6091380763
:102A60007091390780913A0790913B0720ED3FE044
:102A700049E450E40E94BE6520E030E044E353E4C2
:102A80000E94AC633B014C0160913C0770913D0793
:102A900080913E0790913F0720ED3FE049E450E4EC
:102AA0000E94BE6520E030E044E353E40E94AC6342
:102AB0007B018C01609128087091290880912A0877
:102AC00090912B080E94476420E836E948E15BE4D6
:102AD0000E94AC6320ED3FE049E450E40E94BE65F3
:102AE00020E030E044E353E40E94AC639B01AC017E
:102AF000C801B7010E94DE621B012C01C401B301B1
:102B00002D853E854F8558890E94DE6220E030E0A9
:102B100040E05FE30E94BE650E9421665B016C019C
:102B20006D857E858F8598890E94A96369837A83E4
:102B30008B839C83C401B3010E94A9636D837E8350
:102B40008F839887C201B10120E030E040E05FE36D
:102B50000E94BE650E9421667B018C01C601B50101
:102B6000A60195010E94BE655B016C0169817A81B5
:102B70008B819C812D813E814F8158850E94BE654D
:102B8000A80197010E94BE65A80197010E94BE6539
:102B90009B01AC01C601B5010E94DF627B018C0183
:102BA0000E942B665B016C0160E070E080E89FE3AF
:102BB000A80197010E94DE620E942B669B01AC0176
:102BC000C601B5010E94526369877A878B879C870B
:102BD000C201B1010E9421667B018C01C401B301D5
:102BE0000E9421665B016C016D857E858F859889C9
:102BF0000E9421663B014C01C201B1010E94A96300
:102C00001B012C01C801B7012D813E814F815885E0
:102C10000E94BE65698B7A8B8B8B9C8B69817A81D4
:102C20008B819C81A60195010E94BE657B018C0170
:102C3000C401B3012D813E814F8158850E94BE653C
:102C4000A20191010E94BE659B01AC01C801B701C0
:102C50000E94DE629B01AC0169897A898B899C891B
:102C60000E9452636B017C0108EA16E0C80160E033
:102C700040E00E940D4EC80160E072E00E944D5E8F
:102C8000409138075091390760913A0770913B079E
:102C9000C80125E030E00E94DF5EC80169E072E013
:102CA0000E944D5E40913C0750913D0760913E0768
:102CB00070913F07C80125E030E00E94DF5EC80147
:102CC00062E172E00E944D5E4091400750914107E1
:102CD0006091420770914307C80122E030E00E94F2
:102CE000DF5EC8016BE172E00E944D5E69857A8506
:102CF0008B859C8520E73DE642E45BE40E94BE654F
:102D0000AB01BC01C80122E030E00E94DF5EC801D7
:102D100061E272E00E944D5EC701B60120E030E042
:102D200044E353E40E94BE6520ED3FE049E450E4F3
:102D30000E94AC63AB01BC01C80122E030E00E94FC
:102D4000DF5EC8016AE272E00E944D5E6091240875
:102D50007091250880912608909127080E94476469
:102D600020E836E948E15BE40E94AC63AB01BC01BA
:102D7000C80125E030E00E94DF5EC80163E372E035
:102D80000E944D5E609128087091290880912A0860
:102D900090912B080E94476420E836E948E15BE403
:102DA0000E94AC63AB01BC01C80125E030E00E9489
:102DB000DF5EC8016CE372E00E944D5E60912C08FA
:102DC00070912D0880912E0890912F080E944764E1
:102DD00020E030E048EC52E40E94AC63AB01BC015F
:102DE000C80122E030E00E94DF5E64960FB6F894DE
:102DF000DEBF0FBECDBFCF91DF911F910F91FF902E
:102E0000EF90DF90CF90BF90AF909F908F907F908A
:102E10006F905F904F903F902F9008950F931F9366
:102E200008EA16E0C80160E042E00E940D4EC801C9
:102E300065E472E00E944D5E0E94130BAB01BC0181
:102E4000C80122E030E00E94DF5EC8016BE472E05E
:102E50000E944D5EC80160913E084AE050E00E9429
:102E6000C45DC80166E572E00E944D5E6091400855
:102E7000C80170E04AE050E00E94305E1F910F915F
:102E800008950F931F9308EA16E0C80160E040E040
:102E90000E940D4EC8016EE572E00E944D5E4091A9
:102EA00018075091190760911A0770911B07C80104
:102EB00022E030E00E94DF5EC80164E672E00E941A
:102EC0004D5E60919A0770919B07C8014AE050E0FF
:102ED0000E94305EC80160E045E00E940D4EC801CE
:102EE0006DE672E00E944D5E40911009509111090B
:102EF0006091120970911309C8012AE030E00E9424
:102F0000A15D1F910F910895CF93DF93EC0185E8A8
:102F100091E16EE647E30E943A4E85E891E167E36E
:102F200072E04FEF26E039E40E94434E85E891E1DC
:102F300060913E084AE050E00E94B35D8091360700
:102F4000882309F43FC0909137078B8D8917D1F101
:102F50009B8F85E891E164E144E10E943A4E85E867
:102F600091E167E772E00E944D5E85E891E164E1DE
:102F700044E10E943A4E85E891E167E372E04FEF49
:102F800026E039E40E94434E8091370787FF05C051
:102F900085E891E163E872E004C085E891E169E8C1
:102FA00072E00E944D5E8091370784FF05C085E87E
:102FB00091E16EE872E004C085E891E165E972E0B4
:102FC0000E944D5EDF91CF910895CF92DF92EF92F4
:102FD0000F93CF93DF936C01DC015B961C92C5E8E5
:102FE000D1E1CE0163E043E00E943A4ECE0163EBB3
:102FF00074E04FEF26E039E40E94434E20913607FB
:10300000222331F4CE016CE972E00E944D5E73C060
:1030100080913507833041F1843030F4882351F0BA
:10302000813009F04BC012C08A3061F18C3009F058
:1030300045C036C000D000D0EDB7FEB73196ADB771
:10304000BEB71296DC93CE93119745C000D000D046
:10305000EDB7FEB73196ADB7BEB71296DC93CE93FF
:10306000119783EB92E039C000D000D0EDB7FEB7E6
:103070003196ADB7BEB71296DC93CE9311978CEB19
:1030800092E02BC000D000D0EDB7FEB73196ADB7BF
:10309000BEB71296DC93CE93119785EC92E01DC0DB
:1030A00000D000D0EDB7FEB73196ADB7BEB71296DF
:1030B000DC93CE9311978EEC92E00FC000D000D03D
:1030C000EDB7FEB7319685E891E1ADB7BEB7129680
:1030D0009C938E9311978AEA92E093838283248350
:1030E00015820E945C4EEDB7FEB736960FB6F89487
:1030F000FEBF0FBEEDBF85E891E167E372E04FEFE1
:1031000026E039E40E94434E85E891E167E742E01A
:1031100026E003E3EE24EA940E941F4980913607DB
:10312000882381F085E891E164E640E12CE00FEF2F
:103130000E949A4A85E891E164E640E129E60BE0C5
:103140000E94AD4A85E891E162E044E126E001E2B7
:10315000EE24EA940E941F4985E891E16AE044E187
:1031600026E00E941F49D60151966D917C9152979D
:1031700085E891E14BE125E20FEF0E946449F601F9
:10318000618D728D85E891E14FE325E20E946449EB
:10319000D60153966D917C91549785E891E145E66F
:1031A00026E20E946449F6016589768985E891E105
:1031B00041E027E30E946449D60155966D917C91C8
:1031C000569785E891E146E727E30E946449F601B6
:1031D0006789708D85E891E14AE027E30E946449A0
:1031E000DF91CF910F91EF90DF90CF900895CF9224
:1031F000DF92EF92FF920F931F93DF93CF93CDB7A0
:10320000DEB7C951D2400FB6F894DEBF0FBECDBFB6
:103210006C0182EE93E167ED72E00E94F05E9091A6
:1032200062098091360789839A838AE0E82E81E0DB
:10323000F82EEC0EFD1E89819A81D70119969C9378
:103240008E93189785E117968C93C7016FEF4AEF1D
:1032500022E00FE90E94A30A8E010D5F1F4FF701C4
:10326000238130E0285F3F4FA7014E5F5F4FC801C9
:10327000BA01A9010E940708D6011196ED91FC91AF
:10328000129780819181D70113964C9150E0485F4D
:103290005F4FDC0112962D913C911397CF01B8013D
:1032A000F9011995C75EDD4F0FB6F894DEBF0FBE6A
:1032B000CDBFCF91DF911F910F91FF90EF90DF90E5
:1032C000CF9008958F929F92AF92BF92CF92DF924C
:1032D000FF920F931F93CF93DF93F62E4901082F90
:1032E00010E06801CC0CDD1C5601A00EB11EE501FA
:1032F000CC0FDD1FCC0FDD1FCD59D64F18828B812F
:103300009C818430910509F478C0853091055CF486
:103310008230910509F443C0833091050CF0ABC0B5
:103320009923C4F43CC28730910509F42FC1883039
:10333000910544F48530910509F4CAC0069709F057
:103340002EC2F3C08830910509F466C1099709F0CF
:1033500026C2D3C18EEF681709F021C282E090E047
:103360009C838B8380E191E0089FD001099FB00D81
:10337000189FB00D1124AD56B64F13961C9213979B
:1033800088E890E0089FF001099FF00D189FF00D6C
:103390001124EE0FFF1FEB56F64F608390C180E1C2
:1033A00091E0089FF001099FF00D189FF00D112486
:1033B000ED56F64F63831D8280818627282F229544
:1033C000207F282730E0522F4427C90163E0880F6F
:1033D000991F6A95E1F748275927818190E048278E
:1033E0005927B4E035952795BA95E1F74227532739
:1033F0005183408384E090E03BC084E490E0089FE8
:10340000F001099FF00D189FF00D1124EE0FFF1F22
:10341000EE0FFF1FE956F64F608380E191E0089FB1
:10342000F001099FF00D189FF00D1124ED56F64F95
:1034300080818627282F2295207F282730E0522F51
:103440004427C90163E0880F991F6A95E1F748276F
:103450005927818190E04827592794E03595279591
:103460009A95E1F7422753275183408383E090E008
:103470009C838B8394C180E191E0089FF001099FB8
:10348000F00D189FF00D1124ED56F64F65838081E5
:103490008627282F2295207F282730E0522F442787
:1034A000C901B3E0880F991FBA95E1F7482759275A
:1034B000818190E048275927A4E035952795AA9562
:1034C000E1F7422753275183408385E090E0D0CF36
:1034D00080E191E0089FF001099FF00D189FF00D29
:1034E0001124ED56F64F668380818627282F22957A
:1034F000207F282730E0522F4427C90163E0880F3E
:10350000991F6A95E1F748275927818190E048275C
:103510005927B4E035952795BA95E1F74227532707
:103520005183408386E090E0A3CF80E191E0089F43
:10353000F001099FF00D189FF00D1124ED56F64F84
:10354000678380818627282F2295207F282730E0D7
:10355000522F4427C90173E0880F991F7A95E1F72C
:1035600048275927818190E04827592764E03595FD
:1035700027956A95E1F7422753275183408383813A
:10358000882309F446C087E090E072CF6D81F8018E
:1035900025E0EE0FFF1F2A95E1F7EC0DFD1D31969A
:1035A00093E0EE0FFF1F9A95E1F7E60FF11DED5640
:1035B000F64FF0826F5F6D8380E191E0089FF0012C
:1035C000099FF00D189FF00D1124ED56F64F8081E4
:1035D0008F25282F2295207F282730E0522F44273F
:1035E000C901B3E0880F991FBA95E1F74827592719
:1035F000818190E048275927A4E035952795AA9521
:10360000E1F742275327518340838381681709F0EC
:10361000C6C088E090E02CCF80E191E0089FD00107
:10362000099FB00D189FB00D1124AD56B64F9C9157
:103630001796EC911797F0E0E95AFA4F80818927A5
:10364000482F4295407F482750E0342F2227CA0157
:1036500073E0880F991F7A95E1F72827392711968B
:103660008C91119790E02827392764E0559547956C
:103670006A95E1F72427352711963C932E938F2DD9
:1036800090E0307082179307F9F0F501EE0FFF1FFD
:10369000EE0FFF1FEB59F64F80818F5F80831882FA
:1036A00081E090E09C838B83EEEFFE1609F077C0FB
:1036B00082E090E09C838B8313961C9213978FEF8C
:1036C0009FEF8D939C936BC089E090E09C838B83EC
:1036D000F80125E0EE0FFF1F2A95E1F7EC0DFD1D27
:1036E000319693E0EE0FFF1F9A95E1F78D81E80F79
:1036F000F11DED56F64FF08252C0262F30E080E1EA
:1037000091E0089FB001099F700D189F700D112462
:103710006D56764FFB01818190E028173907E9F05B
:10372000F501EE0FFF1FEE0FFF1FEB59F64F8081E3
:103730008F5F8083188281E090E09C838B83FEEF13
:10374000FF1669F582E090E09C838B83EB011B827E
:103750008FEF9FEF9983888322C081E0888381E087
:1037600090E09C838B83F801B5E0EE0FFF1FBA95C4
:10377000E1F7EC0DFD1D3196A3E0EE0FFF1FAA95BA
:10378000E1F78D81E80FF11DEC56F64FF082DA017A
:10379000FB0180E191E001900D920197E1F7D801E2
:1037A000AA0FBB1FA00FB11FAA0FBB1FAA0FBB1FE1
:1037B000AD59B64F8C91813069F584E490E0089F53
:1037C000F001099FF00D189FF00D1124EE0FFF1F5F
:1037D000EE0FFF1FE956F64F808116968C931697D1
:1037E00018968D919C911997892B21F41B961C9208
:1037F0001E921A97F801EE0FFF1FE00FF11FEE0F58
:10380000FF1FEE0FFF1FED59F64F80859185019642
:1038100091878087F801EE0FFF1FE00FF11FEE0F79
:10382000FF1FEE0FFF1FDF01AD59B64F16968C91AB
:1038300016978F5FE4018E8318968D919C9119974E
:1038400099878887EB59F64F80818A871B8610827B
:103850008C91DF91CF911F910F91FF90DF90CF90CE
:10386000BF90AF909F908F900895CF92DF92EF928C
:10387000FF920F931F93DF93CF93CDB7DEB7CD5356
:10388000D2400FB6F894DEBF0FBECDBF6C01FC0175
:103890008281282F30E0295C3040C90163E070E06C
:1038A0000E94BB666130710581F062307105B9F02C
:1038B000672B09F08AC0C90163E070E00E94BB6613
:1038C000F601E80FF91F058913C0C90163E070E034
:1038D0000E94BB66F601E80FF91F008D09C0C901FF
:1038E00063E070E00E94BB66F601E80FF91F038DEC
:1038F00082EE93E169EE72E00E94F05EFE01319685
:10390000CE0140961192E817F907E1F7E02FF0E0B9
:10391000EE0FFF1FE551FE4F659174918E010F5F11
:103920001F4FC8010E94F3072091360730916209AA
:10393000F60183819481A581B681888B998BAA8BAE
:10394000BB8B2C8B3D8B89E08EA3DE015696F80154
:1039500080E101900D928150E1F7DE01AA5CBE4F3B
:10396000FE01709687E101900D928150E1F73EE2F1
:10397000E32E31E0F32EEC0EFD1E87E1F701878385
:10398000C7016FEF40E027E108EA0E94A30A8E0119
:10399000095D1F4FF701238130E0285F3F4FA701EA
:1039A0004E5F5F4FC801BA01A9010E940708F701E5
:1039B000438150E0485F5F4F8FE394E1B8010E947C
:1039C000CB5CF601128281E08487C35CDD4F0FB6C9
:1039D000F894DEBF0FBECDBFCF91DF911F910F9145
:1039E000FF90EF90DF90CF9008951F93CF93DF93D8
:1039F00088EA96E00E94804E10E0C7EED9E0FE0112
:103A000021966491662379F06A3041F41F5F88EA59
:103A100096E060E0412F0E940D4EF1CF88EA96E0DB
:103A20000E948853ECCFDF91CF911F910895FC0144
:103A30009281892F8150873C38F5E92FF0E0953647
:103A400018F0E556F04001C03197CF0163E070E017
:103A50000E94BB6601969C01220F331F280F391F5D
:103A6000220F331F2450CF0163E070E00E94BB6639
:103A7000462F4F5F88EA96E0622F0E940D4E88EA3B
:103A800096E060E20C9488530895DC011296EC9164
:103A90008E2F8150833608F5F0E03197CF0163E037
:103AA00070E00E94BB6601969C01220F331F280F15
:103AB000391F220F331F2450CF0163E070E00E94B2
:103AC000BB66462F4F5F88EA96E0622F0E940D4E3C
:103AD00088EA96E06EE30C9488538E2F85568336E1
:103AE00010F5F0E0E556F040CF0163E070E00E9491
:103AF000BB6601969C01220F331F280F391F220F2E
:103B0000331F2450CF0163E070E00E94BB66462F54
:103B10004F5F88EA96E0622F0E940D4E88EA96E099
:103B200063E20C94885308951F93CF93DF93EB01C6
:103B300088EA96E00E94804E10E0FE012196649192
:103B4000662379F06A3041F41F5F88EA96E060E00E
:103B5000412F0E940D4EF1CF88EA96E00E948853D3
:103B6000ECCFDF91CF911F910895FC01848190E00B
:103B7000895C904082309105C9F0833091052CF426
:103B8000009761F0019711F50DC084309105B1F0F7
:103B9000843091057CF00597C9F414C0CF0162E42C
:103BA0007AE00FC0CF0162E87AE00BC0CF0162EC8F
:103BB0007AE007C0CF0165E07BE003C0CF0166E497
:103BC0007BE0B2CFCF0164E97BE0AECF0895FC018A
:103BD00044814150473C60F48581481B88EA96E067
:103BE00060E00E940D4E88EA96E060E20C948853F3
:103BF0000895FC0144814150433660F48581481B9F
:103C000088EA96E060E00E940D4E88EA96E06EE356
:103C10000C9488530895FF920F931F93CF93DF93D3
:103C2000EC0188EA96E00E94804EFF2410E026C056
:103C3000141740F0812F841B482F88EA96E061E03A
:103C40000E940D4E90E001C0902FEA81FB81EF0DA4
:103C5000F11DF3946491662381F06A3071F08D81D7
:103C60001817E8F01630D8F4092F0F5F923160F77B
:103C700088EA96E00E948853E7CF1F5F4D81842F2A
:103C800090E00796212F30E0821793078CF6CE0143
:103C9000B0DFDF91CF911F910F91FF900895092F11
:103CA000D3CFB9CF0895AF92BF92CF92DF92EF9268
:103CB000FF920F931F93DF93CF9300D00F92CDB756
:103CC000DEB78C01DC0112969C911297892F8150EE
:103CD000873C08F0D8C0E92FF0E0953618F113962C
:103CE000ED90FD900D911C911697E556F040CF0197
:103CF00063E070E00E94BB6601969C01220F331FB7
:103D0000280F391F220F331F2350CF0163E070E0CB
:103D10000E94BB66462F4F5F88EA96E0622F0E94A2
:103D20000D4E4CC03197CF0163E070E00E94BB663E
:103D300001969C01220F331F280F391F220F331FBA
:103D40002350CF0163E070E00E94BB66462F4F5FB7
:103D500088EA96E0622F0E940D4E82EE93E1F80110
:103D600062814AE050E00E94C45DD80112968C91B5
:103D700090E0019763E070E00E94BB660196BC0191
:103D8000660F771F680F791F660F771F63507040AB
:103D900082EE93E14AE050E00E94305EF8018281B9
:103DA00090E0019763E070E00E94BB666F5F7F4F19
:103DB00082EE93E14AE050E00E94305EC801B70114
:103DC00020E030E048EC52E40E94BE6520E030E0A4
:103DD00040E05FE30E94DF620E9482640E941964F7
:103DE0007B018C01C8012AE030E040E050E00E94F5
:103DF000CE66605D6983B701C8012AE030E040E02B
:103E000050E00E94CE66B22EC32ED42E052F62E063
:103E1000E62EF12CEC0EFD1E11E05EE2A52E123016
:103E200011F4AB821BC06B2D7C2D8D2D902F2AE0C1
:103E300030E040E050E00E94CE66605DD7016C93B8
:103E40006B2D7C2D8D2D902F2AE030E040E050E04E
:103E50000E94CE66B22EC32ED42E052F1F5F08946B
:103E6000E11CF11C1430D9F67E010894E11CF11C10
:103E70001150F701E10FF11D88EA96E060810E9480
:103E800088531123A9F70F900F900F900F90CF91A7
:103E9000DF911F910F91FF90EF90DF90CF90BF9037
:103EA000AF900895CF93DF93EC018A81282F30E003
:103EB00025563040C90163E070E00E94BB66613066
:103EC000710579F062307105B1F0672B89F5C90190
:103ED00063E070E00E94BB66FE01E80FF91FE58910
:103EE00013C0C90163E070E00E94BB66FE01E80FE9
:103EF000F91FE08D09C0C90163E070E00E94BB6654
:103F0000FE01E80FF91FE38DF0E0EE0FFF1FEE0F4B
:103F1000FF1FE85EF84F86A997A9A0ADB1AD8B83CE
:103F20009C83AD83BE83CE01BEDE1A8281E08C8786
:103F3000DF91CF9108952F923F924F925F926F92AF
:103F40007F928F929F92AF92BF92CF92DF92EF9229
:103F5000FF920F931F93DF93CF9300D00F92CDB7B3
:103F6000DEB76C0188EA96E060E040E00E940D4E0A
:103F700000E010E0D6015196ED91FC915297E00FD0
:103F8000F11F6491662339F488248394FDE23F2E67
:103F9000EEE22E2E0AC088EA96E00E9488530F5F58
:103FA0001F4F0331110531F7EFCF88EA96E060E04B
:103FB000482D0E940D4EB1E08B1629F488EA96E058
:103FC00069EF72E00FC0E2E08E1629F488EA96E00D
:103FD0006CEF72E007C0F3E08F1631F488EA96E0E8
:103FE0006FEF72E00E944D5E260175E6672E712C20
:103FF000D20119968C91882309F494C0B1E08B16F4
:1040000051F4F601828190E08615970529F1D201DD
:104010005596EC9129C0B2E08B1669F4F6018281C5
:1040200090E093012D5F3F4F82179307A9F0D201D3
:104030005896EC9119C0B3E08B1629F060E070E05F
:1040400080E090E01CC0F601828190E093012A5F3D
:104050003F4F8217930729F463817481858196818C
:104060000EC0D2015B96EC91F0E0EE0FFF1FEE0F59
:10407000FF1FE85EF84F66A977A980AD91AD20E0FB
:1040800030E048EC52E40E94BE6520E030E040E0C1
:104090005FE30E94DF620E9482640E9419647B01D8
:1040A0008C01C8012AE030E040E050E00E94CE667A
:1040B000605D6983B701C8012AE030E040E050E06C
:1040C0000E94CE66922EA32EF42EE52E8E010E5F58
:1040D0001F4FBB24B394B2E0BB1611F42B821BC05C
:1040E000692D7A2D8F2D9E2D2AE030E040E050E0A2
:1040F0000E94CE66605DF8016083692D7A2D8F2D58
:104100009E2D2AE030E040E050E00E94CE66922EE4
:10411000A32EF42EE52EB3940F5F1F4FF4E0BF16CD
:10412000D1F604C039823A823B823C8288EA96E02A
:1041300060E20E94885314E01150E1E0F0E0EC0FDF
:10414000FD1FE10FF11D88EA96E060810E9488530F
:10415000112391F788EA96E060E20E948853089460
:10416000411C511C0894611C711C88E6681671047E
:1041700009F03ECF8394A4E08A1609F016CFC60159
:1041800084DC0F900F900F900F90CF91DF911F91D3
:104190000F91FF90EF90DF90CF90BF90AF909F90E6
:1041A0008F907F906F905F904F903F902F900895E9
:1041B000FC01662311F41282BEDE80E00895BBDEAE
:1041C00080E0089589EB9EE060E270E041E050E01D
:1041D0000E94043389EB9EE00E945232009721F046
:1041E00089EB9EE00C945B320895ECDF482F282F7A
:1041F00030E083FD02C083E007C0C9019695879532
:10420000969587958095817024FF85E025FF82E053
:1042100026FF86E047FF84E008951F93CF93DF9346
:10422000EC01E3DF182F882339F40E943F5669839D
:104230007A838B839C8341C08D81181791F01D83F5
:104240000E943F5669837A838B839C830E943F56EA
:104250006A5E7140804090406E837F838887998733
:104260002BC00E943F562E813F8148855985621B95
:10427000730B840B950B645F714080409040E0F0BD
:104280000E943F5629813A814B815C81621B730BEE
:10429000840B950B6A3071058105910568F00E94C9
:1042A0003F5669837A838B839C830E943F566E833B
:1042B0007F838887998701C010E0812FDF91CF919C
:1042C0001F910895CF93DF93EC01A7DF982F88818A
:1042D000981711F490E001C09883892FDF91CF9156
:1042E0000895FC018FEF818380810C94345F0F93DC
:1042F0001F93CF93DF93EC018A81843058F5E981D5
:10430000F0E0EE0FFF1FEE0FFF1FE80FF11DEE0FA5
:10431000FF1FEE0FFF1FDF01A35CBB4F0D911C9130
:10432000E15CFB4F8081918198878F83892B91F08D
:1043300088810E94345F2F81388540E050E0888179
:10434000B8010E94A85F0E943F566B837C838D83D7
:104350009E8302C0CE01C5DFDF91CF911F910F91E7
:104360000895CF93DF93EC0189818F3FC1F00E94C4
:104370003F562B813C814D815E81621B730B840B08
:10438000950B2F81388540E050E026173707480706
:10439000590728F48A818F5F8A83CE01A8DFDF91D5
:1043A000CF910895FC018181861720F061831282EC
:1043B000CF019DCF0895FF920F931F93CF93DF936B
:1043C000EC018E850E942158082F88890E9421586F
:1043D000F82E8E850E942158182F88890E94215816
:1043E000011779F7F81669F7002311F420E001C0EE
:1043F00022E080E0F11081E0282B922F990F990F95
:104400008A89982B2A8B21E030E002C0220F331FCB
:104410009A95E2F7C90186799976892B09F444C007
:10442000C901827891742A853B85892B19F02F5F09
:104430003F4F02C0215030403B872A874A815B8131
:104440002A853B854217530769F4E881F981208169
:1044500031818C819D8128173907CCF4808191812D
:10446000019613C088279927841B950B8217930701
:10447000D9F4E881F981208131818E819F81821771
:1044800093072CF4808191810197918380831B860F
:104490001A86288539852115310531F0E881F981A1
:1044A00080819181F9011995DF91CF911F910F9131
:1044B000FF90089585ED96E07ECFEF92FF920F93E7
:1044C0001F93CF93DF93EC01FB01798368835D83B6
:1044D0004C833F832E831B830A83F986E8861B86E1
:1044E0001A86808191819C8B8B8B8E850E942158AE
:1044F000892B11F410E001C012E088890E94215834
:1045000020E0892B09F021E0212B2A8B88819981D9
:10451000892B41F488859985892B21F0CE010C9651
:1045200099838883DF91CF911F910F91FF90EF9036
:104530000895EF92FF920F931F93CF93DF93EC01B7
:10454000162F75DA143009F4FEC0153048F4123015
:1045500021F1133008F0D8C0113009F053C109C05F
:10456000163009F4C1C0163088F1173009F04AC17D
:10457000A1C09A81892F8450863010F4935013C0C3
:10458000892F85568336F0F46B817C818D819E81E5
:104590002AE037ED43E25CE3F5C09A81892F815030
:1045A000863018F49D5F9A832DC1892F85568336F6
:1045B00048F46B817C818D819E812AE037ED43E256
:1045C0005CE3BEC0993C08F01FC11CC19A819923CD
:1045D00031F48985882309F415C181E058C09436E7
:1045E00008F057C0292F30E021503040C90163E066
:1045F00070E00E94BB66FC018E01080F191FD801F4
:1046000019968C91882309F4FDC0C90163E070E01C
:104610000E94BB666130710551F06230710551F046
:10462000672B09F0F1C0EC0FFD1F858906C0F8016A
:10463000808D03C0D8015B968C91E82FF0E0EE0FDF
:10464000FF1FEE0FFF1FE85EF84F66A977A980AD48
:1046500091AD6B837C838D839E8320E030E048ECBA
:1046600052E40E94BE650E94146478876F83BE0185
:10467000695F7F4F85ED96E04CE251E020E030E04D
:104680000CEF1FEFEE24FF2418DF8A818C598A83F8
:10469000B9C0892F8556833628F49C599A83CE0158
:1046A000A4D9B2C0993C08F4ADC0CE01DED8CE0189
:1046B00042DCAAC08A818556833608F0A3C06F8188
:1046C0007885882777FD8095982F0E94476420E0A1
:1046D00030E048EC52E40E94AC636B837C838D83B2
:1046E0009E83CE01E0DA8EC08A81882319F40E946D
:1046F00069108AC0853630F0893C10F0CE011BDC91
:10470000CE01D0DB1A827EC02A81222311F48FEFE2
:104710001EC0243640F4822F63E00E94AF669130C1
:1047200011F0215020C0822F8556833608F068C0D2
:104730006B817C818D819E812DEC3CEC4CEC5DE3AA
:104740000E94DE6221C02A81222321F481E00E949E
:10475000691058C0243648F4822F63E00E94AF6687
:10476000992319F02F5F2A834DC0822F85568336F7
:1047700008F046C06B817C818D819E812DEC3CECE4
:104780004CEC5DE30E94DF627B018C0120E030E0B5
:1047900040E050E00E94A56388235CF40F2EF0E017
:1047A000EF2EF0E0FF2EF0E00F2FF0E01F2FF02DA6
:1047B00014C0C801B70120E030E040E450E40E949A
:1047C000B365181654F40F2EF0E0EF2EF0E0FF2E34
:1047D000F0E40F2FF0E41F2FF02DEB82FC820D830D
:1047E0001E83C801B70120E030E048EC52E40E948B
:1047F000BE650E94146478876F8381E08C8702C055
:10480000293C10F4CE0141D980E0DF91CF911F9176
:104810000F91FF90EF9008950F931F93CF93DF9325
:10482000FC01162F042FE90166877787408B518B97
:10483000862F60E00E943C57802F60E00E943C572A
:10484000812F61E00E94EF57802F61E00E94EF57B7
:104850008FEFCF3FD80741F08C2F61E00E943C578B
:104860008C2F60E00E94EF57DF91CF911F910F9145
:104870000895CF92EF92FF920F938130910509F046
:10488000B1C06F5F7F4F09F0B6C088EA96E060E084
:1048900040E024E108E037E3E32E32E0F32ECC24BD
:1048A0000E948A5387EB96E00E946F2F8AEB96E076
:1048B0000E946F2F8DEB96E00E94D31185ED96E05C
:1048C00062E070E043E050E02FEF3FEFA5DF0E9491
:1048D0003F566093F0067093F1068093F206909332
:1048E000F30687E38093F4068FEF8093F5068DEF50
:1048F00096E00E94263581E094E190934C088093E5
:104900004B0883E495E090931B0880931A0810925B
:10491000C4081092C30888EE93E09093DC0880935B
:10492000DB089093DE088093DD081092ED0810926A
:10493000EC089093050980930409909307098093EC
:10494000060989E195E0909315098093140986E1A1
:1049500099E00E94C7538DE194E0909326098093DB
:1049600025098BE594E090932809809327098DE72A
:1049700094E090932A098093290987E894E0909322
:104980002C0980932B0981E994E090932E09809360
:104990002D098BE095E090933109809330098DEFDC
:1049A00094E0909333098093320981EE94E09093E0
:1049B0003509809334098FEE94E090933B098093FE
:1049C0003A098CE399E00E94120F85E395E09093F9
:1049D0005B0980935A0986EE9BE090935D09809372
:1049E0005C0909C0892B39F46F5F7F4F21F48DEF8B
:1049F00096E00E9439350F91FF90EF90CF90089587
:104A000080E090E06FEF7FEF34CF81E090E06FEFD8
:104A10007FEF2FCF2F923F924F925F926F927F92B4
:104A20008F929F92AF92BF92CF92DF92EF92FF92BE
:104A30000F931F93DF93CF93CDB7DEB7CD51D24005
:104A40000FB6F894DEBF0FBECDBF1C01F3E5EF2E0D
:104A5000F5E0FF2EEBE4CE2EE5E0DE2E7EE0A72E85
:104A600071E0B72EAC0EBD1E68E0462E512C4A0CEC
:104A70005B1C12E457E0852E912C8C0E9D1E42E0AB
:104A8000642E712C6A0C7B1C2091360730916209D0
:104A9000D7014C91F601808191819A8389832B8380
:104AA0003C834D83F1E0FE83D201FE01319686E026
:104AB00001900D928150E1F7D50117961C93C50125
:104AC00064E148EC26E004E90E94A30AF501238191
:104AD00030E0285F3F4FC401B301A9010E940708DD
:104AE000D1011196ED91FC91129780819181D501B0
:104AF00013964C9150E0485F5F4FDC0112962D9168
:104B00003C911397CF01B401F90119950894E11C68
:104B1000F11CE2E0F0E0CE0EDF1EF7E5EF16F5E067
:104B2000FF0609F0B1CF82EE93E162E073E00E94EC
:104B30004D5E82EE93E1609136074AE050E00E94BC
:104B4000B35D82EE93E160E273E00E944D5E82EE1F
:104B500093E1609162094AE050E00E94B35D82EE09
:104B600093E10E94FD5CC35EDD4F0FB6F894DEBF9B
:104B70000FBECDBFCF91DF911F910F91FF90EF90AE
:104B8000DF90CF90BF90AF909F908F907F906F906D
:104B90005F904F903F902F900895643061F06630A1
:104BA00019F0633071F40AC08FED98E033DF84EFC1
:104BB00096E067E0F7CB81E00C9469108FEF0C94DE
:104BC00069100895FC01848190E0895C90408130F7
:104BD000910519F0039741F404C08FED98E00C940F
:104BE000F7188FED98E016CF08951F93CF93DF93BA
:104BF000EC01162F0E94E71D133009F461C0143038
:104C000030F4113069F0123009F074C026C015304C
:104C1000E9F1153008F459C0163009F06BC05CC0DA
:104C20002C81222341F48D81882309F463C08150B3
:104C30008D831E835FC0822F8250823620F54D8186
:104C400030E0842F90E001962817390719F441507D
:104C50004D831E838C8181501EC02C81222309F438
:104C600049C0822F8150853070F44D8130E0842F0F
:104C700090E008962817390721F44F5F4D8381E0B3
:104C80008E838C8107C0293CC0F534C08C81882379
:104C900021F48D818F5F8C832DC0843630F488534E
:104CA0008C83CE010E94B51D28C0893C18F1CE012D
:104CB00089DF1C8281E08E83CE010E940B1E1DC005
:104CC0008C818823D1F48FEF04C08C818823A9F4D0
:104CD00081E00E9469100EC08C81882319F40E9423
:104CE00069100BC0893C18F0CE010E940B1E1C827B
:104CF00081E08E83CE010E94F91D80E0DF91CF918B
:104D00001F910895AF92BF92CF92DF92EF92FF92E0
:104D10000F931F93DF93CF93CDB7DEB7CB5BD0401C
:104D20000FB6F894DEBF0FBECDBF8B01FB016781CC
:104D30006532D8F4633208F01CC26B3109F419C231
:104D40006C3148F4613009F4D2C1613098F16631B8
:104D500009F009C277C16E3109F41EC1613209F44C
:104D6000D4C06D3109F0FFC104C2693609F401C233
:104D70006A3680F46A3309F4FCC16B3320F46A327A
:104D800009F0F1C1F6C1653409F4F3C1603509F0E9
:104D9000EAC1EFC1683909F4ECC1693920F4663918
:104DA00009F0E1C1E6C16B3F09F4E3C16D3F09F0D1
:104DB000DAC1B7C1DE011196F801389689E0019099
:104DC0000D928150E1F78F818093370790913607DC
:104DD000F8018581981709F47DC082EE93E163E2C2
:104DE00073E00E94F05EF8018581809336078D8123
:104DF000809334078E818093350782EE93E16AE3D6
:104E000073E00E944D5E809134078230B1F08330B0
:104E100028F4882341F08130F9F40AC0843091F0FD
:104E20008F30D1F414C082EE93E165E473E018C0D2
:104E300082EE93E16DE473E013C082EE93E168E5E6
:104E400073E00EC082EE93E162E673E009C082EE89
:104E500093E16DE673E004C082EE93E163E873E0F2
:104E60000E94F05E82EE93E16BE873E00E944D5E7B
:104E7000809135078330B1F0843028F4882341F0E5
:104E80008130F9F40AC08A3091F08C30D1F414C02A
:104E900082EE93E165E473E018C082EE93E16CE981
:104EA00073E013C082EE93E164EA73E00EC082EE19
:104EB00093E163EB73E009C082EE93E160EC73E091
:104EC00004C082EE93E163E873E00E94F05E80E04C
:104ED0000E945B0FF801858180933607868180935D
:104EE00062098091100990911109A0911209B09165
:104EF00013090196A11DB11D80931009909311090A
:104F0000A0931209B093130934C1DE01D296F801BF
:104F100038968CE101900D928150E1F76EA97FA93E
:104F200088AD99AD0E94476420E836E948E15BE42A
:104F30000E94AC63609338077093390780933A07F7
:104F400090933B076AAD7BAD8CAD9DAD0E944764ED
:104F500020E836E948E15BE40E94AC6360933C07DB
:104F600070933D0780933E0790933F07FE01FE96A6
:104F700060817181828193810E94476420E030E0EA
:104F80004AE754E40E94AC63609340077093410782
:104F90008093420790934307DE01A25BBF4FF80165
:104FA00038968CE101900D928150E1F7FE01E25BB1
:104FB000FF4F84819581A681B781809318079093D4
:104FC0001907A0931A07B0931B0780859185A285C6
:104FD000B38580931C0790931D07A0931E07B09381
:104FE0001F0784859585A685B785809320079093B4
:104FF0002107A0932207B093230780899189A28972
:10500000B3898093240790932507A0932607B09334
:10501000270784899589A689B78980932807909363
:105020002907A0932A07B0932B07808D918DA28D1D
:10503000B38D80932C0790932D07A0932E07B093E8
:105040002F0797C0DE015996F801389689E1019043
:105050000D928150E1F79EE4E92E97E0F92E00E0F1
:1050600010E08AE0A82EB12CAC0EBD1EB1E2CB2E12
:10507000D12CCC0EDD1EF801EE0FFF1FE551FE4FC7
:1050800065917491C5010E94F307C501B6010E94A4
:105090001B08009711F5898D9A8DAB8DBC8DF7019A
:1050A00080839183A283B38382EE93E1B6010E9451
:1050B0004D5E82EE93E164EC73E00E944D5EF70179
:1050C000408151816281738182EE93E122E030E080
:1050D0000E94DF5E80E00E945B0F0F5F1F4F84E045
:1050E00090E0E80EF91E0031110529F642C0DE01FC
:1050F000A659BF4FF80138968FE101900D9281506B
:10510000E1F7FE01E659FF4F8485958590933107BD
:105110008093300786859785909333078093320775
:1051200028C0DE01A757BF4FF801389683E30190EE
:105130000D928150E1F782EE93E168EC73E00E94FA
:105140004D5E82EE93E18E0107571F4FF80161918A
:105150008F014AE050E00E94C45D82EE93E1B80105
:105160000E94F05E06C082EE93E14AE050E00E94A9
:10517000C45DC554DF4F0FB6F894DEBF0FBECDBF80
:10518000CF91DF911F910F91FF90EF90DF90CF9023
:10519000BF90AF900895CF92DF92EF92FF920F935E
:1051A0001F93DF93CF93CDB7DEB7CC51D1400FB66D
:1051B000F894DEBF0FBECDBF8C011C861B862DE090
:1051C000E22EF12CEC0EFD1E6E010894C11CD11CC8
:1051D00018C0F801A181B281ED91FC911197068070
:1051E000F781E02DCD011995682FD8011B968C9180
:1051F000A70196010E946219882319F0C801B7011E
:1052000081DDD8011196ED91FC911297A081B181B9
:1052100014962D913C911597CF01F9011995892B81
:10522000C1F6F801858596852B853C85820F931FF5
:10523000968785878689882319F485898823B1F123
:105240000E943F56D80155968C918823A9F00E9460
:105250003F56F801218D328D438D548D621B730BA7
:10526000840B950B25A136A140E050E026173707A7
:105270004807590708F4158AD80156968C91882357
:10528000A9F00E943F56F801258D368D478D50A11B
:10529000621B730B840B950B27A130A540E050E0F7
:1052A000261737074807590708F4168AC45EDE4FE9
:1052B0000FB6F894DEBF0FBECDBFCF91DF911F9127
:1052C0000F91FF90EF90DF90CF90089586E30E94BA
:1052D0000857AA2797FDA095BA2FBC01CD010E94BF
:1052E000476420E030E040EC5FE30E94BE650E942E
:1052F0001464CB0108952F923F924F925F926F9268
:105300007F928F929F92AF92BF92CF92DF92EF9255
:10531000FF920F931F93DF93CF93CDB7DEB72897FC
:105320000FB6F894DEBF0FBECDBF85E891E163E014
:1053300045E124E00FE1EE240E9448490E94130B4E
:105340002DEC3CEC4CE450E40E94DE627B018C01CD
:1053500020E030E040E050E00E94A56388235CF448
:105360000F2EF0E0EF2EF0E0FF2EF0E00F2FF0E038
:105370001F2FF02D14C0C801B70120E030E040E835
:105380005FE30E94B365181654F40F2EF0E0EF2E81
:10539000F0E0FF2EF0E80F2FFFE31F2FF02DC801E4
:1053A000B70120E030E048EF51E40E94BE650E9462
:1053B00019647B018C0134E3932E492D461B85E84B
:1053C00091E163E024E00E2DEE24EA940E94484926
:1053D0007DDF5C0185E891E16BE045E124E00FE1D0
:1053E000EE240E944849CC24B7FCC094DC2CC601B2
:1053F000B5010E94476420E030EC4FE754E40E947E
:10540000AC6320E030E048EF51E40E94BE650E94AA
:1054100019647B018C01492D461B85E891E16BE005
:1054200024E00E2DEE24EA940E94484985E891E19B
:1054300068E743E024E001E3EE240E94484920911C
:1054400030073091310781E390E0289FB001299F18
:10545000700D389F700D112480E090E00E9445642B
:1054600020E030E04AE754E40E94AC630E941964F3
:105470007B018C01961A85E891E168E7492D24E0CB
:105480000E2DEE24EA940E94484985E891E167E1F7
:1054900047E324E507E0EE240E94484985E891E1CE
:1054A00067E372E04FEF26E039E40E94434E85E85F
:1054B00091E167E147E30E943A4E60912C087091B8
:1054C0002D0880912E0890912F08613127E27207F4
:1054D00020E0820720E09207DCF00E94476420E091
:1054E00030E048EC52E40E94AC630E94146487E20E
:1054F0006031780714F06FE077E277FF02C060E078
:1055000070E085E891E14AE050E00E941E5E67C0CD
:1055100016161706180619064CF50E94476420E077
:1055200030E048EC52E40E94AC637B018C0120E047
:1055300030E040E050E00E94A56388230CF43DC0B9
:10554000C801B7012DEC3CEC47EC52E40E94B36576
:1055500018160CF03CC00F2EFDECEF2EFCECFF2ECD
:10556000F7EC0F2FF2E41F2FF02D31C00E9447649B
:1055700020E030E048EC52E40E94AC637B018C01F7
:1055800020E030E046EC52EC0E94A56388235CF4F6
:105590000F2EF0E0EF2EF0E0FF2EF6EC0F2FF2ECE6
:1055A0001F2FF02D14C0C801B70120E030E040E00B
:1055B00050E00E94B365181654F40F2EF0E0EF2E61
:1055C000F0E0FF2EF0E00F2FF0E01F2FF02D85E828
:1055D00091E1B801A70121E030E00E94DD5E85E89D
:1055E00091E16DE60E94F55C85E891E167E372E088
:1055F0004FEF26E039E40E94434E85E891E16BE3EA
:1056000047E30E943A4E60913808709139088091C2
:105610003A0890913B086131E7E27E07E0E08E07AF
:10562000E0E09E07DCF00E94476420E030E048ECB8
:1056300052E40E94AC630E941464F3E0683E7F076A
:1056400014F067EE73E077FF02C060E070E085E879
:1056500091E14AE050E00E941E5E39C00E9447641A
:1056600020E030E048EC52E40E94AC637B018C0106
:1056700026E636E64EE151EC0E94A56388235CF4F1
:105680000F2EF6E6EF2EF6E6FF2EFEE10F2FF1ECE1
:105690001F2FF02D14C0C801B7012DEC3CEC47ECD6
:1056A00052E40E94B365181654F40F2EFDECEF2E51
:1056B000FCECFF2EF7EC0F2FF2E41F2FF02D85E806
:1056C00091E1B801A70121E030E00E94DD5E85E8AC
:1056D00091E163ED73E00E944D5E209124083091CA
:1056E00025084091260850912708E0903807F0904F
:1056F000390700913A0710913B0760902808709095
:10570000290880902A0890902B08A0903C07B09020
:105710003D07C0903E07D0903F0780913607882311
:1057200009F4F4C0CA01B9010E94476420E836E9CF
:1057300048E15BE40E94AC6320ED3FE049E450E4C3
:105740000E94BE6520E030E044E353E40E94AC6375
:1057500069837A838B839C83C801B70120ED3FE086
:1057600049E450E40E94BE6520E030E044E353E4A5
:105770000E94AC636D837E838F839887C601B501D9
:1057800020ED3FE049E450E40E94BE6520E030E0B7
:1057900044E353E40E94AC637B018C01C401B30178
:1057A0000E94476420E836E948E15BE40E94AC636C
:1057B00020ED3FE049E450E40E94BE6520E030E087
:1057C00044E353E40E94AC639B01AC01C801B70100
:1057D0000E94DE6220E030E040E05FE30E94BE65B0
:1057E0000E9421661B012C016D817E818F8198852D
:1057F0000E94A9633B014C0169817A818B819C8164
:105800000E94A9635B016C016D817E818F81988507
:1058100029813A814B815C810E94DE6220E030E088
:1058200040E05FE30E94BE650E9421669B01AC01DF
:105830000E94BE657B018C01C601B501A4019301E4
:105840000E94BE65A20191010E94BE65A201910164
:105850000E94BE659B01AC01C801B7010E94DF62D6
:105860005B016C0160E070E080E89FE3A6019501B8
:105870000E94DE620E942B667B018C01C601B5018D
:105880000E942B66A80197010E94526320E73DE623
:1058900042E45BE40E94BE657B018C0185E891E1F6
:1058A00067E372E04FEF26E039E40E94434E85E85B
:1058B00091E167E54EE10E943A4EC801B70120E050
:1058C00030EC49E754EC0E94A56388231CF469E19D
:1058D0007CEF11C0C801B70120E03CE34CE156E485
:1058E0000E94B36518161CF46FE077E204C0C8018B
:1058F000B7010E94146485E891E14AE050E00E94FB
:105900001E5E85E891E16DE60E94F55C28960FB673
:10591000F894DEBF0FBECDBFCF91DF911F910F91E5
:10592000FF90EF90DF90CF90BF90AF909F908F90BF
:105930007F906F905F904F903F902F900895CF93FE
:10594000DF932091DA07C22FD0E0CC0FDD1FC256C3
:10595000D84F80919C0790919D0728813981821BA7
:10596000930B90939D0780939C078EE30E940857AA
:10597000998388834091DA07E42FF0E0EE0FFF1F50
:10598000E256F84F8081918120919C0730919D07CC
:10599000820F931F90939D0780939C074F5F4093C6
:1059A000DA074E3110F01092DA07DF91CF910895A7
:1059B000EF92FF920F931F938091DF08882321F0CD
:1059C0008FED98E0E8DB06C082EE93E167ED73E0CF
:1059D0000E94F05E8AE198E00E948A130E943F567E
:1059E0009B01AC018091D30D9091D40DA091D50D68
:1059F000B091D60D281B390B4A0B5B0B209308097D
:105A00003093090940930A0950930B092431310559
:105A10004105510508F49DC0E0900C09F0900D0976
:105A200000910E0910910F09CA01B9012E153F0509
:105A30004007510710F4C801B70160930C09709337
:105A40000D0980930E0990930F098AEE96E00E944B
:105A500062210E946A0FE091D506F091D60620815E
:105A600031818091E8069091E9068217930749F009
:105A7000808191819093E9068093E80687E00E94F7
:105A80006A0F84EF96E00E94B1218DEB96E00E94B0
:105A9000FB110E943F566093D30D7093D40D8093F9
:105AA000D50D9093D60D0E943F562091D70D309181
:105AB000D80D4091D90D5091DA0D621B730B840BF8
:105AC000950B6436710581059105E0F038DF0E9481
:105AD000790F80919A0790919B07449749F484EF3E
