:100000000C9419080C943B5C0C946C5C0C949D5CF7
:100010000C94CE5C0C94FF5C0C94305D0C94615D90
:100020000C94925D0C9446080C9446080C94460877
:100030000C9446080C9415670C9446080C944608DA
:100040000C9446080C94F1390C9446080C9446081C
:100050000C9446080C9446080C9446080C94C35D16
:100060000C9446080C941D600C9445610C94460851
:100070000C9446080C9446080C9446080C944608C8
:100080000C94C4390C9446080C944608FFC7000031
:100090000C9456600C948461F9C700000C943F3BAB
:1000A000F5C70000F3C700000C949739EFC70000B4
:1000B000EDC70000EBC70000E9C700000C946A39E7
:1000C000E5C70000E3C70000E1C700000C948F60A3
:1000D0000C94C361DBC700000C94C8600C940262EE
:1000E000D5C70000084AD73B3BCE016E84BCBFFD9C
:1000F000C12F3D6C74319ABD56833DDA3D00C77FF8
:1001000011BED9E4BB4C3E916BAAAABE0000008090
:100110003F05A84CCDB2D44EB93836A9020C50B91F
:10012000918688083CA6AAAA2ABE000000803F0744
:10013000634236B79BD8A71A39685618AEBAAB5582
:100140008C1D3CB7CC5763BD6DEDFD753EF6177247
:1001500031BF000000803F08000000BE9224491219
:100160003EABAAAA2ABECDCCCC4C3E00000080BE3D
:10017000ABAAAAAA3E00000000BF000000803F001A
:1001800000000000084178D3BB4387D1133D190E0E
:100190003CC3BD4282AD2B3E68EC8276BED98FE176
:1001A000A93E4C80EFFFBE01C4FF7F3F000000006E
:1001B0000057505F4C4F495445525F5241440057DD
:1001C000505F524144495553005854524B5F474188
:1001D000494E5F5343005854524B5F414E474C4584
:1001E0005F4344005452494D5F41525350445F4372
:1001F0004D0041525350445F4642575F4D494E00B7
:1002000041525350445F4642575F4D4158004B4660
:10021000465F5054434832544852004B46465F5460
:1002200048523250544348004C4F475F4249544D66
:1002300041534B005448525F4D494E005448525F61
:100240004D4158004352554953455F5448524F540D
:10025000544C45005448525F534C45575241544505
:1002600000534B49445F53544545525F4F5554002A
:10027000534B49445F53544545525F494E004653E2
:100280005F414354494F4E0046535F54494D454FDB
:1002900055540046535F5448525F454E41424C45C9
:1002A0000046535F5448525F56414C5545005241F9
:1002B00054455F524C4C5F5000524154455F524C84
:1002C0004C5F4900524154455F524C4C5F440052D0
:1002D0004154455F524C4C5F494D41580052415486
:1002E000455F5049545F5000524154455F50495456
:1002F0005F4900524154455F5049545F44005241A8
:1003000054455F5049545F494D415800524154454E
:100310005F5941575F5000524154455F5941575F03
:100320004900524154455F5941575F44005241547E
:10033000455F5941575F494D4158005448525F52FB
:100340004154455F50005448525F524154455F4903
:10035000005448525F524154455F44005448525F34
:10036000524154455F494D415800B101BF01C90197
:10037000D601E401F20100020E021B02280234023F
:100380003C0244025402610270027E02880293021F
:10039000A102AE02B902C402CF02DD02E802F302FA
:1003A000FE020C03170322032D033B0346035103F4
:1003B0005C0324505542582C34312C312C303030D1
:1003C000332C303030312C33383430302C302A322A
:1003D000360AB56206010300010601124F00000053
:1003E00005072060000000000000005F000000071B
:1003F000000700147F147F14242A7F2A1223130875
:10040000646236495522500005030000001C224159
:10041000000041221C00082A1C2A0808083E08087F
:100420000050300000080808080800606000002044
:10043000100804023E5149453E00427F400042619F
:100440005149462141454B311814127F102745452B
:1004500045393C4A49493001710905033649494942
:1004600036064949291E003636000000563600007F
:100470000008142241141414141441221408000218
:1004800001510906324979413E7E1111117E7F49A1
:100490004949363E414141227F4141221C7F494921
:1004A00049417F090901013E414151327F08080855
:1004B0007F00417F41002040413F017F08142241DD
:1004C0007F404040407F0204027F7F0408107F3E4F
:1004D0004141413E7F090909063E4151215E7F09A4
:1004E000192946464949493101017F01013F4040F0
:1004F000403F1F2040201F7F2018207F63140814D6
:10050000630304780403615149454300007F41417E
:10051000020408102041417F00000402010204404F
:1005200040404040000102040020545454787F4869
:100530004444383844444420384444487F38545470
:100540005418087E090102081454543C7F0804041E
:100550007800447D40002040443D00007F10284446
:1005600000417F40007C041804787C08040478383B
:10057000444444387C14141408081414187C7C086F
:100580000404084854545420043F4440203C404054
:10059000207C1C2040201C3C4030403C442810283B
:1005A000440C5050503C4464544C440008364100C4
:1005B00000007F0000004136080008082A1C0808D7
:1005C0001C2A0808141400000000004080000000ED
:1005D0008030070C3000000000000080E0F8FFF8D9
:1005E000F9FCF8E0FFFEFEFEFEFFF8E000000C0F55
:1005F0000F0F0F0F0F0F0F0F0F0F0F0F0F0F0F0F0B
:100600000F08101000000080EC0C1064C4C2E2F26D
:100610007E1E000000000087C4C6C6DFFFFF730116
:1006200000000000080800007E0A1B127E00080877
:1006300004150E2470A820001010001010101010C7
:1006400010547C3810000000000000000000080872
:10065000080808082A3E1C08000022080A0E20602C
:100660000402050607080902030305080204020440
:100670000704070707070707070702020707070816
:100680000E0908080807070908020708070B0809E8
:10069000070909070808090D0708080404040608E3
:1006A000030707060707050707020306020A0707ED
:1006B000070705060507070B0607050501050708D7
:1006C0000000000000000000FEFE18181E1E001EA4
:1006D0001E000000000090F89E90F89E1C00001C78
:1006E0000000183C26FF66CC88040C183C180C044B
:1006F0001C221CC0308E408000001804000C100C1E
:1007000080CC7E72F2DE0C80000C1C1010101C0CD1
:100710001C101E1E0000F0FC061C7CC006FCF0C075
:100720007C1C14140E14140000000000606060FCB7
:10073000FC6060600000000C0C00000000005838F5
:10074000C0C0C0C0000000000000181800C038067B
:1007500018040000F8FC0E060EFCF8040C1C181C13
:100760000C04180CFEFE00001C1C181C86C6663EFD
:100770001C181C1C18181818888C062626FEDC0469
:100780000C1C18180C04C0E0B88CFEFE8004040495
:10079000041C1C04707E3E3636F6C60C1C18181855
:1007A0000C04F8FC6E6666EECC040C1818181C0CD1
:1007B000060606E6761E0600001C1C0000009CFED5
:1007C000666666FE9C0C1C1818181C0C3C7E66663F
:1007D00066FCF80C1C18181C0C04181818181818AB
:1007E00058386060F0F098980C0000000004040C89
:1007F000D8D8D8D8D8D8D8000000000000000C986D
:1008000098F0F060600C040400000000080C06C6BC
:10081000E6763C180000001818000000E03008C41C
:10082000F63A1A1AF2FA7E0408F00C30604C9C98E2
:10083000988C9C9C90484C2000C0F8BE86BEF8C0A6
:1008400000181C04040404041C18FEFE6666666698
:10085000FEDC1C1C181818181C0CF8FC0E06060EE2
:100860009C08040C1C18181C0C04FEFE0606060E40
:10087000FCF81C1C1818181C0C04FEFE6666666644
:10088000661C1C1818181818FEFE66666666061C9C
:100890001C0000000000F8FC0E0606C6CEDCC804F2
:1008A0000C1C181818180C04FEFE60606060FEFE38
:1008B0001C1C000000001C1CFEFE1C1C8080000094
:1008C00000FEFE0C1C1818181C0CFEFE603078ECA4
:1008D00086021C1C000000041C18FEFE0000000024
:1008E000001C1C1818181818FEFE0E7CE000E07C96
:1008F0000EFEFE1C1C00000C1C0C00001C1CFEFE4E
:100900001C78E080FEFE1C1C0000040C1C1CF8FC83
:100910000E0606060EFCF8040C1C1818181C0C0415
:10092000FEFE6666667E3C1C1C0000000000F8FCB3
:100930000E0686060EFCF8040C1C18181C0C1C2451
:10094000FEFE6666E6E6BE1C001C1C0000000C1CD9
:1009500018103C7E666666EECC0C1C1818181C0C31
:10096000060606FEFE0606060000001C1C0000002F
:10097000FEFE00000000FEFE040C1C18181C0C04F7
:10098000021EFCE000E0FC1E020000001C1C1C001B
:10099000000006FEF800F0FE0EFEF000F8FE060075
:1009A000001C1C1C0000001C1C1C0000060EF8F0A3
:1009B000F80E06181C0400041C18060E38F0F03857
:1009C0000E060000001C1C000000060686E6761ECF
:1009D0000E06181C1C1818181818FEFE0606FCFC3B
:1009E000C0C00638C000000004180606FEFEC0C0E5
:1009F000FCFC20380E0E3820000000000000000033
:100A000000000000000080808080808080800206DE
:100A1000040000001098D858F8F0000C1C18180CAE
:100A20001C10FEFE301838F0E01C1C0C181C0C04C6
:100A3000E0F018183830040C18181C0CE0F03818C6
:100A400030FEFE040C1C180C1C1CE0F0D8D8D8F0AA
:100A5000E0040C181818180818FCFE1A1A001C1CC0
:100A60000000E0F0381830F8F864ECDCD8CCFC7CFE
:100A7000FEFE301818F8F01C1C0000001C1CFAFACE
:100A80001C1C00FAFAC0FC7CFEFEE0F098081C1C5E
:100A900000041C18FEFE1C1CF8F81018F8F01818BA
:100AA000F8F01C1C00001C1C00001C1CF8F830187E
:100AB00018F8F01C1C0000001C1CE0F0381838F07E
:100AC000E0040C1C181C0C04F8F8301838F0E0FC9A
:100AD000FC0C181C0C04E0F0381830F8F8040C1C5E
:100AE000180CFCFCF8F83018181C1C00000070F8FA
:100AF000D8D8D890081818181C0C18FCFE18180024
:100B00000C1C1818F8F8000000F8F80C1C18180C49
:100B10001C1C38F8C000C0F83800001C1C1C000069
:100B200018F8E000F038F000E0F81800001C1C0C89
:100B3000000C1C1C00001838E0E03818181C0404D5
:100B40001C1818F8E000E0F8180084FCF83C0400D9
:100B50001898D878381C1C18181880FC7E060600D7
:100B60007CFCC0C0FEFC06067EFC80C0C0FC7C0095
:100B70006030307060603000000000000000FE0255
:100B80000202020202FE1C1010101010101C546809
:100B900069732077696C6C206170706C792074685F
:100BA000650A6368616E676573206D6164652074B2
:100BB0006F207468650A2073657474696E67732C9E
:100BC0002070726573730A20204F4B20746F20557C
:100BD000706C6F6164004C6F69746572207261643F
:100BE00020200A576179706F696E74207261640AFF
:100BF00078747261636B206761696E200A78747221
:100C000061636B20616E676C650A43727569736519
:100C10002073706565640A41535020464257206D29
:100C2000696E200A41535020464257206D6178205A
:100C30000A506974636832546872746C200A54688C
:100C400072746C325069746368200A4C6F6720625A
:100C500069746D61736B200A005468726F74746CF0
:100C600065206D696E0A5468726F74746C65206DCE
:100C700061780A4372756973652054687220200A8E
:100C800054687220536C6577726174650A536B699E
:100C9000642073747220696E200A536B6964207338
:100CA0007472206F75740A465320416374696F6EC5
:100CB0002020200A46532054696D656F75742020EA
:100CC0000A46532054687220656E2020200A46533D
:100CD000205468722076616C75650A0020202052CD
:100CE0006F6C6C2050697463682020596177002014
:100CF00020546869732077696C6C20726573657421
:100D00000A20202020746865206D697373696F6EF6
:100D10000A202020205072657373204F4B20746F7F
:100D20000A202020202020436F6E6669726D00200B
:100D3000546869732077696C6C207265717565738E
:100D4000740A202074686520706172616D65746535
:100D500072730A2020205072657373204F4B2074E9
:100D60006F0A2020202020436F6E6669726D00207C
:100D70002020546869732077696C6C2073746F70DD
:100D80000A20202074686520646174612073747285
:100D900065616D0A202020205072657373204F4BCF
:100DA00020746F0A202020202020436F6E66697215
:100DB0006D0020546869732077696C6C20726573CC
:100DC000746172740A202074686520646174612003
:100DD00073747265616D0A202020507265737320F0
:100DE0004F4B20746F0A2020202020436F6E6669CD
:100DF000726D00546869732077696C6C20696E6944
:100E00007469616C6973650A2020746865204743C2
:100E100053277320486F6D650A706F736974696F2B
:100E20006E2E20456E73757265207468650A554193
:100E300056206973206E65787420746F2047435381
:100E400000546869732077696C6C20696E697469F5
:100E5000616C6973650A74686520416972637261C7
:100E60006674277320486F6D650A706F73697469C3
:100E70006F6E2E20456E737572652069740A6973F2
:100E8000202A2A6F6E207468652047524F554E44C1
:100E90002A2A0052657374617274204D69737369F4
:100EA0006F6E0A5265717565737420506172616D61
:100EB00065746572730A53746F70204461746120A5
:100EC00053747265616D0A52652D72657175657333
:100ED000742053747265616D0A53657420474353DF
:100EE00020486F6D650A5265736574205541562020
:100EF000486F6D65007C3C3E5E2B3D3F2F5B5D3B4C
:100F00002C2A225C0000002100240027002A002D4A
:100F1000003000330001010000040107010A010054
:100F2000002200250028002B002E00310034000292
:100F3000010000050108010B01000020002300262C
:100F40000029002C002F00320000010000030106E0
:100F50000109010505050507050808080802020240
:100F6000020A0A0808040404040101010101010144
:100F7000010303030303030303040707070C0C0C1B
:100F80000C0C0C0C0C0202020206060606060606F3
:100F9000060B0B0B0B0B0B0B0B0102102020080890
:100FA00010204010204080020102010804020101CB
:100FB00002040810204080804020100804020180B4
:100FC000040201804020100804020108040201010B
:100FD0000204081020408001020408102040800014
:100FE00000090A02080B0C0D0706030401000000AB
:100FF00000000000000000000000000000000000F1
:10100000000000000000000000000011100F0000B0
:1010100000000000000000000000000000000000D0
:101020000000000000025A2C4E3A1F3EFD526C6335
:10103000552C11241FBECFEFD1E2DEBFCDBF00E0A3
:101040000CBF17E0A0E0B2E0EEEBF0EE00E00BBF6B
:1010500002C007900D92A639B107D9F71BBE15E162
:10106000A6E9B7E001C01D92A73AB107E1F710E188
:10107000C0E3D0E104C02297FE010E941870C6327E
:10108000D107C9F70E948A640C9453700C94000035
:10109000CF93DF93BC018230910510F462E070E0E1
:1010A000A0919F15B091A015ED01E0E0F0E040E0C7
:1010B00050E021C0888199818617970769F48A8159
:1010C0009B81309719F09383828304C09093A0157D
:1010D00080939F15FE0134C06817790738F44115D5
:1010E000510519F08417950708F4AC01FE018A81B7
:1010F0009B819C01E9012097E9F641155105A9F171
:10110000CA01861B970B049708F4BA01E0E0F0E0EF
:101110002AC08D919C91119784179507F9F4641753
:10112000750781F412968D919C911397309719F061
:101130009383828304C09093A01580939F15FD0133
:1011400032964CC0CA01861B970BFD01E80FF91FB0
:101150006193719302978D939C9340C0FD018281AE
:1011600093819C01D9011097A1F680919D159091D2
:101170009E15892B41F48091CC049091CD049093DD
:101180009E1580939D154091CE045091CF0441153A
:10119000510541F44DB75EB78091CA049091CB04DC
:1011A000481B590B20919D1530919E15CA01821B39
:1011B000930B8617970780F0AB014E5F5F4F841744
:1011C000950750F0420F531F50939E1540939D1565
:1011D000F9016193719302C0E0E0F0E0CF01DF918B
:1011E000CF910895CF93DF93009709F450C0EC019D
:1011F00022971B821A82A0919F15B091A01510977B
:1012000009F140E050E0AC17BD0708F1BB83AA83A9
:10121000FE0121913191E20FF31FAE17BF0779F460
:101220008D919C911197280F391F2E5F3F4F398365
:10123000288312968D919C9113979B838A834115E5
:10124000510571F4D093A015C0939F1520C012963C
:101250008D919C911397AD01009711F0DC01D3CFD4
:10126000FA01D383C28321913191E20FF31FCE178C
:10127000DF0769F488819981280F391F2E5F3F4F5E
:10128000FA01318320838A819B8193838283DF915A
:10129000CF910895FB01DC0105900D920020E1F74C
:1012A0000895FB01DC0104C08D910190801921F4A7
:1012B00041505040C8F7881B990B0895FB01DC0191
:1012C00002C001900D9241505040D8F70895FC01A2
:1012D0008191861721F08823D9F7992708953197AE
:1012E000CF010895FB01DC018D910190801901105F
:1012F000D9F3990B0895FB01DC014150504048F0AF
:1013000001900D920020C9F701C01D92415050403C
:10131000E0F70895ABE0B0E0E0E9F9E00C941C7070
:101320003C012B015A01FC0117821682838181FD49
:1013300003C06FEF7FEFB9C19AE0892E1E010894B8
:10134000211C311CF3012381F20123FD859123FF30
:1013500081912F01882309F4A5C1853239F423FD39
:10136000859123FF81912F01853221F490E0B30113
:10137000B7D1E8CF982FFF24EE249924FFE1FF1581
:10138000D0F09B3269F09C3228F4903259F09332BD
:1013900091F40EC09D3249F0903369F441E024C0CD
:1013A00052E0F52A84E0F82A28C098E0F92A25C0FE
:1013B000E0E1FE2A22C0F7FC29C0892F80538A3041
:1013C00070F4F6FE05C0989C902C1124980E15C060
:1013D000E89CE02C1124E80EF0E2FF2A0EC09E32B9
:1013E00029F4F6FC5FC140E4F42A07C09C3619F4E6
:1013F00050E8F52A02C0983649F4F20123FD959190
:1014000023FF91912F01992309F0B8CF892F85549B
:10141000833018F08052833038F444E050E0A40E5A
:10142000B51E5FE359830FC0933631F0933779F0DF
:10143000933509F052C01FC0F5018081898342E0D5
:1014400050E0A40EB51E610101E010E011C0F501ED
:10145000C080D180F6FC03C06FEF7FEF02C0692D22
:1014600070E042E050E0A40EB51EC6012ED18C0102
:101470005FE7F52213C0F501C080D180F6FC03C000
:101480006FEF7FEF02C0692D70E042E050E0A40EE4
:10149000B51EC6010FD18C0150E8F52AF3FE06C037
:1014A00018C080E290E0B3011BD1EA948E2D90E049
:1014B00008171907B0F30DC0F601F7FC8591F7FE88
:1014C00081916F0190E0B3010BD1E110EA940150DA
:1014D00010400115110581F7E2C0943611F09936DC
:1014E00061F5F7FE08C0F501208131814281538109
:1014F00084E090E00AC0F501808191819C0144273D
:1015000037FD4095542F82E090E0A80EB91E9FE66B
:10151000F92257FF09C050954095309521953F4FCE
:101520004F4F5F4FE0E8FE2ACA01B901A1012AE04E
:1015300030E002D1D82ED2183FC0953729F41F2DA4
:101540001F7E2AE030E01DC01F2D197F9F3661F0FD
:10155000903720F4983509F0A5C00FC0903739F0C6
:10156000983709F09FC004C028E030E00AC010613D
:1015700014FD146020E130E004C014FD166020E189
:1015800032E017FF08C0F50160817181828193818B
:1015900044E050E008C0F50180819181BC0180E009
:1015A00090E042E050E0A40EB51EA101C5D0D82EB7
:1015B000D2188FE7F82EF122F6FE0BC05EEFF5226F
:1015C000D91438F4F4FE07C0F2FC05C08FEEF822FF
:1015D00002C01D2D01C0192DF4FE0DC0FE01ED0D40
:1015E000F11D8081803319F499EEF92208C01F5F44
:1015F000F2FE05C003C08F2D867809F01F5F0F2D06
:10160000F3FC13C0F0FE0EC01E1510F09D2C0AC096
:101610009D2C9E0C911A1E2D05C080E290E0B30116
:101620005FD01F5F1E15C8F304C01E1510F4E11A29
:1016300001C0EE2404FF0EC080E390E0B30150D05F
:1016400002FF1BC001FD03C088E790E00EC088E5E3
:1016500090E00BC0802F867881F001FF02C08BE202
:1016600001C080E2F7FC8DE290E0B30139D005C003
:1016700080E390E0B30134D09A94D914C8F3DA949B
:10168000F101ED0DF11D808190E0B30129D0DD2045
:10169000B1F705C080E290E0B30122D0EA94EE20D9
:1016A000C9F750CEF30166817781CB012B96E2E139
:1016B0000C943870FC010590615070400110D8F70F
:1016C000809590958E0F9F1F0895FC01615070408A
:1016D00001900110D8F7809590958E0F9F1F089567
:1016E0000F931F93CF93DF938C01EB018B8181FFCD
:1016F0001BC082FF0DC02E813F818C819D812817E8
:10170000390764F4E881F9810193F983E88306C01D
:10171000E885F985802F1995892B31F48E819F8179
:1017200001969F838E8302C00FEF1FEFC801DF91E8
:10173000CF911F910F910895FA01AA27283051F1F6
:10174000203181F1E8946F936E7F6E5F7F4F8F4FF2
:101750009F4FAF4FB1E03ED0B4E03CD0670F781F51
:10176000891F9A1FA11D680F791F8A1F911DA11D36
:101770006A0F711D811D911DA11D20D009F468946F
:101780003F912AE0269F11243019305D3193DEF617
:10179000CF010895462F4770405D4193B3E00FD0CD
:1017A000C9F7F6CF462F4F70405D4A3318F0495DB8
:1017B00031FD4052419302D0A9F7EACFB4E0A6959B
:1017C0009795879577956795BA95C9F700976105BD
:1017D000710508959B01AC010A2E06945795479513
:1017E00037952795BA95C9F7620F731F841F951F08
:1017F000A01D0895FF920F931F93CF93DF93EC01E9
:10180000F02E8EEF8A832B836D834E8380917F0A27
:101810008C838F5F80937F0A022F10E0F80135964A
:10182000DE0113966FEF7FEF2D912627822F829591
:10183000807F822790E0382F2227AC01440F551F6C
:10184000440F551F440F551F24273527672F77272F
:101850006227732724E0959587952A95E1F76827F5
:101860007927319709F72F2D2627822F8295807FA0
:10187000822790E0382F2227AC01E3E0440F551F68
:10188000EA95E1F724273527472F552724273527C1
:1018900044E0959587954A95E1F728273927DE0199
:1018A00018968B81FD01E80FF11D20838B81A80F15
:1018B000B11D11963C939801285F3F4FC901DF91FC
:1018C000CF911F910F91FF90089560E070E080E844
:1018D0009FE3089560918A0870918B08882777FDAF
:1018E0008095982F0E94136C20E030E040EF51E487
:1018F0000E94786B20E030E040EA5BE30E948A6D52
:101900002DEC3CEC4CEC5DE30C94AB6A08950F932A
:101910001F938C01DC01ED91FC910680F781E02D95
:101920001995D801ED91FC910084F185E02DC80155
:1019300019951F910F910895089508950895089598
:1019400008950895089508950895089508950895AF
:1019500008952F923F924F925F926F927F928F9253
:101960009F92AF92BF92CF92DF92EF92FF920F932E
:101970001F93DF93CF93CDB7DEB7A6970FB6F8943A
:10198000DEBF0FBECDBF9EA38DA3DC01D196ED912E
:10199000FC91D297A081B18114962D913C9115971D
:1019A000CF01F90119959C838B8310E01A8219826B
:1019B000EDA1FEA1E45AFF4FFE83ED832DA13EA1D0
:1019C000265A3F4F38872F838DA19EA1855A9F4F5E
:1019D0009A878987ADA1BEA1A35ABF4FBC87AB87A9
:1019E000EDA1FEA1E658FF4FFE87ED872DA13EA198
:1019F0002B593F4F388B2F878DA19EA187599F4F21
:101A00009A8B898BADA1BEA1A15ABF4FBC8BAB8B6A
:101A1000EDA1FEA1E359FF4FFE8BED8B2DA13EA161
:101A20002F583F4F388F2F8B8DA19EA18B589F4FE2
:101A30009A8F898FADA1BEA1A758BF4FBC8FAB8F26
:101A4000EDA1FEA1ED57FF4FFE8FED8F2DA13EA121
:101A500025583F4F38A32F8F8DA19EA181589F4FAE
:101A60009AA389A3ADA1BEA1A25ABF4FBCA3ABA3A9
:101A700082C1ADA1BEA1D196ED91FC91D297A0817A
:101A8000B18116962D913C911797CF01F9011995C7
:101A9000482FED81FE8130813230E1F1333030F476
:101AA000332371F0313009F060C11AC0343009F4C9
:101AB00065C0343008F442C0353009F056C16CC0FE
:101AC000803D11F4E0E104C0813D09F04EC1E3E145
:101AD000ABA1BCA1EC93E1E0AD81BE81EC9345C12B
:101AE000ABA1BCA18C91803111F0833151F44D3DFB
:101AF00041F422E0ED81FE812083AB89BC898C9387
:101B000034C1EBA1FCA11082AB89BC891C92ED8190
:101B1000FE811082403271F4AD81BE818C918F5F65
:101B20008C93EF81F8854083A985BA854C93EB852A
:101B3000FC8530C0AD81BE811C9217C1EB85FC8550
:101B40009081EDA1FEA1E90FF11DEB59FF4F4083FC
:101B50009F5FAB85BC859C93E985FA852081AF8129
:101B6000B8858C91840F8C93820F8083903209F01A
:101B7000FCC03F5FED81FE813083F7C0E5E0AD81C1
:101B8000BE81EC93AF81B8858C91841709F4EDC0C8
:101B9000ED81FE811082E9C0AD81BE811C92E98594
:101BA000FA858081841709F0E0C0AD85BE859C91DF
:101BB000933019F080E0973009F481E0EDA1FEA1A7
:101BC00086A3AF85B8892D913D914D915C91228777
:101BD000338744875587A989BA896D907D908D9008
:101BE0009C9066867786808A918AAB89BC898C9125
:101BF0008031D1F4CA01B9012AE030E040E050E080
:101C00000E94876FEDA1FEA1628773878487958705
:101C1000C401B3010E94876FADA1BEA11E966D9352
:101C20007D938D939C935197ED89FE89808191815D
:101C3000A281B381EDA1FEA1828B938BA48BB58B86
:101C4000EF89F88D80819181A281B381EDA1FEA100
:101C5000868B978BA08FB18FE98DFA8D80819181D2
:101C6000A281B381EDA1FEA1828F938FA48FB58F46
:101C7000AB8DBC8D8C9184A3ED8DFE8D8081918187
:101C8000ADA1BEA193969C938E939297EF8DF8A1F0
:101C900080819181A281B381EDA1FEA1868397838A
:101CA000A087B187A9A1BAA1ED90FD900D911C91DB
:101CB000C801B70120E836E948E950E00E94E76F23
:101CC000922E832E742E652E622F732F842F952FC4
:101CD00020E839E647E65FEF0E94876F5B016C0101
:101CE000AE0CBF1CC01ED11E692D782D872D962DE0
:101CF00020E83EEE46E350E00E94876F3B014C0136
:101D0000C601B50120EA36E841E050E00E94E76FE5
:101D1000522E432E342E252E622F732F842F952F73
:101D200020E639E74EEF5FEF0E94876F7B018C0161
:101D3000652D742D832D922D20E63AEE40E050E083
:101D40000E94876FE60EF71E081F191FEA0CFB1C86
:101D50000C1D1D1DE60CF71C081D191DEDA1FEA193
:101D6000E282F3820483158311E029813A812F5F97
:101D70003F4F3A83298389819A81AB81BC818A173D
:101D80009B070CF476CE812FA6960FB6F894DEBF93
:101D90000FBECDBFCF91DF911F910F91FF90EF90BC
:101DA000DF90CF90BF90AF909F908F907F906F907B
:101DB0005F904F903F902F900895DF93CF93CDB7D2
:101DC000DEB7CF91DF91089508950895FC01109238
:101DD000620A31E03093630A83E08093640A44E04E
:101DE0004093650A55E05093660A26E02093670AFF
:101DF0002093760A8AEE95E091838083158A468B3C
:101E000088E0878B308F518F89E0828F82E0838FCB
:101E1000248F8AE0858F3187328733878CED9CE071
:101E2000928B818B12820895089580E00895DC01E1
:101E30001092620A81E08093630A83E08093640ACF
:101E400084E08093650A85E08093660A86E080934B
:101E5000670A8093760A8AED95E011969C938E939B
:101E600086E296E094969C938E93939780E396E017
:101E700096969C938E9395978AE097968C939797D6
:101E800090E005C0FD01E90FF11D918F9F5F9796CE
:101E90008C9197979817B0F390E021E005C0FD0171
:101EA000E90FF11D21879F5F97968C91979798175F
:101EB000B0F312961C92129753961C920895FC014F
:101EC000209122082A3051F482E196E094A383A362
:101ED0008CE196E096A385A327A3089586E296E079
:101EE00094A383A380E396E096A385A38AE087A3C7
:101EF000089580E0089580E00895E82FF0E0EE591D
:101F0000F54FE081E33081F0E43028F4E13091F0E6
:101F1000E230E0F41FC0E53081F0E53040F0E6301B
:101F200079F0E730B1F40FC028E03AE015C02AE0BC
:101F30003AE012C02AE53AE00FC02CE03AE00CC0CB
:101F400022E13AE009C024E13AE006C022E33AE0A7
:101F500003C008952CEE39E0C90108951F938091C4
:101F60002208813019F41092620A1EC08230B9F43E
:101F70001092620A81E08093630A97E09093640A6A
:101F800083E08093650A84E08093660A85E080930D
:101F9000670A86E08093680A9093760A2BC08A309D
:101FA000B1F41092620A81E08093630A82E0809328
:101FB000640A83E08093650A84E08093660A85E082
:101FC0008093670A86E08093680A87E011C01092C8
:101FD000620A81E08093630A83E08093640A84E06C
:101FE0008093650A85E08093660A86E08093670A9D
:101FF0008093760A1092610A10E00CC0812F7DDF79
:10200000FC01A081B18114962D913C911597F901A5
:1020100019951F5F8091760A181780F380E01F9151
:1020200008951F93182F8091610A67DFDC01ED91FD
:10203000FC910280F381E02D612F19951F91089585
:102040001F93182F8091610A58DFDC01ED91FC91FC
:102050000284F385E02D612F19951F9108958091D9
:10206000610A4BDFFC01A081B18116962D913C9154
:102070001797F901199580E008958091610A3DDF75
:10208000FC01A081B18118962D913C911997F9011D
:10209000199580E00895089508950895CF92DF92EC
:1020A000EF92FF920F931F93CF93DF936C018B01FD
:1020B0007A01609106087091070880910808909154
:1020C00009082BEE39EC48E151E40E948A6D20E0CA
:1020D00030E040EF51E40E94AB6A0E94E56BDC0106
:1020E000CB01482F6FE00E94A66F813051F0813004
:1020F00028F08230A1F0833049F415C0CFEFDFEF34
:1021000007C0842F90E04F9734F04E51C1E0D0E0EB
:10211000A1E0B0E015C08EE1841B482FF7CF4E51EF
:10212000C1E0D0E00BC0842F90E0CD9714F04C5369
:1021300003C08CE3841B482FCFEFDFEFAFEFBFEF7F
:10214000F6018281F8018083F6018381F7018083A3
:1021500050E0FA01E053FB4F80816CE1869FC001A3
:102160001124892F990F990B8A9F90018B9F300D15
:102170009A9F300D1124F8018081820F8083EFED4A
:10218000F4E0E41BF50B8081869FC0011124892FA8
:10219000990F990B8C9F90018D9F300D9C9F300D56
:1021A0001124F7018081820F8083DF91CF911F91ED
:1021B0000F91FF90EF90DF90CF90089508950F93C7
:1021C0001F938C0186E997E00E944C568AE992E1C0
:1021D00060E00E941C51D801ED91FC910190F081CA
:1021E000E02DC80119951F910F91089586E997E098
:1021F0000E944C568AE992E160E00E941C51809155
:10220000610A7BDEDC01ED91FC910190F081E02D13
:1022100019958091610A71DEDC01ED91FC910084D9
:10222000F185E02D19958091610A67DEDC01ED9161
:10223000FC910680F781E02D199580E00895982F94
:10224000882319F41092610A0BC0181624F08091AB
:10225000610A8823B1F18091610A890F8093610A34
:102260009091610A8091760A981720F0915090938E
:10227000610A27C086E997E00E944C568AE992E1FC
:1022800060E00E941C518091610A37DEDC01ED9113
:10229000FC910190F081E02D19958091610A2DDE6D
:1022A000DC01ED91FC910084F185E02D1995809180
:1022B000610A23DEDC01ED91FC910680F781E02DBF
:1022C000199580E00895643029F0663039F0633064
:1022D00039F402C081E001C08FEFB1CF80E0AFCF11
:1022E0000895643029F0663039F0633039F402C063
:1022F00081E001C08FEFA3CF80E0A1CF08956430CB
:1023000029F0663039F0633039F402C081E001C051
:102310008FEF95CF80E093CF0895643099F06530CA
:1023200018F46330A9F410C0653019F0663081F4F8
:102330000DC090E08091DF09882309F491E090932B
:10234000DF09089581E001C08FEF79CF80E077CF7A
:1023500008954F925F926F927F928F929F92AF9269
:10236000BF92CF92DF92EF92FF920F931F93DF9372
:10237000CF9300D00F92CDB7DEB72A013B01C90140
:10238000B801A30192010E94AA6A23E333E34AE859
:1023900052E40E948A6D69837A838B839C83C30194
:1023A000B20123E333E345E652E40E94786B0E94D6
:1023B000756B2B013C01C501B401A70196010E9478
:1023C000AA6A23E333E34AE852E40E948A6DA30138
:1023D00092010E948A6D7B018C0169817A818B81D7
:1023E0009C819B01AC010E948A6D5B016C01C8015C
:1023F000B701A80197010E948A6D9B01AC01C6013B
:10240000B5010E94AB6A0E94436E22E03BE249ECB8
:1024100054E40E948A6D0F900F900F900F90CF910F
:10242000DF911F910F91FF90EF90DF90CF90BF90C1
:10243000AF909F908F907F906F905F904F90089596
:102440004F925F926F927F928F929F92AF92BF92C4
:10245000CF92DF92EF92FF920F931F93DF93CF9370
:10246000CDB7DEB728970FB6F894DEBF0FBECDBF4D
:1024700049835A836B837C830D831E832F83388724
:10248000CB01BA0123E333E345E652E40E94786BC3
:102490000E94756B2B013C01C501B401A701960197
:1024A0000E94AA6A23E333E34AE852E40E948A6D59
:1024B000A30192010E948A6D7B018C016D817E8156
:1024C0008F81988529813A814B815C810E94AA6A1B
:1024D00023E333E34AE852E40E948A6D9B01AC0196
:1024E000C801B7010E941E6B20E030E044E353E4D2
:1024F0000E948A6D2BED3FE049E450E40E94786B26
:102500007B018C0120E030E040E050E00E94716BE4
:10251000181654F0C801B70120E030E044EB53E452
:102520000E94AB6A7B018C01B701C80128960FB6E7
:10253000F894DEBF0FBECDBFCF91DF911F910F91F9
:10254000FF90EF90DF90CF90BF90AF909F908F90D3
:102550007F906F905F904F9008950F931F938C0121
:102560008AE590E0F801918380839383828380E001
:1025700090E0A0E0B0E0808B918BA28BB38B85EADA
:1025800097E06AE570E00E94913788EA97E06AE593
:1025900070E00E9491370E940B5EF801648B758B8E
:1025A000868B978B1F910F9108958F929F92AF9278
:1025B000BF92CF92DF92EF92FF920F931F93CF9330
:1025C000DF93EC014091260850912708609128087C
:1025D0007091290800912A0810912B0820912C084D
:1025E00030912D08C0907C08D0907D08E0907E0846
:1025F000F0907F088090800890908108A0908208D9
:10260000B0908308A6DE6C837D838E839F83409188
:102610002608509127086091280870912908009198
:102620002A0810912B0820912C0830912D08C09079
:102630007C08D0907D08E0907E08F0907F08809024
:10264000800890908108A0908208B0908308CE0105
:10265000F7DE688779878A879B8720E030E040E053
:102660005FEB0E948A6D20E030E044E353E40E9477
:10267000AB6A288939894A895B890E94AB6A7B01E8
:102680008C01688779878A879B8720E030E044E364
:1026900053E40E947F6D18164CF4C801B70120E086
:1026A00030E044E353E40E94AA6A12C0C801B701B3
:1026B00020E030E040E050E00E94716B882364F439
:1026C000C801B70120E030E044E353E40E94AB6A64
:1026D000688779878A879B87E884F9840A851B85C0
:1026E000C801B70120E030E040E050E00E94716B8B
:1026F00088235CF40F2EF0E0EF2EF0E0FF2EF0E0E8
:102700000F2FF0E01F2FF02D14C0C801B70120E0FB
:1027100030E044E353E40E947F6D181654F40F2E0A
:10272000F0E0EF2EF0E0FF2EF4E30F2FF3E41F2F85
:10273000F02DE886F9860A871B87C801B7010E9439
:10274000E06B9B01AC0185EA97E0B9010E949137EB
:1027500060912E0870912F08809130089091310877
:10276000209184083091850840918608509187080F
:102770000E94AA6A2C813D814E815F810E94786B04
:102780000E94496B20E030E044E353E40E948A6DEC
:102790002BED3FE049E450E40E94786B7B018C0113
:1027A00020E030E040E050E00E94716B88235CF450
:1027B0000F2EF0E0EF2EF0E0FF2EF0E00F2FF0E014
:1027C0001F2FF02D14C0C801B70120E030E044EB0A
:1027D00052E40E947F6D181654F40F2EF0E0EF2E95
:1027E000F0E0FF2EF4EB0F2FF2E41F2FF02D60E04E
:1027F00070E084EB92E4A80197010E94AA6A6C87BA
:102800007D878E879F876091060870910708809169
:1028100008089091090820ED3FE049E450E40E9447
:10282000AB6A20E030E044EB52E40E948A6D20ED78
:102830003FE049E450E40E94786B0E94E06B9B010A
:10284000AC0188EA97E0B9010E949137DF91CF91FE
:102850001F910F91FF90EF90DF90CF90BF90AF90BE
:102860009F908F900895AF92BF92CF92DF92EF9298
:102870000F936C0180E4F601828380E28383AAE9EE
:10288000AA2EA2E1BA2EC50160E440E224810581AE
:10289000EE240E947952B6016C5F7F4FA6014B5F18
:1028A0005F4FC601FBDBC501F601628143812481D4
:1028B0000581EE24EA940E9479520F91EF90DF9007
:1028C000CF90BF90AF9008952F923F924F925F921A
:1028D0006F927F928F929F92AF92BF92CF92DF9230
:1028E000EF92FF920F931F93DF93CF930F920F926C
:1028F000CDB7DEB74C01DC01ED91FC910680F7818C
:10290000E02D1995182F0E940B5E6B017C0111239D
:10291000C9F504E4A02EB12CA80CB91CF5018081E6
:102920009181A281B381A7019601281B390B4A0B23
:102930005B0BF40181A592A5A3A5B4A5821793070B
:10294000A407B50708F015C128E430E0820E931EF5
:10295000D4011D921C92E8EBFFEF8E0E9F1ED40156
:10296000ED91FC911197D5966D917C91D697019040
:10297000F081E02DC4011995F501C082D182E28277
:10298000F382F7C0D40196968C91882319F421E044
:1029900030E002C022E030E0E8E4F0E08E0E9F1E5E
:1029A000D4012D933C93E8EBFFEF8E0E9F1E81E048
:1029B000D40197968C93979795968C93E4E4F0E0E6
:1029C0008E0E9F1ED401CD92DD92ED92FC92139754
:1029D000ECEBFFEF8E0E9F1E2230310509F0C9C0CF
:1029E000D4019D96CD92DD92ED92FC92D0975696B1
:1029F000AD90BD90CD90DC905997EAE4F0E08E0E5A
:102A00009F1ED401AD92BD92CD92DC921397E9EF57
:102A1000FFEF8E0E9F1ED4018C91EDEBFFEF8E0E1B
:102A20009F1E1EE4412E512C480C591CB2E52B2E42
:102A3000312C280C391C94012A5A3F4F3A832983A0
:102A4000882309F440C0D401D7966D917D918D9172
:102A50009C91DA970E94136C2AE037ED43E25CE325
:102A60000E948A6DF2016083718382839383D40113
:102A7000DB966D917D918D919C91DE970E94136CF8
:102A80002AE037ED43E25CE30E948A6DF101608346
:102A90007183828393832FE330E0820E931ED401EF
:102AA0006D917D918D919C910E94136C2AE037ED80
:102AB00043E25CE30E948A6DE981FA81608371835D
:102AC0008283938356C0D4015A966D917D918D91E6
:102AD0009C915D970E94136C2AE037ED43E25CE322
:102AE0000E948A6D20ED3FE049E450E40E948A6D27
:102AF00020E030E044E353E40E94786B7B018C01DA
:102B0000C601B5010E94116C2AE037ED43E25CE397
:102B10000E948A6D3B014C01B701C8010E94756B90
:102B20005B016C01B701C8010E94396E7B018C0109
:102B3000C401B301A60195010E948A6DF201608370
:102B4000718382839383C401B301A80197010E941A
:102B50008A6DD1016D937D938D939C93139780E043
:102B600090E0A0E0B0E0E981FA8180839183A283C4
:102B7000B3830F900F90CF91DF911F910F91FF9032
:102B8000EF90DF90CF90BF90AF909F908F907F900D
:102B90006F905F904F903F902F9008950F931F93E9
:102BA0008C01FC01A1A9B2A9ED91FC9111970284BD
:102BB000F385E02DCD011995F80181A992A960E076
:102BC00072E00E941966F80181A992A969E172E098
:102BD0000E941966F80181A992A96BE272E00E9435
:102BE0001966F80181A992A96BE372E00E94196647
:102BF000F80181A992A96BE472E00E941966F801BC
:102C000014AA13AA005A1F4FF8011192119211929F
:102C100011928F0110820456104080EB94E0A0E0E6
:102C2000B0E0F80181A792A7A3A7B4A71F910F91C5
:102C300008952F923F924F925F926F927F928F9260
:102C40009F92AF92BF92CF92DF92EF92FF920F933B
:102C50001F93DF93CF93CDB7DEB764970FB6F89489
:102C6000DEBF0FBECDBF6091120970911309809134
:102C70001409909115090E94136C20E836E948E187
:102C80005BE40E94786B20ED3FE049E450E40E9451
:102C90008A6D20E030E044E353E40E94786B6D8756
:102CA0007E878F87988B6091260870912708809186
:102CB00028089091290820ED3FE049E450E40E9463
:102CC0008A6D20E030E044E353E40E94786B3B01DE
:102CD0004C0160912A0870912B0880912C089091EA
:102CE0002D0820ED3FE049E450E40E948A6D20E089
:102CF00030E044E353E40E94786B7B018C016091E7
:102D000016097091170980911809909119090E946C
:102D1000136C20E836E948E15BE40E94786B20ED13
:102D20003FE049E450E40E948A6D20E030E044E353
:102D300053E40E94786B9B01AC01C801B7010E946B
:102D4000AA6A1B012C01C401B3012D853E854F8564
:102D500058890E94AA6A20E030E040E05FE30E94C8
:102D60008A6D0E94396E5B016C016D857E858F8551
:102D700098890E94756B69837A838B839C83C401D5
:102D8000B3010E94756B6D837E838F839887C20128
:102D9000B10120E030E040E05FE30E948A6D0E94D4
:102DA000396E7B018C01C601B501A60195010E9417
:102DB0008A6D5B016C0169817A818B819C812D8197
:102DC0003E814F8158850E948A6DA80197010E941B
:102DD0008A6DA80197010E948A6D9B01AC01C60112
:102DE000B5010E94AB6A7B018C010E94436E5B01BE
:102DF0006C0160E070E080E89FE3A80197010E9409
:102E0000AA6A0E94436E9B01AC01C601B5010E94F3
:102E10001E6B69877A878B879C87C201B1010E94EC
:102E2000396E7B018C01C401B3010E94396E5B01D4
:102E30006C016D857E858F8598890E94396E3B0176
:102E40004C01C201B1010E94756B1B012C01C8012C
:102E5000B7012D813E814F8158850E948A6D698B13
:102E60007A8B8B8B9C8B69817A818B819C81A6016B
:102E700095010E948A6D7B018C01C401B3012D81F3
:102E80003E814F8158850E948A6DA20191010E9466
:102E90008A6D9B01AC01C801B7010E94AA6A9B011F
:102EA000AC0169897A898B899C890E941E6B6B01B0
:102EB0007C0106E917E0C80160E040E00E94D955B6
:102EC000C8016BE572E00E94196640912608509196
:102ED00027086091280870912908C80125E030E092
:102EE0000E94AB66C80164E672E00E9419664091D8
:102EF0002A0850912B0860912C0870912D08C80168
:102F000025E030E00E94AB66C8016DE672E00E94E9
:102F1000196640912E0850912F08609130087091E9
:102F20003108C80122E030E00E94AB66C80166E7C4
:102F300072E00E94196669857A858B859C8520E7F9
:102F40003DE642E45BE40E948A6DAB01BC01C8012E
:102F500022E030E00E94AB66C8016CE772E00E949C
:102F60001966C701B60120E030E044E353E40E9453
:102F70008A6D20ED3FE049E450E40E94786BAB019C
:102F8000BC01C80122E030E00E94AB66C80165E8E0
:102F900072E00E9419666091120970911309809184
:102FA0001409909115090E94136C20E836E948E154
:102FB0005BE40E94786BAB01BC01C80125E030E006
:102FC0000E94AB66C8016EE872E00E9419666091CB
:102FD00016097091170980911809909119090E949A
:102FE000136C20E836E948E15BE40E94786BAB01A2
:102FF000BC01C80125E030E00E94AB66C80167E96A
:1030000072E00E94196660911A0970911B09809103
:103010001C0990911D090E94136C20E030E048ECDF
:1030200052E40E94786BAB01BC01C80122E030E0A1
:103030000E94AB6664960FB6F894DEBF0FBECDBF9C
:10304000CF91DF911F910F91FF90EF90DF90CF9084
:10305000BF90AF909F908F907F906F905F904F90B8
:103060003F902F9008950F931F9306E917E0C80132
:1030700060E042E00E94D955C80160EA72E00E9417
:1030800019660E946A0CAB01BC01C80122E030E065
:103090000E94AB66C80166EA72E00E941966C80128
:1030A00060912C094AE050E00E949065C80161EBF4
:1030B00072E00E94196660912E09C80170E04AE032
:1030C00050E00E94FC65C80169EB72E00E9419663D
:1030D00040910A0950910B0960910C0970910D09FA
:1030E000C8012AE030E00E946D651F910F9108959C
:1030F0000F931F9306E917E0C80160E040E00E94CB
:10310000D955C80163EC72E00E9419664091060827
:10311000509107086091080870910908C80122E0E1
:1031200030E00E94AB66C80169EC72E00E9419664B
:103130006091880870918908C8014AE050E00E94B7
:10314000FC65C80160E046E00E94D955C80162ED07
:1031500072E00E9419664091E8095091E909609176
:10316000EA097091EB09C8012AE030E00E946D6520
:103170001F910F910895CF93DF93EC0180912C095B
:103180008A3020F08AE992E16BE603C08AE992E195
:103190006DE647E30E9406568AE992E16EED73E020
:1031A0004FEF22ED30E50E940F568AE992E16091DF
:1031B0002C094AE050E00E947F6580912408882312
:1031C00009F43FC0909125088B8D8917D1F19B8F11
:1031D0008AE992E164E144E10E9406568AE992E1BB
:1031E0006CED72E00E9419668AE992E164E144E1C3
:1031F0000E9406568AE992E16EED73E04FEF22EDF0
:1032000030E50E940F568091250887FF05C08AE9A6
:1032100092E168EE72E004C08AE992E16EEE72E03B
:103220000E9419668091250884FF05C08AE992E111
:1032300063EF72E004C08AE992E16AEF72E00E94F3
:103240001966DF91CF910895CF92DF92EF920F939D
:10325000CF93DF936C01DC015B961C92CAE9D2E14B
:10326000CE0163E043E00E940656CE016AE576E0B7
:103270004FEF22ED30E50E940F56209124082223C3
:1032800031F4CE0161E073E00E941966A6C080911E
:103290002308833049F1843030F4882359F0813099
:1032A00009F07EC013C08A3009F45EC08C3009F08A
:1032B00077C068C000D000D0EDB7FEB73196ADB78B
:1032C000BEB71296DC93CE93119777C000D000D092
:1032D000EDB7FEB73196ADB7BEB71296DC93CE937D
:1032E000119788E193E06BC080912208823071F4DD
:1032F00000D000D0EDB7FEB73196ADB7BEB712968D
:10330000DC93CE93119781E293E059C0813071F440
:1033100000D000D0EDB7FEB73196ADB7BEB712966C
:10332000DC93CE9311978AE293E049C08A3071F41E
:1033300000D000D0EDB7FEB73196ADB7BEB712964C
:10334000DC93CE93119783E393E039C000D000D093
:10335000EDB7FEB73196ADB7BEB71296DC93CE93FC
:1033600011978EE393E02BC000D000D0EDB7FEB7ED
:103370003196ADB7BEB71296DC93CE93119787E422
:1033800093E01DC000D000D0EDB7FEB73196ADB7C9
:10339000BEB71296DC93CE93119780E593E00FC0F1
:1033A00000D000D0EDB7FEB731968AE992E1ADB713
:1033B000BEB712969C938E9311978FE093E0938300
:1033C0008283248315820E942856EDB7FEB7369675
:1033D0000FB6F894FEBF0FBEEDBF8AE992E16EED25
:1033E00073E04FEF22ED30E50E940F568AE992E13B
:1033F00067E742E026E003E3EE24EA940E94EB5004
:1034000080912408882381F08AE992E164E640E112
:103410002CE00FEF0E9466528AE992E164E640E1F7
:1034200029E60BE00E9479528AE992E162E044E1E8
:1034300026E001E2EE24EA940E94EB508AE992E150
:103440006AE044E126E00E94EB50D60151966D916E
:103450007C9152978AE992E14BE125E20FEF0E94BD
:103460003051F601618D728D8AE992E14FE325E2D8
:103470000E943051D60153966D917C9154978AE900
:1034800092E145E626E20E943051F601658976898F
:103490008AE992E141E027E30E943051D601559636
:1034A0006D917C9156978AE992E146E727E30E9465
:1034B0003051F6016789708D8AE992E14AE027E38D
:1034C0000E943051DF91CF910F91EF90DF90CF901C
:1034D0000895CF92DF92EF92FF920F931F93CF93B5
:1034E000DF93EC018A81082F0150073C08F03FC0B0
:1034F000853628F0CB80DC80ED80FE8004568B89F9
:10350000402F481B8AE992E16EE00E94D95510E0F5
:10351000EBA1FCA1E00FF11F608170E07095619557
:103520007F4F882777FD8095982F0E94136C9B0111
:10353000AC0160E070E080E291E40E94ED6D9B01DF
:10354000AC01C701B6010E948A6DAB01BC01EDA1BF
:10355000FEA1E00FF11F20818AE992E130E00E9494
:10356000A9668AE992E169E573E00E941966DF9134
:10357000CF911F910F91FF90EF90DF90CF90089522
:103580000F931F938C01FC01828164E60E94A66F59
:10359000E90FF11DE08DF0E0EE0FFF1FEE0FFF1FB2
:1035A000EA5FF74F86A997A9A0ADB1ADF801838373
:1035B0009483A583B683C8018CDFF801128281E071
:1035C000848B1F910F910895EF92FF920F931F9399
:1035D000CF93DF93EC017A018B0187EF94E12AE02E
:1035E00030E00E94AB66C801B7012B813C814D8160
:1035F0005E810E94AB6A7B018C0120E030E040E0FC
:1036000050E00E94716B88234CF480E090E0A0E0D1
:10361000B0E08B839C83AD83BE8304C0EB82FC82CD
:103620000D831E832A8130E025563040EBA1FCA19A
:10363000E20FF31F608170E0EDA1FEA1E20FF31F26
:103640002081621B7109882777FD8095982F0E9441
:10365000136C9B01AC0160E070E080E291E40E9499
:10366000ED6D9B01AC016B817C818D819E810E94FF
:10367000786B0E94E06B78876F8381E08C8BDF91A1
:10368000CF911F910F91FF90EF9008951F93CF93CB
:10369000DF9386E997E00E944C5610E0CEE8DBE02D
:1036A000FE0121966491662379F06A3041F41F5F30
:1036B00086E997E060E0412F0E94D955F1CF86E975
:1036C00097E00E94545BECCFDF91CF911F9108955A
:1036D000FC014281242F2150273CA8F483894536E0
:1036E00030F04556481B86E997E06CE005C0281B82
:1036F00086E997E06CE0422F0E94D95586E997E071
:1037000060E20C94545B0895FC018281482F415083
:10371000433660F48389481B86E997E06CE00E9499
:10372000D95586E997E06EE30C94545B482F4556D3
:10373000433660F48389481B86E997E06CE00E9479
:10374000D95586E997E063E20C94545B08951F9382
:10375000CF93DF9386E997E00E944C5610E0CEE8C5
:10376000DBE0FE0121966491662379F06A3041F432
:103770001F5F86E997E060E0412F0E94D955F1CFA5
:1037800086E997E00E94545BECCFDF91CF911F91C7
:103790000895FC019281892F8150873C38F5E92FEB
:1037A000F0E0953618F0E556F04001C03197CF01B2
:1037B00063E070E00E94B26F01969C01220F331FFC
:1037C000280F391F220F331F2450CF0163E070E010
:1037D0000E94B26F462F4F5F86E997E0622F0E94EA
:1037E000D95586E997E060E20C94545B0895DC01BA
:1037F0001296EC918E2F8150833608F5F0E03197C8
:10380000CF0163E070E00E94B26F01969C01220F2D
:10381000331F280F391F220F331F2450CF0163E0BD
:1038200070E00E94B26F462F4F5F86E997E0622FEB
:103830000E94D95586E997E06EE30C94545B8E2F75
:103840008556833610F5F0E0E556F040CF0163E091
:1038500070E00E94B26F01969C01220F331F280F67
:10386000391F220F331F2450CF0163E070E00E9404
:10387000B26F462F4F5F86E997E0622F0E94D955BD
:1038800086E997E063E20C94545B08951F93CF930D
:10389000DF93EB0186E997E00E944C5610E0FE01B1
:1038A00021966491662379F06A3041F41F5F86E9BE
:1038B00097E060E0412F0E94D955F1CF86E997E06B
:1038C0000E94545BECCFDF91CF911F910895FC01D2
:1038D000848190E0895C904082309105C9F083300A
:1038E00091052CF4009761F0019711F50DC084301B
:1038F0009105B1F0843091057CF00597C9F414C0AE
:10390000CF016FEE7CE00FC0CF016FE27DE00BC016
:10391000CF016FE67DE007C0CF0162EB7DE003C021
:10392000CF0163EF7DE0B2CFCF0161E47EE0AECFA7
:103930000895FC0144814150473C60F48581481B57
:1039400086E997E060E00E94D95586E997E060E259
:103950000C94545B0895FC0144814150433660F45B
:103960008581481B86E997E060E00E94D95586E989
:1039700097E06EE30C94545B0895FF920F931F93AE
:10398000CF93DF93EC0186E997E00E944C56FF2429
:1039900010E026C0141740F0812F841B482F86E9C1
:1039A00097E061E00E94D95590E001C0902FEA8134
:1039B000FB81EF0DF11DF3946491662381F06A3071
:1039C00071F08D811817E8F01630D8F4092F0F5FC9
:1039D000923160F786E997E00E94545BE7CF1F5F62
:1039E0004D81842F90E00796212F30E082179307B6
:1039F0008CF6CE01B0DFDF91CF911F910F91FF9038
:103A00000895092FD3CFB9CF08952F923F924F92A7
:103A10005F926F927F928F929F92AF92BF92CF925E
:103A2000DF92EF92FF920F931F93DF93CF93CDB767
:103A3000DEB728970FB6F894DEBF0FBECDBF3C01AE
:103A400086E997E00E944C56EE2400E039C0041746
:103A500040F0802F841B482F86E997E060E00E94A9
:103A6000D955E39490E002C0E394912FEE2DE150FC
:103A700080912208813029F4F0E0EA52F44F6491F9
:103A80000AC0F0E08A3021F4E75AF34F649103C092
:103A9000EA52F44F6491662391F06A3081F0D301C9
:103AA00053968C91081708F4F7C0192F1F5F9C30AC
:103AB00008F0F1C086E997E00E94545BD5CF0F5F14
:103AC000F3014389842F90E00796202F30E082177E
:103AD00093070CF0BCCF55241DE2412E1E01089423
:103AE000211C311C86E997E06EE0452D0E94D955D6
:103AF000D30153961C915397150D97968C919797D8
:103B0000181708F0CBC0212F30E0F301E20FF31FAC
:103B10008185882309F49FC012968C91129790E0BA
:103B2000855690402817390739F413966D917D9189
:103B30008D919C91169714C0E18DF0E0EE0FFF1F60
:103B4000EE0FFF1FEA5FF74F66A977A980AD91AD31
:103B500020E030E040E05FE30E94AB6A0E944E6CE0
:103B60000E94E56B5B016C01812E9924D30195962F
:103B7000ED91FC919697E80DF91D8081833659F5FA
:103B80009396ED91FC919497E80DF91D8081833611
:103B900011F5A114B104C104D10431F0BEE4B9831C
:103BA000EFE4EA8312E006C0F6E4F983FA838FE4D7
:103BB0008B8313E086E997E060E20E94545B11502A
:103BC000F101E10FF11D86E997E060810E94545BED
:103BD0001123A9F755C08AE992E16EE0452D0E94B4
:103BE000D955D3019396ED91FC919497E80DF91D69
:103BF000608170E0709561957F4F882777FD809593
:103C0000982F0E94136C9B01AC0160E070E080E291
:103C100091E40E94ED6D7B018C01C601B5010E940B
:103C2000116CA80197010E948A6DAB01BC01D30100
:103C30009596ED91FC919697E80DF91D20818AE902
:103C400092E130E00E94A9668AE992E169E573E0B9
:103C50000E9419661AC049824A824B824C8286E9C8
:103C600097E060E20E94545B14E01150F101E10F13
:103C7000F11D86E997E060810E94545B1123A9F74A
:103C800086E997E060E20E94545B5394B8E05B16CB
:103C900009F028CF03C0912F192FE6CE28960FB632
:103CA000F894DEBF0FBECDBFCF91DF911F910F9172
:103CB000FF90EF90DF90CF90BF90AF909F908F904C
:103CC0007F906F905F904F903F902F900895FC01F0
:103CD000662311F4128299DE80E0089596CE08954D
:103CE000AF92BF92CF92DF92EF92FF920F931F930A
:103CF000DF93CF9300D00F92CDB7DEB78C01DC01FC
:103D000012969C911297892F8150873C08F0D8C059
:103D1000E92FF0E0953618F11396ED90FD900D9196
:103D20001C911697E556F040CF0163E070E00E94C9
:103D3000B26F01969C01220F331F280F391F220FEB
:103D4000331F2350CF0163E070E00E94B26F462F13
:103D50004F5F86E997E0622F0E94D9554CC031979A
:103D6000CF0163E070E00E94B26F01969C01220FC8
:103D7000331F280F391F220F331F2350CF0163E059
:103D800070E00E94B26F462F4F5F86E997E0622F86
:103D90000E94D95587EF94E1F80162814AE050E032
:103DA0000E949065D80112968C9190E0019763E093
:103DB00070E00E94B26F0196BC01660F771F680F1A
:103DC000791F660F771F6350704087EF94E14AE0D8
:103DD00050E00E94FC65F801828190E0019763E069
:103DE00070E00E94B26F6F5F7F4F87EF94E14AE00F
:103DF00050E00E94FC65C801B70120E030E048ECCB
:103E000052E40E948A6D20E030E040E05FE30E94CF
:103E1000AB6A0E944E6C0E94E56B7B018C01C8016D
:103E20002AE030E040E050E00E94C56F605D6983A9
:103E3000B701C8012AE030E040E050E00E94C56FC1
:103E4000B22EC32ED42E052F92E0E92EF12CEC0ECB
:103E5000FD1E11E08EE2A82E123011F4AB821BC0C1
:103E60006B2D7C2D8D2D902F2AE030E040E050E02E
:103E70000E94C56F605DD7016C936B2D7C2D8D2DDD
:103E8000902F2AE030E040E050E00E94C56FB22E53
:103E9000C32ED42E052F1F5F0894E11CF11C143093
:103EA000D9F67E010894E11CF11C1150F701E10FD5
:103EB000F11D86E997E060810E94545B1123A9F708
:103EC0000F900F900F900F90CF91DF911F910F9156
:103ED000FF90EF90DF90CF90BF90AF900895CF9379
:103EE000DF93EC018A81282F30E025563040C9014C
:103EF00063E070E00E94B26F6130710579F062306A
:103F00007105B1F0672B89F5C90163E070E00E948B
:103F1000B26FFE01E80FF91FE58913C0C90163E024
:103F200070E00E94B26FFE01E80FF91FE08D09C03A
:103F3000C90163E070E00E94B26FFE01E80FF91F53
:103F4000E38DF0E0EE0FFF1FEE0FFF1FEA5FF74F6C
:103F500086A997A9A0ADB1AD8B839C83AD83BE83A9
:103F6000CE01BEDE1A8281E08C87DF91CF91089569
:103F70002F923F924F925F926F927F928F929F9279
:103F8000AF92BF92CF92DF92EF92FF920F931F9367
:103F9000DF93CF9300D00F92CDB7DEB76C0186E9E7
:103FA00097E060E040E00E94D95500E010E0D601C3
:103FB0005196ED91FC915297E00FF11F64916623A9
:103FC00039F4882483948DE2382E0EE2202E0AC024
:103FD00086E997E00E94545B0F5F1F4F0331110584
:103FE00031F7EFCF86E997E060E0482D0E94D95580
:103FF000B1E08B1629F486E997E06CE573E00FC019
:10400000E2E08E1629F486E997E06FE573E007C0D9
:10401000F3E08F1631F486E997E062E673E00E94E0
:104020001966260115E6612E712CD20119968C9124
:10403000882309F494C0B1E08B1651F4F601828113
:1040400090E08615970529F1D2015596EC9129C08B
:10405000B2E08B1669F4F601828190E093012D5F46
:104060003F4F82179307A9F0D2015896EC9119C0DF
:10407000B3E08B1629F060E070E080E090E01CC0B7
:10408000F601828190E093012A5F3F4F82179307E8
:1040900029F463817481858196810EC0D2015B967B
:1040A000EC91F0E0EE0FFF1FEE0FFF1FEA5FF74FFE
:1040B00066A977A980AD91AD20E030E048EC52E4EC
:1040C0000E948A6D20E030E040E05FE30E94AB6A2E
:1040D0000E944E6C0E94E56B7B018C01C8012AE0B6
:1040E00030E040E050E00E94C56F605D6983B70139
:1040F000C8012AE030E040E050E00E94C56F922EF7
:10410000A32EF42EE52E8E010E5F1F4FBB24B39419
:10411000B2E0BB1611F42B821BC0692D7A2D8F2DB6
:104120009E2D2AE030E040E050E00E94C56F605DC7
:10413000F8016083692D7A2D8F2D9E2D2AE030E0C5
:1041400040E050E00E94C56F922EA32EF42EE52E83
:10415000B3940F5F1F4FF4E0BF16D1F604C039824D
:104160003A823B823C8286E997E060E20E94545B9F
:1041700014E01150E1E0F0E0EC0FFD1FE10FF11D44
:1041800086E997E060810E94545B112391F786E9EC
:1041900097E060E20E94545B0894411C511C089413
:1041A000611C711C88E66816710409F03ECF839487
:1041B000A4E08A1609F016CFC60119DB0F900F9004
:1041C0000F900F90CF91DF911F910F91FF90EF9083
:1041D000DF90CF90BF90AF909F908F907F906F9027
:1041E0005F904F903F902F900895FC01662311F44B
:1041F0001282BEDE80E00895BBDE80E00895CF929B
:10420000DF92EF92FF920F931F93DF93CF93CDB77F
:10421000DEB7C951D2400FB6F894DEBF0FBECDBF96
:104220006C0187EF94E16EE773E00E94BC669091A9
:10423000770A8091240889839A839AE0E92E91E095
:10424000F92EEC0EFD1E89819A81D70119969C9357
:104250008E93189785E117968C93C7016FEF4AEFFD
:1042600022E00FE90E94FA0B8E010D5F1F4FF7014C
:10427000238130E0285F3F4FA7014E5F5F4FC801A9
:10428000BA01A9010E945E09D6011196ED91FC9137
:10429000129780819181D70113964C9150E0485F2D
:1042A0005F4FDC0112962D913C911397CF01B8011D
:1042B000F9011995C75EDD4F0FB6F894DEBF0FBE4A
:1042C000CDBFCF91DF911F910F91FF90EF90DF90C5
:1042D000CF9008958F929F92AF92BF92CF92DF922C
:1042E000FF920F931F93CF93DF93F62E4901082F70
:1042F00010E06801CC0CDD1C5601A00EB11EE501DA
:10430000CC0FDD1FCC0FDD1FC858D54F18828B8115
:104310009C818430910509F478C0853091055CF466
:104320008230910509F443C0833091050CF0ABC095
:104330009923C4F43CC28730910509F42FC1883019
:10434000910544F48530910509F4CAC0069709F037
:104350002EC2F3C08830910509F466C1099709F0AF
:1043600026C2D3C18EEF681709F021C282E090E027
:104370009C838B8380E191E0089FD001099FB00D61
:10438000189FB00D1124A855B54F13961C92139782
:1043900088E890E0089FF001099FF00D189FF00D4C
:1043A0001124EE0FFF1FE655F54F608390C180E1A9
:1043B00091E0089FF001099FF00D189FF00D112466
:1043C000E855F54F63831D8280818627282F22952B
:1043D000207F282730E0522F4427C90163E0880F4F
:1043E000991F6A95E1F748275927818190E048276E
:1043F0005927B4E035952795BA95E1F74227532719
:104400005183408384E090E03BC084E490E0089FC7
:10441000F001099FF00D189FF00D1124EE0FFF1F02
:10442000EE0FFF1FE455F54F608380E191E0089F98
:10443000F001099FF00D189FF00D1124E855F54F7C
:1044400080818627282F2295207F282730E0522F31
:104450004427C90163E0880F991F6A95E1F748274F
:104460005927818190E04827592794E03595279571
:104470009A95E1F7422753275183408383E090E0E8
:104480009C838B8394C180E191E0089FF001099F98
:10449000F00D189FF00D1124E855F54F65838081CC
:1044A0008627282F2295207F282730E0522F442767
:1044B000C901B3E0880F991FBA95E1F7482759273A
:1044C000818190E048275927A4E035952795AA9542
:1044D000E1F7422753275183408385E090E0D0CF16
:1044E00080E191E0089FF001099FF00D189FF00D09
:1044F0001124E855F54F668380818627282F229561
:10450000207F282730E0522F4427C90163E0880F1D
:10451000991F6A95E1F748275927818190E048273C
:104520005927B4E035952795BA95E1F742275327E7
:104530005183408386E090E0A3CF80E191E0089F23
:10454000F001099FF00D189FF00D1124E855F54F6B
:10455000678380818627282F2295207F282730E0B7
:10456000522F4427C90173E0880F991F7A95E1F70C
:1045700048275927818190E04827592764E03595DD
:1045800027956A95E1F7422753275183408383811A
:10459000882309F446C087E090E072CF6D81F8016E
:1045A00025E0EE0FFF1F2A95E1F7EC0DFD1D31967A
:1045B00093E0EE0FFF1F9A95E1F7E60FF11DE85526
:1045C000F54FF0826F5F6D8380E191E0089FF0010D
:1045D000099FF00D189FF00D1124E855F54F8081CB
:1045E0008F25282F2295207F282730E0522F44271F
:1045F000C901B3E0880F991FBA95E1F748275927F9
:10460000818190E048275927A4E035952795AA9500
:10461000E1F742275327518340838381681709F0CC
:10462000C6C088E090E02CCF80E191E0089FD001E7
:10463000099FB00D189FB00D1124A855B54F9C913E
:104640001796EC911797F0E0EA5BF94F8081892784
:10465000482F4295407F482750E0342F2227CA0137
:1046600073E0880F991F7A95E1F72827392711966B
:104670008C91119790E02827392764E0559547954C
:104680006A95E1F72427352711963C932E938F2DB9
:1046900090E0307082179307F9F0F501EE0FFF1FDD
:1046A000EE0FFF1FE658F54F80818F5F80831882E1
:1046B00081E090E09C838B83EEEFFE1609F077C0DB
:1046C00082E090E09C838B8313961C9213978FEF6C
:1046D0009FEF8D939C936BC089E090E09C838B83CC
:1046E000F80125E0EE0FFF1F2A95E1F7EC0DFD1D07
:1046F000319693E0EE0FFF1F9A95E1F78D81E80F59
:10470000F11DE855F54FF08252C0262F30E080E1D0
:1047100091E0089FB001099F700D189F700D112442
:104720006855754FFB01818190E028173907E9F042
:10473000F501EE0FFF1FEE0FFF1FE658F54F8081CA
:104740008F5F8083188281E090E09C838B83FEEFF3
:10475000FF1669F582E090E09C838B83EB011B825E
:104760008FEF9FEF9983888322C081E0888381E067
:1047700090E09C838B83F801B5E0EE0FFF1FBA95A4
:10478000E1F7EC0DFD1D3196A3E0EE0FFF1FAA959A
:10479000E1F78D81E80FF11DE755F54FF082DA0161
:1047A000FB0180E191E001900D920197E1F7D801C2
:1047B000AA0FBB1FA00FB11FAA0FBB1FAA0FBB1FC1
:1047C000A858B54F8C91813069F584E490E0089F3A
:1047D000F001099FF00D189FF00D1124EE0FFF1F3F
:1047E000EE0FFF1FE455F54F808116968C931697B8
:1047F00018968D919C911997892B21F41B961C92E8
:104800001E921A97F801EE0FFF1FE00FF11FEE0F37
:10481000FF1FEE0FFF1FE858F54F80859185019629
:1048200091878087F801EE0FFF1FE00FF11FEE0F59
:10483000FF1FEE0FFF1FDF01A858B54F16968C9192
:1048400016978F5FE4018E8318968D919C9119972E
:1048500099878887E658F54F80818A871B86108262
:104860008C91DF91CF911F910F91FF90DF90CF90AE
:10487000BF90AF909F908F9008958F92AF92BF920C
:10488000CF92DF92EF92FF920F93DF93CF93CDB74A
:10489000DEB767970FB6F894DEBF0FBECDBF382FD7
:1048A000762FA982BA82CB82DC822D830E838F8AF7
:1048B000FE013796E114F10431F480E1DF011D922D
:1048C0008A95E9F707C0DF01F70180E101900D92B9
:1048D0008150E1F7DA011896FE01319687E10190E7
:1048E0000D928150E1F787E1FA018783CA01632FB6
:1048F000472F27E108EA0E94FA0B67960FB6F89453
:10490000DEBF0FBECDBFCF91DF910F91FF90EF9033
:10491000DF90CF90BF90AF908F9008952F923F92ED
:104920004F925F926F927F928F92AF92BF92CF928F
:10493000DF92EF92FF920F93DF93CF93CDB7DEB765
:10494000C652D2400FB6F894DEBF0FBECDBF1C01D9
:10495000FC018281282F30E0295C3040C90163E0EE
:1049600070E00E94B26F6130710581F062307105B4
:10497000B9F0672B09F06EC0C90163E070E00E94D6
:10498000B26FF101E80FF91F058913C0C90163E097
:1049900070E00E94B26FF101E80FF91F008D09C0AD
:1049A000C90163E070E00E94B26FF101E80FF91FE6
:1049B000038D87EF94E160E973E00E94BC662E01ED
:1049C0000894411C511CCE014096F20111922F0116
:1049D000E817F907D1F7E02FF0E0EE0FFF1FEE56D2
:1049E000FC4F659174917E010894E11CF11CC70194
:1049F0000E944A0947E1642E41E0742E6C0E7D1E30
:104A0000F101A380B480C580D6808FEF60E0A30160
:104A1000209124080091770A39E0832E2EDFF301DC
:104A2000238130E0285F3F4FA3014E5F5F4FC201FB
:104A3000BA01A9010E945E09F301438150E0485F79
:104A40005F4F84E595E1B2010E949764F101128203
:104A500081E08487CA5DDD4F0FB6F894DEBF0FBEDC
:104A6000CDBFCF91DF910F91FF90EF90DF90CF906E
:104A7000BF90AF908F907F906F905F904F903F90DE
:104A80002F9008954F925F926F927F928F92AF9284
:104A9000BF92CF92DF92EF92FF920F931F93DF931B
:104AA000CF93CDB7DEB7C652D2400FB6F894DEBF73
:104AB0000FBECDBF2C0159016A01FE013196CE0116
:104AC00040961192E817F907E1F7809122088130AA
:104AD00049F4E62FF0E0EE0FFF1FE659FC4F659119
:104AE00074910AC0823061F4E62FF0E0EE0FFF1FF0
:104AF000EE56FC4F65917491CE0101960E944A09D1
:104B0000E7E16E2EE1E07E2E6C0E7D1E8FEF6AEFE8
:104B1000A301209124080091770A7E010894E11CEA
:104B2000F11C79E0872EA9DE8E01005F1F4FD301B3
:104B300013962C9130E0285F3F4FA3014E5F5F4FEB
:104B4000C801BA01A9010E945E09D2011196ED9136
:104B5000FC91129780819181D30113964C9150E082
:104B6000485F5F4FDC0112962D913C911397CF0166
:104B7000B801F9011995CA5DDD4F0FB6F894DEBF93
:104B80000FBECDBFCF91DF911F910F91FF90EF909E
:104B9000DF90CF90BF90AF908F907F906F905F909D
:104BA0004F9008950F931F938C01DC0112968C9106
:104BB0001297F801E80FF11DE05BF04013962D917C
:104BC0003D914D915C91169786EB99E060815ADF9B
:104BD000F801128281E0848B1F910F9108958EEC71
:104BE0009FE060E270E041E050E00E94D03A8EEC3D
:104BF0009FE00E941E3A009721F08EEC9FE00C94FB
:104C0000273A0895ECDF282F982F82FD02C082E01A
:104C100001C080E093FF83E094FF85E095FF81E091
:104C200096FF86E027FF84E008951F93CF93DF93DC
:104C3000EC01E8DF182F882339F40E940B5E6983AA
:104C40007A838B839C8341C08D81181791F01D83DB
:104C50000E940B5E69837A838B839C830E940B5E28
:104C6000605F7040804090406E837F838887998723
:104C70002BC00E940B5E2E813F8148855985621BA7
:104C8000730B840B950B6A3F710581059105E0F06C
:104C90000E940B5E29813A814B815C81621B730B00
:104CA000840B950B6A3071058105910568F00E94AF
:104CB0000B5E69837A838B839C830E940B5E6E8379
:104CC0007F838887998701C010E0812FDF91CF9182
:104CD0001F910895FC018FEF818380810C94006700
:104CE0000F931F93CF93DF93EC018A81843058F5A3
:104CF000E981F0E0EE0FFF1FEE0FFF1FE80FF11D3F
:104D0000EE0FFF1FEE0FFF1FDF01AA51BB4F0D91EA
:104D10001C91E851FB4F8081918198878F83892B6B
:104D200091F088810E9400672F81388540E050E033
:104D30008881B8010E9474670E940B5E6B837C833C
:104D40008D839E8302C0CE01C5DFDF91CF911F917D
:104D50000F910895CF93DF93EC0189818F3FC1F0CC
:104D60000E940B5E2B813C814D815E81621B730B27
:104D7000840B950B2F81388540E050E026173707CC
:104D80004807590728F48A818F5F8A83CE01A8DFFC
:104D9000DF91CF910895FC018181861720F0618316
:104DA0001282CF019DCF08951F93CF93DF93EC0123
:104DB0003CDF182F8881181711F410E007C0188302
:104DC000112321F082EE97E067E0E5DF812FDF918C
:104DD000CF911F910895FF920F931F93CF93DF936D
:104DE000EC018E850E94ED5F082F88890E94ED5F9F
:104DF000F82E8E850E94ED5F182F88890E94ED5F46
:104E0000011779F7F81669F7002311F420E001C0C3
:104E100022E080E0F11081E0282B922F990F990F6A
:104E20008A89982B2A8B21E030E002C0220F331FA1
:104E30009A95E2F7C90186799976892B09F444C0DD
:104E4000C901827891742A853B85892B19F02F5FDF
:104E50003F4F02C0215030403B872A874A815B8107
:104E60002A853B854217530769F4E881F98120813F
:104E700031818C819D8128173907CCF48081918103
:104E8000019613C088279927841B950B82179307D7
:104E9000D9F4E881F981208131818E819F81821747
:104EA00093072CF4808191810197918380831B86E5
:104EB0001A86288539852115310531F0E881F98177
:104EC00080819181F9011995DF91CF911F910F9107
:104ED000FF90089583EC97E07ECFEF92FF920F93BF
:104EE0001F93CF93DF93EC01FB01798368835D838C
:104EF0004C833F832E831B830A83F986E8861B86B7
:104F00001A86808191819C8B8B8B8E850E94ED5FB0
:104F1000892B11F410E001C012E088890E94ED5F36
:104F200020E0892B09F021E0212B2A8B88819981AF
:104F3000892B41F488859985892B21F0CE010C9627
:104F400099838883DF91CF911F910F91FF90EF900C
:104F50000895EF92FF920F931F93CF93DF93EC018D
:104F6000162F0E94681B143009F44DC1153050F4FF
:104F7000123009F458C0133008F014C1113009F090
:104F8000E1C10AC0163009F47EC1163008F498C099
:104F9000173009F0D7C18BC12A81222339F48B89BC
:104FA000882309F4CFC181508B8B4CC0822F825053
:104FB000823680F44B8930E0842F90E001962817E8
:104FC000390729F441504B8BCE010E94051D8A817F
:104FD00081504DC0822F8556833608F050C130E095
:104FE00025563040EBA1FCA1E20FF31F608170E079
:104FF000EDA1FEA1E20FF31F2081621B710988273A
:1050000077FD8095982F0E94136C9B01AC0160E0A6
:1050100070E080E291E40E94ED6DAC01CE01FA01F6
:10502000AB01BF0126C12A818FA1222379F44B89CC
:10503000242F30E090E00897281739070CF082C140
:105040004F5F4B8BCE010E94051D7CC1281788F451
:105050004B8930E0842F90E008962817390729F40F
:105060004F5F4B8BCE010E94051D8A818F5F8A8323
:1050700069C1822F8556833608F001C130E025567C
:105080003040EBA1FCA1E20FF31F608170E0EDA1C5
:10509000FEA1E20FF31F2081621B7109882777FDB3
:1050A0008095982F0E94136C9B01AC0160E070E02A
:1050B00080E291E40E94ED6DAB01BC017058D8C054
:1050C0009A81992359F49B89FE01E90FF11D81858D
:1050D000882309F437C19F5F9A8334C1943608F05E
:1050E00051C0292F30E021503040FE01E20FF31F64
:1050F0008185882309F426C1E18DF0E0EE0FFF1FC2
:10510000EE0FFF1FEA5FF74FE6A8F7A800AD11AD5D
:10511000EB82FC820D831E83EBA1FCA1E20FF31F47
:10512000608170E0EDA1FEA1E20FF31F2081621B00
:105130007109882777FD8095982F0E94136C9B0139
:10514000AC0160E070E080E291E40E94ED6D9B01B3
:10515000AC01C801B7010E94786B0E94E06B7887B0
:105160006F83BE01695F7F4F83EC97E048EE53E0A9
:1051700020E030E00CEF1FEFEE24FF24AEDE8A814A
:105180008C5975CF892F8556833630F49C599A8374
:10519000CE010E94461BD9C0993C08F4D3C0CE0171
:1051A00001DDD3C02A81222311F48FEF30C0822F7A
:1051B0008556833608F063C030E025563040EBA1B9
:1051C000FCA1E20FF31F608170E0EDA1FEA1E20FF0
:1051D000F31F2081621B7109882777FD8095982F26
:1051E0000E94136C9B01AC0160E070E080E291E4EE
:1051F0000E94ED6D9B01AC01CA01B90120E030E0D5
:1052000040E251EC31C02A81222321F481E00E9446
:105210001F1198C0822F8556833688F530E02556B9
:105220003040EBA1FCA1E20FF31F608170E0EDA123
:10523000FEA1E20FF31F2081621B7109882777FD11
:105240008095982F0E94136C9B01AC0160E070E088
:1052500080E291E40E94ED6D9B01AC01CA01B901AD
:1052600020E030E040E251E40E948A6DAB01BC01D5
:10527000CE010E94E41ACE010E94691A63C0293C43
:1052800008F063C05FC08A81882319F40E941F114F
:105290005CC0893C20F0CE010E94051D06C0853609
:1052A00020F0CE010E94C01A4DC01A824BC02A8144
:1052B000822F8556833608F045C030E025563040B1
:1052C000EBA1FCA1E20FF31F608170E0EDA1FEA154
:1052D000E20FF31F2081621B7109882777FD8095FB
:1052E000982F0E94136C9B01AC0160E070E080E29B
:1052F00091E40E94ED6D7B018C016F817885882798
:1053000077FD8095982F0E94136CA80197010E9449
:105310008A6D6B837C838D839E83CE010E94691A84
:105320006F81788587EF94E14AE050E00E94FC6548
:105330004B815C816D817E8187EF94E122E030E0DA
:105340000E94AB66CE010E94841B80E0DF91CF916A
:105350001F910F91FF90EF900895EF92FF920F939E
:105360001F93CF93DF93EC01162F0E94C91B1430BB
:1053700009F403C1153048F4123021F1133008F05C
:10538000DDC0113009F058C109C0163009F4C4C09D
:10539000163088F1173009F04FC1A3C09A81892FC8
:1053A0008450863010F4935013C0892F855683366D
:1053B000F0F46B817C818D819E812AE037ED43E2A0
:1053C0005CE3FAC09A81892F8150863018F49D5F82
:1053D0009A8332C1892F8556833648F46B817C814C
:1053E0008D819E812AE037ED43E25CE3C3C0993CA6
:1053F00008F025C121C19A81992331F48985882338
:1054000009F41AC181E058C0943608F057C0292F1A
:1054100030E021503040C90163E070E00E94B26F7B
:10542000FC018E01080F191FD80119968C91882351
:1054300009F402C1C90163E070E00E94B26F6130FB
:10544000710551F06230710551F0672B09F0F7C01A
:10545000EC0FFD1F858906C0F801808D03C0D801BF
:105460005B968C91E82FF0E0EE0FFF1FEE0FFF1F11
:10547000EA5FF74F66A977A980AD91AD6B837C8316
:105480008D839E8320E030E048EC52E40E948A6DD8
:105490000E94E06B78876F83BE01695F7F4F83EC6A
:1054A00097E04CE251E020E030E00CEF1FEFEE24FB
:1054B000FF2413DD8A818C598A83BEC0892F8556CB
:1054C000833630F49C599A83CE010E94A71BB7C043
:1054D000993C08F4B1C0CE0121DACE010E94B81F78
:1054E000AEC08A818556833608F0A6C06F81788564
:1054F000882777FD8095982F0E94136C20E030E07C
:1055000048EC52E40E94786B6B837C838D839E838E
:10551000CE010E94701E90C08A81882319F40E94D7
:105520001F118DC0853640F0893C18F0CE010E94D5
:10553000B81FCE010E946F1F1A827EC02A812223CB
:1055400011F48FEF1EC0243640F4822F63E00E94D6
:10555000A66F913011F0215020C0822F85568336DE
:1055600008F068C06B817C818D819E812DEC3CECC4
:105570004CEC5DE30E94AA6A21C02A81222321F417
:1055800081E00E941F1158C0243648F4822F63E046
:105590000E94A66F992319F02F5F2A834DC0822F96
:1055A0008556833608F046C06B817C818D819E8153
:1055B0002DEC3CEC4CEC5DE30E94AB6A7B018C0172
:1055C00020E030E040E050E00E94716B88235CF402
:1055D0000F2EF0E0EF2EF0E0FF2EF0E00F2FF0E0C6
:1055E0001F2FF02D14C0C801B70120E030E040E4C7
:1055F00050E40E947F6D181654F40F2EF0E0EF2E49
:10560000F0E0FF2EF0E40F2FF0E41F2FF02DEB82DF
:10561000FC820D831E83C801B70120E030E048EC16
:1056200052E40E948A6D0E94E06B78876F8381E06C
:105630008C8702C0293C18F4CE010E94F71B80E041
:10564000DF91CF911F910F91FF90EF9008950F93ED
:105650001F93CF93DF93FC01162F042FE901668778
:105660007787408B518B862F60E00E94085F802FE8
:1056700060E00E94085F812F61E00E94BB5F802F85
:1056800061E00E94BB5F8FEFCF3FD80741F08C2FC6
:1056900061E00E94085F8C2F60E00E94BB5FDF9199
:1056A000CF911F910F910895CF92DF92EF92FF92C9
:1056B0000F931F938130910509F0E7C06F5F7F4F13
:1056C00009F0ECC086E997E060E040E024E108E002
:1056D000EEEDEE2EE3E0FE2ECC240E94565B85EA32
:1056E00097E00E943B3788EA97E00E943B378BEABD
:1056F00097E00E94AD1283EC97E062E070E043E037
:1057000050E02FEF3FEFA3DF0E940B5E6093DE07B8
:105710007093DF078093E0079093E10787E380931E
:10572000E2078FEF8093E3078BEE97E00E94F23C55
:1057300086E195E190933A09809339098AE096E0F1
:10574000909309098093080910929B0910929A0975
:1057500088EE93E09093B3098093B2099093B509D2
:105760008093B4091092C4091092C3099093DC0984
:105770008093DB099093DE098093DD091092620A21
:10578000DD24D394D092630A73E0E72EE092640A9A
:1057900064E0F62EF092650A05E00093660A16E0D2
:1057A0001093670A1093760A8AEC95E09093ED09BE
:1057B0008093EC098EEE99E00E94935B84EC95E077
:1057C0009093FE098093FD0982E096E09093000A91
:1057D0008093FF0984E296E09093020A8093010A85
:1057E0008EE296E09093040A8093030A88E396E0A1
:1057F0009093060A8093050A8AEB95E09093090A34
:105800008093080A8AEA95E090930B0A80930A0A2B
:105810008AE895E090930D0A80930C0A1092620A30
:10582000D092630AE092640AF092650A0093660AD5
:105830001093670A1093760A8AE995E09093130A09
:105840008093120A84E19AE00E94E60E82E39AE0D5
:105850000E94170F1092620AD092630AE092640AC3
:10586000F092650A0093660A1093670A1093760A0D
:105870008AEF95E090935B0A80935A0A83E99EE051
:1058800090935D0A80935C0A09C0892B39F46F5F9D
:105890007F4F21F48BEE97E00E94053D1F910F9101
:1058A000FF90EF90DF90CF90089580E090E06FEF51
:1058B0007FEFFACE81E090E06FEF7FEFF5CE2F9291
:1058C0003F924F925F926F927F928F929F92AF9290
:1058D000BF92CF92DF92EF92FF920F931F93DF93CD
:1058E000CF93CDB7DEB7CD51D2400FB6F894DEBF1F
:1058F0000FBECDBF1C0182E4E82E86E0F82E0AE33D
:10590000C02E06E0D02E1EE0A12E11E0B12EAC0E6E
:10591000BD1EB8E04B2E512C4A0C5B1C12E4A7E0D4
:105920008A2E912C8C0E9D1EF2E06F2E712C6A0C2B
:105930007B1C209124083091770AD7014C91F60105
:10594000808191819A8389832B833C834D83F1E00D
:10595000FE83D201FE01319686E001900D928150C6
:10596000E1F7D50117961C93C50164E148EC26E0E8
:1059700004E90E94FA0BF501238130E0285F3F4FD4
:10598000C401B301A9010E945E09D1011196ED91F4
:10599000FC91129780819181D50113964C9150E032
:1059A000485F5F4FDC0112962D913C911397CF0118
:1059B000B401F90119950894E11CF11CE2E0F0E052
:1059C000CE0EDF1EF6E4EF16F6E0FF0609F0B1CFCB
:1059D00087EF94E160EA73E00E94196687EF94E133
:1059E000609124084AE050E00E947F6587EF94E1CF
:1059F0006EEB73E00E94196687EF94E16091770A7D
:105A00004AE050E00E947F6587EF94E10E94C964FC
:105A1000C35EDD4F0FB6F894DEBF0FBECDBFCF9192
:105A2000DF911F910F91FF90EF90DF90CF90BF908B
:105A3000AF909F908F907F906F905F904F903F902E
:105A40002F900895643061F0663019F0633071F47E
:105A50000AC086EB99E033DF82EE97E067E09BC9EE
:105A600081E00C941F118FEF0C941F110895FC011D
:105A7000848190E0895C90408130910519F0039712
:105A800041F404C086EB99E00C94FF2086EB99E08A
:105A900016CF08951F93CF93DF93EC01162F0E942A
:105AA000991C133009F461C0143030F4113069F0DE
:105AB000123009F074C026C01530E9F1153008F431
:105AC00059C0163009F06BC05CC02C81222341F410
:105AD0008D81882309F463C081508D831E835FC04C
