:100000000C94200A0C94F3750C9424760C94557679
:100010000C9486760C94B7760C94E8760C94197749
:100020000C944A770C944D0A0C944D0A0C944D0A8A
:100030000C944D0A0C94DD800C944D0A0C944D0ADE
:100040000C944D0A0C94A9530C944D0A0C944D0A2F
:100050000C944D0A0C944D0A0C944D0A0C947B7729
:100060000C944D0A0C94D5790C94FD7A0C944D0A9D
:100070000C944D0A0C944D0A0C944D0A0C944D0AA4
:100080000C947C530C944D0A0C944D0A0C944D0A1C
:100090000C940E7A0C943C7B0C944D0A0C94F754FF
:1000A0000C944D0A0C944D0A0C944F530C944D0A29
:1000B0000C944D0A0C944D0A0C944D0A0C94225346
:1000C0000C944D0A0C944D0A0C944D0A0C94477AEA
:1000D0000C947B7B0C944D0A0C94807A0C94BA7B24
:1000E0000C944D0A084AD73B3BCE016E84BCBFFD41
:1000F000C12F3D6C74319ABD56833DDA3D00C77FF8
:1001000011BED9E4BB4C3E916BAAAABE0000008090
:100110003F05A84CCDB2D44EB93836A9020C50B91F
:10012000918688083CA6AAAA2ABE000000803F0744
:10013000634236B79BD8A71A39685618AEBAAB5582
:100140008C1D3CB7CC5763BD6DEDFD753EF6177247
:1001500031BF000000803F08000000BE9224491219
:100160003EABAAAA2ABECDCCCC4C3E00000080BE3D
:10017000ABAAAAAA3E00000000BF000000803F001A
:1001800000000000084178D3BB4387D1133D190E0E
:100190003CC3BD4282AD2B3E68EC8276BED98FE176
:1001A000A93E4C80EFFFBE01C4FF7F3F000000006E
:1001B000005452494D5F4155544F004152535044F1
:1001C0005F524154494F005343414C494E475F539E
:1001D00050454544004C4F475F4249544D41534BB5
:1001E00000B101BB01C701D501524C4C32535256EC
:1001F0005F5000524C4C325352565F4900524C4CA7
:10020000325352565F4400524C4C325352565F495F
:100210004D415800524C4C325352565F524D41584A
:1002200000524C4C325352565F54434F4E5354007D
:1002300050544348325352565F5000505443483252
:100240005352565F490050544348325352565F440C
:100250000050544348325352565F494D4158005064
:10026000544348325352565F524D41585F555000E7
:1002700050544348325352565F524D41585F444E9A
:100280000050544348325352565F54434F4E5354D8
:100290000050544348325352565F524C4C0059411F
:1002A00057325352565F534C4950005941573253BD
:1002B00052565F44414D5000594157325352565F98
:1002C000524C4C00594157325352565F494E5400DC
:1002D000E901F301FD0107021402210230023B0291
:1002E000460251025F027002810291029E02AB023D
:1002F000B802C4024E41564C315F504552494F44FA
:10030000004E41564C315F44414D50494E470057D5
:10031000505F524144495553004C494D5F524F4C38
:100320004C5F434400F40201030F0319034152538D
:1003300050445F4642575F4D494E0041525350442E
:100340005F4642575F4D4158005448525F4D494EF9
:10035000005452494D5F5448524F54544C45005438
:1003600048525F4D4158004C494D5F5049544348F5
:100370005F4D494E004C494D5F50495443485F4DD5
:10038000415800544543535F53494E4B5F4D494ECE
:1003900000544543535F53494E4B5F4D4158005401
:1003A0004543535F434C4D425F4D415800544543D4
:1003B000535F54494D455F434F4E5354005445439A
:1003C000535F505443485F44414D50002D033B035D
:1003D000490351035F0367037503830391039F037D
:1003E000AD03BD035448525F4D494E004352554939
:1003F00053455F5448524F54544C45005448525F43
:100400004D4158005448525F534C45575241544552
:10041000005354454552325352565F500053544591
:100420004552325352565F49005354454552325358
:1004300052565F44005354454552325352565F4919
:100440004D4158005354454552325352565F544320
:100450004F4E5354005455524E5F4D41585F470024
:100460004E41564C315F504552494F440053504520
:1004700045445F5455524E5F4741494E00535045E5
:1004800045445F5455524E5F4449535400534B49C1
:10049000445F53544545525F4F555400534B4944B4
:1004A0005F53544545525F494E0046535F414354A4
:1004B000494F4E0046535F54494D454F55540046F1
:1004C000535F5448525F454E41424C450046535F8E
:1004D0005448525F56414C554500E403EC03FC037D
:1004E000040411041D042904350444045504600463
:1004F0006D047D048D049C04AA04B404BF04CD04DF
:10050000524154455F524C4C5F5000524154455F3C
:10051000524C4C5F4900524154455F524C4C5F4431
:1005200000524154455F524C4C5F494D4158005276
:100530004154455F5049545F5000524154455F500B
:1005400049545F4900524154455F5049545F44004B
:10055000524154455F5049545F494D415800524102
:1005600054455F5941575F5000524154455F5941CE
:10057000575F4900524154455F5941575F4400520B
:100580004154455F5941575F494D415800544852C5
:100590005F524154455F50005448525F52415445A8
:1005A0005F49005448525F524154455F44005448EB
:1005B000525F524154455F494D41580000050B05BB
:1005C000160521052F053A05450550055E05690507
:1005D00074057F058D059805A305AE052450554289
:1005E000582C34312C312C303030332C30303031E9
:1005F0002C33383430302C302A32360AB5620601BA
:100600000300010601124F000000050720600000F2
:1006100000000000005F00000007000700147F14C6
:100620007F14242A7F2A1223130864623649552234
:10063000500005030000001C2241000041221C0064
:10064000082A1C2A0808083E080800503000000844
:1006500008080808006060000020100804023E51ED
:1006600049453E00427F4000426151494621414593
:100670004B311814127F1027454545393C4A4949EA
:100680003001710905033649494936064949291E91
:1006900000363600000056360000000814224114CF
:1006A000141414144122140800020151090632499D
:1006B00079413E7E1111117E7F494949363E4141C3
:1006C00041227F4141221C7F494949417F0909015B
:1006D000013E414151327F0808087F00417F4100BF
:1006E0002040413F017F081422417F404040407F2D
:1006F0000204027F7F0408107F3E4141413E7F0992
:100700000909063E4151215E7F091929464649499A
:10071000493101017F01013F4040403F1F204020FF
:100720001F7F2018207F63140814630304780403D8
:10073000615149454300007F4141020408102041B6
:10074000417F00000402010204404040404000019B
:1007500002040020545454787F48444438384444B8
:100760004420384444487F3854545418087E0901C2
:1007700002081454543C7F0804047800447D40006F
:100780002040443D00007F10284400417F40007C11
:10079000041804787C0804047838444444387C14F1
:1007A000141408081414187C7C08040408485454D1
:1007B0005420043F4440203C4040207C1C204020EA
:1007C0001C3C4030403C44281028440C5050503CC5
:1007D0004464544C44000836410000007F0000008F
:1007E0004136080008082A1C08081C2A08081414A6
:1007F000000000000040800000008030070C300046
:10080000000000000080E0F8FFF8F9FCF8E0FFFECF
:10081000FEFEFEFFF8E000000C0F0F0F0F0F0F0F92
:100820000F0F0F0F0F0F0F0F0F0F0F0810100000FB
:100830000080EC0C1064C4C2E2F27E1E00000000D6
:100840000087C4C6C6DFFFFF730100000000080870
:1008500000007E0A1B127E00080804150E2470A8F2
:100860002000101000101010101010547C381000D0
:1008700000000000000000000808080808082A3EE0
:100880001C080000546869732077696C6C206170E3
:10089000706C79207468650A6368616E676573209F
:1008A0006D61646520746F207468650A20736574D7
:1008B00074696E67732C2070726573730A20204F01
:1008C0004B20746F2055706C6F6164005468726FB8
:1008D00074746C65206D696E0A4372756973652066
:1008E00054687220200A5468726F74746C65206DAD
:1008F00061780A54687220536C6577726174650A76
:100900005374656572696E67205020200A537465C0
:100910006572696E67204920200A537465657269A3
:100920006E67204420200A5374656572696E6749BA
:100930006D61780A5374656572696E6754636F6E92
:100940000A5475726E204D6178204720200A4E614E
:1009500076204C31506572696F640A53706420547C
:1009600075726E4761696E0A537064205475726EB9
:10097000446973740A536B69642073747220696EDE
:10098000200A536B696420737472206F75740A4671
:100990005320416374696F6E2020200A465320540F
:1009A000696D656F757420200A4653205468722063
:1009B000656E2020200A4653205468722076616CB0
:1009C00075650A004169727370656564204D696ED2
:1009D0000A4169727370656564204D61780A5468D4
:1009E000726F74746C65204D696E0A546872746C11
:1009F000204372756973650A5468726F74746C650C
:100A0000204D61780A5069746368204D696E20201A
:100A1000200A5069746368204D61782020200A54B0
:100A20004543532053696E6B4D696E0A54454353D9
:100A30002053696E6B4D61780A5445435320436CD3
:100A40006D624D61780A54454353205420436F6EC4
:100A500073740A546563732050636844616D700A4F
:100A6000004C3120506572696F642020200A4C319F
:100A70002044616D70696E6720200A5750205261D2
:100A8000646975732020200A4C696D20526F6C6C6C
:100A9000204344200A00526F6C6C205020202020FC
:100AA00020200A526F6C6C20492020202020200A30
:100AB000526F6C6C20442020202020200A526F6C42
:100AC0006C20496D61782020200A526F6C6C205296
:100AD0006D61782020200A526F6C6C205420436F87
:100AE0006E73740A5069746368205020202020209F
:100AF0000A5069746368204920202020200A506928
:100B0000746368204420202020200A5069746368A0
:100B100020496D617820200A506974636820526D05
:100B2000617855700A506974636820526D61784429
:100B30006E0A50697463682054436F6E73740A5070
:100B400069746368203220526F6C6C0A5961772097
:100B5000536C6970202020200A5961772044616D10
:100B600070202020200A59617720526F6C6C202061
:100B700020200A59617720496E7420202020200A05
:100B800000496E466C696768745472696D0A416900
:100B900072736420526174696F200A5363616C69D7
:100BA0006E6753706565640A4C6F67204269746DA7
:100BB00061736B200A0022080A0E206004020506F9
:100BC00007080902030305080204020407040707D3
:100BD0000707070707070202070707080E090808A3
:100BE0000807070908020708070B0809070909078A
:100BF0000808090D07080804040406080307070687
:100C00000707050707020306020A07070707050685
:100C10000507070B0607050501050708000000008A
:100C200000000000FEFE18181E1E001E1E00000020
:100C3000000090F89E90F89E1C00001C0000183CDC
:100C400026FF66CC88040C183C180C041C221CC01F
:100C5000308E408000001804000C100C80CC7E7296
:100C6000F2DE0C80000C1C1010101C0C1C101E1E40
:100C70000000F0FC061C7CC006FCF0C07C1C1414B8
:100C80000E14140000000000606060FCFC606060F6
:100C90000000000C0C00000000005838C0C0C0C0AC
:100CA000000000000000181800C0380618040000FA
:100CB000F8FC0E060EFCF8040C1C181C0C04180C96
:100CC000FEFE00001C1C181C86C6663E1C181C1C60
:100CD00018181818888C062626FEDC040C1C181818
:100CE0000C04C0E0B88CFEFE80040404041C1C0448
:100CF000707E3E3636F6C60C1C1818180C04F8FC2C
:100D00006E6666EECC040C1818181C0C060606E677
:100D1000761E0600001C1C0000009CFE666666FE37
:100D20009C0C1C1818181C0C3C7E666666FCF80CA3
:100D30001C18181C0C04181818181818583860605B
:100D4000F0F098980C0000000004040CD8D8D8D813
:100D5000D8D8D8000000000000000C9898F0F0608F
:100D6000600C040400000000080C06C6E6763C187F
:100D70000000001818000000E03008C4F63A1A1A03
:100D8000F2FA7E0408F00C30604C9C98988C9C9C85
:100D900090484C2000C0F8BE86BEF8C000181C0465
:100DA000040404041C18FEFE66666666FEDC1C1C59
:100DB000181818181C0CF8FC0E06060E9C08040CDB
:100DC0001C18181C0C04FEFE0606060EFCF81C1C63
:100DD0001818181C0C04FEFE66666666661C1C1855
:100DE00018181818FEFE66666666061C1C000000D1
:100DF0000000F8FC0E0606C6CEDCC8040C1C181851
:100E000018180C04FEFE60606060FEFE1C1C0000F2
:100E100000001C1CFEFE1C1C8080000000FEFE0C5E
:100E20001C1818181C0CFEFE603078EC86021C1C86
:100E3000000000041C18FEFE00000000001C1C182E
:100E400018181818FEFE0E7CE000E07C0EFEFE1C5A
:100E50001C00000C1C0C00001C1CFEFE1C78E0801A
:100E6000FEFE1C1C0000040C1C1CF8FC0E060606F2
:100E70000EFCF8040C1C1818181C0C04FEFE666608
:100E8000667E3C1C1C0000000000F8FC0E06860676
:100E90000EFCF8040C1C18181C0C1C24FEFE6666C4
:100EA000E6E6BE1C001C1C0000000C1C18103C7E5A
:100EB000666666EECC0C1C1818181C0C060606FE9E
:100EC000FE0606060000001C1C000000FEFE0000DE
:100ED0000000FEFE040C1C18181C0C04021EFCE092
:100EE00000E0FC1E020000001C1C1C00000006FEAE
:100EF000F800F0FE0EFEF000F8FE0600001C1C1CC0
:100F00000000001C1C1C0000060EF8F0F80E06186D
:100F10001C0400041C18060E38F0F0380E06000001
:100F2000001C1C000000060686E6761E0E06181C35
:100F30001C1818181818FEFE0606FCFCC0C006385F
:100F4000C000000004180606FEFEC0C0FCFC2038ED
:100F50000E0E38200000000000000000000000001D
:100F60000000808080808080808002060400000075
:100F70001098D858F8F0000C1C18180C1C10FEFE25
:100F8000301838F0E01C1C0C181C0C04E0F0181889
:100F90003830040C18181C0CE0F0381830FEFE0431
:100FA0000C1C180C1C1CE0F0D8D8D8F0E0040C186D
:100FB0001818180818FCFE1A1A001C1C0000E0F093
:100FC000381830F8F864ECDCD8CCFC7CFEFE301825
:100FD00018F8F01C1C0000001C1CFAFA1C1C00FA7B
:100FE000FAC0FC7CFEFEE0F098081C1C00041C18F3
:100FF000FEFE1C1CF8F81018F8F01818F8F01C1C6D
:1010000000001C1C00001C1CF8F8301818F8F01C1C
:101010001C0000001C1CE0F0381838F0E0040C1C28
:10102000181C0C04F8F8301838F0E0FCFC0C181C04
:101030000C04E0F0381830F8F8040C1C180CFCFC18
:10104000F8F83018181C1C00000070F8D8D8D89098
:10105000081818181C0C18FCFE1818000C1C18187E
:10106000F8F8000000F8F80C1C18180C1C1C38F8D4
:10107000C000C0F83800001C1C1C000018F8E0007C
:10108000F038F000E0F81800001C1C0C000C1C1CD0
:1010900000001838E0E03818181C04041C1818F870
:1010A000E000E0F8180084FCF83C04001898D878B8
:1010B000381C1C18181880FC7E0606007CFCC0C07A
:1010C000FEFC06067EFC80C0C0FC7C0060303070F8
:1010D00060603000000000000000FE020202020218
:1010E00002FE1C1010101010101C202020526F6CDB
:1010F0006C20506974636820205961770020205467
:101100006869732077696C6C2072657365740A2056
:10111000202020746865206D697373696F6E0A20E2
:101120002020205072657373204F4B20746F0A206B
:101130002020202020436F6E6669726D0020546865
:1011400069732077696C6C20726571756573740AB8
:10115000202074686520706172616D6574657273BA
:101160000A2020205072657373204F4B20746F0A41
:101170002020202020436F6E6669726D00202020A1
:10118000546869732077696C6C2073746F700A20DF
:1011900020207468652064617461207374726561D5
:1011A0006D0A202020205072657373204F4B2074ED
:1011B0006F0A202020202020436F6E6669726D0028
:1011C00020546869732077696C6C20726573746150
:1011D00072740A20207468652064617461207374DD
:1011E0007265616D0A2020205072657373204F4B29
:1011F00020746F0A2020202020436F6E6669726D74
:1012000000546869732077696C6C20696E69746931
:10121000616C6973650A2020746865204743532711
:101220007320486F6D650A706F736974696F6E2EF5
:1012300020456E73757265207468650A55415620A5
:101240006973206E65787420746F2047435300548F
:101250006869732077696C6C20696E697469616C68
:101260006973650A746865204169726372616674A6
:10127000277320486F6D650A706F736974696F6EAC
:101280002E20456E737572652069740A6973202A71
:101290002A6F6E207468652047524F554E442A2AA3
:1012A0000052657374617274204D697373696F6E57
:1012B0000A5265717565737420506172616D657451
:1012C0006572730A53746F702044617461205374A3
:1012D0007265616D0A52652D726571756573742052
:1012E00053747265616D0A536574204743532048F7
:1012F0006F6D650A52657365742055415620486FBD
:101300006D65007C3C3E5E2B3D3F2F5B5D3B2C2A98
:10131000225C0000002100240027002A002D00305C
:1013200000330001010000040107010A010000224E
:1013300000250028002B002E00310034000201009F
:1013400000050108010B01000020002300260029F0
:10135000002C002F003200000100000301060109EB
:101360000105050505070508080808020202020A2A
:101370000A08080404040401010101010101010338
:1013800003030303030303040707070C0C0C0C0CF3
:101390000C0C0C0202020206060606060606060BE6
:1013A0000B0B0B0B0B0B0B0102102020080810205D
:1013B00040102040800201020108040201010204E1
:1013C00008102040808040201008040201800402A0
:1013D00001804020100804020108040201010204F7
:1013E00008102040800102040810204080000009FD
:1013F0000A02080B0C0D07060304010000000000A0
:1014000000000000000000000000000000000000DC
:1014100000000000000000000011100F000000009C
:1014200000000000000000000000000000000000BC
:101430000000000257450654D757B56C247D52452D
:1014400011241FBECFEFD1E2DEBFCDBF00E00CBF45
:1014500018E0A0E0B2E0EEE4F4E101E00BBF02C06E
:1014600007900D92A438B107D9F71BBE18E1A4E884
:10147000B8E001C01D92A43FB107E1F714E1CEE34B
:10148000D4E104C02297FE010E94E089C433D10751
:10149000C9F70E94427E0C941B8A0C940000CF93E3
:1014A000DF93BC018230910510F462E070E0A091FE
:1014B000EC18B091ED18ED01E0E0F0E040E050E014
:1014C00021C0888199818617970769F48A819B8159
:1014D000309719F09383828304C09093ED18809322
:1014E000EC18FE0134C06817790738F4411551052E
:1014F00019F08417950708F4AC01FE018A819B81DD
:101500009C01E9012097E9F641155105A9F1CA01AD
:10151000861B970B049708F4BA01E0E0F0E02AC0BC
:101520008D919C91119784179507F9F464177507AD
:1015300081F412968D919C911397309719F09383B3
:10154000828304C09093ED188093EC18FD013296CD
:101550004CC0CA01861B970BFD01E80FF91F619370
:10156000719302978D939C9340C0FD01828193817A
:101570009C01D9011097A1F68091EA189091EB187F
:10158000892B41F480913005909131059093EB18AF
:101590008093EA1840913205509133054115510569
:1015A00041F44DB75EB780912E0590912F05481BF1
:1015B000590B2091EA183091EB18CA01821B930B4A
:1015C0008617970780F0AB014E5F5F4F8417950732
:1015D00050F0420F531F5093EB184093EA18F90153
:1015E0006193719302C0E0E0F0E0CF01DF91CF9111
:1015F0000895CF93DF93009709F450C0EC01229730
:101600001B821A82A091EC18B091ED18109709F185
:1016100040E050E0AC17BD0708F1BB83AA83FE0190
:1016200021913191E20FF31FAE17BF0779F48D912D
:101630009C911197280F391F2E5F3F4F39832883C4
:1016400012968D919C9113979B838A834115510526
:1016500071F4D093ED18C093EC1820C012968D91C0
:101660009C911397AD01009711F0DC01D3CFFA01E3
:10167000D383C28321913191E20FF31FCE17DF078D
:1016800069F488819981280F391F2E5F3F4FFA0135
:10169000318320838A819B8193838283DF91CF91E1
:1016A0000895FB01DC0105900D920020E1F70895FB
:1016B000FB01DC0104C08D910190801921F441509F
:1016C0005040C8F7881B990B0895FB01DC0102C04C
:1016D00001900D9241505040D8F70895DC0101C0AF
:1016E0006D9341505040E0F70895FC0181918617B9
:1016F00021F08823D9F7992708953197CF010895CC
:10170000FB01DC014150504030F08D910190801977
:1017100019F40020B9F7881B990B0895FB01DC012F
:101720004150504048F001900D920020C9F701C08F
:101730001D9241505040E0F70895ABE0B0E0E3EA7D
:10174000FBE00C94E4893C012B015A01FC01178257
:101750001682838181FD03C06FEF7FEFB9C19AE0EC
:10176000892E1E010894211C311CF3012381F201F2
:1017700023FD859123FF81912F01882309F4A5C1C1
:10178000853239F423FD859123FF81912F01853224
:1017900021F490E0B301B7D1E8CF982FFF24EE24D5
:1017A0009924FFE1FF15D0F09B3269F09C3228F4B8
:1017B000903259F0933291F40EC09D3249F090333B
:1017C00069F441E024C052E0F52A84E0F82A28C0F8
:1017D00098E0F92A25C0E0E1FE2A22C0F7FC29C0E2
:1017E000892F80538A3070F4F6FE05C0989C902CA7
:1017F0001124980E15C0E89CE02C1124E80EF0E2AC
:10180000FF2A0EC09E3229F4F6FC5FC140E4F42AA0
:1018100007C09C3619F450E8F52A02C0983649F4FE
:10182000F20123FD959123FF91912F01992309F056
:10183000B8CF892F8554833018F08052833038F424
:1018400044E050E0A40EB51E5FE359830FC0933609
:1018500031F0933779F0933509F052C01FC0F5018C
:101860008081898342E050E0A40EB51E610101E051
:1018700010E011C0F501C080D180F6FC03C06FEF0D
:101880007FEF02C0692D70E042E050E0A40EB51E6B
:10189000C6012ED18C015FE7F52213C0F501C0808F
:1018A000D180F6FC03C06FEF7FEF02C0692D70E0BE
:1018B00042E050E0A40EB51EC6010FD18C0150E8E5
:1018C000F52AF3FE06C018C080E290E0B3011BD1F8
:1018D000EA948E2D90E008171907B0F30DC0F601B9
:1018E000F7FC8591F7FE81916F0190E0B3010BD178
:1018F000E110EA94015010400115110581F7E2C092
:10190000943611F0993661F5F7FE08C0F501208193
:1019100031814281538184E090E00AC0F5018081E9
:1019200091819C01442737FD4095542F82E090E03F
:10193000A80EB91E9FE6F92257FF09C050954095A1
:10194000309521953F4F4F4F5F4FE0E8FE2ACA0187
:10195000B901A1012AE030E002D1D82ED2183FC04F
:10196000953729F41F2D1F7E2AE030E01DC01F2D62
:10197000197F9F3661F0903720F4983509F0A5C0A3
:101980000FC0903739F0983709F09FC004C028E0A5
:1019900030E00AC0106114FD146020E130E004C0A2
:1019A00014FD166020E132E017FF08C0F5016081E8
:1019B00071818281938144E050E008C0F50180810B
:1019C0009181BC0180E090E042E050E0A40EB51EA1
:1019D000A101C5D0D82ED2188FE7F82EF122F6FE3D
:1019E0000BC05EEFF522D91438F4F4FE07C0F2FC08
:1019F00005C08FEEF82202C01D2D01C0192DF4FE86
:101A00000DC0FE01ED0DF11D8081803319F499EEBA
:101A1000F92208C01F5FF2FE05C003C08F2D867833
:101A200009F01F5F0F2DF3FC13C0F0FE0EC01E1552
:101A300010F09D2C0AC09D2C9E0C911A1E2D05C0E5
:101A400080E290E0B3015FD01F5F1E15C8F304C0B1
:101A50001E1510F4E11A01C0EE2404FF0EC080E34D
:101A600090E0B30150D002FF1BC001FD03C088E726
:101A700090E00EC088E590E00BC0802F867881F062
:101A800001FF02C08BE201C080E2F7FC8DE290E032
:101A9000B30139D005C080E390E0B30134D09A940B
:101AA000D914C8F3DA94F101ED0DF11D808190E0B5
:101AB000B30129D0DD20B1F705C080E290E0B30189
:101AC00022D0EA94EE20C9F750CEF30166817781E7
:101AD000CB012B96E2E10C94008AFC010590615049
:101AE00070400110D8F7809590958E0F9F1F089534
:101AF000FC016150704001900110D8F780959095DD
:101B00008E0F9F1F08950F931F93CF93DF938C0128
:101B1000EB018B8181FF1BC082FF0DC02E813F81B5
:101B20008C819D812817390764F4E881F98101933C
:101B3000F983E88306C0E885F985802F1995892BFC
:101B400031F48E819F8101969F838E8302C00FEFB7
:101B50001FEFC801DF91CF911F910F910895FA01F6
:101B6000AA27283051F1203181F1E8946F936E7FDC
:101B70006E5F7F4F8F4F9F4FAF4FB1E03ED0B4E0CD
:101B80003CD0670F781F891F9A1FA11D680F791F0E
:101B90008A1F911DA11D6A0F711D811D911DA11D1F
:101BA00020D009F468943F912AE0269F112430192F
:101BB000305D3193DEF6CF010895462F4770405DCA
:101BC0004193B3E00FD0C9F7F6CF462F4F70405D79
:101BD0004A3318F0495D31FD4052419302D0A9F7D4
:101BE000EACFB4E0A6959795879577956795BA95CE
:101BF000C9F700976105710508959B01AC010A2E94
:101C000006945795479537952795BA95C9F7620F6A
:101C1000731F841F951FA01D0895FF920F931F939C
:101C2000CF93DF93EC01F02E8EEF8A832B836D83AD
:101C30004E838091CC0D8C838F5F8093CC0D022FCF
:101C400010E0F8013596DE0113966FEF7FEF2D91CE
:101C50002627822F8295807F822790E0382F2227A7
:101C6000AC01440F551F440F551F440F551F242727
:101C70003527672F77276227732724E09595879567
:101C80002A95E1F768277927319709F72F2D26271D
:101C9000822F8295807F822790E0382F2227AC0107
:101CA000E3E0440F551FEA95E1F724273527472F36
:101CB00055272427352744E0959587954A95E1F7E0
:101CC00028273927DE0118968B81FD01E80FF11DC9
:101CD00020838B81A80FB11D11963C939801285F3A
:101CE0003F4FC901DF91CF911F910F91FF90089550
:101CF00060E070E080E89FE308956091140B7091BC
:101D0000150B882777FD8095982F0E94DB8520E0B2
:101D100030E040EF51E40E94408520E030E040EAAE
:101D20005BE30E9452872DEC3CEC4CEC5DE30C94A1
:101D3000738408950F931F938C01DC01ED91FC9146
:101D40000680F781E02D1995D801ED91FC91008472
:101D5000F185E02DC80119951F910F9108950895FF
:101D6000089508950895089508950895089508958B
:101D700008950895089508952F923F924F925F928B
:101D80006F927F928F929F92AF92BF92CF92DF928B
:101D9000EF92FF920F931F93DF93CF93CDB7DEB7F0
:101DA000A6970FB6F894DEBF0FBECDBF9EA38DA33E
:101DB000DC01D196ED91FC91D297A081B18114966E
:101DC0002D913C911597CF01F90119959C838B8337
:101DD00010E01A821982EDA1FEA1E45AFF4FFE83A2
:101DE000ED832DA13EA1265A3F4F38872F838DA129
:101DF0009EA1855A9F4F9A878987ADA1BEA1A35AFC
:101E0000BF4FBC87AB87EDA1FEA1E658FF4FFE8711
:101E1000ED872DA13EA12B593F4F388B2F878DA1E8
:101E20009EA187599F4F9A8B898BADA1BEA1A15AC4
:101E3000BF4FBC8BAB8BEDA1FEA1E359FF4FFE8BD7
:101E4000ED8B2DA13EA12F583F4F388F2F8B8DA1A9
:101E50009EA18B589F4F9A8F898FADA1BEA1A75885
:101E6000BF4FBC8FAB8FEDA1FEA1ED57FF4FFE8F93
:101E7000ED8F2DA13EA125583F4F38A32F8F8DA167
:101E80009EA181589F4F9AA389A3ADA1BEA1A25A3A
:101E9000BF4FBCA3ABA380C1ADA1BEA1D196ED91B4
:101EA000FC91D297A081B18116962D913C91179704
:101EB000CF01F9011995482FED81FE813081323033
:101EC000E1F1333030F4332371F0313009F05EC189
:101ED0001AC0343009F465C0343008F442C03530DB
:101EE00009F054C16CC0803D11F4E0E104C0813DB3
:101EF00009F04CC1E3E1ABA1BCA1EC93E1E0AD8101
:101F0000BE81EC9343C1ABA1BCA18C91803111F097
:101F1000833151F44D3D41F422E0ED81FE81208377
:101F2000AB89BC898C9332C1EBA1FCA11082AB8937
:101F3000BC891C92ED81FE811082403271F4AD812A
:101F4000BE818C918F5F8C93EF81F8854083A9854A
:101F5000BA854C93EB85FC8530C0AD81BE811C9267
:101F600015C1EB85FC859081EDA1FEA1E90FF11D66
:101F7000EB59FF4F40839F5FAB85BC859C93E98500
:101F8000FA852081AF81B8858C91840F8C93820F64
:101F90008083903209F0FAC03F5FED81FE8130838B
:101FA000F5C0E5E0AD81BE81EC93AF81B8858C9141
:101FB000841709F4EBC0ED81FE811082E7C0AD818A
:101FC000BE811C92E985FA858081841709F0DEC004
:101FD000AD85BE859C91933019F080E0973009F46F
:101FE00081E0EDA1FEA186A3AF85B8892D913D9139
:101FF0004D915C912287338744875587A989BA8997
:102000006D907D908D909C9066867786808A918A6F
:10201000AB89BC898C918031D1F4CA01B9012AE025
:1020200030E040E050E00E944F89EDA1FEA16287C0
:10203000738784879587C401B3010E944F89ADA13E
:10204000BEA11E966D937D938D939C935197ED89C0
:10205000FE8980819181A281B381EDA1FEA1828B55
:10206000938BA48BB58BEF89F88D80819181A281B0
:10207000B381EDA1FEA1868B978BA08FB18FE98DE7
:10208000FA8D80819181A281B381EDA1FEA1828F21
:10209000938FA48FB58FAB8DBC8D8C9184A3ED8D68
:1020A000FE8D80819181ADA1BEA193969C938E936C
:1020B0009297EF8DF8A180819181A281B381EDA1EA
:1020C000FEA186839783A087B187A9A1BAA1ED90CD
:1020D000FD900D911C91C801B70120E836E948E94F
:1020E00050E00E94AF89522E432E342E252E622FAF
:1020F000732F842F952F20E839E647E65FEF0E9483
:102100004F895B016C01AE0CBF1CC01ED11EC60105
:10211000B50120EA36E841E050E00E94AF89922EF6
:10212000832E742E652E622F732F842F952F20E619
:1021300039E74EEF5FEF0E944F897B018C01692DDB
:10214000782D872D962D20E63AEE40E050E00E9453
:102150004F89E60EF71E081F191FEA0CFB1C0C1D09
:102160001D1D652D742D832D922D20E83EEE46E336
:1021700050E00E944F89E60EF71E081F191FEDA1BF
:10218000FEA1E282F3820483158311E029813A8162
:102190002F5F3F4F3A83298389819A81AB81BC812C
:1021A0008A179B070CF478CE812FA6960FB6F89469
:1021B000DEBF0FBECDBFCF91DF911F910F91FF907A
:1021C000EF90DF90CF90BF90AF909F908F907F90D7
:1021D0006F905F904F903F902F900895DF93CF9333
:1021E000CDB7DEB7CF91DF91089508950895FC0132
:1021F0001092AF0D21E02093B00D87E08093B10DD8
:1022000038E03093B20D59E05093B30D6AE060931B
:10221000B40D46E04093C30D8EE896E09183808331
:10222000158A84E0868B378B208F85E0818F528FD3
:1022300082E0838F448F658F2187228723878AEEF0
:1022400090E1928B818B12820895089580E0089529
:10225000E82FF0E0E155F24FE081E530D9F1E630CA
:1022600070F4E23071F1E33028F4EE23D1F1E13083
:10227000B9F51BC0E33041F1E43091F528C0E830F6
:1022800089F0E93028F4E63041F1E73049F507C03C
:10229000EA3089F0EA3060F0EB3011F50FC02DE93B
:1022A0003CE021C02FE93CE01EC027EA3DE01BC016
:1022B00021EA3CE018C027EA3CE015C029EA3CE0EE
:1022C00012C027EC3CE00FC025EE3CE00CC02FE133
:1022D0003DE009C02DE33DE006C02BE63DE003C034
:1022E00008952DE73CE0C90108951F93209114093A
:1022F0002130E9F41092AF0D2093B00D82E080936D
:10230000B10D83E08093B20D84E08093B30D85E03E
:102310008093B40D87E08093B50D88E08093B60D6F
:1023200089E08093B70D8AE08093B80D41C02230D8
:10233000A9F41092AF0D81E08093B00D8BE08093F3
:10234000B10D97E09093B20D88E08093B30D89E0D2
:102350008093B40D8AE08093B50D15C02A30B1F496
:102360001092AF0D81E08093B00D86E08093B10DA7
:1023700097E09093B20D88E08093B30D89E080934D
:10238000B40D2093B50D9093C30D14C01092AF0DF2
:1023900081E08093B00D87E08093B10D88E0809359
:1023A000B20D89E08093B30D8AE08093B40D86E08E
:1023B0008093C30D1092AE0D10E00CC0812F48DF4A
:1023C000FC01A081B18114962D913C911597F901E2
:1023D00019951F5F8091C30D181780F380E01F913E
:1023E00008951F93182F8091AE0D32DFDC01ED911F
:1023F000FC910280F381E02D612F19951F910895C2
:102400001F93182F8091AE0D23DFDC01ED91FC911D
:102410000284F385E02D612F19951F910895809115
:10242000AE0D16DFFC01A081B18116962D913C9175
:102430001797F901199580E008958091AE0D08DF96
:10244000FC01A081B18118962D913C911997F90159
:10245000199580E00895CF92DF92EF92FF920F934B
:102460001F93CF93DF936C018B017A016091A508D4
:102470007091A6088091A7089091A8082BEE39ECDE
:1024800048E151E40E9452870E94AD85DC01CB01F6
:10249000482F6FE00E946E89813051F0813028F022
:1024A0008230A1F0833049F415C0A1E0B0E01DC036
:1024B000842F90E04F9734F04E51A1E0B0E0C1E09E
:1024C000D0E015C08EE1841B482FF7CF4E51AFEFFF
:1024D000BFEFF5CF842F90E0CD9714F04C5303C09D
:1024E0008CE3841B482FAFEFBFEFCFEFDFEFF60198
:1024F0008281F8018083F6018381F701808350E0B7
:10250000FA01EC5CFA4F80816AE0869FC0011124D9
:10251000892F990F990B8A9F90018B9F300D9A9F5D
:10252000300D1124F8018081820F8083E3E4F5E00F
:10253000E41BF50B8081869FC0011124892F990F20
:10254000990B8C9F90018D9F300D9C9F300D112415
:10255000F7018081820F8083DF91CF911F910F91CE
:10256000FF90EF90DF90CF9008950895089508951B
:10257000CF92DF92EF92FF920F931F93CF93DF934F
:102580006C018B017A016091F8087091F9088091D3
:10259000FA089091FB082BEE39EC48E151E40E94D7
:1025A000528720E030E040EF51E40E9473840E94A3
:1025B000AD85DC01CB01482F6FE00E946E89813030
:1025C00051F0813028F08230A1F0833049F415C0F9
:1025D000A1E0B0E01DC0842F90E04F9734F04E5141
:1025E000A1E0B0E0C1E0D0E015C08EE1841B482F2F
:1025F000F7CF4E51AFEFBFEFF5CF842F90E0CD97DF
:1026000014F04C5303C08CE3841B482FAFEFBFEF93
:10261000CFEFDFEFF6018281F8018083F60183813D
:10262000F701808350E0FA01EC5CFA4F80816CE1A5
:10263000869FC0011124892F990F990B8A9F9001C1
:102640008B9F300D9A9F300D1124F8018081820FED
:102650008083E3E4F5E0E41BF50B8081869FC001F5
:102660001124892F990F990B8C9F90018D9F300D0C
:102670009C9F300D1124F7018081820F8083DF91B0
:10268000CF911F910F91FF90EF90DF90CF90089521
:102690000895DC011092AF0D81E08093B00D87E0CA
:1026A0008093B10D88E08093B20D89E08093B30DE3
:1026B0008AE08093B40D86E08093C30D8EE296E0AD
:1026C00011969C938E9380E297E05A969C938E93FA
:1026D000599784E297E05C969C938E935B9784E095
:1026E0005D968C935D9790E005C0FD01E90FF11DAB
:1026F000958B9F5F5D968C915D979817B0F390E0F6
:1027000021E005C0FD01E90FF11D21879F5F5D9666
:102710008C915D979817B0F312961C9212971D96A4
:102720001C920895089580E0089580E00895DC01EA
:102730001092AF0D81E08093B00D87E08093B10DD2
:1027400088E08093B20D89E08093B30D8AE0809396
:10275000B40D86E08093C30D8EE196E011969C93B4
:102760008E9386E99AE092969C938E9391978CEF44
:1027700096E0D6969C938E93D5978EE097E0D89668
:102780009C938E93D79782E1D9968C93D99790E0BA
:1027900005C0FD01E90FF11D93A39F5FD9968C91B0
:1027A000D9979817B0F390E021E005C0FD01E90F3B
:1027B000F11D21879F5FD9968C91D9979817B0F317
:1027C00012961C9212975B961C920895089580E0D1
:1027D000089580E00895DC011092AF0D81E08093B0
:1027E000B00D87E08093B10D88E08093B20D89E051
:1027F0008093B30D8AE08093B40D86E08093C30D7F
:102800008EE096E011969C938E9381E69AE0549622
:102810009C938E93539784EF96E05A969C938E9355
:10282000599788EF96E05C969C938E935B9784E033
:102830005D968C935D9790E005C0FD01E90FF11D59
:10284000958B9F5F5D968C915D979817B0F390E0A4
:1028500021E005C0FD01E90FF11D21879F5F5D9615
:102860008C915D979817B0F312961C9212971D9653
:102870001C920895089580E0089580E00895DC0199
:102880001092AF0D81E08093B00D87E08093B10D81
:1028900088E08093B20D89E08093B30D8AE0809345
:1028A000B40D86E08093C30D8EEF95E011969C9356
:1028B0008E9384EC99E05C969C938E935B978CED61
:1028C00096E09A969C938E93999788EE96E09C96C4
:1028D0009C938E939B978CE09D968C939D9790E014
:1028E00005C0FD01E90FF11D958F9F5F9D968C91AD
:1028F0009D979817B0F390E021E005C0FD01E90F26
:10290000F11D21879F5F9D968C919D979817B0F33D
:1029100012961C92129755961C920895089580E085
:10292000089580E00895DC011092AF0D81E080935E
:10293000B00D87E08093B10D88E08093B20D89E0FF
:102940008093B30D8AE08093B40D86E08093C30D2D
:102950008EEE95E011969C938E9386EB96E0D8963A
:102960009C938E93D79789EC96E0DA969C938E93FE
:10297000D99783E1DB968C93DB9790E005C0FD014E
:10298000E90FF11D94A39F5FDB968C91DB9798175D
:10299000B0F390E021E005C0FD01E90FF11D2187B2
:1029A0009F5FDB968C91DB979817B0F312961C9281
:1029B00012975C961C920895089580E0089580E037
:1029C00008950F931F938C0184E898E00E9404708F
:1029D00087EE95E160E00E94D46AD801ED91FC9108
:1029E0000190F081E02DC80119951F910F91089574
:1029F00084E898E00E94047087EE95E160E00E9410
:102A0000D46A8091AE0D24DCDC01ED91FC91019043
:102A1000F081E02D19958091AE0D1ADCDC01ED916D
:102A2000FC910084F185E02D19958091AE0D10DCAC
:102A3000DC01ED91FC910680F781E02D199580E095
:102A40000895982F882319F41092AE0D0BC0181614
:102A500024F08091AE0D8823B1F18091AE0D890FE5
:102A60008093AE0D9091AE0D8091C30D981720F01C
:102A700091509093AE0D27C084E898E00E940470B6
:102A800087EE95E160E00E94D46A8091AE0DE0DBB4
:102A9000DC01ED91FC910190F081E02D1995809180
:102AA000AE0DD6DBDC01ED91FC910084F185E02DCB
:102AB00019958091AE0DCCDBDC01ED91FC91068087
:102AC000F781E02D199580E00895643029F0663093
:102AD00039F0633039F402C081E001C08FEFB1CF2B
:102AE00080E0AFCF0895643029F0663039F063306C
:102AF00039F402C081E001C08FEFA3CF80E0A1CF05
:102B00000895643029F0663039F0633039F402C03A
:102B100081E001C08FEF95CF80E093CF08956430BE
:102B200099F0653018F46330A9F410C0653019F0DD
:102B3000663081F40DC090E08091690C882309F41F
:102B400091E09093690C089581E001C08FEF79CFF7
:102B500080E077CF08952F923F924F925F926F92CD
:102B60007F928F929F92AF92BF92CF92DF92EF921D
:102B7000FF920F931F93DF93CF9300D00F92CDB7A7
:102B8000DEB71C012A013B01C901B801A301920172
:102B90000E94728423E333E34AE852E40E9452879E
:102BA00069837A838B839C83C301B20123E333E37C
:102BB00045E652E40E9440850E943D852B013C0180
:102BC000C501B401A70196010E94728423E333E397
:102BD0004AE852E40E945287A30192010E94528760
:102BE0007B018C0129813A814B815C810E94E684C2
:102BF00020E030E044E353E40E9452872BED3FE0B5
:102C000049E450E40E944085F10164877587868716
:102C1000978769817A818B819C819B01AC010E949D
:102C200052875B016C01C801B701A80197010E949E
:102C300052879B01AC01C601B5010E9473840E94BA
:102C40000B8822E03BE249EC54E40E945287F101F8
:102C500060877187828793870F900F900F900F90F6
:102C6000CF91DF911F910F91FF90EF90DF90CF9068
:102C7000BF90AF909F908F907F906F905F904F909C
:102C80003F902F9008950F931F938C0180E090E068
:102C9000A4EBB2E4F80180839183A283B38384839D
:102CA0009583A683B78380E090E0A0E0B0E0848BBA
:102CB000958BA68BB78B83E998E06AE570E00E945C
:102CC000495186E998E06AE570E00E9449510E9406
:102CD000C377F801608F718F828F938F1F910F914F
:102CE00008958F929F92AF92BF92CF92DF92EF9210
:102CF000FF920F931F93CF93DF93EC014091060B4C
:102D00005091070B6091080B7091090B0091180905
:102D10001091190920911A0930911B09C0900A0BD2
:102D2000D0900B0BE0900C0BF0900D0B80901C09D9
:102D300090901D09A0901E09B0901F090CDFCC8453
:102D4000DD84EE84FF840AC0C701B60120E030E0D4
:102D500044EB53E40E9473846B017C01C701B6010C
:102D600020E030E040E050E00E943985181664F71A
:102D7000C701B60120E030E040E050E00E94398514
:102D800088235CF40F2EF0E0CF2EF0E0DF2EF0E091
:102D9000EF2EF0E0FF2EF02D14C0C701B60120E0A9
:102DA00030E044EB53E40E944787181654F40F2E8A
:102DB000F0E0CF2EF0E0DF2EF4EBEF2EF3E4FF2E69
:102DC000F02DC882D982EA82FB8200D00F920DB723
:102DD0001EB70F5F1F4FC701B6010E94A88524EBE5
:102DE00030E040E050E0F801208331834283538398
:102DF00020E030E040E050E0E8E6EE2EE1E0FE2E9C
:102E0000012D112DAA24BB2465010E942B840E9450
:102E1000DB85688379838A839B830F900F900F9063
:102E20000F900E94A8859B01AC0183E998E0B9014D
:102E30000E944951609120097091210980912209D5
:102E40009091230920910E0B30910F0B4091100BA4
:102E50005091110B0E947284288539854A855B85C3
:102E60000E9440850E94118520E030E044E353E455
:102E70000E9452872BED3FE049E450E40E944085D8
:102E8000688B798B8A8B9B8BEC80FD800E811F81F8
:102E9000C801B70120E030E040E050E00E943985F1
:102EA00088235CF40F2EF0E0EF2EF0E0FF2EF0E030
:102EB0000F2FF0E01F2FF02D14C0C801B70120E044
:102EC00030E044EB52E40E944787181654F40F2E6A
:102ED000F0E0EF2EF0E0FF2EF4EB0F2FF2E41F2FC7
:102EE000F02D60E070E084EB92E4A80197010E946D
:102EF000728420E030E048E452E40E9473847B0155
:102F00008C0120E030E040E752E40E9439858823BC
:102F10005CF40F2EF0E0EF2EF0E0FF2EF0E70F2F25
:102F2000F2E41F2FF02D14C0C801B70120E030E0FB
:102F30004CE053E40E944787181654F40F2EF0E03B
:102F4000EF2EF0E0FF2EFCE00F2FF3E41F2FF02D0B
:102F5000EC82FD820E831F83C801B7010E94A88501
:102F60009B01AC0186E998E0B9010E944951DF91CB
:102F7000CF911F910F91FF90EF90DF90CF90BF9076
:102F8000AF909F908F900895EF92FF920F931F93B1
:102F9000CF93DF93EC01CB01BA012B813C814D81B2
:102FA0005E810E9473847B018C0120E030E040E070
:102FB00050E00E94398588234CF480E090E0A0E046
:102FC000B0E08B839C83AD83BE8304C0EB82FC8224
:102FD0000D831E838A81282F30E025563040EFA9CB
:102FE000F8ADE20FF31F6081633661F4E9ADFAAD2D
:102FF000E20FF31F8081833629F46B817C818D8100
:103000009E811EC070E0E9ADFAADE20FF31F208192
:10301000621B7109882777FD8095982F0E94DB85B8
:103020009B01AC0160E070E080E291E40E94B58712
:103030009B01AC016B817C818D819E810E944085CA
:103040000E94A88578876F8381E08D8FDF91CF9173
:103050001F910F91FF90EF900895EF92FF920F93C1
:103060001F93CF93DF93EC01CB01BA012B813C81FD
:103070004D815E810E9473847B018C0120E030E0F1
:1030800040E050E00E94398588234CF480E090E0D5
:10309000A0E0B0E08B839C83AD83BE8304C0EB8251
:1030A000FC820D831E838A81282F30E02556304014
:1030B000E9A5FAA5E20FF31F6081633661F4EBA581
:1030C000FCA5E20FF31F8081833629F46B817C819C
:1030D0008D819E811EC070E0EBA5FCA5E20FF31F61
:1030E0002081621B7109882777FD8095982F0E94A7
:1030F000DB859B01AC0160E070E080E291E40E941E
:10310000B5879B01AC016B817C818D819E810E9482
:1031100040850E94A88578876F8381E08E8BDF9140
:10312000CF911F910F91FF90EF900895EF92FF9232
:103130000F931F93CF93DF93EC01CB01BA012B8147
:103140003C814D815E810E9473847B018C0120E073
:1031500030E040E050E00E94398588234CF480E064
:1031600090E0A0E0B0E08B839C83AD83BE8304C07D
:10317000EB82FC820D831E838A81282F30E0255646
:103180003040E98DFA8DE20FF31F6081633661F400
:10319000EB8DFC8DE20FF31F8081833629F46B8168
:1031A0007C818D819E811EC070E0EB8DFC8DE20FD5
:1031B000F31F2081621B7109882777FD8095982F66
:1031C0000E94DB859B01AC0160E070E080E291E44D
:1031D0000E94B5879B01AC016B817C818D819E81B2
:1031E0000E9440850E94A88578876F8381E08E8742
:1031F000DF91CF911F910F91FF90EF900895EF9283
:10320000FF920F931F93CF93DF93EC01CB01BA0191
:103210002B813C814D815E810E9473847B018C01F6
:1032200020E030E040E050E00E94398588234CF4F3
:1032300080E090E0A0E0B0E08B839C83AD83BE8310
:1032400004C0EB82FC820D831E838A81282F30E02C
:1032500025563040EDA9FEA9E20FF31F60816336C9
:1032600061F4EFA9F8ADE20FF31F8081833629F4F2
:103270006B817C818D819E811EC070E0EFA9F8ADCD
:10328000E20FF31F2081621B7109882777FD80956B
:10329000982F0E94DB859B01AC0160E070E080E22A
:1032A00091E40E94B5879B01AC016B817C818D818B
:1032B0009E810E9440850E94A88578876F8381E067
:1032C0008C8FDF91CF911F910F91FF90EF90089518
:1032D000EF92FF920F931F93CF93DF93EC01CB01FB
:1032E000BA012B813C814D815E810E9473847B01F8
:1032F0008C0120E030E040E050E00E9439858823D6
:103300004CF480E090E0A0E0B0E08B839C83AD8340
:10331000BE8304C0EB82FC820D831E838A81282F2A
:1033200030E025563040E98DFA8DE20FF31F6081C1
:10333000633661F4EB8DFC8DE20FF31F80818336E1
:1033400029F46B817C818D819E811EC070E0EB8DA4
:10335000FC8DE20FF31F2081621B7109882777FD26
:103360008095982F0E94DB859B01AC0160E070E0A6
:1033700080E291E40E94B5879B01AC016B817C8166
:103380008D819E810E9440850E94A88578876F83E9
:1033900081E08E87DF91CF911F910F91FF90EF9089
:1033A00008951F93CF93DF9384E898E00E94047000
:1033B00010E0C4E8D8E0FE0121966491662379F01C
:1033C0006A3041F41F5F84E898E060E0412F0E947A
:1033D000916FF1CF84E898E00E940C75ECCFDF91FB
:1033E000CF911F910895FC014281242F2150273C49
:1033F000A8F4848D453630F04556481B84E898E0A3
:103400006CE005C0281B84E898E06CE0422F0E9425
:10341000916F84E898E060E20C940C750895FC01CB
:103420008281482F4150433660F4848D481B84E8E4
:1034300098E06CE00E94916F84E898E06EE30C9451
:103440000C75482F4556433660F4848D481B84E83C
:1034500098E06CE00E94916F84E898E063E20C943D
:103460000C7508951F93CF93DF9384E898E00E9432
:103470000470C4E8D8E010E0FE0121966491662350
:1034800079F06A3041F41F5F84E898E060E0412FF2
:103490000E94916FF1CF84E898E00E940C75ECCF08
:1034A000DF91CF911F910895FC014281242F21507B
:1034B000273CA8F48589453630F04556481B84E8FA
:1034C00098E06CE005C0281B84E898E06CE0422F8F
:1034D0000E94916F84E898E060E20C940C75089566
:1034E000FC018281482F4150433660F48589481B96
:1034F00084E898E06CE00E94916F84E898E06EE3C5
:103500000C940C75482F4556433660F48589481B4A
:1035100084E898E06CE00E94916F84E898E063E2B0
:103520000C940C7508951F93CF93DF9384E898E073
:103530000E94047010E0C4E8D8E0FE012196649176
:10354000662379F06A3041F41F5F84E898E060E018
:10355000412F0E94916FF1CF84E898E00E940C7592
:10356000ECCFDF91CF911F910895FC014281242F70
:103570002150273CA8F48585453630F04556481B38
:1035800084E898E06CE005C0281B84E898E06CE0D3
:10359000422F0E94916F84E898E060E20C940C75D1
:1035A0000895FC018281482F4150433660F485859F
:1035B000481B84E898E06CE00E94916F84E898E0F2
:1035C0006EE30C940C75482F4556433660F48585A0
:1035D000481B84E898E06CE00E94916F84E898E0D2
:1035E00063E20C940C7508951F93CF93DF9384E8E6
:1035F00098E00E94047010E0C4E8D8E0FE01219633
:103600006491662379F06A3041F41F5F84E898E0A2
:1036100060E0412F0E94916FF1CF84E898E00E9412
:103620000C75ECCFDF91CF911F910895FC01428181
:10363000242F2150273CA8F4838D453630F0455681
:10364000481B84E898E06CE005C0281B84E898E0FB
:103650006CE0422F0E94916F84E898E060E20C9445
:103660000C750895FC018281482F4150433660F467
:10367000838D481B84E898E06CE00E94916F84E899
:1036800098E06EE30C940C75482F4556433660F471
:10369000838D481B84E898E06CE00E94916F84E879
:1036A00098E063E20C940C7508951F93CF93DF9319
:1036B00084E898E00E94047010E0C4E8D8E0FE01BD
:1036C00021966491662379F06A3041F41F5F84E8A3
:1036D00098E060E0412F0E94916FF1CF84E898E07C
:1036E0000E940C75ECCFDF91CF911F910895FC01E2
:1036F0004281242F2150273CA8F48585453630F09F
:103700004556481B84E898E06CE005C0281B84E817
:1037100098E06CE0422F0E94916F84E898E060E2AC
:103720000C940C750895FC018281482F415043365A
:1037300060F48585481B84E898E06CE00E94916FF6
:1037400084E898E06EE30C940C75482F4556433698
:1037500060F48585481B84E898E06CE00E94916FD6
:1037600084E898E063E20C940C7508951F93CF935E
:10377000DF9384E898E00E94047010E0C4E8D8E089
:10378000FE0121966491662379F06A3041F41F5F4F
:1037900084E898E060E0412F0E94916FF1CF84E8C7
:1037A00098E00E940C75ECCFDF91CF911F910895A6
:1037B000FC019281892F8150873C38F5E92FF0E098
:1037C000953618F0E556F04001C03197CF0163E01F
:1037D00070E00E947A8901969C01220F331F280F06
:1037E000391F220F331F2450CF0163E070E00E9485
:1037F0007A89462F4F5F84E898E0622F0E94916F8C
:1038000084E898E060E20C940C750895DC0112964F
:10381000EC918E2F8150833608F5F0E03197CF017F
:1038200063E070E00E947A8901969C01220F331FA9
:10383000280F391F220F331F2450CF0163E070E09F
:103840000E947A89462F4F5F84E898E0622F0E9499
:10385000916F84E898E06EE30C940C758E2F85567A
:10386000833610F5F0E0E556F040CF0163E070E0FC
:103870000E947A8901969C01220F331F280F391F5D
:10388000220F331F2450CF0163E070E00E947A8939
:10389000462F4F5F84E898E0622F0E94916F84E882
:1038A00098E063E20C940C7508951F93CF93DF9317
:1038B000EB0184E898E00E94047010E0FE0121967C
:1038C0006491662379F06A3041F41F5F84E898E0E0
:1038D00060E0412F0E94916FF1CF84E898E00E9450
:1038E0000C75ECCFDF91CF911F910895FC0184817D
:1038F00090E0895C904082309105C9F08330910559
:103900002CF4009761F0019711F50DC084309105FA
:10391000B1F0843091057CF00597C9F414C0CF0153
:103920006DEF70E10FC0CF016DE371E10BC0CF010E
:103930006DE771E107C0CF0160EC71E103C0CF0119
:1039400061E072E1B2CFCF016FE472E1AECF0895D2
:10395000FC0144814150473C60F48581481B84E868
:1039600098E060E00E94916F84E898E060E20C9437
:103970000C750895FC0144814150433660F4858103
:10398000481B84E898E060E00E94916F84E898E02A
:103990006EE30C940C750895FF920F931F93CF93D1
:1039A000DF93EC0184E898E00E940470FF2410E0AB
:1039B00026C0141740F0812F841B482F84E898E01C
:1039C00061E00E94916F90E001C0902FEA81FB813D
:1039D000EF0DF11DF3946491662381F06A3071F06C
:1039E0008D811817E8F01630D8F4092F0F5F923147
:1039F00060F784E898E00E940C75E7CF1F5F4D8167
:103A0000842F90E00796212F30E0821793078CF6E1
:103A1000CE01B0DFDF91CF911F910F91FF900895FC
:103A2000092FD3CFB9CF08950F931F938C01FC01B9
:103A3000A1A9B2A9ED91FC9111970284F385E02D23
:103A4000CD011995F80181A992A960E072E00E9468
:103A5000E17FF80181A992A969E172E00E94E17F0A
:103A6000F80181A992A96BE272E00E94E17FF8015E
:103A700081A992A96BE372E00E94E17FF80181A91C
:103A800092A96BE472E00E94E17FF80114AA13AAE4
:103A9000005A1F4FF80111921192119211928F0149
:103AA00010820456104080EB94E0A0E0B0E0F801F2
:103AB00081A792A7A3A7B4A71F910F910895CF92B2
:103AC000DF92EF92FF921F93CF93DF93EC018A81F5
:103AD000182F1150173C08F05EC0853628F0CB80B7
:103AE000DC80ED80FE8014568C8D412F481B87EEC4
:103AF00095E16EE00E94916F412F50E0E9ADFAAD83
:103B0000E40FF51F10811336D9F4EFA9F8ADE40FD7
:103B1000F51F80818336A1F4C701B60120E030E0B3
:103B200040E050E00E94478718162CF487EE95E19C
:103B30006BE572E02EC087EE95E16FE572E029C07B
:103B4000EFA9F8ADE40FF51F608170E07095619505
:103B50007F4F882777FD8095982F0E94DB859B01FA
:103B6000AC0160E070E080E291E40E94B5879B01C7
:103B7000AC01C701B6010E945287AB01BC0187EEC0
:103B800095E1212F30E00E94718087EE95E163E698
:103B900072E00E94E17FDF91CF911F91FF90EF9043
:103BA000DF90CF9008950F931F938C01FC018281C9
:103BB00064E60E946E89E90FF11DE3A1F0E0EE0FCB
:103BC000FF1FEE0FFF1FE459F54F80819181A28105
:103BD000B381F80183839483A583B683C8016FDF23
:103BE000F801128281E0858F1F910F910895CF9285
:103BF000DF92EF92FF921F93CF93DF93EC018A81C4
:103C0000182F1150173C08F05EC0853628F0CB8085
:103C1000DC80ED80FE8014568D89412F481B87EE95
:103C200095E16EE00E94916F412F50E0EBA5FCA55D
:103C3000E40FF51F10811336D9F4E9A5FAA5E40FB6
:103C4000F51F80818336A1F4C701B60120E030E082
:103C500040E050E00E94478718162CF487EE95E16B
:103C60006BE572E02EC087EE95E16FE572E029C04A
:103C7000E9A5FAA5E40FF51F608170E070956195E4
:103C80007F4F882777FD8095982F0E94DB859B01C9
:103C9000AC0160E070E080E291E40E94B5879B0196
:103CA000AC01C701B6010E945287AB01BC0187EE8F
:103CB00095E1212F30E00E94718087EE95E163E667
:103CC00072E00E94E17FDF91CF911F91FF90EF9012
:103CD000DF90CF9008950F931F938C01FC01828198
:103CE00064E60E946E89E90FF11DE48DF0E0EE0FAD
:103CF000FF1FEE0FFF1FEA56F64F80819181A281D0
:103D0000B381F80183839483A583B683C8016FDFF1
:103D1000F801128281E0868B1F910F910895CF9256
:103D2000DF92EF92FF921F93CF93DF93EC018A8192
:103D3000182F1150173C08F05EC0853628F0CB8054
:103D4000DC80ED80FE8014568D85412F481B87EE68
:103D500095E16EE00E94916F412F50E0EB8DFC8D5C
:103D6000E40FF51F10811336D9F4E98DFA8DE40FB5
:103D7000F51F80818336A1F4C701B60120E030E051
:103D800040E050E00E94478718162CF487EE95E13A
:103D90006BE572E02EC087EE95E16FE572E029C019
:103DA000E98DFA8DE40FF51F608170E070956195E3
:103DB0007F4F882777FD8095982F0E94DB859B0198
:103DC000AC0160E070E080E291E40E94B5879B0165
:103DD000AC01C701B6010E945287AB01BC0187EE5E
:103DE00095E1212F30E00E94718087EE95E163E636
:103DF00072E00E94E17FDF91CF911F91FF90EF90E1
:103E0000DF90CF9008950F931F938C01FC01828166
:103E100064E60E946E89E90FF11DE489F0E0EE0F7F
:103E2000FF1FEE0FFF1FEA57F64F80819181A2819D
:103E3000B381F80183839483A583B683C8016FDFC0
:103E4000F801128281E086871F910F910895CF9229
:103E5000DF92EF92FF921F93CF93DF93EC018A8161
:103E6000182F1150173C08F05EC0853628F0CB8023
:103E7000DC80ED80FE8014568B8D412F481B87EE31
:103E800095E16EE00E94916F412F50E0EFA9F8ADEF
:103E9000E40FF51F10811336D9F4EDA9FEA9E40F44
:103EA000F51F80818336A1F4C701B60120E030E020
:103EB00040E050E00E94478718162CF487EE95E109
:103EC0006BE572E02EC087EE95E16FE572E029C0E8
:103ED000EDA9FEA9E40FF51F608170E07095619572
:103EE0007F4F882777FD8095982F0E94DB859B0167
:103EF000AC0160E070E080E291E40E94B5879B0134
:103F0000AC01C701B6010E945287AB01BC0187EE2C
:103F100095E1212F30E00E94718087EE95E163E604
:103F200072E00E94E17FDF91CF911F91FF90EF90AF
:103F3000DF90CF9008950F931F938C01FC01828135
:103F400064E60E946E89E90FF11DE2A1F0E0EE0F38
:103F5000FF1FEE0FFF1FE25CF64F80819181A2816F
:103F6000B381F80183839483A583B683C8016FDF8F
:103F7000F801128281E0848F1F910F910895CF92F2
:103F8000DF92EF92FF921F93CF93DF93EC018A8130
:103F9000182F1150173C08F05EC0853628F0CB80F2
:103FA000DC80ED80FE8014568D85412F481B87EE06
:103FB00095E16EE00E94916F412F50E0EB8DFC8DFA
:103FC000E40FF51F10811336D9F4E98DFA8DE40F53
:103FD000F51F80818336A1F4C701B60120E030E0EF
:103FE00040E050E00E94478718162CF487EE95E1D8
:103FF0006BE572E02EC087EE95E16FE572E029C0B7
:10400000E98DFA8DE40FF51F608170E07095619580
:104010007F4F882777FD8095982F0E94DB859B0135
:10402000AC0160E070E080E291E40E94B5879B0102
:10403000AC01C701B6010E945287AB01BC0187EEFB
:1040400095E1212F30E00E94718087EE95E163E6D3
:1040500072E00E94E17FDF91CF911F91FF90EF907E
:10406000DF90CF9008950F931F938C01FC01828104
:1040700064E60E946E89E90FF11DE489F0E0EE0F1D
:10408000FF1FEE0FFF1FE850F74F86A997A9A0ADBD
:10409000B1ADF80183839483A583B683C8016FDF34
:1040A000F801128281E086871F910F9108952F9267
:1040B0003F924F925F926F927F928F929F92AF92B8
:1040C000BF92CF92DF92EF92FF920F931F93DF93F5
:1040D000CF93CDB7DEB728970FB6F894DEBF0FBEEB
:1040E000CDBF7C0184E898E00E940470DD2400E0EC
:1040F0003EC0D701DB968C91081708F044C0041726
:1041000040F0B02FB41B4B2F84E898E060E00E9491
:10411000916FD39490E002C0D394912FED2DE15094
:1041200080911409813029F4F0E0E453F74F649151
:104130000AC0F0E08A3021F4E453F74F649103C0E1
:10414000E453F74F6491662389F06A3079F0F70100
:10415000848D081708F401C1192F1F5F9C3008F0E7
:10416000FBC084E898E00E940C75D6CF0F5FD701A2
:104170005C964C91842F90E00796202F30E08217B8
:1041800093070CF0B6CFCC247DE2772E2E01089455
:10419000411C511C66E4362E5FE4652E4EE4242E4D
:1041A00084E898E06EE04C2D0E94916FF701D48C6A
:1041B000DC0C83ADD81608F0D2C00D2D10E0F8014C
:1041C000EE0FFF1FEE0FFF1FE854F54F6081718166
:1041D0008281938120E030E040E85FE30E943985EE
:1041E000882309F099C0D70112968C91129790E01C
:1041F000855690400817190739F413966D917D91F3
:104200008D919C9116971AC00E0D1F1DD801949682
:10421000EC91F0E0EE0FFF1FEE0FFF1FE459F54F9A
:1042200080809180A280B380C501B40120E030E09D
:1042300040E05FE30E9473840E9416860E94AD8571
:104240009B01AC010D2D10E0D701D996ED91FC91A9
:10425000DA97E00FF11F8081833611F5D796ED9143
:10426000FC91D897E00FF11F80818336C9F42115A6
:1042700031054105510521F029826A8212E004C00E
:1042800039823A826B8213E01150F201E10FF11D85
:1042900084E898E060810E940C751123A9F751C051
:1042A00087EE95E16EE04C2D0E94916FD701D79675
:1042B000ED91FC91D897E00FF11F608170E070954F
:1042C00061957F4F882777FD8095982F0E94DB8529
:1042D0009B01AC0160E070E080E291E40E94B58750
:1042E0009B01AC01C501B4010E945287AB01BC0126
:1042F000D701D996ED91FC91DA97E00FF11F20815B
:1043000087EE95E130E00E94718087EE95E163E6EB
:1043100072E00E94E17F1AC079827A827B827C827D
:1043200084E898E060E20E940C7514E01150F201FC
:10433000E10FF11D84E898E060810E940C75112363
:10434000A9F784E898E060E20E940C75C394B8E095
:10435000CB1609F025CF03C0912F192FDDCE28965B
:104360000FB6F894DEBF0FBECDBFCF91DF911F9186
:104370000F91FF90EF90DF90CF90BF90AF909F9004
:104380008F907F906F905F904F903F902F90089507
:10439000FC01662311F412828ADE80E0089587CE44
:1043A00008953F924F925F926F927F928F929F9269
:1043B000AF92BF92CF92DF92EF92FF920F931F9333
:1043C000DF93CF93CDB7DEB728970FB6F894DEBF53
:1043D0000FBECDBF7C0184E898E00E940470DD240C
:1043E00000E02FC0D7019D968C910817A0F5041707
:1043F00040F0B02FB41B4B2F84E898E060E00E949F
:10440000916F90E001C0912FD7015B96ED91FC91E7
:104410005C97ED0DF11DD3946491662389F06A30A9
:1044200079F055968C91081708F4F0C0192F1F5F8A
:104430009C3008F0EAC084E898E00E940C75E3CF55
:104440000F5FF7014589842F90E00796202F30E019
:10445000821793073CF6DD248DE2C82E3E010894B6
:10446000611C711C06E4402E1FE4512EBEE43B2E5D
:1044700084E898E06EE04D2D0E94916FD70155962B
:104480001C9155971D0D9D968C91181708F0C0C072
:10449000A12FB0E0FD01E052F64F8081882309F49E
:1044A00094C0F701828190E085569040A817B90723
:1044B00029F4638174818581968119C0AE0DBF1D79
:1044C0005D96EC91F0E0EE0FFF1FEE0FFF1FEA5636
:1044D000F64F80809180A280B380C501B40120E0B6
:1044E00030E040E05FE30E9473840E9416860E94E1
:1044F000AD859B01AC01012F10E0D7019B96ED919A
:10450000FC919C97E00FF11F8081833611F59996FD
:10451000ED91FC919A97E00FF11F80818336C9F4E9
:10452000211531054105510521F039825A8212E0E9
:1045300004C049824A825B8213E01150F301E10F0B
:10454000F11D84E898E060810E940C751123A9F7A1
:1045500051C087EE95E16EE04D2D0E94916FD7011D
:104560009996ED91FC919A97E00FF11F608170E0B0
:10457000709561957F4F882777FD8095982F0E94D1
:10458000DB859B01AC0160E070E080E291E40E9479
:10459000B5879B01AC01C501B4010E945287AB01F4
:1045A000BC01D7019B96ED91FC919C97E00FF11F08
:1045B000208187EE95E130E00E94718087EE95E1E1
:1045C00063E672E00E94E17F1AC0C982CA82CB8290
:1045D000CC8284E898E060E20E940C7514E01150EF
:1045E000F301E10FF11D84E898E060810E940C75F1
:1045F0001123A9F784E898E060E20E940C75D39437
:10460000B8E0DB1609F034CF03C0912F192FFBCE91
:1046100028960FB6F894DEBF0FBECDBFCF91DF91C5
:104620001F910F91FF90EF90DF90CF90BF90AF90D0
:104630009F908F907F906F905F904F903F900895E4
:10464000FC01662311F41282ACDE80E00895A9CE4D
:1046500008953F924F925F926F927F928F929F92B6
:10466000AF92BF92CF92DF92EF92FF920F931F9380
:10467000DF93CF93CDB7DEB728970FB6F894DEBFA0
:104680000FBECDBF7C0184E898E00E940470DD2459
:1046900000E02FC0D7015D968C910817A0F5041794
:1046A00040F0B02FB41B4B2F84E898E060E00E94EC
:1046B000916F90E001C0912FD7015396ED91FC913D
:1046C0005497ED0DF11DD3946491662389F06A30FF
:1046D00079F01D968C91081708F4F0C0192F1F5F10
:1046E0009C3008F0EAC084E898E00E940C75E3CFA3
:1046F0000F5FF7014585842F90E00796202F30E06B
:10470000821793073CF6DD245DE2C52E3E01089436
:10471000611C711C46E4442E3FE4532E2EE4322EDD
:1047200084E898E06EE04D2D0E94916FD7011D96B0
:104730001C911D971D0D5D968C91181708F0C0C037
:10474000A12FB0E0FD01E452F64F8081882309F4E7
:1047500094C0F701828190E085569040A817B90770
:1047600029F4638174818581968119C0AE0DBF1DC6
:104770005596EC91F0E0EE0FFF1FEE0FFF1FEA578A
:10478000F64F80809180A280B380C501B40120E003
:1047900030E040E05FE30E9473840E9416860E942E
:1047A000AD859B01AC01012F10E0D7015B96ED9127
:1047B000FC915C97E00FF11F8081833611F55996CB
:1047C000ED91FC915A97E00FF11F80818336C9F477
:1047D000211531054105510521F039825A8212E037
:1047E00004C049824A825B8213E01150F301E10F59
:1047F000F11D84E898E060810E940C751123A9F7EF
:1048000051C087EE95E16EE04D2D0E94916FD7016A
:104810005996ED91FC915A97E00FF11F608170E07D
:10482000709561957F4F882777FD8095982F0E941E
:10483000DB859B01AC0160E070E080E291E40E94C6
:10484000B5879B01AC01C501B4010E945287AB0141
:10485000BC01D7015B96ED91FC915C97E00FF11FD5
:10486000208187EE95E130E00E94718087EE95E12E
:1048700063E672E00E94E17F1AC0C982CA82CB82DD
:10488000CC8284E898E060E20E940C7514E011503C
:10489000F301E10FF11D84E898E060810E940C753E
:1048A0001123A9F784E898E060E20E940C75D39484
:1048B000B8E0DB1609F034CF03C0912F192FFBCEDF
:1048C00028960FB6F894DEBF0FBECDBFCF91DF9113
:1048D0001F910F91FF90EF90DF90CF90BF90AF901E
:1048E0009F908F907F906F905F904F903F90089532
:1048F000FC01662311F41282ACDE80E00895A9CE9B
:1049000008953F924F925F926F927F928F929F9203
:10491000AF92BF92CF92DF92EF92FF920F931F93CD
:10492000DF93CF93CDB7DEB728970FB6F894DEBFED
:104930000FBECDBF7C0184E898E00E940470DD24A6
:1049400000E02FC0D701D9968C910817A0F5041765
:1049500040F0B02FB41B4B2F84E898E060E00E9439
:10496000916F90E001C0912FD7019196ED91FC914C
:104970009297ED0DF11DD3946491662389F06A300E
:1049800079F05B968C91081708F4F0C0192F1F5F1F
:104990009C3008F0EAC084E898E00E940C75E3CFF0
:1049A0000F5FF701438D842F90E00796202F30E0B2
:1049B000821793073CF6DD24ADE2CA2E3E0108942F
:1049C000611C711CF6E44F2EEFE45E2E7EE4372E60
:1049D00084E898E06EE04D2D0E94916FD7015B96C0
:1049E0001C915B971D0DD9968C91181708F0C0C0CB
:1049F000A12FB0E0FD01E653F64F8081882309F432
:104A000094C0F701828190E085569040A817B907BD
:104A100029F4638174818581968119C0AE0DBF1D13
:104A20009396EC91F0E0EE0FFF1FEE0FFF1FE25C9C
:104A3000F64F80809180A280B380C501B40120E050
:104A400030E040E05FE30E9473840E9416860E947B
:104A5000AD859B01AC01012F10E0D701D796ED91F8
:104A6000FC91D897E00FF11F8081833611F5D59620
:104A7000ED91FC91D697E00FF11F80818336C9F448
:104A8000211531054105510521F039825A8212E084
:104A900004C049824A825B8213E01150F301E10FA6
:104AA000F11D84E898E060810E940C751123A9F73C
:104AB00051C087EE95E16EE04D2D0E94916FD701B8
:104AC000D596ED91FC91D697E00FF11F608170E0D3
:104AD000709561957F4F882777FD8095982F0E946C
:104AE000DB859B01AC0160E070E080E291E40E9414
:104AF000B5879B01AC01C501B4010E945287AB018F
:104B0000BC01D701D796ED91FC91D897E00FF11F2A
:104B1000208187EE95E130E00E94718087EE95E17B
:104B200063E672E00E94E17F1AC0C982CA82CB822A
:104B3000CC8284E898E060E20E940C7514E0115089
:104B4000F301E10FF11D84E898E060810E940C758B
:104B50001123A9F784E898E060E20E940C75D394D1
:104B6000B8E0DB1609F034CF03C0912F192FFBCE2C
:104B700028960FB6F894DEBF0FBECDBFCF91DF9160
:104B80001F910F91FF90EF90DF90CF90BF90AF906B
:104B90009F908F907F906F905F904F903F9008957F
:104BA000FC01662311F41282ACDE80E00895A9CEE8
:104BB00008953F924F925F926F927F928F929F9251
:104BC000AF92BF92CF92DF92EF92FF920F931F931B
:104BD000DF93CF93CDB7DEB728970FB6F894DEBF3B
:104BE0000FBECDBF7C0184E898E00E940470DD24F4
:104BF00000E03EC0D7015D968C91081708F044C0D4
:104C0000041740F0B02FB41B4B2F84E898E060E00D
:104C10000E94916FD39490E002C0D394912FED2D18
:104C2000E15080911409813029F4F0E0EF57F44FFE
:104C300064910AC0F0E08A3021F4E453F74F6491A4
:104C400003C0EF57F44F6491662389F06A3079F01E
:104C5000F7018585081708F4EFC0192F1F5F9C30F6
:104C600008F0E9C084E898E00E940C75D6CF0F5F89
:104C7000D7011D964C91842F90E00796202F30E0AD
:104C8000821793070CF0B6CFDD249DE2C92E3E01BA
:104C90000894611C711C86E4482E0FE4502E1EE41B
:104CA000312E84E898E06EE04D2D0E94916FF7015F
:104CB00015851D0D858D181708F0C0C0A12FB0E017
:104CC000FD01EA53F64F8081882309F494C0F7016F
:104CD000828190E085569040A817B90729F4638136
:104CE00074818581968119C0AE0DBF1D5596EC91DA
:104CF000F0E0EE0FFF1FEE0FFF1FE850F74F86A802
:104D000097A8A0ACB1ACC501B40120E030E040E010
:104D10005FE30E9473840E9416860E94AD859B010A
:104D2000AC01012F10E0D7015B96ED91FC915C97EF
:104D3000E00FF11F8081833611F55996ED91FC91BA
:104D40005A97E00FF11F80818336C9F42115310590
:104D50004105510521F039825A8212E004C049828E
:104D60004A825B8213E01150F301E10FF11D84E8E8
:104D700098E060810E940C751123A9F751C087EE5D
:104D800095E16EE04D2D0E94916FD7015996ED91FE
:104D9000FC915A97E00FF11F608170E0709561956A
:104DA0007F4F882777FD8095982F0E94DB859B0198
:104DB000AC0160E070E080E291E40E94B5879B0165
:104DC000AC01C501B4010E945287AB01BC01D701FF
:104DD0005B96ED91FC915C97E00FF11F208187EECF
:104DE00095E130E00E94718087EE95E163E672E024
:104DF0000E94E17F1AC0C982CA82CB82CC8284E839
:104E000098E060E20E940C7514E01150F301E10F8C
:104E1000F11D84E898E060810E940C751123A9F7C8
:104E200084E898E060E20E940C75D394B8E0DB1649
:104E300009F037CF03C0912F192FEFCE28960FB668
:104E4000F894DEBF0FBECDBFCF91DF911F910F91C0
:104E5000FF90EF90DF90CF90BF90AF909F908F909A
:104E60007F906F905F904F903F900895FC01662374
:104E700011F412829EDE80E008959BCE08952F9259
:104E80003F924F925F926F927F928F929F92AF92DA
:104E9000BF92CF92DF92EF92FF920F931F93DF9317
:104EA000CF9300D00F92CDB7DEB76C0184E898E0C5
:104EB00060E040E00E94916F00E010E0D601519662
:104EC000ED91FC915297E00FF11F6491662339F444
:104ED000882483945DE2352E4EE2242E0AC084E8B5
:104EE00098E00E940C750F5F1F4F0331110531F7D9
:104EF000EFCF84E898E060E0482D0E94916FB1E028
:104F00008B1629F484E898E066E672E00FC0E2E0D0
:104F10008E1629F484E898E069E672E007C0F3E0B1
:104F20008F1631F484E898E06CE672E00E94E17F2D
:104F3000260135E6632E712CD20119968C918823B7
:104F400009F494C0B1E08B1651F4F601828190E02F
:104F50008615970529F1D2015596EC9129C0B2E04A
:104F60008B1669F4F601828190E093012D5F3F4F2B
:104F700082179307A9F0D2015896EC9119C0B3E0BB
:104F80008B1629F060E070E080E090E01CC0F60134
:104F9000828190E093012A5F3F4F8217930729F4A3
:104FA00063817481858196810EC0D2015B96EC91FC
:104FB000F0E0EE0FFF1FEE0FFF1FE451F64F608190
:104FC00071818281938120E030E048EC52E40E94BC
:104FD000528720E030E040E05FE30E9473840E944B
:104FE00016860E94AD857B018C01C8012AE030E065
:104FF00040E050E00E948D89605D6983B701C8017F
:105000002AE030E040E050E00E948D89922EA32EED
:10501000F42EE52E8E010E5F1F4FBB24B394B2E039
:10502000BB1611F42B821BC0692D7A2D8F2D9E2D5E
:105030002AE030E040E050E00E948D89605DF80198
:105040006083692D7A2D8F2D9E2D2AE030E040E07F
:1050500050E00E948D89922EA32EF42EE52EB3945B
:105060000F5F1F4FF4E0BF16D1F604C039823A82B9
:105070003B823C8284E898E060E20E940C7514E078
:105080001150E1E0F0E0EC0FFD1FE10FF11D84E8AD
:1050900098E060810E940C75112391F784E898E0F4
:1050A00060E20E940C750894411C511C0894611C1C
:1050B000711C88E66816710409F03ECF8394A4E061
:1050C0008A1609F016CFC6010E94061C0F900F9099
:1050D0000F900F90CF91DF911F910F91FF90EF9064
:1050E000DF90CF90BF90AF909F908F907F906F9008
:1050F0005F904F903F902F900895FC01662311F42C
:105100001282BDDE80E00895BADE80E00895AF929D
:10511000BF92CF92DF92EF920F936C0180E4F60181
:10512000828380E2838367EEA62E65E1B62EC501F9
:1051300060E440E224810581EE240E94316CB601D6
:105140006C5F7F4FA6014B5F5F4FC6010E94B81294
:10515000C501F6016281438124810581EE24EA9430
:105160000E94316C0F91EF90DF90CF90BF90AF9085
:1051700008952F923F924F925F926F927F928F92FB
:105180009F92AF92BF92CF92DF92EF92FF920F93D6
:105190001F93DF93CF930F920F92CDB7DEB74C01E1
:1051A000DC01ED91FC910680F781E02D1995182F17
:1051B0000E94C3776B017C011123C9F5F4E4AF2E83
:1051C000B12CA80CB91CF50180819181A281B38119
:1051D000A7019601281B390B4A0B5B0BF40181A533
:1051E00092A5A3A5B4A582179307A407B50708F055
:1051F00045C128E430E0820E931ED4011D921C921A
:10520000E8EBFFEF8E0E9F1ED401ED91FC911197FC
:10521000D5966D917C91D6970190F081E02DC401D7
:105220001995F501C082D182E282F38227C1D401AF
:1052300096968C91882319F421E030E002C022E098
:1052400030E0E8E4F0E08E0E9F1ED4012D933C93F5
:10525000E8EBFFEF8E0E9F1E81E0D40197968C93B2
:10526000979795968C93E4E4F0E08E0E9F1ED40100
:10527000CD92DD92ED92FC921397ECEBFFEF8E0E48
:105280009F1E2230310509F0C9C0D4019D96CD92F0
:10529000DD92ED92FC92D0975696AD90BD90CD9058
:1052A000DC905997EAE4F0E08E0E9F1ED401AD9297
:1052B000BD92CD92DC921397E9EFFFEF8E0E9F1E09
:1052C000D4018C91EDEBFFEF8E0E9F1EEEE44E2E7F
:1052D000512C480C591C72E5272E312C280C391CF6
:1052E00094012A5A3F4F3A832983882309F440C006
:1052F000D401D7966D917D918D919C91DA970E9402
:10530000DB852AE037ED43E25CE30E945287F2013D
:105310006083718382839383D401DB966D917D9149
:105320008D919C91DE970E94DB852AE037ED43E268
:105330005CE30E945287F1016083718382839383CF
:105340002FE330E0820E931ED4016D917D918D91FB
:105350009C910E94DB852AE037ED43E25CE30E94EA
:105360005287E981FA81608371838283938356C077
:10537000D4015A966D917D918D919C915D970E947B
:10538000DB852AE037ED43E25CE30E94528720EDA3
:105390003FE049E450E40E94528720E030E044E3DB
:1053A00053E40E9440857B018C01C601B5010E9437
:1053B000D9852AE037ED43E25CE30E9452873B0146
:1053C0004C01B701C8010E943D855B016C01B7012A
:1053D000C8010E9401887B018C01C401B301A601B0
:1053E00095010E945287F2016083718382839383C7
:1053F000C401B301A80197010E945287D1016D93A6
:105400007D938D939C93139780E090E0A0E0B0E0B3
:10541000E981FA8180839183A283B38360919C0B9D
:1054200070919D0B80919E0B90919F0B0E94DB854C
:1054300020E836E948E15BE40E9440856093060B72
:105440007093070B8093080B9093090B6091A00B4E
:105450007091A10B8091A20B9091A30B0E94DB8510
:1054600020E836E948E15BE40E94408560930A0B3E
:1054700070930B0B80930C0B90930D0B0F900F9070
:10548000CF91DF911F910F91FF90EF90DF90CF9020
:10549000BF90AF909F908F907F906F905F904F9054
:1054A0003F902F9008950F931F9304E818E0C801D0
:1054B00060E040E00E94916FC8016FE672E00E94D8
:1054C000E17F409118095091190960911A09709172
:1054D0001B09C80125E030E00E947380C80168E71D
:1054E00072E00E94E17F40911C0950911D0960917A
:1054F0001E0970911F09C80125E030E00E947380E9
:10550000C80161E872E00E94E17F4091200950915A
:1055100021096091220970912309C80122E030E03D
:105520000E947380C8016AE872E00E94E17F4091A6
:10553000A1085091A2086091A3087091A408C80125
:1055400022E030E00E947380C80160E972E00E94AE
:10555000E17F4091A5085091A6086091A70870913D
:10556000A808C80122E030E00E947380C80169E900
:1055700072E00E94E17F60919C0B70919D0B809185
:105580009E0B90919F0B0E94DB8520E836E948E155
:105590005BE40E944085AB01BC01C80125E030E01E
:1055A0000E947380C80162EA72E00E94E17F60910C
:1055B000A00B7091A10B8091A20B9091A30B0E9464
:1055C000DB8520E836E948E15BE40E944085AB01D9
:1055D000BC01C80125E030E00E947380C8016BEA7D
:1055E00072E00E94E17F6091A40B7091A50B809105
:1055F000A60B9091A70B0E94DB8520E030E048ECE1
:1056000052E40E944085AB01BC01C80122E030E0B9
:105610000E9473801F910F910895AF92BF92CF9215
:10562000DF92EF92FF920F931F93DF93CF9300D0FF
:105630000F92CDB7DEB78C01DC0112969C911297C8
:10564000892F8150873C08F0D8C0E92FF0E09536CB
:1056500018F11396ED90FD900D911C911697E5565B
:10566000F040CF0163E070E00E947A8901969C01CE
:10567000220F331F280F391F220F331F2350CF0152
:1056800063E070E00E947A89462F4F5F84E898E0DB
:10569000622F0E94916F4CC03197CF0163E070E0A0
:1056A0000E947A8901969C01220F331F280F391F0F
:1056B000220F331F2350CF0163E070E00E947A89EC
:1056C000462F4F5F84E898E0622F0E94916F84E438
:1056D00098E1F80162814AE050E00E94587FD801C9
:1056E00012968C9190E0019763E070E00E947A89B5
:1056F0000196BC01660F771F680F791F660F771F31
:105700006350704084E498E14AE050E00E94C47F16
:10571000F801828190E0019763E070E00E947A894D
:105720006F5F7F4F84E498E14AE050E00E94C47FBD
:10573000C801B70120E030E048EC52E40E945287F3
:1057400020E030E040E05FE30E9473840E94168610
:105750000E94AD857B018C01C8012AE030E040E069
:1057600050E00E948D89605D6983B701C8012AE01D
:1057700030E040E050E00E948D89B22EC32ED42E3E
:10578000052FB2E0EB2EF12CEC0EFD1E11E0AEE287
:10579000AA2E123011F4AB821BC06B2D7C2D8D2DE7
:1057A000902F2AE030E040E050E00E948D89605D5B
:1057B000D7016C936B2D7C2D8D2D902F2AE030E03E
:1057C00040E050E00E948D89B22EC32ED42E052FCA
:1057D0001F5F0894E11CF11C1430D9F67E01089477
:1057E000E11CF11C1150F701E10FF11D84E898E074
:1057F00060810E940C751123A9F70F900F900F90F4
:105800000F90CF91DF911F910F91FF90EF90DF905C
:10581000CF90BF90AF900895CF93DF93EC018A8132
:10582000282F30E025563040C90163E070E00E9427
:105830007A896130710579F062307105B1F0672BBA
:1058400089F5C90163E070E00E947A89FE01E80FE2
:10585000F91FE58913C0C90163E070E00E947A89ED
:10586000FE01E80FF91FE08D09C0C90163E070E097
:105870000E947A89FE01E80FF91FE38DF0E0EE0F38
:10588000FF1FEE0FFF1FE451F64F80819181A2812F
:10589000B3818B839C83AD83BE83CE01BEDE1A822F
:1058A00081E08C87DF91CF9108950F931F9304E8D7
:1058B00018E0C80160E042E00E94916FC80164EB0B
:1058C00072E00E94E17F0E947D0EAB01BC01C80125
:1058D00022E030E00E947380C8016AEB72E00E940F
:1058E000E17FC8016091B60B4AE050E00E94587F0A
:1058F000C80165EC72E00E94E17F6091B80BC801BD
:1059000070E04AE050E00E94C47FC8016DEC72E094
:105910000E94E17F4091940B5091950B6091960B02
:105920007091970BC8012AE030E00E94257F1F91FB
:105930000F9108950F931F9304E818E0C80160E0E9
:1059400040E00E94916FC80167ED72E00E94E17F24
:105950004091F8085091F9086091FA087091FB089D
:10596000C80122E030E00E947380C8016DED72E052
:105970000E94E17F6091120B7091130BC8014AE005
:1059800050E00E94C47FC80160E046E00E94916F31
:10599000C80166EE72E00E94E17F4091790C50915F
:1059A0007A0C60917B0C70917C0CC8012AE030E08D
:1059B0000E94257F1F910F910895CF93DF93EC01F3
:1059C0008091B60B8A3020F087EE95E16BE603C03C
:1059D00087EE95E16DE647E30E94BE6F87EE95E1A5
:1059E00068E076E04FEF2AE83AE60E94C76F87EE5C
:1059F00095E16091B60B4AE050E00E94477F8091AC
:105A00001609882309F43FC0909117098F8D8917D3
:105A1000D1F19F8F87EE95E164E144E10E94BE6F72
:105A200087EE95E160EF72E00E94E17F87EE95E1FD
:105A300064E144E10E94BE6F87EE95E168E076E0A4
:105A40004FEF2AE83AE60E94C76F8091170987FF57
:105A500005C087EE95E16CEF72E004C087EE95E13A
:105A600062E073E00E94E17F8091170984FF05C026
:105A700087EE95E167E073E004C087EE95E16EE0A4
:105A800073E00E94E17FDF91CF910895CF92DF9282
:105A9000EF920F93CF93DF936C01DC015F961C9222
:105AA000C7EED5E1CE0163E043E00E94BE6FCE01B8
:105AB00066EB7BE04FEF2AE83AE60E94C76F209141
:105AC0001609222331F4CE0165E173E00E94E17FE3
:105AD000A6C080911509833049F1843030F48823C1
