:100000008CC700000C94245A0C94555A0C94865AB0
:100010000C94B75A0C94E85A0C94195B0C944A5BF4
:100020000C947B5BA7C70000A5C70000A3C7000016
:10003000A1C700000C94FE649DC700009BC7000090
:1000400099C700000C94DA3795C7000093C70000E9
:1000500091C700008FC700008DC700000C94AC5BF7
:1000600089C700000C94065E0C942E5F83C70000C5
:1000700081C700007FC700007DC700007BC700006C
:100080000C94AD3777C7000075C7000073C7000038
:100090000C943F5E0C946D5F6DC700000C94283982
:1000A00069C7000067C700000C94803763C7000071
:1000B00061C700005FC700005DC700000C945337A4
:1000C00059C7000057C7000055C700000C94785E60
:1000D0000C94AC5F4FC700000C94B15E0C94EB5FC6
:1000E00049C70000084AD73B3BCE016E84BCBFFD28
:1000F000C12F3D6C74319ABD56833DDA3D00C77FF8
:1001000011BED9E4BB4C3E916BAAAABE0000008090
:100110003F05A84CCDB2D44EB93836A9020C50B91F
:10012000918688083CA6AAAA2ABE000000803F0744
:10013000634236B79BD8A71A39685618AEBAAB5582
:100140008C1D3CB7CC5763BD6DEDFD753EF6177247
:1001500031BF000000803F08000000BE9224491219
:100160003EABAAAA2ABECDCCCC4C3E00000080BE3D
:10017000ABAAAAAA3E00000000BF000000803F001A
:1001800000000000084178D3BB4387D1133D190E0E
:100190003CC3BD4282AD2B3E68EC8276BED98FE176
:1001A000A93E4C80EFFFBE01C4FF7F3F000000006E
:1001B00000524154455F524C4C5F500052415445EF
:1001C0005F524C4C5F4900524154455F524C4C5F6A
:1001D0004400524154455F524C4C5F494D415800D8
:1001E000524154455F5049545F5000524154455F5D
:1001F0005049545F4900524154455F5049545F444F
:1002000000524154455F5049545F494D4158005296
:100210004154455F5941575F5000524154455F5921
:1002200041575F4900524154455F5941575F44006F
:10023000524154455F5941575F494D415800544818
:10024000525F524154455F50005448525F524154EE
:10025000455F49005448525F524154455F44005441
:1002600048525F524154455F494D41580057505FD5
:100270004C4F495445525F5241440057505F5241E0
:1002800044495553005854524B5F4741494E5F53C0
:1002900043005854524B5F414E474C455F43440026
:1002A0005452494D5F41525350445F434D004152B7
:1002B0005350445F4642575F4D494E0041525350A0
:1002C000445F4642575F4D4158004B46465F50548D
:1002D000434832544852004B46465F5448523250CD
:1002E000544348004C4F475F4249544D41534B00E3
:1002F000B101BC01C701D201E001EB01F60101022D
:100300000F021A02250230023E02490254025F0225
:100310006D027B0285029202A002AE02BC02CA02FA
:10032000D702E40224505542582C34312C312C3061
:100330003030332C303030312C33383430302C30B6
:100340002A32360AB56206010300010601124F0087
:10035000000005072060000000000000005F0000B2
:100360000007000700147F147F14242A7F2A122319
:100370001308646236495522500005030000001C32
:100380002241000041221C00082A1C2A0808083EBD
:1003900008080050300000080808080800606000E5
:1003A0000020100804023E5149453E00427F4000B3
:1003B00042615149462141454B311814127F1027A3
:1003C000454545393C4A49493001710905033649DB
:1003D000494936064949291E00363600000056367E
:1003E00000000008142241141414141441221408AB
:1003F000000201510906324979413E7E1111117EF8
:100400007F494949363E414141227F4141221C7F7B
:10041000494949417F090901013E414151327F0863
:1004200008087F00417F41002040413F017F0814C0
:1004300022417F404040407F0204027F7F04081039
:100440007F3E4141413E7F090909063E4151215EFF
:100450007F09192946464949493101017F01013F78
:100460004040403F1F2040201F7F2018207F631402
:100470000814630304780403615149454300007F75
:100480004141020408102041417F000004020102A2
:10049000044040404040000102040020545454787D
:1004A0007F484444383844444420384444487F38E2
:1004B00054545418087E090102081454543C7F080F
:1004C00004047800447D40002040443D00007F103B
:1004D000284400417F40007C041804787C08040410
:1004E0007838444444387C14141408081414187CD4
:1004F0007C080404084854545420043F4440203CE1
:100500004040207C1C2040201C3C4030403C442883
:100510001028440C5050503C4464544C440008365D
:10052000410000007F0000004136080008082A1C36
:1005300008081C2A0808141400000000004080006D
:1005400000008030070C3000000000000080E0F860
:10055000FFF8F9FCF8E0FFFEFEFEFEFFF8E0000009
:100560000C0F0F0F0F0F0F0F0F0F0F0F0F0F0F0F9E
:100570000F0F0F08101000000080EC0C1064C4C2B4
:10058000E2F27E1E000000000087C4C6C6DFFFFF47
:10059000730100000000080800007E0A1B127E00A4
:1005A000080804150E2470A8200010100010101068
:1005B000101010547C3810000000000000000000F3
:1005C0000808080808082A3E1C08000022080A0E2D
:1005D0002060040205060708090203030508020457
:1005E00002040704070707070707070702020707B0
:1005F00007080E0908080807070908020708070B7B
:100600000809070909070808090D07080804040470
:100610000608030707060707050707020306020A7D
:100620000707070705060507070B06070505010568
:1006300007080000000000000000FEFE18181E1E43
:10064000001E1E000000000090F89E90F89E1C0006
:10065000001C0000183C26FF66CC88040C183C18CF
:100660000C041C221CC0308E408000001804000CBA
:10067000100C80CC7E72F2DE0C80000C1C1010106E
:100680001C0C1C101E1E0000F0FC061C7CC006FC8E
:10069000F0C07C1C14140E141400000000006060F4
:1006A00060FCFC6060600000000C0C0000000000BA
:1006B0005838C0C0C0C0000000000000181800C0BA
:1006C000380618040000F8FC0E060EFCF8040C1C9A
:1006D000181C0C04180CFEFE00001C1C181C86C6FE
:1006E000663E1C181C1C18181818888C062626FE36
:1006F000DC040C1C18180C04C0E0B88CFEFE80044E
:100700000404041C1C04707E3E3636F6C60C1C180D
:1007100018180C04F8FC6E6666EECC040C18181859
:100720001C0C060606E6761E0600001C1C000000D7
:100730009CFE666666FE9C0C1C1818181C0C3C7E01
:10074000666666FCF80C1C18181C0C04181818189F
:10075000181858386060F0F098980C0000000004F9
:10076000040CD8D8D8D8D8D8D80000000000000091
:100770000C9898F0F060600C040400000000080C75
:1007800006C6E6763C180000001818000000E030AD
:1007900008C4F63A1A1AF2FA7E0408F00C30604CDB
:1007A0009C98988C9C9C90484C2000C0F8BE86BEBB
:1007B000F8C000181C04040404041C18FEFE66663D
:1007C0006666FEDC1C1C181818181C0CF8FC0E06BB
:1007D000060E9C08040C1C18181C0C04FEFE0606D1
:1007E000060EFCF81C1C1818181C0C04FEFE66668D
:1007F0006666661C1C1818181818FEFE6666666683
:10080000061C1C0000000000F8FC0E0606C6CEDC2C
:10081000C8040C1C181818180C04FEFE60606060F8
:10082000FEFE1C1C000000001C1CFEFE1C1C808028
:10083000000000FEFE0C1C1818181C0CFEFE603098
:1008400078EC86021C1C000000041C18FEFE000050
:100850000000001C1C1818181818FEFE0E7CE00082
:10086000E07C0EFEFE1C1C00000C1C0C00001C1C7E
:10087000FEFE1C78E080FEFE1C1C0000040C1C1C0C
:10088000F8FC0E0606060EFCF8040C1C1818181CC2
:100890000C04FEFE6666667E3C1C1C000000000028
:1008A000F8FC0E0686060EFCF8040C1C18181C0C2E
:1008B0001C24FEFE6666E6E6BE1C001C1C00000052
:1008C0000C1C18103C7E666666EECC0C1C181818C2
:1008D0001C0C060606FEFE0606060000001C1C0098
:1008E0000000FEFE00000000FEFE040C1C18181C98
:1008F0000C04021EFCE000E0FC1E020000001C1CB8
:100900001C00000006FEF800F0FE0EFEF000F8FEEF
:100910000600001C1C1C0000001C1C1C0000060E15
:10092000F8F0F80E06181C0400041C18060E38F027
:10093000F0380E060000001C1C000000060686E6CB
:10094000761E0E06181C1C1818181818FEFE06062F
:10095000FCFCC0C00638C000000004180606FEFEFD
:10096000C0C0FCFC20380E0E382000000000000043
:100970000000000000000000808080808080808077
:100980000206040000001098D858F8F0000C1C185B
:10099000180C1C10FEFE301838F0E01C1C0C181C43
:1009A0000C04E0F018183830040C18181C0CE0F097
:1009B000381830FEFE040C1C180C1C1CE0F0D8D8B3
:1009C000D8F0E0040C181818180818FCFE1A1A00C1
:1009D0001C1C0000E0F0381830F8F864ECDCD8CCCF
:1009E000FC7CFEFE301818F8F01C1C0000001C1CDB
:1009F000FAFA1C1C00FAFAC0FC7CFEFEE0F0980833
:100A00001C1C00041C18FEFE1C1CF8F81018F8F042
:100A10001818F8F01C1C00001C1C00001C1CF8F826
:100A2000301818F8F01C1C0000001C1CE0F03818EE
:100A300038F0E0040C1C181C0C04F8F8301838F0DE
:100A4000E0FCFC0C181C0C04E0F0381830F8F8043A
:100A50000C1C180CFCFCF8F83018181C1C000000CA
:100A600070F8D8D8D890081818181C0C18FCFE1864
:100A700018000C1C1818F8F8000000F8F80C1C18E6
:100A8000180C1C1C38F8C000C0F83800001C1C1CD6
:100A9000000018F8E000F038F000E0F81800001C42
:100AA0001C0C000C1C1C00001838E0E03818181C46
:100AB00004041C1818F8E000E0F8180084FCF83C66
:100AC00004001898D878381C1C18181880FC7E066A
:100AD00006007CFCC0C0FEFC06067EFC80C0C0FC9C
:100AE0007C0060303070606030000000000000006A
:100AF000FE020202020202FE1C1010101010101C56
:100B0000546869732077696C6C206170706C79200F
:100B10007468650A6368616E676573206D616465FA
:100B200020746F207468650A2073657474696E6739
:100B3000732C2070726573730A20204F4B20746FE2
:100B40002055706C6F6164004C6F6974657220721F
:100B500061640A576179706F696E74207261640A0A
:100B600078747261636B206761696E0A7874726170
:100B7000636B20616E676C650A43727569736520EB
:100B800073706565640A41535020464257206D6971
:100B90006E0A41535020464257206D61780A5069D1
:100BA00074636832546872746C0A546872746C327C
:100BB00050697463680A4C6F67206269746D617371
:100BC0006B0A00202020526F6C6C2050697463689F
:100BD0002020596177002020546869732077696C60
:100BE0006C2072657365740A20202020746865206B
:100BF0006D697373696F6E0A2020202050726573CF
:100C000073204F4B20746F0A202020202020436F38
:100C10006E6669726D0020546869732077696C6C28
:100C200020726571756573740A2020746865207080
:100C30006172616D65746572730A2020205072655F
:100C40007373204F4B20746F0A2020202020436FA5
:100C50006E6669726D002020205468697320776980
:100C60006C6C2073746F700A202020746865206497
:100C70006174612073747265616D0A2020202050B8
:100C800072657373204F4B20746F0A202020202040
:100C900020436F6E6669726D002054686973207717
:100CA000696C6C20726573746172740A20207468B8
:100CB0006520646174612073747265616D0A20201F
:100CC000205072657373204F4B20746F0A202020D0
:100CD0002020436F6E6669726D00546869732077D7
:100CE000696C6C20696E697469616C6973650A204E
:100CF0002074686520474353277320486F6D650A49
:100D0000706F736974696F6E2E20456E73757265AE
:100D1000207468650A554156206973206E657874A1
:100D200020746F2047435300546869732077696CBF
:100D30006C20696E697469616C6973650A746865B1
:100D4000204169726372616674277320486F6D6514
:100D50000A706F736974696F6E2E20456E737572B9
:100D6000652069740A6973202A2A6F6E2074686589
:100D70002047524F554E442A2A00526573746172BF
:100D800074204D697373696F6E0A5265717565736E
:100D90007420506172616D65746572730A53746F6B
:100DA0007020446174612053747265616D0A5265EC
:100DB0002D726571756573742053747265616D0A67
:100DC0005365742047435320486F6D650A5265731D
:100DD00065742055415620486F6D65007C3C3E5E31
:100DE0002B3D3F2F5B5D3B2C2A225C000000210045
:100DF000240027002A002D003000330001010000EC
:100E0000040107010A0100002200250028002B0030
:100E10002E003100340002010000050108010B0121
:100E2000000020002300260029002C002F003200A3
:100E3000000100000301060109010505050507057C
:100E400008080808020202020A0A08080404040446
:100E50000101010101010101030303030303030372
:100E6000040707070C0C0C0C0C0C0C0C0202020201
:100E700006060606060606060B0B0B0B0B0B0B0BEA
:100E8000010210202008081020401020408002019C
:100E90000201080402010102040810204080804081
:100EA0002010080402018004020180402010080480
:100EB000020108040201010204081020408001021E
:100EC0000408102040800000090A02080B0C0D07DE
:100ED0000603040100000000000000000000000004
:100EE0000000000000000000000000000000000002
:100EF000000011100F0000000000000000000000C2
:100F00000000000000000000000000000200B62AFF
:100F10003738083CE6505561B12A11241FBECFEF87
:100F2000D1E2DEBFCDBF00E00CBF16E0A0E0B2E032
:100F3000E0E9FCED00E00BBF02C007900D92AC3C75
:100F4000B107D9F71BBE15E1ACECB6E001C01D92AC
:100F5000A730B107E1F71FE0C8E1DFE004C0229746
:100F6000FE010E94016ECE30D107C9F70E94736264
:100F70000C943C6E45C8CF93DF93BC018230910541
:100F800010F462E070E0A091FF14B0910015ED0143
:100F9000E0E0F0E040E050E021C0888199818617D0
:100FA000970769F48A819B81309719F09383828334
:100FB00004C0909300158093FF14FE0134C068179D
:100FC000790738F44115510519F08417950708F48D
:100FD000AC01FE018A819B819C01E9012097E9F621
:100FE00041155105A9F1CA01861B970B049708F416
:100FF000BA01E0E0F0E02AC08D919C91119784172E
:101000009507F9F46417750781F412968D919C91F8
:101010001397309719F09383828304C0909300153F
:101020008093FF14FD0132964CC0CA01861B970BBA
:10103000FD01E80FF91F6193719302978D939C93C3
:1010400040C0FD01828193819C01D9011097A1F6D6
:101050008091FD149091FE14892B41F48091260417
:10106000909127049093FE148093FD1440912804DE
:10107000509129044115510541F44DB75EB7809157
:10108000240490912504481B590B2091FD143091A4
:10109000FE14CA01821B930B8617970780F0AB01E1
:1010A0004E5F5F4F8417950750F0420F531F5093C8
:1010B000FE144093FD14F9016193719302C0E0E0C6
:1010C000F0E0CF01DF91CF910895CF93DF930097A8
:1010D00009F450C0EC0122971B821A82A091FF14E0
:1010E000B0910015109709F140E050E0AC17BD0732
:1010F00008F1BB83AA83FE0121913191E20FF31F16
:10110000AE17BF0779F48D919C911197280F391F65
:101110002E5F3F4F3983288312968D919C911397B0
:101120009B838A834115510571F4D0930015C093B8
:10113000FF1420C012968D919C911397AD010097DA
:1011400011F0DC01D3CFFA01D383C2832191319115
:10115000E20FF31FCE17DF0769F488819981280F0A
:10116000391F2E5F3F4FFA01318320838A819B8193
:1011700093838283DF91CF910895FB01DC01059079
:101180000D920020E1F70895FB01DC0104C08D9170
:101190000190801921F441505040C8F7881B990BE9
:1011A0000895FB01DC0102C001900D9241505040B6
:1011B000D8F70895FC018191861721F08823D9F78B
:1011C000992708953197CF010895FB01DC018D9196
:1011D000019080190110D9F3990B0895FB01DC01EE
:1011E0004150504048F001900D920020C9F701C0D5
:1011F0001D9241505040E0F70895ABE0B0E0E3E0CD
:10120000F9E00C94056E3C012B015A01FC01178298
:101210001682838181FD03C06FEF7FEFB9C19AE031
:10122000892E1E010894211C311CF3012381F20137
:1012300023FD859123FF81912F01882309F4A5C106
:10124000853239F423FD859123FF81912F01853269
:1012500021F490E0B301B7D1E8CF982FFF24EE241A
:101260009924FFE1FF15D0F09B3269F09C3228F4FD
:10127000903259F0933291F40EC09D3249F0903380
:1012800069F441E024C052E0F52A84E0F82A28C03D
:1012900098E0F92A25C0E0E1FE2A22C0F7FC29C027
:1012A000892F80538A3070F4F6FE05C0989C902CEC
:1012B0001124980E15C0E89CE02C1124E80EF0E2F1
:1012C000FF2A0EC09E3229F4F6FC5FC140E4F42AE6
:1012D00007C09C3619F450E8F52A02C0983649F444
:1012E000F20123FD959123FF91912F01992309F09C
:1012F000B8CF892F8554833018F08052833038F46A
:1013000044E050E0A40EB51E5FE359830FC093364E
:1013100031F0933779F0933509F052C01FC0F501D1
:101320008081898342E050E0A40EB51E610101E096
:1013300010E011C0F501C080D180F6FC03C06FEF52
:101340007FEF02C0692D70E042E050E0A40EB51EB0
:10135000C6012ED18C015FE7F52213C0F501C080D4
:10136000D180F6FC03C06FEF7FEF02C0692D70E003
:1013700042E050E0A40EB51EC6010FD18C0150E82A
:10138000F52AF3FE06C018C080E290E0B3011BD13D
:10139000EA948E2D90E008171907B0F30DC0F601FE
:1013A000F7FC8591F7FE81916F0190E0B3010BD1BD
:1013B000E110EA94015010400115110581F7E2C0D7
:1013C000943611F0993661F5F7FE08C0F5012081D9
:1013D00031814281538184E090E00AC0F50180812F
:1013E00091819C01442737FD4095542F82E090E085
:1013F000A80EB91E9FE6F92257FF09C050954095E7
:10140000309521953F4F4F4F5F4FE0E8FE2ACA01CC
:10141000B901A1012AE030E002D1D82ED2183FC094
:10142000953729F41F2D1F7E2AE030E01DC01F2DA7
:10143000197F9F3661F0903720F4983509F0A5C0E8
:101440000FC0903739F0983709F09FC004C028E0EA
:1014500030E00AC0106114FD146020E130E004C0E7
:1014600014FD166020E132E017FF08C0F50160812D
:1014700071818281938144E050E008C0F501808150
:101480009181BC0180E090E042E050E0A40EB51EE6
:10149000A101C5D0D82ED2188FE7F82EF122F6FE82
:1014A0000BC05EEFF522D91438F4F4FE07C0F2FC4D
:1014B00005C08FEEF82202C01D2D01C0192DF4FECB
:1014C0000DC0FE01ED0DF11D8081803319F499EE00
:1014D000F92208C01F5FF2FE05C003C08F2D867879
:1014E00009F01F5F0F2DF3FC13C0F0FE0EC01E1598
:1014F00010F09D2C0AC09D2C9E0C911A1E2D05C02B
:1015000080E290E0B3015FD01F5F1E15C8F304C0F6
:101510001E1510F4E11A01C0EE2404FF0EC080E392
:1015200090E0B30150D002FF1BC001FD03C088E76B
:1015300090E00EC088E590E00BC0802F867881F0A7
:1015400001FF02C08BE201C080E2F7FC8DE290E077
:10155000B30139D005C080E390E0B30134D09A9450
:10156000D914C8F3DA94F101ED0DF11D808190E0FA
:10157000B30129D0DD20B1F705C080E290E0B301CE
:1015800022D0EA94EE20C9F750CEF301668177812C
:10159000CB012B96E2E10C94216EFC010590615089
:1015A00070400110D8F7809590958E0F9F1F089579
:1015B000FC016150704001900110D8F78095909522
:1015C0008E0F9F1F08950F931F93CF93DF938C016E
:1015D000EB018B8181FF1BC082FF0DC02E813F81FB
:1015E0008C819D812817390764F4E881F981019382
:1015F000F983E88306C0E885F985802F1995892B42
:1016000031F48E819F8101969F838E8302C00FEFFC
:101610001FEFC801DF91CF911F910F910895FA013B
:10162000AA27283051F1203181F1E8946F936E7F21
:101630006E5F7F4F8F4F9F4FAF4FB1E03ED0B4E012
:101640003CD0670F781F891F9A1FA11D680F791F53
:101650008A1F911DA11D6A0F711D811D911DA11D64
:1016600020D009F468943F912AE0269F1124301974
:10167000305D3193DEF6CF010895462F4770405D0F
:101680004193B3E00FD0C9F7F6CF462F4F70405DBE
:101690004A3318F0495D31FD4052419302D0A9F719
:1016A000EACFB4E0A6959795879577956795BA9513
:1016B000C9F700976105710508959B01AC010A2ED9
:1016C00006945795479537952795BA95C9F7620FB0
:1016D000731F841F951FA01D0895FF920F931F93E2
:1016E000CF93DF93EC01F02E8EEF8A832B836D83F3
:1016F0004E838091DF098C838F5F8093DF09022FF7
:1017000010E0F8013596DE0113966FEF7FEF2D9113
:101710002627822F8295807F822790E0382F2227EC
:10172000AC01440F551F440F551F440F551F24276C
:101730003527672F77276227732724E095958795AC
:101740002A95E1F768277927319709F72F2D262762
:10175000822F8295807F822790E0382F2227AC014C
:10176000E3E0440F551FEA95E1F724273527472F7B
:1017700055272427352744E0959587954A95E1F725
:1017800028273927DE0118968B81FD01E80FF11D0E
:1017900020838B81A80FB11D11963C939801285F7F
:1017A0003F4FC901DF91CF911F910F91FF90089595
:1017B00060E070E080E09FE308956091E807709139
:1017C000E907882777FD8095982F0E94FC6920E023
:1017D00030E040EF51E40E94616920E030E040EAEF
:1017E0005BE30E94736B2DEC3CEC4CEC5DE30C94E2
:1017F00094680F931F938C01DC01ED91FC910480A0
:10180000F581E02D1995D801ED91FC910680F781C5
:10181000E02DC80119951F910F910895089508951D
:1018200008950895089508950895CF92DF92EF9254
:10183000FF920F931F93DF93CF93CDB7DEB7289717
:101840000FB6F894DEBF0FBECDBF7C01122FD32E92
:1018500019821A8285EB8B8382E68C836D834E839B
:10186000C02E0F831886FE01359620E090E0AE0171
:10187000475F5F4F03C08191980F290FE417F50769
:10188000D1F72A839983812F9D2D9C01F90108C0EE
:1018900081919981890F89839A81980F9A83015048
:1018A0000023B1F7D701D196ED91FC91D297A08199
:1018B000B18112962D913C911397CF01BE016D5FBE
:1018C0007F4F46E050E0F9011995D701D196ED918F
:1018D000FC91D297A081B18112962D913C911397E2
:1018E000CF01612F7D2D4C2D50E0F9011995D701C5
:1018F000D196ED91FC91D297A081B18112962D9154
:101900003C911397CF01BE016F5F7F4F41E050E0E4
:10191000F9011995D701D196ED91FC91D297A0814B
:10192000B18112962D913C911397CF01BE016E5F4C
:101930007F4F41E050E0F901199528960FB6F894D1
:10194000DEBF0FBECDBFCF91DF911F910F91FF90F2
:10195000EF90DF90CF9008950F93DF93CF9300D057
:10196000CDB7DEB769834A832B8366E041E09E01F1
:101970002F5F3F4F03E059DF0F900F900F90CF91F3
:10198000DF910F9108950F93CF93DF93EC01CD5921
:10199000DF4F0881C356D040053009F457C10630E7
:1019A00009F5C35ADF4F8881CD55D0408432E1F428
:1019B0002DA93EA98FEF2F3F380709F447C1FE013B
:1019C000E759FF4F808190E08217930709F43EC1E9
:1019D0002083CE0166E044E2C959DF4F9E0104E254
:1019E00024DF34C1013091F0FE01EA59FF4F8081BC
:1019F0008F5F8083882309F029C1FE01E35AFF4FDE
:101A0000CE01CD59DF4F68814081FEC0C35ADF4F00
:101A10008881CD55D040833009F44FC0843020F404
:101A2000823009F0E4C007C0863009F462C0823118
:101A300009F0DDC087C0C959DF4F88819981AA812B
:101A4000BB81C756D0408A839B83AC83BD83C55975
:101A5000DF4F88819981AA81BB81CB56D0408E8788
:101A60009F87A88BB98BC159DF4F88819981AA8143
:101A7000BB81CF56D0408A879B87AC87BD87C9582A
:101A8000DF4F688179818A819B81C757D0402AE0E6
:101A900030E040E050E00E94D06D2A8B3B8B4C8BB5
:101AA0005D8BC556DF4F8881CB59D0408EA3CC5972
:101AB000DF4F0883C456D040AAC0C459DF4F888185
:101AC000CC56D04080FD02C090E009C090E0C559DE
:101AD000DF4F8881CB56D040833009F491E0C55662
:101AE000DF4F9883CB59D040992309F090C01EA2B4
:101AF0008EC0CE58DF4F8881C257D04080FD02C0D3
:101B000090E009C090E0CF58DF4F8881C157D040A6
:101B1000833009F491E0C556DF4F9883CB59D0400C
:101B2000992309F41EA2CA56DF4F8881C659D040B6
:101B30008CA3CD56DF4F88819981C359D0409BA398
:101B40008AA365C0C958DF4F88819981AA81BB816A
:101B5000C757D0408E8F9F8FA8A3B9A3C558DF4F1A
:101B600088819981AA81BB81CB57D0408E8B9F8B76
:101B7000A88FB98FC158DF4F688179818A819B8195
:101B8000CF57D04028EE33E040E050E00E94D06DC7
:101B90002A8F3B8F4C8F5D8FCD5BDF4F0883A896DC
:101BA00088819981AA81BB81CB56D0408FAB98AFF9
:101BB000A9AFBAAFC159DF4F88819981AA81BB8192
:101BC000CF56D0408BAF9CAFADAFBEAFFE01FF96FE
:101BD000CD58DF4F88819981AA81BB818083918311
:101BE000A283B3832E970883C556D04010C0FE0150
:101BF000EA59FF4F80818F5F8083882339F5CE01BA
:101C000061E0C35ADF4F488120E0A6DE1FC0DE013D
:101C1000AC59BF4F8C918823C9F0FE01EB59FF4F9F
:101C20008081882399F01C921082FE01EE59FF4FAB
:101C300080818F5F8083843639F4CE0166E044E290
:101C400020E030E000E0F1DD81E001C080E0DF91E4
:101C5000CF910F9108952F923F924F925F926F9282
:101C60007F928F929F92AF92BF92CF92DF92EF922C
:101C7000FF920F931F93DF93CF93CDB7DEB72797D4
:101C80000FB6F894DEBF0FBECDBF8C01DC01D1963C
:101C9000ED91FC91D297A081B18114962D913C9148
:101CA0001597CF01F90119959B838A8319824424E2
:101CB0005524F801E45AFF4FFF83EE837BE5C72EDE
:101CC000D12CC00ED11E6AE5E62EF12CE00EF11EDD
:101CD0005EE5A52EB12CA00EB11E40E6642E712C3F
:101CE000600E711EC8018D599F4F9D838C833DE509
:101CF000232E312C200E311ECBC0D801D196ED9170
:101D0000FC91D297A081B18116962D913C911797A5
:101D1000CF01F9011995282FEE81FF818081843050
:101D200009F441C0853050F48130A9F08130E8F0E9
:101D30008230F9F0833009F0A8C026C0863009F45B
:101D400066C0863008F440C0873009F485C088300A
:101D500009F09BC08DC0223629F4E2E0AE81BF813C
:101D6000EC9393C0AE81BF811C92253B09F08DC0DE
:101D70006DC0E3E0AE81BF81EC93AC81BD812C935B
:101D8000F7012083D6010DC084E0EE81FF818083BE
:101D9000D6019C91F7018081820F8083890F8C93FB
:101DA000D1012C9372C085E0EE81FF818083D60142
:101DB0009C91F7018081820F8083890F8C93D501DC
:101DC0002C9311961C9261C086E0EE81FF81808386
:101DD000D6019C91F7018081820F8083890F8C93BB
:101DE000922E8824D5018D919C911197880D991D73
:101DF0008D939C938150924030F0F50111821082B6
:101E0000AE81BF811C92F301118210823EC0D601C7
:101E10009C91F7018081820F8083890F8C93D3017D
:101E2000ED91FC91E433F10528F4E00FF11FE9593D
:101E3000FF4F2083F30180819181019691838083FC
:101E4000D5012D913C9182179307F9F4EE81FF8122
:101E500080818F5F808319C0E8E0AE81BF81EC9301
:101E6000D7018C91821789F0EE81FF8110820DC01D
:101E7000AE81BF811C92F6018081821731F4C801C6
:101E800082DD882311F0F1E0F9830894411C511C94
:101E90008A819B81481659060CF42FCF8981279699
:101EA0000FB6F894DEBF0FBECDBFCF91DF911F916B
:101EB0000F91FF90EF90DF90CF90BF90AF909F90E9
:101EC0008F907F906F905F904F903F902F900895EC
:101ED000EF92FF920F93DF93CF9300D000D0CDB756
:101EE000DEB77C0188EC90E09A83898381E090E002
:101EF0009C838B831E821D82C70166E048E09E01A1
:101F00002F5F3F4F06E091DCC70161E042E021E036
:101F100023DDC70161E043E021E01EDDC70161E090
:101F200046E021E019DDC70161E042E121E014DD76
:101F3000C70166E044E220E030E000E076DC26966F
:101F40000FB6F894DEBF0FBECDBFCF91DF910F91DA
:101F5000FF90EF900895EF92FF920F931F938C01E3
:101F60007B01FC01A1A9B2A9ED91FC91119702841A
:101F7000F385E02DCD01199581E090E0F80194AB57
:101F800083AB80EB94E0A0E0B0E081A792A7A3A789
:101F9000B4A7C8019DDFF801F6AAE5AA1F910F9129
:101FA000FF90EF900895DF93CF93CDB7DEB7CF9139
:101FB000DF91089508950895FC0188E395E09183E9
:101FC0008083158A84E0868B88E0878B91E0908FF0
:101FD00085E0818F89E0828F82E0838F86E0848F25
:101FE0008AE0858F91879287938783EC9BE0928B21
:101FF000818B12820895089580E00895CF93DF9336
:10200000FC018AE295E09183808388E49BE0928FD3
:10201000818F8CE595E096A385A386E695E090A751
:1020200087A3EF01DF0180E15B968C935B971196AC
:102030008F5F8A31C9F780E091E099878F5F2196A1
:102040008A30D9F71282138ADF91CF91089580E008
:10205000089580E00895833081F0843028F4813041
:1020600091F08230E0F41FC0853081F0853040F07F
:10207000863079F08730B1F40FC02CE739E015C015
:102080002EE739E012C02FEC39E00FC020E839E02C
:102090000CC026E839E009C028E839E006C026EA85
:1020A00039E003C0089520E639E0C90108951F937F
:1020B000182F8091D609CFDFDC01ED91FC910280D1
:1020C000F381E02D612F19951F9108951F93182F0B
:1020D0008091D609C0DFDC01ED91FC910084F1858F
:1020E000E02D612F19951F9108958091D609B3DFD6
:1020F000FC01A081B18114962D913C911597F901B5
:10210000199580E008958091D609A5DFFC01A08192
:10211000B18116962D913C911797F901199580E0A0
:102120000895089508950895CF92DF92EF92FF9257
:102130000F931F93CF93DF936C018B017A01609112
:102140003C0770913D0780913E0790913F072BEE31
:1021500039EC48E151E40E94736B20E030E040EF3D
:1021600051E40E9494680E94CE69DC01CB01482FA3
:102170006FE00E948F6D813051F0813028F0823005
:10218000A1F0833049F415C0A1E0B0E01DC0842F58
:1021900090E04F9734F04E51A1E0B0E0C1E0D0E0C4
:1021A00015C08EE1841B482FF7CF4E51AFEFBFEF24
:1021B000F5CF842F90E0CD9714F04C5303C08CE3FF
:1021C000841B482FAFEFBFEFCFEFDFEFF601828127
:1021D000F8018083F6018381F701808350E0FA01E2
:1021E000E65DFB4F80816CE1869FC0011124892F41
:1021F000990F990B8A9F90018B9F300D9A9F300DFC
:102200001124F8018081820F8083E9E3F4E0E41B6C
:10221000F50B8081869FC0011124892F990F990B9E
:102220008C9F90018D9F300D9C9F300D1124F701E4
:102230008081820F8083DF91CF911F910F91FF905A
:10224000EF90DF90CF90089508950F931F938C0126
:102250008CEC96E00E9435548AEF91E160E00E9498
:10226000054FD801ED91FC910190F081E02DC8015E
:1022700019951F910F9108958CEC96E00E943554AA
:102280008AEF91E160E00E94054F8091D609E3DE7C
:10229000DC01ED91FC910190F081E02D1995809188
:1022A000D609D9DEDC01ED91FC910680F781E02DA5
:1022B00019958091D609CFDEDC01ED91FC91048067
:1022C000F581E02D199580E00895982F882319F461
:1022D0001092D6090BC0181624F08091D6098823D5
:1022E000A1F18091D609890F8093D6098091D609F2
:1022F000883020F081508093D60927C08CEC96E07E
:102300000E9435548AEF91E160E00E94054F809170
:10231000D609A1DEDC01ED91FC910190F081E02D68
:1023200019958091D60997DEDC01ED91FC9106802C
:10233000F781E02D19958091D6098DDEDC01ED91B4
:10234000FC910480F581E02D199580E008956430BA
:1023500029F0663039F0633039F402C081E001C001
:102360008FEFB3CF80E0B1CF0895643029F06630AD
:1023700039F0633039F402C081E001C08FEFA5CF9E
:1023800080E0A3CF0895643029F0663039F06330DF
:1023900039F402C081E001C08FEF97CF80E095CF84
:1023A0000895643029F0663039F0633039F402C0A2
:1023B00081E001C08FEF89CF80E087CF08954F92F1
:1023C0005F926F927F928F929F92AF92BF92CF92C5
:1023D000DF92EF92FF920F931F93DF93CF9300D082
:1023E0000F92CDB7DEB72A013B01C901B801A301A5
:1023F00092010E94936823E333E34AE852E40E9487
:10240000736B69837A838B839C83C301B20123E35B
:1024100033E345E652E40E9461690E945E692B0144
:102420003C01C501B401A70196010E94936823E312
:1024300033E34AE852E40E94736BA30192010E94C5
:10244000736B7B018C0169817A818B819C819B01FB
:10245000AC010E94736B5B016C01C801B701A8015C
:1024600097010E94736B9B01AC01C601B5010E94EC
:1024700094680E942C6C22E03BE249EC54E40E94F8
:10248000736B0F900F900F900F90CF91DF911F9172
:102490000F91FF90EF90DF90CF90BF90AF909F9003
:1024A0008F907F906F905F904F9008954F925F92C2
:1024B0006F927F928F929F92AF92BF92CF92DF9254
:1024C000EF92FF920F931F93DF93CF93CDB7DEB7B9
:1024D00028970FB6F894DEBF0FBECDBF49835A834D
:1024E0006B837C830D831E832F833887CB01BA01D6
:1024F00023E333E345E652E40E9461690E945E698A
:102500002B013C01C501B401A70196010E9493680B
:1025100023E333E34AE852E40E94736BA301920180
:102520000E94736B7B018C016D817E818F81988508
:1025300029813A814B815C810E94936823E333E3D4
:102540004AE852E40E94736B9B01AC01C801B701D9
:102550000E94076920E030E044E353E40E94736B7B
:102560002BED3FE049E450E40E9461697B018C015E
:1025700020E030E040E050E00E945A69181654F024
:10258000C801B70120E030E044EB53E40E949468B6
:102590007B018C01B701C80128960FB6F894DEBF05
:1025A0000FBECDBFCF91DF911F910F91FF90EF90A4
:1025B000DF90CF90BF90AF909F908F907F906F9063
:1025C0005F904F9008950F931F938C018AE590E0E0
:1025D000F801918380839383828380E090E0A0E080
:1025E000B0E0808B918BA28BB38B8BED96E06AE58C
:1025F00070E00E947A358EED96E06AE570E00E9408
:102600007A350E94F45BF801648B758B868B978B0F
:102610001F910F9108958F929F92AF92BF92CF9288
:10262000DF92EF92FF920F931F93CF93DF93EC0112
:1026300040915C0750915D0760915E0770915F0764
:102640000091600710916107209162073091630744
:10265000C090DA07D090DB07E090DC07F090DD0750
:102660008090DE079090DF07A090E007B090E10730
:10267000A6DE6C837D838E839F8340915C0750919F
:102680005D0760915E0770915F0700916007109190
:1026900061072091620730916307C090DA07D090FC
:1026A000DB07E090DC07F090DD078090DE0790907C
:1026B000DF07A090E007B090E107CE01F7DE688762
:1026C00079878A879B8720E030E040E05FEB0E94BB
:1026D000736B20E030E044E353E40E94946828895F
:1026E00039894A895B890E9494687B018C016887DB
:1026F00079878A879B8720E030E044E353E40E9497
:10270000686B18164CF4C801B70120E030E044E3D0
:1027100053E40E94936812C0C801B70120E030E082
:1027200040E050E00E945A69882364F4C801B70170
:1027300020E030E044E353E40E949468688779879E
:102740008A879B87E884F9840A851B85C801B701BD
:1027500020E030E040E050E00E945A6988235CF4B9
:102760000F2EF0E0EF2EF0E0FF2EF0E00F2FF0E064
:102770001F2FF02D14C0C801B70120E030E044E362
:1027800053E40E94686B181654F40F2EF0E0EF2EFD
:10279000F0E0FF2EF4E30F2FF3E41F2FF02DE88677
:1027A000F9860A871B87C801B7010E94C9699B0186
:1027B000AC018BED96E0B9010E947A356091640717
:1027C0007091650780916607909167072091E207F5
:1027D0003091E3074091E4075091E5070E94936828
:1027E0002C813D814E815F810E9461690E94326926
:1027F00020E030E044E353E40E94736B2BED3FE0B4
:1028000049E450E40E9461697B018C0120E030E0E2
:1028100040E050E00E945A6988235CF40F2EF0E0FB
:10282000EF2EF0E0FF2EF0E00F2FF0E01F2FF02D45
:1028300014C0C801B70120E030E044EB52E40E942C
:10284000686B181654F40F2EF0E0EF2EF0E0FF2E18
:10285000F4EB0F2FF2E41F2FF02D60E070E084EB1B
:1028600092E4A80197010E9493686C877D878E8708
:102870009F8760913C0770913D0780913E07909142
:102880003F0720ED3FE049E450E40E94946820E0D7
:1028900030E044EB52E40E94736B20ED3FE049E4EA
:1028A00050E40E9461690E94C9699B01AC018EEDF0
:1028B00096E0B9010E947A35DF91CF911F910F9177
:1028C000FF90EF90DF90CF90BF90AF909F908F9050
:1028D0000895AF92BF92CF92DF92EF920F936C0167
:1028E00080E4F601828380E28383AAEFAA2EA1E12D
:1028F000BA2EC50160E440E224810581EE240E94E5
:102900006250B6016C5F7F4FA6014B5F5F4FC601FF
:102910000BDCC501F6016281438124810581EE242F
:10292000EA940E9462500F91EF90DF90CF90BF9099
:10293000AF9008952F923F924F925F926F927F9245
:102940008F929F92AF92BF92CF92DF92EF92FF92BF
:102950000F931F93DF93CF930F920F92CDB7DEB7F4
:102960004C01DC01ED91FC910680F781E02D199579
:10297000182F0E94F45B6B017C011123C9F504E45C
:10298000A02EB12CA80CB91CF50180819181A281E7
:10299000B381A7019601281B390B4A0B5B0BF4018D
:1029A00081A592A5A3A5B4A582179307A407B5078F
:1029B00008F015C128E430E0820E931ED4011D9268
:1029C0001C92E8EBFFEF8E0E9F1ED401ED91FC915F
:1029D0001197D5966D917C91D6970190F081E02D5D
:1029E000C4011995F501C082D182E282F382F7C059
:1029F000D40196968C91882319F421E030E002C02E
:102A000022E030E0E8E4F0E08E0E9F1ED4012D932A
:102A10003C93E8EBFFEF8E0E9F1E81E0D40197966A
:102A20008C93979795968C93E4E4F0E08E0E9F1E1E
:102A3000D401CD92DD92ED92FC921397ECEBFFEF77
:102A40008E0E9F1E2230310509F0C9C0D4019D961B
:102A5000CD92DD92ED92FC92D0975696AD90BD90BE
:102A6000CD90DC905997EAE4F0E08E0E9F1ED401E1
:102A7000AD92BD92CD92DC921397E9EFFFEF8E0EEF
:102A80009F1ED4018C91EDEBFFEF8E0E9F1E1EE476
:102A9000412E512C480C591CB2E52B2E312C280C00
:102AA000391C94012A5A3F4F3A832983882309F419
:102AB00040C0D401D7966D917D918D919C91DA970C
:102AC0000E94FC692AE037ED43E25CE30E94736BED
:102AD000F2016083718382839383D401DB966D91CD
:102AE0007D918D919C91DE970E94FC692AE037EDE3
:102AF00043E25CE30E94736BF10160837183828324
:102B000093832FE330E0820E931ED4016D917D916B
:102B10008D919C910E94FC692AE037ED43E25CE3D1
:102B20000E94736BE981FA8160837183828393834E
:102B300056C0D4015A966D917D918D919C915D976F
:102B40000E94FC692AE037ED43E25CE30E94736B6C
:102B500020ED3FE049E450E40E94736B20E030E058
:102B600044E353E40E9461697B018C01C601B50115
:102B70000E94FA692AE037ED43E25CE30E94736B3E
:102B80003B014C01B701C8010E945E695B016C0109
:102B9000B701C8010E94226C7B018C01C401B30102
:102BA000A60195010E94736BF20160837183828399
:102BB0009383C401B301A80197010E94736BD101F3
:102BC0006D937D938D939C93139780E090E0A0E0AC
:102BD000B0E0E981FA8180839183A283B3830F906F
:102BE0000F90CF91DF911F910F91FF90EF90DF90A9
:102BF000CF90BF90AF909F908F907F906F905F909D
:102C00004F903F902F9008952F923F924F925F9256
:102C10006F927F928F929F92AF92BF92CF92DF92EC
:102C2000EF92FF920F931F93DF93CF93CDB7DEB751
:102C300064970FB6F894DEBF0FBECDBF60917008E9
:102C40007091710880917208909173080E94FC69DC
:102C500020E836E948E15BE40E94616920ED3FE04D
:102C600049E450E40E94736B20E030E044E353E415
:102C70000E9461696D877E878F87988B60915C0762
:102C800070915D0780915E0790915F0720ED3FE0B6
:102C900049E450E40E94736B20E030E044E353E4E5
:102CA0000E9461693B014C0160916007709161076E
:102CB000809162079091630720ED3FE049E450E482
:102CC0000E94736B20E030E044E353E40E946169AA
:102CD0007B018C0160917408709175088091760871
:102CE000909177080E94FC6920E836E948E15BE4AE
:102CF0000E94616920ED3FE049E450E40E94736B5B
:102D000020E030E044E353E40E9461699B01AC01A0
:102D1000C801B7010E9493681B012C01C401B301D3
:102D20002D853E854F8558890E94936820E030E0CC
:102D300040E05FE30E94736B0E94226C5B016C01B8
:102D40006D857E858F8598890E945E6969837A8307
:102D50008B839C83C401B3010E945E696D837E8373
:102D60008F839887C201B10120E030E040E05FE34B
:102D70000E94736B0E94226C7B018C01C601B5011D
:102D8000A60195010E94736B5B016C0169817A81D8
:102D90008B819C812D813E814F8158850E94736B70
:102DA000A80197010E94736BA80197010E94736BA1
:102DB0009B01AC01C601B5010E9494687B018C01A6
:102DC0000E942C6C5B016C0160E070E080E89FE386
:102DD000A80197010E9493680E942C6C9B01AC0192
:102DE000C601B5010E94076969877A878B879C872E
:102DF000C201B1010E94226C7B018C01C401B301AC
:102E00000E94226C5B016C016D857E858F8598899F
:102E10000E94226C3B014C01C201B1010E945E691B
:102E20001B012C01C801B7012D813E814F815885BE
:102E30000E94736B698B7A8B8B8B9C8B69817A81F7
:102E40008B819C81A60195010E94736B7B018C0193
:102E5000C401B3012D813E814F8158850E94736B5F
:102E6000A20191010E94736B9B01AC01C801B701E3
:102E70000E9493689B01AC0169897A898B899C893E
:102E80000E9407696B017C010CEC16E0C80160E050
:102E900040E00E94C253C80160E072E00E940264F8
:102EA00040915C0750915D0760915E0770915F07EC
:102EB000C80125E030E00E949464C80169E072E036
:102EC0000E9402644091600750916107609162071F
:102ED00070916307C80125E030E00E949464C80146
:102EE00062E172E00E9402644091640750916507BC
:102EF0006091660770916707C80122E030E00E9488
:102F00009464C8016BE172E00E94026469857A856D
:102F10008B859C8520E73DE642E45BE40E94736B71
:102F2000AB01BC01C80122E030E00E949464C801FA
:102F300061E272E00E940264C701B60120E030E065
:102F400044E353E40E94736B20ED3FE049E450E416
:102F50000E946169AB01BC01C80122E030E00E941F
:102F60009464C8016AE272E00E9402646091700891
:102F70007091710880917208909173080E94FC69A9
:102F800020E836E948E15BE40E946169AB01BC01DD
:102F9000C80125E030E00E949464C80163E372E058
:102FA0000E9402646091740870917508809176089F
:102FB000909177080E94FC6920E836E948E15BE4DB
:102FC0000E946169AB01BC01C80125E030E00E94AC
:102FD0009464C8016CE372E00E9402646091780816
:102FE0007091790880917A0890917B080E94FC6921
:102FF00020E030E048EC52E40E946169AB01BC0182
:10300000C80122E030E00E94946464960FB6F89400
:10301000DEBF0FBECDBFCF91DF911F910F91FF900B
:10302000EF90DF90CF90BF90AF909F908F907F9068
:103030006F905F904F903F902F9008950F931F9344
:103040000CEC16E0C80160E042E00E94C253C801E7
:1030500065E472E00E9402640E94DD0BAB01BC01DA
:10306000C80122E030E00E949464C8016BE472E081
:103070000E940264C80160918A084AE050E00E9400
:103080007963C80166E572E00E94026460918C0871
:10309000C80170E04AE050E00E94E5631F910F9183
:1030A00008950F931F930CEC16E0C80160E040E018
:1030B0000E94C253C8016EE572E00E940264409112
:1030C0003C0750913D0760913E0770913F07C80152
:1030D00022E030E00E949464C80164E672E00E943D
:1030E00002646091E6077091E707C8014AE050E08A
:1030F0000E94E563C80160E045E00E94C253C80138
:103100006DE672E00E94026440915C0950915D0995
:1031100060915E0970915F09C8012AE030E00E9469
:1031200056631F910F910895CF93DF93EC018AEFBF
:1031300091E16EE647E30E94EF538AEF91E160E58B
:1031400073E04FEF2BEB3EE40E94F8538AEF91E1DE
:1031500060918A084AE050E00E94686380915A07B3
:10316000882309F43FC090915B078B8D8917D1F1BB
:103170009B8F8AEF91E164E144E10E94EF538AEF73
:1031800091E167E772E00E9402648AEF91E164E1F5
:1031900044E10E94EF538AEF91E160E573E04FEF65
:1031A0002BEB3EE40E94F85380915B0787FF05C03C
:1031B0008AEF91E163E872E004C08AEF91E169E887
:1031C00072E00E94026480915B0784FF05C08AEF71
:1031D00091E16EE872E004C08AEF91E165E972E086
:1031E0000E940264DF91CF910895CF92DF92EF9217
:1031F0000F93CF93DF936C01DC015B961C92CAEFB7
:10320000D1E1CE0163E043E00E94EF53CE016CECCC
:1032100075E04FEF2BEB3EE40E94F85320915A07E4
:10322000222331F4CE016CE972E00E94026473C083
:1032300080915907833041F1843030F4882351F074
:10324000813009F04BC012C08A3061F18C3009F036
:1032500045C036C000D000D0EDB7FEB73196ADB74F
:10326000BEB71296DC93CE93119745C000D000D024
:10327000EDB7FEB73196ADB7BEB71296DC93CE93DD
:10328000119783EB92E039C000D000D0EDB7FEB7C4
:103290003196ADB7BEB71296DC93CE9311978CEBF7
:1032A00092E02BC000D000D0EDB7FEB73196ADB79D
:1032B000BEB71296DC93CE93119785EC92E01DC0B9
:1032C00000D000D0EDB7FEB73196ADB7BEB71296BD
:1032D000DC93CE9311978EEC92E00FC000D000D01B
:1032E000EDB7FEB731968AEF91E1ADB7BEB7129652
:1032F0009C938E9311978AEA92E09383828324832E
:1033000015820E941154EDB7FEB736960FB6F894A9
:10331000FEBF0FBEEDBF8AEF91E160E573E04FEFB6
:103320002BEB3EE40E94F8538AEF91E167E742E01D
:1033300026E003E3EE24EA940E94D44E80915A07DB
:10334000882381F08AEF91E164E640E12CE00FEF01
:103350000E944F508AEF91E164E640E129E60BE0DC
:103360000E9462508AEF91E162E044E126E001E2CE
:10337000EE24EA940E94D44E8AEF91E16AE044E19F
:1033800026E00E94D44ED60151966D917C915297C1
:103390008AEF91E14BE125E20FEF0E94194FF60110
:1033A000618D728D8AEF91E14FE325E20E94194F02
:1033B000D60153966D917C9154978AEF91E145E641
:1033C00026E20E94194FF601658976898AEF91E11C
:1033D00041E027E30E94194FD60155966D917C91EB
:1033E00056978AEF91E146E727E30E94194FF601CD
:1033F0006789708D8AEF91E14AE027E30E94194FB7
:10340000DF91CF910F91EF90DF90CF900895CF9201
:10341000DF92EF92FF920F931F93CF93DF93EC0114
:103420008A81082F0150073C08F03FC0853628F0FC
:10343000CB80DC80ED80FE8004568B89402F481BBA
:103440008AEF91E16EE00E94C25310E0EDA1FEA16F
:10345000E00FF11F608170E0709561957F4F8827C4
:1034600077FD8095982F0E94FC699B01AC0160E07C
:1034700070E080E291E40E94D66B9B01AC01C70131
:10348000B6010E94736BAB01BC01EFA1F8A5E00F80
:10349000F11F20818AEF91E130E00E9492648AEF6F
:1034A00091E167ED72E00E940264DF91CF911F917C
:1034B0000F91FF90EF90DF90CF9008950F931F939F
:1034C0008C01FC01828164E60E948F6DE90FF11D81
:1034D000E28DF0E0EE0FFF1FEE0FFF1FE45CF84FF0
:1034E00086A997A9A0ADB1ADF80183839483A58384
:1034F000B683C8018CDFF801128281E0848B1F91B2
:103500000F910895EF92FF920F931F93CF93DF9344
:10351000EC017A018B0187E594E12AE030E00E941A
:103520009464C801B7012B813C814D815E810E946A
:1035300094687B018C0120E030E040E050E00E9484
:103540005A6988234CF480E090E0A0E0B0E08B83DF
:103550009C83AD83BE8304C0EB82FC820D831E83FB
:103560002A8130E025563040EDA1FEA1E20FF31F85
:10357000608170E0EFA1F8A5E20FF31F2081621BCC
:103580007109882777FD8095982F0E94FC699B011F
:10359000AC0160E070E080E291E40E94D66B9B0198
:1035A000AC016B817C818D819E810E9461690E944A
:1035B000C96978876F8381E08C8BDF91CF911F91F0
:1035C0000F91FF90EF9008951F93CF93DF938CECB2
:1035D00096E00E94355410E0C0E0DBE0FE01219649
:1035E0006491662379F06A3041F41F5F8CEC96E0B9
:1035F00060E0412F0E94C253F1CF8CEC96E00E9414
:103600003D59ECCFDF91CF911F910895FC0142818C
:10361000242F2150273CA8F48389453630F04556A5
:10362000481B8CEC96E06CE005C0281B8CEC96E007
:103630006CE0422F0E94C2538CEC96E060E20C9446
:103640003D590895FC018281482F4150433660F472
:103650008389481B8CEC96E06CE00E94C2538CEC92
:1036600096E06EE30C943D59482F4556433660F47E
:103670008389481B8CEC96E06CE00E94C2538CEC72
:1036800096E063E20C943D5908951F93CF93DF9326
:103690008CEC96E00E94355410E0C0E0DBE0FE01C7
:1036A00021966491662379F06A3041F41F5F8CECB7
:1036B00096E060E0412F0E94C253F1CF8CEC96E07F
:1036C0000E943D59ECCFDF91CF911F910895FC01ED
:1036D0009281892F8150873C38F5E92FF0E09536AB
:1036E00018F0E556F04001C03197CF0163E070E07B
:1036F0000E949B6D01969C01220F331F280F391FDA
:10370000220F331F2450CF0163E070E00E949B6DB5
:10371000462F4F5F8CEC96E0622F0E94C2538CECD8
:1037200096E060E20C943D590895DC011296EC910C
:103730008E2F8150833608F5F0E03197CF0163E09A
:1037400070E00E949B6D01969C01220F331F280F91
:10375000391F220F331F2450CF0163E070E00E9415
:103760009B6D462F4F5F8CEC96E0622F0E94C253F8
:103770008CEC96E06EE30C943D598E2F8556833683
:1037800010F5F0E0E556F040CF0163E070E00E94F4
:103790009B6D01969C01220F331F280F391F220FAA
:1037A000331F2450CF0163E070E00E949B6D462FD1
:1037B0004F5F8CEC96E0622F0E94C2538CEC96E037
:1037C00063E20C943D5908951F93CF93DF93EB016F
:1037D0008CEC96E00E94355410E0FE012196649135
:1037E000662379F06A3041F41F5F8CEC96E060E06C
:1037F000412F0E94C253F1CF8CEC96E00E943D59BC
:10380000ECCFDF91CF911F910895FC01848190E06E
:10381000895C904082309105C9F0833091052CF489
:10382000009761F0019711F50DC084309105B1F05A
:10383000843091057CF00597C9F414C0CF0166ED82
:103840007BE00FC0CF0166E17CE00BC0CF0166E5F5
:103850007CE007C0CF0169E97CE003C0CF016AEDDD
:103860007CE0B2CFCF0168E27DE0AECF0895FC01ED
:1038700044814150473C60F48581481B8CEC96E0C4
:1038800060E00E94C2538CEC96E060E20C943D59DB
:103890000895FC0144814150433660F48581481B02
:1038A0008CEC96E060E00E94C2538CEC96E06EE3F4
:1038B0000C943D590895FF920F931F93CF93DF937C
:1038C000EC018CEC96E00E943554FF2410E026C0F9
:1038D000141740F0812F841B482F8CEC96E061E098
:1038E0000E94C25390E001C0902FEA81FB81EF0D4E
:1038F000F11DF3946491662381F06A3071F08D813B
:103900001817E8F01630D8F4092F0F5F923160F7DE
:103910008CEC96E00E943D59E7CF1F5F4D81842FCC
:1039200090E00796212F30E0821793078CF6CE01A6
:10393000B0DFDF91CF911F910F91FF900895092F74
:10394000D3CFB9CF08952F923F924F925F926F924B
:103950007F928F929F92AF92BF92CF92DF92EF921F
:10396000FF920F931F93DF93CF93CDB7DEB72897C6
:103970000FB6F894DEBF0FBECDBF3C018CEC96E0D5
:103980000E943554EE2400E02AC0041740F0802F36
:10399000841B482F8CEC96E060E00E94C25390E0BC
:1039A00001C0912FD3015996ED91FC915A97EE0DDC
:1039B000F11DE3946491662389F06A3079F053969F
:1039C0008C91081708F4F3C0192F1F5F9C3008F082
:1039D000EDC08CEC96E00E943D59E3CF0F5FF30100
:1039E0004389842F90E00796202F30E082179307B9
:1039F00064F655241DE2412E1E010894211C311C41
:103A00008CEC96E06EE0452D0E94C253D301539694
:103A10001C915397150D1A3008F0CBC0212F30E0C0
:103A2000F301E20FF31F8185882309F49FC01296EA
:103A30008C91129790E0855690402817390739F4F9
:103A400013966D917D918D919C91169714C0E38D85
:103A5000F0E0EE0FFF1FEE0FFF1FE45CF84F66A9CA
:103A600077A980AD91AD20E030E040E05FE30E94B7
:103A700094680E94376A0E94CE695B016C01812EB6
:103A80009924D3019796ED91FC919897E80DF91D33
:103A90008081833659F59596ED91FC919697E80DC6
:103AA000F91D8081833611F5A114B104C104D1043C
:103AB00031F0BEE4B983EFE4EA8312E006C0F6E435
:103AC000F983FA838FE48B8313E08CEC96E060E259
:103AD0000E943D591150F101E10FF11D8CEC96E06F
:103AE00060810E943D591123A9F755C08AEF91E1E9
:103AF0006EE0452D0E94C253D3019596ED91FC9145
:103B00009697E80DF91D608170E0709561957F4F83
:103B1000882777FD8095982F0E94FC699B01AC0156
:103B200060E070E080E291E40E94D66B7B018C0142
:103B3000C601B5010E94FA69A80197010E94736B42
:103B4000AB01BC01D3019796ED91FC919897E80DDC
:103B5000F91D20818AEF91E130E00E9492648AEFA2
:103B600091E167ED72E00E9402641AC049824A82C4
:103B70004B824C828CEC96E060E20E943D5914E04E
:103B80001150F101E10FF11D8CEC96E060810E9473
:103B90003D591123A9F78CEC96E060E20E943D5953
:103BA0005394B8E05B1609F02BCF03C0912F192F67
:103BB000F8CE28960FB6F894DEBF0FBECDBFCF91DA
:103BC000DF911F910F91FF90EF90DF90CF90BF900A
:103BD000AF909F908F907F906F905F904F903F90AD
:103BE0002F900895FC01662311F41282ACDE80E070
:103BF0000895A9CE0895AF92BF92CF92DF92EF922F
:103C0000FF920F931F93DF93CF9300D00F92CDB706
:103C1000DEB78C01DC0112969C911297892F81509E
:103C2000873C08F0D8C0E92FF0E0953618F11396DC
:103C3000ED90FD900D911C911697E556F040CF0147
:103C400063E070E00E949B6D01969C01220F331F80
:103C5000280F391F220F331F2350CF0163E070E07C
:103C60000E949B6D462F4F5F8CEC96E0622F0E9466
:103C7000C2534CC03197CF0163E070E00E949B6D4E
:103C800001969C01220F331F280F391F220F331F6B
:103C90002350CF0163E070E00E949B6D462F4F5F81
:103CA0008CEC96E0622F0E94C25387E594E1F80104
:103CB00062814AE050E00E947963D80112968C91AB
:103CC00090E0019763E070E00E949B6D0196BC015B
:103CD000660F771F680F791F660F771F635070405C
:103CE00087E594E14AE050E00E94E563F8018281B3
:103CF00090E0019763E070E00E949B6D6F5F7F4FE3
:103D000087E594E14AE050E00E94E563C801B7010D
:103D100020E030E048EC52E40E94736B20E030E099
:103D200040E05FE30E9494680E94376A0E94CE6977
:103D30007B018C01C8012AE030E040E050E00E94A5
:103D4000AE6D605D6983B701C8012AE030E040E0F4
:103D500050E00E94AE6DB22EC32ED42E052F92E0FD
:103D6000E92EF12CEC0EFD1E11E08EE2A82E123091
:103D700011F4AB821BC06B2D7C2D8D2D902F2AE072
:103D800030E040E050E00E94AE6D605DD7016C9382
:103D90006B2D7C2D8D2D902F2AE030E040E050E0FF
:103DA0000E94AE6DB22EC32ED42E052F1F5F089435
:103DB000E11CF11C1430D9F67E010894E11CF11CC1
:103DC0001150F701E10FF11D8CEC96E060810E942B
:103DD0003D591123A9F70F900F900F900F90CF919D
:103DE000DF911F910F91FF90EF90DF90CF90BF90E8
:103DF000AF900895CF93DF93EC018A81282F30E0B4
:103E000025563040C90163E070E00E949B6D61302F
:103E1000710579F062307105B1F0672B89F5C90140
:103E200063E070E00E949B6DFE01E80FF91FE589D9
:103E300013C0C90163E070E00E949B6DFE01E80FB2
:103E4000F91FE08D09C0C90163E070E00E949B6D1D
:103E5000FE01E80FF91FE38DF0E0EE0FFF1FEE0FFC
:103E6000FF1FE45CF84F86A997A9A0ADB1AD8B8385
:103E70009C83AD83BE83CE01BEDE1A8281E08C8737
:103E8000DF91CF9108952F923F924F925F926F9260
:103E90007F928F929F92AF92BF92CF92DF92EF92DA
:103EA000FF920F931F93DF93CF9300D00F92CDB764
:103EB000DEB76C018CEC96E060E040E00E94C253FB
:103EC00000E010E0D6015196ED91FC915297E00F81
:103ED000F11F6491662339F4882483948DE2382E8F
:103EE0000EE2202E0AC08CEC96E00E943D590F5F36
:103EF0001F4F0331110531F7EFCF8CEC96E060E0F6
:103F0000482D0E94C253B1E08B1629F48CEC96E048
:103F10006AED72E00FC0E2E08E1629F48CEC96E0B8
:103F20006DED72E007C0F3E08F1631F48CEC96E093
:103F300060EE72E00E940264260115E6612E712C8B
:103F4000D20119968C91882309F494C0B1E08B16A4
:103F500051F4F601828190E08615970529F1D2018E
:103F60005596EC9129C0B2E08B1669F4F601828176
:103F700090E093012D5F3F4F82179307A9F0D20184
:103F80005896EC9119C0B3E08B1629F060E070E010
:103F900080E090E01CC0F601828190E093012A5FEE
:103FA0003F4F8217930729F463817481858196813D
:103FB0000EC0D2015B96EC91F0E0EE0FFF1FEE0F0A
:103FC000FF1FE45CF84F66A977A980AD91AD20E0B2
:103FD00030E048EC52E40E94736B20E030E040E0B7
:103FE0005FE30E9494680E94376A0E94CE697B0159
:103FF0008C01C8012AE030E040E050E00E94AE6D44
:10400000605D6983B701C8012AE030E040E050E01C
:104010000E94AE6D922EA32EF42EE52E8E010E5F21
:104020001F4FBB24B394B2E0BB1611F42B821BC00C
:10403000692D7A2D8F2D9E2D2AE030E040E050E052
:104040000E94AE6D605DF8016083692D7A2D8F2D21
:104050009E2D2AE030E040E050E00E94AE6D922EAE
:10406000A32EF42EE52EB3940F5F1F4FF4E0BF167E
:10407000D1F604C039823A823B823C828CEC96E0D5
:1040800060E20E943D5914E01150E1E0F0E0EC0FD5
:10409000FD1FE10FF11D8CEC96E060810E943D59FF
:1040A000112391F78CEC96E060E20E943D59089450
:1040B000411C511C0894611C711C88E6681671042F
:1040C00009F03ECF8394A4E08A1609F016CFC6010A
:1040D0002CDB0F900F900F900F90CF91DF911F91DD
:1040E0000F91FF90EF90DF90CF90BF90AF909F9097
:1040F0008F907F906F905F904F903F902F9008959A
:10410000FC01662311F41282BEDE80E00895BBDE5E
:1041100080E00895CF92DF92EF92FF920F931F936A
:10412000DF93CF93CDB7DEB7C951D2400FB6F89425
:10413000DEBF0FBECDBF6C0187E594E163EE72E098
:104140000E94A5649091D70980915A0789839A8328
:104150009AE0E92E91E0F92EEC0EFD1E89819A81FC
:10416000D70119969C938E93189785E117968C9397
:10417000C7016FEF4AEF22E00FE90E946D0B8E013D
:104180000D5F1F4FF701238130E0285F3F4FA701EC
:104190004E5F5F4FC801BA01A9010E94D108D60144
:1041A0001196ED91FC91129780819181D701139620
:1041B0004C9150E0485F5F4FDC0112962D913C918D
:1041C0001397CF01B801F9011995C75EDD4F0FB6FE
:1041D000F894DEBF0FBECDBFCF91DF911F910F913D
:1041E000FF90EF90DF90CF9008958F929F92AF92C3
:1041F000BF92CF92DF92FF920F931F93CF93DF93E3
:10420000F62E4901082F10E06801CC0CDD1C560188
:10421000A00EB11EE501CC0FDD1FCC0FDD1FC85273
:10422000D64F18828B819C818430910509F478C027
:10423000853091055CF48230910509F443C08330E8
:1042400091050CF0ABC09923C4F43CC287309105B2
:1042500009F42FC18830910544F48530910509F4A3
:10426000CAC0069709F02EC2F3C08830910509F440
:1042700066C1099709F026C2D3C18EEF681709F00D
:1042800021C282E090E09C838B8380E191E0089FD3
:10429000D001099FB00D189FB00D1124A85FB54F34
:1042A00013961C92139788E890E0089FF001099FED
:1042B000F00D189FF00D1124EE0FFF1FE65FF54F74
:1042C000608390C180E191E0089FF001099FF00DAB
:1042D000189FF00D1124E85FF54F63831D828081E4
:1042E0008627282F2295207F282730E0522F442729
:1042F000C90163E0880F991F6A95E1F7482759279C
:10430000818190E048275927B4E035952795BA95E3
:10431000E1F7422753275183408384E090E03BC07C
:1043200084E490E0089FF001099FF00D189FF00DC4
:104330001124EE0FFF1FEE0FFF1FE45FF54F6083A8
:1043400080E191E0089FF001099FF00D189FF00DAA
:104350001124E85FF54F80818627282F2295207F42
:10436000282730E0522F4427C90163E0880F991FA6
:104370006A95E1F748275927818190E04827592716
:1043800094E0359527959A95E1F742275327518375
:10439000408383E090E09C838B8394C180E191E033
:1043A000089FF001099FF00D189FF00D1124E85FA0
:1043B000F54F658380818627282F2295207F282727
:1043C00030E0522F4427C901B3E0880F991FBA95F6
:1043D000E1F748275927818190E048275927A4E031
:1043E00035952795AA95E1F74227532751834083B6
:1043F00085E090E0D0CF80E191E0089FF001099F37
:10440000F00D189FF00D1124E85FF54F6683808151
:104410008627282F2295207F282730E0522F4427F7
:10442000C90163E0880F991F6A95E1F7482759276A
:10443000818190E048275927B4E035952795BA95B2
:10444000E1F7422753275183408386E090E0A3CFD2
:1044500080E191E0089FF001099FF00D189FF00D99
:104460001124E85FF54F678380818627282F2295E6
:10447000207F282730E0522F4427C90173E0880F9E
:10448000991F7A95E1F748275927818190E04827BD
:10449000592764E0359527956A95E1F74227532718
:1044A000518340838381882309F446C087E090E0EC
:1044B00072CF6D81F80125E0EE0FFF1F2A95E1F71D
:1044C000EC0DFD1D319693E0EE0FFF1F9A95E1F77D
:1044D000E60FF11DE85FF54FF0826F5F6D8380E1BD
:1044E00091E0089FF001099FF00D189FF00D112435
:1044F000E85FF54F80818F25282F2295207F282780
:1045000030E0522F4427C901B3E0880F991FBA95B4
:10451000E1F748275927818190E048275927A4E0EF
:1045200035952795AA95E1F7422753275183408374
:104530008381681709F0C6C088E090E02CCF80E145
:1045400091E0089FD001099FB00D189FB00D112474
:10455000A85FB54F9C911796EC911797F0E0E4583F
:10456000FA4F80818927482F4295407F482750E0A5
:10457000342F2227CA0173E0880F991F7A95E1F73B
:104580002827392711968C91119790E028273927F1
:1045900064E0559547956A95E1F7242735271196EC
:1045A0003C932E938F2D90E0307082179307F9F093
:1045B000F501EE0FFF1FEE0FFF1FE652F64F808151
:1045C0008F5F8083188281E090E09C838B83EEEF85
:1045D000FE1609F077C082E090E09C838B831396EF
:1045E0001C9213978FEF9FEF8D939C936BC089E084
:1045F00090E09C838B83F80125E0EE0FFF1F2A9546
:10460000E1F7EC0DFD1D319693E0EE0FFF1F9A953B
:10461000E1F78D81E80FF11DE85FF54FF08252C0A0
:10462000262F30E080E191E0089FB001099F700DD6
:10463000189F700D1124685F754FFB01818190E018
:1046400028173907E9F0F501EE0FFF1FEE0FFF1FE6
:10465000E652F64F80818F5F8083188281E090E080
:104660009C838B83FEEFFF1669F582E090E09C83CC
:104670008B83EB011B828FEF9FEF9983888322C08E
:1046800081E0888381E090E09C838B83F801B5E032
:10469000EE0FFF1FBA95E1F7EC0DFD1D3196A3E07B
:1046A000EE0FFF1FAA95E1F78D81E80FF11DE75F7F
:1046B000F54FF082DA01FB0180E191E001900D926B
:1046C0000197E1F7D801AA0FBB1FA00FB11FAA0FD6
:1046D000BB1FAA0FBB1FA852B64F8C91813069F542
:1046E00084E490E0089FF001099FF00D189FF00D01
:1046F0001124EE0FFF1FEE0FFF1FE45FF54F8081C7
:1047000016968C93169718968D919C911997892BD4
:1047100021F41B961C921E921A97F801EE0FFF1FB0
:10472000E00FF11FEE0FFF1FEE0FFF1FE852F64FD5
:1047300080859185019691878087F801EE0FFF1F94
:10474000E00FF11FEE0FFF1FEE0FFF1FDF01A8525A
:10475000B64F16968C9116978F5FE4018E8318964C
:104760008D919C91199799878887E652F64F8081A1
:104770008A871B8610828C91DF91CF911F910F91B8
:10478000FF90DF90CF90BF90AF909F908F90089553
:10479000CF92DF92EF92FF920F931F93DF93CF930D
:1047A000CDB7DEB7CD53D2400FB6F894DEBF0FBE03
:1047B000CDBF6C01FC018281282F30E0295C3040A4
:1047C000C90163E070E00E949B6D6130710581F06A
:1047D00062307105B9F0672B09F08AC0C90163E046
:1047E00070E00E949B6DF601E80FF91F058913C068
:1047F000C90163E070E00E949B6DF601E80FF91FAC
:10480000008D09C0C90163E070E00E949B6DF60154
:10481000E80FF91F038D87E594E165EF72E00E94D0
:10482000A564FE013196CE0140961192E817F90772
:10483000E1F7E02FF0E0EE0FFF1FE051FD4F659133
:1048400074918E010F5F1F4FC8010E94BD08209117
:104850005A073091D709F60183819481A581B681E9
:10486000888B998BAA8BBB8B2C8B3D8B89E08EA37D
:10487000DE015696F80180E101900D928150E1F73A
:10488000DE01AA5CBE4FFE01709687E101900D9299
:104890008150E1F73EE2E32E31E0F32EEC0EFD1EF7
:1048A00087E1F7018783C7016FEF40E027E108EA5E
:1048B0000E946D0B8E01095D1F4FF701238130E0CF
:1048C000285F3F4FA7014E5F5F4FC801BA01A901A2
:1048D0000E94D108F701438150E0485F5F4F84EBAD
:1048E00094E1B8010E948062F601128281E084871F
:1048F000C35CDD4F0FB6F894DEBF0FBECDBFCF91C6
:10490000DF911F910F91FF90EF90DF90CF9008956E
:104910008EE29FE060E270E041E050E00E94B93832
:104920008EE29FE00E940738009721F08EE29FE020
:104930000C9410380895ECDF482F282F30E083FDC9
:1049400002C083E007C0C901969587959695879523
:104950008095817024FF85E025FF82E026FF86E0B8
:1049600047FF84E008951F93CF93DF93EC01E3DFCB
:10497000182F882339F40E94F45B69837A838B8330
:104980009C8341C08D81181791F01D830E94F45BB8
:1049900069837A838B839C830E94F45B6A5E714097
:1049A000804090406E837F83888799872BC00E94C8
:1049B000F45B2E813F8148855985621B730B840B04
:1049C000950B645F714080409040E0F00E94F45B82
:1049D00029813A814B815C81621B730B840B950B9F
:1049E0006A3071058105910568F00E94F45B698366
:1049F0007A838B839C830E94F45B6E837F8388879A
:104A0000998701C010E0812FDF91CF911F91089508
:104A1000CF93DF93EC01A7DF982F8881981711F4CB
:104A200090E001C09883892FDF91CF910895FC0118
:104A30008FEF818380810C94E9640F931F93CF9350
:104A4000DF93EC018A81843058F5E981F0E0EE0FC4
:104A5000FF1FEE0FFF1FE80FF11DEE0FFF1FEE0F00
:104A6000FF1FDF01A05CBB4F0D911C91EE5BFB4F64
:104A70008081918198878F83892B91F088810E9412
:104A8000E9642F81388540E050E08881B8010E94B8
:104A90005D650E94F45B6B837C838D839E8302C083
:104AA000CE01C5DFDF91CF911F910F910895CF9374
:104AB000DF93EC0189818F3FC1F00E94F45B2B8171
:104AC0003C814D815E81621B730B840B950B2F81A2
:104AD000388540E050E0261737074807590728F483
:104AE0008A818F5F8A83CE01A8DFDF91CF910895FD
:104AF000FC018181861720F061831282CF019DCF56
:104B00000895FF920F931F93CF93DF93EC018E854F
:104B10000E94D65D082F88890E94D65DF82E8E856A
:104B20000E94D65D182F88890E94D65D011779F7FB
:104B3000F81669F7002311F420E001C022E080E0BC
:104B4000F11081E0282B922F990F990F8A89982BC9
:104B50002A8B21E030E002C0220F331F9A95E2F742
:104B6000C90186799976892B09F444C0C9018278F4
:104B700091742A853B85892B19F02F5F3F4F02C026
:104B8000215030403B872A874A815B812A853B85BB
:104B90004217530769F4E881F981208131818C81C2
:104BA0009D8128173907CCF480819181019613C02B
:104BB00088279927841B950B82179307D9F4E881DE
:104BC000F981208131818E819F81821793072CF496
:104BD000808191810197918380831B861A86288525
:104BE00039852115310531F0E881F9818081918184
:104BF000F9011995DF91CF911F910F91FF900895C1
:104C000089EF96E07ECFEF92FF920F931F93CF93A1
:104C1000DF93EC01FB01798368835D834C833F83E1
:104C20002E831B830A83F986E8861B861A86808179
:104C300091819C8B8B8B8E850E94D65D892B11F484
:104C400010E001C012E088890E94D65D20E0892B27
:104C500009F021E0212B2A8B88819981892B41F44D
:104C600088859985892B21F0CE010C9699838883BC
:104C7000DF91CF911F910F91FF90EF900895EF92E8
:104C8000FF920F931F93CF93DF93EC01162F0E9497
:104C9000061B143009F449C1153050F4123009F4E0
:104CA00057C0133008F010C1113009F0DDC10AC03F
:104CB000163009F47AC1163008F493C0173009F0A1
:104CC000D3C187C12A81222331F48B89882309F437
:104CD000CBC1815045C0822F8250823680F44B89EF
:104CE00030E0842F90E001962817390729F44150CD
:104CF0004B8BCE010E94A31C8A81815049C0822F18
:104D00008556833608F04DC130E025563040EDA180
:104D1000FEA1E20FF31F608170E0EFA1F8A5E20FA2
:104D2000F31F2081621B7109882777FD8095982FDA
:104D30000E94FC699B01AC0160E070E080E291E4BC
:104D40000E94D66BAC01CE01FA01AB01BF0123C1B9
:104D50002A81222351F48B89823008F085C18F5F2C
:104D60008B8BCE010E94A31C7FC1822F8150893082
:104D700088F44B8930E0842F90E008962817390793
:104D800029F44F5F4B8BCE010E94A31C8A818F5F59
:104D90008A836AC1822F8556833608F002C130E0CB
:104DA00025563040EDA1FEA1E20FF31F608170E0B7
:104DB000EFA1F8A5E20FF31F2081621B710988277C
:104DC00077FD8095982F0E94FC699B01AC0160E003
:104DD00070E080E291E40E94D66BAB01BC01705898
:104DE000D9C09A81992359F49B89FE01E90FF11DDD
:104DF0008185882309F438C19F5F9A8335C1943631
:104E000008F051C0292F30E021503040FE01E20F60
:104E1000F31F8185882309F427C1E38DF0E0EE0FAD
:104E2000FF1FEE0FFF1FE45CF84FE6A8F7A800ADE8
:104E300011ADEB82FC820D831E83EDA1FEA1E20F7A
:104E4000F31F608170E0EFA1F8A5E20FF31F20814E
:104E5000621B7109882777FD8095982F0E94FC6955
:104E60009B01AC0160E070E080E291E40E94D66BAF
:104E70009B01AC01C801B7010E9461690E94C96928
:104E800078876F83BE01695F7F4F89EF96E048EEB8
:104E900053E020E030E00CEF1FEFEE24FF24B3DE00
:104EA0008A818C5975CF892F8556833630F49C5969
:104EB0009A83CE010E94E41ADAC0993C08F4D4C067
:104EC0001A8281E08C8BD3C02A81222311F48FEFC8
:104ED00030C0822F8556833608F063C030E02556F7
:104EE0003040EDA1FEA1E20FF31F608170E0EFA161
:104EF000F8A5E20FF31F2081621B7109882777FD57
:104F00008095982F0E94FC699B01AC0160E070E0E5
:104F100080E291E40E94D66B9B01AC01CA01B90109
:104F200020E030E040E251EC31C02A81222321F41C
:104F300081E00E94651198C0822F8556833688F5DE
:104F400030E025563040EDA1FEA1E20FF31F608155
:104F500070E0EFA1F8A5E20FF31F2081621B710939
:104F6000882777FD8095982F0E94FC699B01AC01F2
:104F700060E070E080E291E40E94D66B9B01AC019E
:104F8000CA01B90120E030E040E251E40E94736BB5
:104F9000AB01BC01CE010E94821ACE010E94071A09
:104FA00063C0293C08F063C05FC08A81882319F47C
:104FB0000E9465115CC0893C20F0CE010E94A31CB8
:104FC00006C0853620F0CE010E945E1A4DC01A82BE
:104FD0004BC02A81822F8556833608F045C030E0C9
:104FE00025563040EDA1FEA1E20FF31F608170E075
:104FF000EFA1F8A5E20FF31F2081621B710988273A
:1050000077FD8095982F0E94FC699B01AC0160E0C0
:1050100070E080E291E40E94D66B7B018C016F818D
:105020007885882777FD8095982F0E94FC69A801D4
:1050300097010E94736B6B837C838D839E83CE016B
:105040000E94071A6F81788587E594E14AE050E075
:105050000E94E5634B815C816D817E8187E594E1EF
:1050600022E030E00E949464CE010E94221B80E086
:10507000DF91CF911F910F91FF90EF900895EF92E4
:10508000FF920F931F93CF93DF93EC01162F0E9493
:10509000671B143009F403C1153048F4123021F1B4
:1050A000133008F0DDC0113009F058C109C01630C6
:1050B00009F4C4C0163088F1173009F04FC1A3C0FD
:1050C0009A81892F8450863010F4935013C0892F11
:1050D00085568336F0F46B817C818D819E812AE038
:1050E00037ED43E25CE3FAC09A81892F8150863024
:1050F00018F49D5F9A8332C1892F8556833648F410
:105100006B817C818D819E812AE037ED43E25CE3F7
:10511000C3C0993C08F025C121C19A81992331F47B
:105120008985882309F41AC181E058C0943608F0B3
:1051300057C0292F30E021503040C90163E070E0B2
:105140000E949B6DFC018E01080F191FD801199652
:105150008C91882309F402C1C90163E070E00E94C8
:105160009B6D6130710551F06230710551F0672B14
:1051700009F0F7C0EC0FFD1F858906C0F801808D8E
:1051800003C0D8015B968C91E82FF0E0EE0FFF1F73
:10519000EE0FFF1FE45CF84F66A977A980AD91ADD3
:1051A0006B837C838D839E8320E030E048EC52E467
:1051B0000E94736B0E94C96978876F83BE01695F23
:1051C0007F4F89EF96E04CE251E020E030E00CEFB9
:1051D0001FEFEE24FF2417DD8A818C598A83BEC01D
:1051E000892F8556833630F49C599A83CE010E94CC
:1051F000451BB7C0993C08F4B1C0CE01C9DACE0155
:105200000E94431FAEC08A818556833608F0A6C02F
:105210006F817885882777FD8095982F0E94FC699B
:1052200020E030E048EC52E40E9461696B837C83AB
:105230008D839E83CE010E94FB1D90C08A818823AE
:1052400019F40E9465118DC0853640F0893C18F034
:10525000CE010E94431FCE010E94FA1E1A827EC018
:105260002A81222311F48FEF1EC0243640F4822FAE
:1052700063E00E948F6D913011F0215020C0822F89
:105280008556833608F068C06B817C818D819E8154
:105290002DEC3CEC4CEC5DE30E94936821C02A812C
:1052A000222321F481E00E94651158C0243648F47D
:1052B000822F63E00E948F6D992319F02F5F2A835C
:1052C0004DC0822F8556833608F046C06B817C81A5
:1052D0008D819E812DEC3CEC4CEC5DE30E9494684A
:1052E0007B018C0120E030E040E050E00E945A69F0
:1052F00088235CF40F2EF0E0EF2EF0E0FF2EF0E0BC
:105300000F2FF0E01F2FF02D14C0C801B70120E0CF
:1053100030E040E450E40E94686B181654F40F2EFD
:10532000F0E0EF2EF0E0FF2EF0E40F2FF0E41F2F5F
:10533000F02DEB82FC820D831E83C801B70120E0B3
:1053400030E048EC52E40E94736B0E94C969788790
:105350006F8381E08C8702C0293C18F4CE010E9443
:10536000951B80E0DF91CF911F910F91FF90EF90FF
:1053700008950F931F93CF93DF93FC01162F042FF3
:10538000E90166877787408B518B862F60E00E940A
:10539000F15C802F60E00E94F15C812F61E00E944F
:1053A000A45D802F61E00E94A45D8FEFCF3FD807FE
:1053B00041F08C2F61E00E94F15C8C2F60E00E9434
:1053C000A45DDF91CF911F910F910895CF92EF923D
:1053D000FF920F938130910509F0B5C06F5F7F4F49
:1053E00009F0BAC08CEC96E060E040E024E108E00F
:1053F00030E5E32E33E0F32ECC240E943F598BEDB1
:1054000096E00E9424358EED96E00E94243581EED0
:1054100096E00E94E31289EF96E062E070E043E0DC
:1054200050E02FEF3FEFA5DF0E94F45B609314077D
:1054300070931507809316079093170787E380935F
:1054400018078FEF8093190781E297E00E94DB3AFB
:1054500085E994E1909398088093970884E595E016
:1054600090936708809366081092100910920F09B4
:1054700088EE93E0909328098093270990932A0956
:105480008093290910923909109238099093510993
:105490008093500990935309809352098CE195E0D1
:1054A000909361098093600982E699E00E947C599B
:1054B00086E395E0909372098093710984E795E003
:1054C000909374098093730986E995E09093760927
:1054D0008093750980EA95E0909378098093770925
:1054E0008AEA95E090937A09809379098EE095E0B5
:1054F00090937D0980937C0980E095E090937F09EB
:1055000080937E0984EE94E09093810980938009D2
:1055100082EF94E0909387098093860988E899E068
:105520000E94DC0F86EA99E00E94FE0F86E495E077
:105530009093D0098093CF098AE79DE09093D20998
:105540008093D10909C0892B39F46F5F7F4F21F413
:1055500081E297E00E94EE3A0F91FF90EF90CF909A
:10556000089580E090E06FEF7FEF30CF81E090E032
:105570006FEF7FEF2BCF2F923F924F925F926F9200
:105580007F928F929F92AF92BF92CF92DF92EF92D3
:10559000FF920F931F93DF93CF93CDB7DEB7CD511B
:1055A000D2400FB6F894DEBF0FBECDBF1C01F8E7A6
:1055B000EF2EF5E0FF2EE0E7CE2EE5E0DE2E7EE0DA
:1055C000A72E71E0B72EAC0EBD1E68E0462E512C02
:1055D0004A0C5B1C12E457E0852E912C8C0E9D1E0C
:1055E00042E0642E712C6A0C7B1C20915A0730918A
:1055F000D709D7014C91F601808191819A838983E3
:105600002B833C834D83F1E0FE83D201FE01319672
:1056100086E001900D928150E1F7D50117961C9319
:10562000C50164E148EC26E004E90E946D0BF50138
:10563000238130E0285F3F4FC401B301A9010E94DC
:10564000D108D1011196ED91FC9112978081918141
:10565000D50113964C9150E0485F5F4FDC011296E4
:105660002D913C911397CF01B401F901199508943C
:10567000E11CF11CE2E0F0E0CE0EDF1EFCE7EF16CD
:10568000F5E0FF0609F0B1CF87E594E165E073E04E
:105690000E94026487E594E160915A074AE050E075
:1056A0000E94686387E594E163E273E00E9402640C
:1056B00087E594E16091D7094AE050E00E94686371
:1056C00087E594E10E94B262C35EDD4F0FB6F894A5
:1056D000DEBF0FBECDBFCF91DF911F910F91FF9025
:1056E000EF90DF90CF90BF90AF909F908F907F9082
:1056F0006F905F904F903F902F900895643061F0CD
:10570000663019F0633071F40AC08BE299E033DF40
:1057100088E197E067E0ECC981E00C9465118FEFB8
:105720000C9465110895FC01848190E0895C90409F
:105730008130910519F0039741F404C08BE299E0A0
:105740000C948A208BE299E016CF08951F93CF9393
:10575000DF93EC01162F0E94371C133009F461C04F
:10576000143030F4113069F0123009F074C026C0E2
:105770001530E9F1153008F459C0163009F06BC046
:105780005CC02C81222341F48D81882309F463C0FD
:1057900081508D831E835FC0822F8250823620F518
:1057A0004D8130E0842F90E001962817390719F4D5
:1057B00041504D831E838C8181501EC02C81222339
:1057C00009F449C0822F8150853070F44D8130E05A
:1057D000842F90E008962817390721F44F5F4D83F6
:1057E00081E08E838C8107C0293CC0F534C08C8158
:1057F000882321F48D818F5F8C832DC0843630F413
:1058000088538C83CE010E94051C28C0893C18F166
:10581000CE0189DF1C8281E08E83CE010E945B1C59
:105820001DC08C818823D1F48FEF04C08C81882324
:10583000A9F481E00E9465110EC08C81882319F4BF
:105840000E9465110BC0893C18F0CE010E945B1CC0
:105850001C8281E08E83CE010E94491C80E0DF9192
:10586000CF911F9108959F92AF92BF92CF92DF92F6
:10587000EF92FF920F931F93DF93CF93CDB7DEB7D5
:10588000CB5BD0400FB6F894DEBF0FBECDBF7B011F
:10589000FB0167816532D8F4633208F01EC26B31B8
:1058A00009F41BC26C3148F4613009F4D4C1613091
:1058B00098F1663109F00BC277C16E3109F41EC14F
:1058C000613209F4D4C06D3109F001C206C26936F3
:1058D00009F403C26A3680F46A3309F4FEC16B33FB
:1058E00020F46A3209F0F3C1F8C1653409F4F5C156
:1058F000603509F0ECC1F1C1683909F4EEC16939CC
:1059000020F4663909F0E3C1E8C16B3F09F4E5C151
:105910006D3F09F0DCC1B9C1DE011196F70138967F
:1059200089E001900D928150E1F78F8180935B07B0
:1059300090915A07F7018581981709F47DC087E592
:1059400094E166E273E00E94A564F701858180938B
:105950005A078D81809358078E818093590787E578
:1059600094E16DE373E00E940264809158078230F5
:10597000B1F0833028F4882341F08130F9F40AC073
:10598000843091F08F30D1F414C087E594E168E45D
:1059900073E018C087E594E160E573E013C087E524
:1059A00094E16BE573E00EC087E594E165E673E092
:1059B00009C087E594E160E773E004C087E594E1FE
:1059C00066E873E00E94A56487E594E16EE873E001
:1059D0000E940264809159078330B1F0843028F42A
:1059E000882341F08130F9F40AC08A3091F08C307C
:1059F000D1F414C087E594E168E473E018C087E54A
:105A000094E16FE973E013C087E594E167EA73E01E
:105A10000EC087E594E166EB73E009C087E594E189
:105A200063EC73E004C087E594E166E873E00E94EC
:105A3000A56480E00E945710F701858180935A0782
:105A400086818093D70980915C0990915D09A0912E
:105A50005E09B0915F090196A11DB11D80935C099B
:105A600090935D09A0935E09B0935F0936C1DE0192
:105A7000D296F70138968CE101900D928150E1F7B2
:105A80006EA97FA988AD99AD0E94FC6920E836E92E
:105A900048E15BE40E94616960935C0770935D0775
:105AA00080935E0790935F076AAD7BAD8CAD9DAD33
:105AB0000E94FC6920E836E948E15BE40E946169E4
:105AC0006093600770936107809362079093630708
:105AD000FE01FE9660817181828193810E94FC6942
